{
	"fund_shares.sol": {
		"WETHVault": {
			"abi": [
				{
					"inputs": [
						{
							"internalType": "address",
							"name": "_weth",
							"type": "address"
						},
						{
							"internalType": "address",
							"name": "_fundPortfolio",
							"type": "address"
						},
						{
							"internalType": "string",
							"name": "_name",
							"type": "string"
						},
						{
							"internalType": "string",
							"name": "_symbol",
							"type": "string"
						}
					],
					"stateMutability": "nonpayable",
					"type": "constructor"
				},
				{
					"anonymous": false,
					"inputs": [
						{
							"indexed": true,
							"internalType": "address",
							"name": "owner",
							"type": "address"
						},
						{
							"indexed": true,
							"internalType": "address",
							"name": "spender",
							"type": "address"
						},
						{
							"indexed": false,
							"internalType": "uint256",
							"name": "value",
							"type": "uint256"
						}
					],
					"name": "Approval",
					"type": "event"
				},
				{
					"anonymous": false,
					"inputs": [
						{
							"indexed": true,
							"internalType": "address",
							"name": "from",
							"type": "address"
						},
						{
							"indexed": true,
							"internalType": "address",
							"name": "to",
							"type": "address"
						},
						{
							"indexed": false,
							"internalType": "uint256",
							"name": "value",
							"type": "uint256"
						}
					],
					"name": "Transfer",
					"type": "event"
				},
				{
					"inputs": [
						{
							"internalType": "address",
							"name": "owner",
							"type": "address"
						},
						{
							"internalType": "address",
							"name": "spender",
							"type": "address"
						}
					],
					"name": "allowance",
					"outputs": [
						{
							"internalType": "uint256",
							"name": "",
							"type": "uint256"
						}
					],
					"stateMutability": "view",
					"type": "function"
				},
				{
					"inputs": [
						{
							"internalType": "address",
							"name": "spender",
							"type": "address"
						},
						{
							"internalType": "uint256",
							"name": "amount",
							"type": "uint256"
						}
					],
					"name": "approve",
					"outputs": [
						{
							"internalType": "bool",
							"name": "",
							"type": "bool"
						}
					],
					"stateMutability": "nonpayable",
					"type": "function"
				},
				{
					"inputs": [
						{
							"internalType": "address",
							"name": "account",
							"type": "address"
						}
					],
					"name": "balanceOf",
					"outputs": [
						{
							"internalType": "uint256",
							"name": "",
							"type": "uint256"
						}
					],
					"stateMutability": "view",
					"type": "function"
				},
				{
					"inputs": [],
					"name": "decimals",
					"outputs": [
						{
							"internalType": "uint8",
							"name": "",
							"type": "uint8"
						}
					],
					"stateMutability": "view",
					"type": "function"
				},
				{
					"inputs": [
						{
							"internalType": "address",
							"name": "spender",
							"type": "address"
						},
						{
							"internalType": "uint256",
							"name": "subtractedValue",
							"type": "uint256"
						}
					],
					"name": "decreaseAllowance",
					"outputs": [
						{
							"internalType": "bool",
							"name": "",
							"type": "bool"
						}
					],
					"stateMutability": "nonpayable",
					"type": "function"
				},
				{
					"inputs": [
						{
							"internalType": "uint256",
							"name": "amount",
							"type": "uint256"
						}
					],
					"name": "deposit",
					"outputs": [],
					"stateMutability": "nonpayable",
					"type": "function"
				},
				{
					"inputs": [],
					"name": "fundPortfolio",
					"outputs": [
						{
							"internalType": "address",
							"name": "",
							"type": "address"
						}
					],
					"stateMutability": "view",
					"type": "function"
				},
				{
					"inputs": [
						{
							"internalType": "address",
							"name": "spender",
							"type": "address"
						},
						{
							"internalType": "uint256",
							"name": "addedValue",
							"type": "uint256"
						}
					],
					"name": "increaseAllowance",
					"outputs": [
						{
							"internalType": "bool",
							"name": "",
							"type": "bool"
						}
					],
					"stateMutability": "nonpayable",
					"type": "function"
				},
				{
					"inputs": [],
					"name": "name",
					"outputs": [
						{
							"internalType": "string",
							"name": "",
							"type": "string"
						}
					],
					"stateMutability": "view",
					"type": "function"
				},
				{
					"inputs": [],
					"name": "pricePerShare",
					"outputs": [
						{
							"internalType": "uint256",
							"name": "",
							"type": "uint256"
						}
					],
					"stateMutability": "view",
					"type": "function"
				},
				{
					"inputs": [],
					"name": "symbol",
					"outputs": [
						{
							"internalType": "string",
							"name": "",
							"type": "string"
						}
					],
					"stateMutability": "view",
					"type": "function"
				},
				{
					"inputs": [],
					"name": "totalSupply",
					"outputs": [
						{
							"internalType": "uint256",
							"name": "",
							"type": "uint256"
						}
					],
					"stateMutability": "view",
					"type": "function"
				},
				{
					"inputs": [
						{
							"internalType": "address",
							"name": "to",
							"type": "address"
						},
						{
							"internalType": "uint256",
							"name": "amount",
							"type": "uint256"
						}
					],
					"name": "transfer",
					"outputs": [
						{
							"internalType": "bool",
							"name": "",
							"type": "bool"
						}
					],
					"stateMutability": "nonpayable",
					"type": "function"
				},
				{
					"inputs": [
						{
							"internalType": "address",
							"name": "from",
							"type": "address"
						},
						{
							"internalType": "address",
							"name": "to",
							"type": "address"
						},
						{
							"internalType": "uint256",
							"name": "amount",
							"type": "uint256"
						}
					],
					"name": "transferFrom",
					"outputs": [
						{
							"internalType": "bool",
							"name": "",
							"type": "bool"
						}
					],
					"stateMutability": "nonpayable",
					"type": "function"
				},
				{
					"inputs": [],
					"name": "weth",
					"outputs": [
						{
							"internalType": "contract IERC20",
							"name": "",
							"type": "address"
						}
					],
					"stateMutability": "view",
					"type": "function"
				}
			],
			"devdoc": {
				"details": "This contract allows users to deposit WETH, mint proportional fund shares,      and send WETH to a designated fund portfolio.",
				"events": {
					"Approval(address,address,uint256)": {
						"details": "Emitted when the allowance of a `spender` for an `owner` is set by a call to {approve}. `value` is the new allowance."
					},
					"Transfer(address,address,uint256)": {
						"details": "Emitted when `value` tokens are moved from one account (`from`) to another (`to`). Note that `value` may be zero."
					}
				},
				"kind": "dev",
				"methods": {
					"allowance(address,address)": {
						"details": "See {IERC20-allowance}."
					},
					"approve(address,uint256)": {
						"details": "See {IERC20-approve}. NOTE: If `amount` is the maximum `uint256`, the allowance is not updated on `transferFrom`. This is semantically equivalent to an infinite approval. Requirements: - `spender` cannot be the zero address."
					},
					"balanceOf(address)": {
						"details": "See {IERC20-balanceOf}."
					},
					"decimals()": {
						"details": "Returns the number of decimals used to get its user representation. For example, if `decimals` equals `2`, a balance of `505` tokens should be displayed to a user as `5.05` (`505 / 10 ** 2`). Tokens usually opt for a value of 18, imitating the relationship between Ether and Wei. This is the default value returned by this function, unless it's overridden. NOTE: This information is only used for _display_ purposes: it in no way affects any of the arithmetic of the contract, including {IERC20-balanceOf} and {IERC20-transfer}."
					},
					"decreaseAllowance(address,uint256)": {
						"details": "Atomically decreases the allowance granted to `spender` by the caller. This is an alternative to {approve} that can be used as a mitigation for problems described in {IERC20-approve}. Emits an {Approval} event indicating the updated allowance. Requirements: - `spender` cannot be the zero address. - `spender` must have allowance for the caller of at least `subtractedValue`."
					},
					"deposit(uint256)": {
						"details": "Deposit WETH, mint proportional shares, and send WETH to the fund portfolio.",
						"params": {
							"amount": "The amount of WETH to deposit."
						}
					},
					"increaseAllowance(address,uint256)": {
						"details": "Atomically increases the allowance granted to `spender` by the caller. This is an alternative to {approve} that can be used as a mitigation for problems described in {IERC20-approve}. Emits an {Approval} event indicating the updated allowance. Requirements: - `spender` cannot be the zero address."
					},
					"name()": {
						"details": "Returns the name of the token."
					},
					"pricePerShare()": {
						"details": "Returns the value of a single share in terms of WETH."
					},
					"symbol()": {
						"details": "Returns the symbol of the token, usually a shorter version of the name."
					},
					"totalSupply()": {
						"details": "See {IERC20-totalSupply}."
					},
					"transfer(address,uint256)": {
						"details": "See {IERC20-transfer}. Requirements: - `to` cannot be the zero address. - the caller must have a balance of at least `amount`."
					},
					"transferFrom(address,address,uint256)": {
						"details": "See {IERC20-transferFrom}. Emits an {Approval} event indicating the updated allowance. This is not required by the EIP. See the note at the beginning of {ERC20}. NOTE: Does not update the allowance if the current allowance is the maximum `uint256`. Requirements: - `from` and `to` cannot be the zero address. - `from` must have a balance of at least `amount`. - the caller must have allowance for ``from``'s tokens of at least `amount`."
					}
				},
				"title": "WETH ERC-4626 Vault",
				"version": 1
			},
			"evm": {
				"assembly": "    /* \"fund_shares.sol\":651:2744  contract WETHVault is ERC20, ReentrancyGuard {... */\n  mstore(0x40, 0xc0)\n    /* \"fund_shares.sol\":820:1229  constructor(... */\n  callvalue\n  dup1\n  iszero\n  tag_1\n  jumpi\n  revert(0x00, 0x00)\ntag_1:\n  pop\n  mload(0x40)\n  sub(codesize, bytecodeSize)\n  dup1\n  bytecodeSize\n  dup4\n  codecopy\n  dup2\n  add\n  0x40\n  dup2\n  swap1\n  mstore\n  tag_2\n  swap2\n  tag_3\n  jump\t// in\ntag_2:\n    /* \"fund_shares.sol\":964:969  _name */\n  dup2\n    /* \"fund_shares.sol\":971:978  _symbol */\n  dup2\n    /* \"https://github.com/OpenZeppelin/openzeppelin-contracts/blob/v4.9.3/contracts/token/ERC20/ERC20.sol\":2046:2051  _name */\n  0x03\n    /* \"https://github.com/OpenZeppelin/openzeppelin-contracts/blob/v4.9.3/contracts/token/ERC20/ERC20.sol\":2046:2059  _name = name_ */\n  tag_8\n    /* \"fund_shares.sol\":964:969  _name */\n  dup4\n    /* \"https://github.com/OpenZeppelin/openzeppelin-contracts/blob/v4.9.3/contracts/token/ERC20/ERC20.sol\":2046:2051  _name */\n  dup3\n    /* \"https://github.com/OpenZeppelin/openzeppelin-contracts/blob/v4.9.3/contracts/token/ERC20/ERC20.sol\":2046:2059  _name = name_ */\n  tag_9\n  jump\t// in\ntag_8:\n  pop\n    /* \"https://github.com/OpenZeppelin/openzeppelin-contracts/blob/v4.9.3/contracts/token/ERC20/ERC20.sol\":2069:2076  _symbol */\n  0x04\n    /* \"https://github.com/OpenZeppelin/openzeppelin-contracts/blob/v4.9.3/contracts/token/ERC20/ERC20.sol\":2069:2086  _symbol = symbol_ */\n  tag_10\n    /* \"https://github.com/OpenZeppelin/openzeppelin-contracts/blob/v4.9.3/contracts/token/ERC20/ERC20.sol\":2079:2086  symbol_ */\n  dup3\n    /* \"https://github.com/OpenZeppelin/openzeppelin-contracts/blob/v4.9.3/contracts/token/ERC20/ERC20.sol\":2069:2076  _symbol */\n  dup3\n    /* \"https://github.com/OpenZeppelin/openzeppelin-contracts/blob/v4.9.3/contracts/token/ERC20/ERC20.sol\":2069:2086  _symbol = symbol_ */\n  tag_9\n  jump\t// in\ntag_10:\n  pop\n  pop\n    /* \"https://github.com/OpenZeppelin/openzeppelin-contracts/blob/v4.9.3/contracts/security/ReentrancyGuard.sol\":1716:1717  1 */\n  0x01\n    /* \"https://github.com/OpenZeppelin/openzeppelin-contracts/blob/v4.9.3/contracts/security/ReentrancyGuard.sol\":1821:1828  _status */\n  0x05\n    /* \"https://github.com/OpenZeppelin/openzeppelin-contracts/blob/v4.9.3/contracts/security/ReentrancyGuard.sol\":1821:1843  _status = _NOT_ENTERED */\n  sstore\n  pop\n  sub(shl(0xa0, 0x01), 0x01)\n    /* \"fund_shares.sol\":999:1018  _weth != address(0) */\n  dup5\n  and\n    /* \"fund_shares.sol\":991:1050  require(_weth != address(0), \"WETH address cannot be zero\") */\n  tag_13\n  jumpi\n  mload(0x40)\n  shl(0xe5, 0x461bcd)\n  dup2\n  mstore\n    /* \"#utility.yul\":4500:4502   */\n  0x20\n    /* \"fund_shares.sol\":991:1050  require(_weth != address(0), \"WETH address cannot be zero\") */\n  0x04\n  dup3\n  add\n    /* \"#utility.yul\":4482:4503   */\n  mstore\n    /* \"#utility.yul\":4539:4541   */\n  0x1b\n    /* \"#utility.yul\":4519:4537   */\n  0x24\n  dup3\n  add\n    /* \"#utility.yul\":4512:4542   */\n  mstore\n    /* \"#utility.yul\":4578:4607   */\n  0x5745544820616464726573732063616e6e6f74206265207a65726f0000000000\n    /* \"#utility.yul\":4558:4576   */\n  0x44\n  dup3\n  add\n    /* \"#utility.yul\":4551:4608   */\n  mstore\n    /* \"#utility.yul\":4625:4643   */\n  0x64\n  add\n    /* \"fund_shares.sol\":991:1050  require(_weth != address(0), \"WETH address cannot be zero\") */\ntag_14:\n  mload(0x40)\n  dup1\n  swap2\n  sub\n  swap1\n  revert\ntag_13:\n  sub(shl(0xa0, 0x01), 0x01)\n    /* \"fund_shares.sol\":1069:1097  _fundPortfolio != address(0) */\n  dup4\n  and\n    /* \"fund_shares.sol\":1061:1139  require(_fundPortfolio != address(0), \"Fund portfolio address cannot be zero\") */\n  tag_16\n  jumpi\n  mload(0x40)\n  shl(0xe5, 0x461bcd)\n  dup2\n  mstore\n    /* \"#utility.yul\":4856:4858   */\n  0x20\n    /* \"fund_shares.sol\":1061:1139  require(_fundPortfolio != address(0), \"Fund portfolio address cannot be zero\") */\n  0x04\n  dup3\n  add\n    /* \"#utility.yul\":4838:4859   */\n  mstore\n    /* \"#utility.yul\":4895:4897   */\n  0x25\n    /* \"#utility.yul\":4875:4893   */\n  0x24\n  dup3\n  add\n    /* \"#utility.yul\":4868:4898   */\n  mstore\n    /* \"#utility.yul\":4934:4968   */\n  0x46756e6420706f7274666f6c696f20616464726573732063616e6e6f74206265\n    /* \"#utility.yul\":4914:4932   */\n  0x44\n  dup3\n  add\n    /* \"#utility.yul\":4907:4969   */\n  mstore\n  shl(0xd8, 0x207a65726f)\n    /* \"#utility.yul\":4985:5003   */\n  0x64\n  dup3\n  add\n    /* \"#utility.yul\":4978:5013   */\n  mstore\n    /* \"#utility.yul\":5030:5049   */\n  0x84\n  add\n    /* \"fund_shares.sol\":1061:1139  require(_fundPortfolio != address(0), \"Fund portfolio address cannot be zero\") */\n  tag_14\n    /* \"#utility.yul\":4654:5055   */\n  jump\n    /* \"fund_shares.sol\":1061:1139  require(_fundPortfolio != address(0), \"Fund portfolio address cannot be zero\") */\ntag_16:\n  pop\n  pop\n  sub(shl(0xa0, 0x01), 0x01)\n    /* \"fund_shares.sol\":1160:1180  weth = IERC20(_weth) */\n  swap2\n  dup3\n  and\n  0x80\n  mstore\n    /* \"fund_shares.sol\":1191:1221  fundPortfolio = _fundPortfolio */\n  and\n  0xa0\n  mstore\n    /* \"fund_shares.sol\":651:2744  contract WETHVault is ERC20, ReentrancyGuard {... */\n  jump(tag_27)\n    /* \"#utility.yul\":14:191   */\ntag_20:\n    /* \"#utility.yul\":93:106   */\n  dup1\n  mload\n  sub(shl(0xa0, 0x01), 0x01)\n    /* \"#utility.yul\":135:166   */\n  dup2\n  and\n    /* \"#utility.yul\":125:167   */\n  dup2\n  eq\n    /* \"#utility.yul\":115:185   */\n  tag_29\n  jumpi\n    /* \"#utility.yul\":181:182   */\n  0x00\n    /* \"#utility.yul\":178:179   */\n  0x00\n    /* \"#utility.yul\":171:183   */\n  revert\n    /* \"#utility.yul\":115:185   */\ntag_29:\n    /* \"#utility.yul\":14:191   */\n  swap2\n  swap1\n  pop\n  jump\t// out\n    /* \"#utility.yul\":196:323   */\ntag_21:\n    /* \"#utility.yul\":257:267   */\n  0x4e487b71\n    /* \"#utility.yul\":252:255   */\n  0xe0\n    /* \"#utility.yul\":248:268   */\n  shl\n    /* \"#utility.yul\":245:246   */\n  0x00\n    /* \"#utility.yul\":238:269   */\n  mstore\n    /* \"#utility.yul\":288:292   */\n  0x41\n    /* \"#utility.yul\":285:286   */\n  0x04\n    /* \"#utility.yul\":278:293   */\n  mstore\n    /* \"#utility.yul\":312:316   */\n  0x24\n    /* \"#utility.yul\":309:310   */\n  0x00\n    /* \"#utility.yul\":302:317   */\n  revert\n    /* \"#utility.yul\":328:1051   */\ntag_22:\n    /* \"#utility.yul\":382:387   */\n  0x00\n    /* \"#utility.yul\":435:438   */\n  dup3\n    /* \"#utility.yul\":428:432   */\n  0x1f\n    /* \"#utility.yul\":420:426   */\n  dup4\n    /* \"#utility.yul\":416:433   */\n  add\n    /* \"#utility.yul\":412:439   */\n  slt\n    /* \"#utility.yul\":402:457   */\n  tag_32\n  jumpi\n    /* \"#utility.yul\":453:454   */\n  0x00\n    /* \"#utility.yul\":450:451   */\n  0x00\n    /* \"#utility.yul\":443:455   */\n  revert\n    /* \"#utility.yul\":402:457   */\ntag_32:\n    /* \"#utility.yul\":480:493   */\n  dup2\n  mload\n  sub(shl(0x40, 0x01), 0x01)\n    /* \"#utility.yul\":505:535   */\n  dup2\n  gt\n    /* \"#utility.yul\":502:558   */\n  iszero\n  tag_34\n  jumpi\n    /* \"#utility.yul\":538:556   */\n  tag_34\n  tag_21\n  jump\t// in\ntag_34:\n    /* \"#utility.yul\":587:589   */\n  0x40\n    /* \"#utility.yul\":581:590   */\n  mload\n    /* \"#utility.yul\":679:681   */\n  0x1f\n    /* \"#utility.yul\":641:658   */\n  dup3\n  add\n  not(0x1f)\n    /* \"#utility.yul\":637:668   */\n  swap1\n  dup2\n  and\n    /* \"#utility.yul\":670:672   */\n  0x3f\n    /* \"#utility.yul\":633:673   */\n  add\n    /* \"#utility.yul\":629:683   */\n  and\n    /* \"#utility.yul\":617:684   */\n  dup2\n  add\n  sub(shl(0x40, 0x01), 0x01)\n    /* \"#utility.yul\":699:733   */\n  dup2\n  gt\n    /* \"#utility.yul\":735:757   */\n  dup3\n  dup3\n  lt\n    /* \"#utility.yul\":696:758   */\n  or\n    /* \"#utility.yul\":693:781   */\n  iszero\n  tag_36\n  jumpi\n    /* \"#utility.yul\":761:779   */\n  tag_36\n  tag_21\n  jump\t// in\ntag_36:\n    /* \"#utility.yul\":797:799   */\n  0x40\n    /* \"#utility.yul\":790:812   */\n  mstore\n    /* \"#utility.yul\":821:843   */\n  dup2\n  dup2\n  mstore\n    /* \"#utility.yul\":862:881   */\n  dup4\n  dup3\n  add\n    /* \"#utility.yul\":883:887   */\n  0x20\n    /* \"#utility.yul\":858:888   */\n  add\n    /* \"#utility.yul\":855:894   */\n  dup6\n  lt\n    /* \"#utility.yul\":852:911   */\n  iszero\n  tag_37\n  jumpi\n    /* \"#utility.yul\":907:908   */\n  0x00\n    /* \"#utility.yul\":904:905   */\n  0x00\n    /* \"#utility.yul\":897:909   */\n  revert\n    /* \"#utility.yul\":852:911   */\ntag_37:\n    /* \"#utility.yul\":964:970   */\n  dup2\n    /* \"#utility.yul\":957:961   */\n  0x20\n    /* \"#utility.yul\":949:955   */\n  dup6\n    /* \"#utility.yul\":945:962   */\n  add\n    /* \"#utility.yul\":938:942   */\n  0x20\n    /* \"#utility.yul\":930:936   */\n  dup4\n    /* \"#utility.yul\":926:943   */\n  add\n    /* \"#utility.yul\":920:971   */\n  mcopy\n    /* \"#utility.yul\":1019:1020   */\n  0x00\n    /* \"#utility.yul\":991:1010   */\n  swap2\n  dup2\n  add\n    /* \"#utility.yul\":1012:1016   */\n  0x20\n    /* \"#utility.yul\":987:1017   */\n  add\n    /* \"#utility.yul\":980:1021   */\n  swap2\n  swap1\n  swap2\n  mstore\n    /* \"#utility.yul\":995:1001   */\n  swap4\n    /* \"#utility.yul\":328:1051   */\n  swap3\n  pop\n  pop\n  pop\n  jump\t// out\n    /* \"#utility.yul\":1056:1784   */\ntag_3:\n    /* \"#utility.yul\":1173:1179   */\n  0x00\n    /* \"#utility.yul\":1181:1187   */\n  0x00\n    /* \"#utility.yul\":1189:1195   */\n  0x00\n    /* \"#utility.yul\":1197:1203   */\n  0x00\n    /* \"#utility.yul\":1250:1253   */\n  0x80\n    /* \"#utility.yul\":1238:1247   */\n  dup6\n    /* \"#utility.yul\":1229:1236   */\n  dup8\n    /* \"#utility.yul\":1225:1248   */\n  sub\n    /* \"#utility.yul\":1221:1254   */\n  slt\n    /* \"#utility.yul\":1218:1271   */\n  iszero\n  tag_39\n  jumpi\n    /* \"#utility.yul\":1267:1268   */\n  0x00\n    /* \"#utility.yul\":1264:1265   */\n  0x00\n    /* \"#utility.yul\":1257:1269   */\n  revert\n    /* \"#utility.yul\":1218:1271   */\ntag_39:\n    /* \"#utility.yul\":1290:1330   */\n  tag_40\n    /* \"#utility.yul\":1320:1329   */\n  dup6\n    /* \"#utility.yul\":1290:1330   */\n  tag_20\n  jump\t// in\ntag_40:\n    /* \"#utility.yul\":1280:1330   */\n  swap4\n  pop\n    /* \"#utility.yul\":1349:1398   */\n  tag_41\n    /* \"#utility.yul\":1394:1396   */\n  0x20\n    /* \"#utility.yul\":1383:1392   */\n  dup7\n    /* \"#utility.yul\":1379:1397   */\n  add\n    /* \"#utility.yul\":1349:1398   */\n  tag_20\n  jump\t// in\ntag_41:\n    /* \"#utility.yul\":1442:1444   */\n  0x40\n    /* \"#utility.yul\":1427:1445   */\n  dup7\n  add\n    /* \"#utility.yul\":1421:1446   */\n  mload\n    /* \"#utility.yul\":1339:1398   */\n  swap1\n  swap4\n  pop\n  sub(shl(0x40, 0x01), 0x01)\n    /* \"#utility.yul\":1458:1488   */\n  dup2\n  gt\n    /* \"#utility.yul\":1455:1505   */\n  iszero\n  tag_42\n  jumpi\n    /* \"#utility.yul\":1501:1502   */\n  0x00\n    /* \"#utility.yul\":1498:1499   */\n  0x00\n    /* \"#utility.yul\":1491:1503   */\n  revert\n    /* \"#utility.yul\":1455:1505   */\ntag_42:\n    /* \"#utility.yul\":1524:1585   */\n  tag_43\n    /* \"#utility.yul\":1577:1584   */\n  dup8\n    /* \"#utility.yul\":1568:1574   */\n  dup3\n    /* \"#utility.yul\":1557:1566   */\n  dup9\n    /* \"#utility.yul\":1553:1575   */\n  add\n    /* \"#utility.yul\":1524:1585   */\n  tag_22\n  jump\t// in\ntag_43:\n    /* \"#utility.yul\":1631:1633   */\n  0x60\n    /* \"#utility.yul\":1616:1634   */\n  dup8\n  add\n    /* \"#utility.yul\":1610:1635   */\n  mload\n    /* \"#utility.yul\":1514:1585   */\n  swap1\n  swap4\n  pop\n    /* \"#utility.yul\":1610:1635   */\n  swap1\n  pop\n  sub(shl(0x40, 0x01), 0x01)\n    /* \"#utility.yul\":1647:1679   */\n  dup2\n  gt\n    /* \"#utility.yul\":1644:1696   */\n  iszero\n  tag_44\n  jumpi\n    /* \"#utility.yul\":1692:1693   */\n  0x00\n    /* \"#utility.yul\":1689:1690   */\n  0x00\n    /* \"#utility.yul\":1682:1694   */\n  revert\n    /* \"#utility.yul\":1644:1696   */\ntag_44:\n    /* \"#utility.yul\":1715:1778   */\n  tag_45\n    /* \"#utility.yul\":1770:1777   */\n  dup8\n    /* \"#utility.yul\":1759:1767   */\n  dup3\n    /* \"#utility.yul\":1748:1757   */\n  dup9\n    /* \"#utility.yul\":1744:1768   */\n  add\n    /* \"#utility.yul\":1715:1778   */\n  tag_22\n  jump\t// in\ntag_45:\n    /* \"#utility.yul\":1705:1778   */\n  swap2\n  pop\n  pop\n    /* \"#utility.yul\":1056:1784   */\n  swap3\n  swap6\n  swap2\n  swap5\n  pop\n  swap3\n  pop\n  jump\t// out\n    /* \"#utility.yul\":1789:2169   */\ntag_23:\n    /* \"#utility.yul\":1868:1869   */\n  0x01\n    /* \"#utility.yul\":1864:1876   */\n  dup2\n  dup2\n  shr\n  swap1\n    /* \"#utility.yul\":1911:1923   */\n  dup3\n  and\n  dup1\n    /* \"#utility.yul\":1932:1993   */\n  tag_47\n  jumpi\n    /* \"#utility.yul\":1986:1990   */\n  0x7f\n    /* \"#utility.yul\":1978:1984   */\n  dup3\n    /* \"#utility.yul\":1974:1991   */\n  and\n    /* \"#utility.yul\":1964:1991   */\n  swap2\n  pop\n    /* \"#utility.yul\":1932:1993   */\ntag_47:\n    /* \"#utility.yul\":2039:2041   */\n  0x20\n    /* \"#utility.yul\":2031:2037   */\n  dup3\n    /* \"#utility.yul\":2028:2042   */\n  lt\n    /* \"#utility.yul\":2008:2026   */\n  dup2\n    /* \"#utility.yul\":2005:2043   */\n  sub\n    /* \"#utility.yul\":2002:2163   */\n  tag_48\n  jumpi\n    /* \"#utility.yul\":2085:2095   */\n  0x4e487b71\n    /* \"#utility.yul\":2080:2083   */\n  0xe0\n    /* \"#utility.yul\":2076:2096   */\n  shl\n    /* \"#utility.yul\":2073:2074   */\n  0x00\n    /* \"#utility.yul\":2066:2097   */\n  mstore\n    /* \"#utility.yul\":2120:2124   */\n  0x22\n    /* \"#utility.yul\":2117:2118   */\n  0x04\n    /* \"#utility.yul\":2110:2125   */\n  mstore\n    /* \"#utility.yul\":2148:2152   */\n  0x24\n    /* \"#utility.yul\":2145:2146   */\n  0x00\n    /* \"#utility.yul\":2138:2153   */\n  revert\n    /* \"#utility.yul\":2002:2163   */\ntag_48:\n  pop\n    /* \"#utility.yul\":1789:2169   */\n  swap2\n  swap1\n  pop\n  jump\t// out\n    /* \"#utility.yul\":2300:2818   */\ntag_25:\n    /* \"#utility.yul\":2402:2404   */\n  0x1f\n    /* \"#utility.yul\":2397:2400   */\n  dup3\n    /* \"#utility.yul\":2394:2405   */\n  gt\n    /* \"#utility.yul\":2391:2812   */\n  iszero\n  tag_51\n  jumpi\n    /* \"#utility.yul\":2438:2443   */\n  dup1\n    /* \"#utility.yul\":2435:2436   */\n  0x00\n    /* \"#utility.yul\":2428:2444   */\n  mstore\n    /* \"#utility.yul\":2482:2486   */\n  0x20\n    /* \"#utility.yul\":2479:2480   */\n  0x00\n    /* \"#utility.yul\":2469:2487   */\n  keccak256\n    /* \"#utility.yul\":2552:2554   */\n  0x1f\n    /* \"#utility.yul\":2540:2550   */\n  dup5\n    /* \"#utility.yul\":2536:2555   */\n  add\n    /* \"#utility.yul\":2533:2534   */\n  0x05\n    /* \"#utility.yul\":2529:2556   */\n  shr\n    /* \"#utility.yul\":2523:2527   */\n  dup2\n    /* \"#utility.yul\":2519:2557   */\n  add\n    /* \"#utility.yul\":2588:2592   */\n  0x20\n    /* \"#utility.yul\":2576:2586   */\n  dup6\n    /* \"#utility.yul\":2573:2593   */\n  lt\n    /* \"#utility.yul\":2570:2617   */\n  iszero\n  tag_52\n  jumpi\n  pop\n    /* \"#utility.yul\":2611:2615   */\n  dup1\n    /* \"#utility.yul\":2570:2617   */\ntag_52:\n    /* \"#utility.yul\":2666:2668   */\n  0x1f\n    /* \"#utility.yul\":2661:2664   */\n  dup5\n    /* \"#utility.yul\":2657:2669   */\n  add\n    /* \"#utility.yul\":2654:2655   */\n  0x05\n    /* \"#utility.yul\":2650:2670   */\n  shr\n    /* \"#utility.yul\":2644:2648   */\n  dup3\n    /* \"#utility.yul\":2640:2671   */\n  add\n    /* \"#utility.yul\":2630:2671   */\n  swap2\n  pop\n    /* \"#utility.yul\":2721:2802   */\ntag_53:\n    /* \"#utility.yul\":2739:2741   */\n  dup2\n    /* \"#utility.yul\":2732:2737   */\n  dup2\n    /* \"#utility.yul\":2729:2742   */\n  lt\n    /* \"#utility.yul\":2721:2802   */\n  iszero\n  tag_55\n  jumpi\n    /* \"#utility.yul\":2798:2799   */\n  0x00\n    /* \"#utility.yul\":2784:2800   */\n  dup2\n  sstore\n    /* \"#utility.yul\":2765:2766   */\n  0x01\n    /* \"#utility.yul\":2754:2767   */\n  add\n    /* \"#utility.yul\":2721:2802   */\n  jump(tag_53)\ntag_55:\n    /* \"#utility.yul\":2725:2728   */\n  pop\n  pop\n    /* \"#utility.yul\":2391:2812   */\ntag_51:\n    /* \"#utility.yul\":2300:2818   */\n  pop\n  pop\n  pop\n  jump\t// out\n    /* \"#utility.yul\":2994:4293   */\ntag_9:\n    /* \"#utility.yul\":3114:3124   */\n  dup2\n  mload\n  sub(shl(0x40, 0x01), 0x01)\n    /* \"#utility.yul\":3136:3166   */\n  dup2\n  gt\n    /* \"#utility.yul\":3133:3189   */\n  iszero\n  tag_59\n  jumpi\n    /* \"#utility.yul\":3169:3187   */\n  tag_59\n  tag_21\n  jump\t// in\ntag_59:\n    /* \"#utility.yul\":3198:3295   */\n  tag_60\n    /* \"#utility.yul\":3288:3294   */\n  dup2\n    /* \"#utility.yul\":3248:3286   */\n  tag_61\n    /* \"#utility.yul\":3280:3284   */\n  dup5\n    /* \"#utility.yul\":3274:3285   */\n  sload\n    /* \"#utility.yul\":3248:3286   */\n  tag_23\n  jump\t// in\ntag_61:\n    /* \"#utility.yul\":3242:3246   */\n  dup5\n    /* \"#utility.yul\":3198:3295   */\n  tag_25\n  jump\t// in\ntag_60:\n    /* \"#utility.yul\":3344:3348   */\n  0x20\n    /* \"#utility.yul\":3375:3377   */\n  0x1f\n    /* \"#utility.yul\":3364:3378   */\n  dup3\n  gt\n    /* \"#utility.yul\":3392:3393   */\n  0x01\n    /* \"#utility.yul\":3387:4036   */\n  dup2\n  eq\n  tag_63\n  jumpi\n    /* \"#utility.yul\":4080:4081   */\n  0x00\n    /* \"#utility.yul\":4097:4103   */\n  dup4\n    /* \"#utility.yul\":4094:4183   */\n  iszero\n  tag_64\n  jumpi\n  pop\n    /* \"#utility.yul\":4149:4168   */\n  dup5\n  dup3\n  add\n    /* \"#utility.yul\":4143:4169   */\n  mload\n    /* \"#utility.yul\":4094:4183   */\ntag_64:\n  not(0x00)\n    /* \"#utility.yul\":2951:2952   */\n  0x03\n    /* \"#utility.yul\":2947:2958   */\n  dup6\n  swap1\n  shl\n    /* \"#utility.yul\":2943:2967   */\n  shr\n    /* \"#utility.yul\":2939:2968   */\n  not\n    /* \"#utility.yul\":2929:2969   */\n  and\n    /* \"#utility.yul\":2975:2976   */\n  0x01\n    /* \"#utility.yul\":2971:2982   */\n  dup5\n  swap1\n  shl\n    /* \"#utility.yul\":2926:2983   */\n  or\n    /* \"#utility.yul\":4196:4277   */\n  dup5\n  sstore\n    /* \"#utility.yul\":3357:4287   */\n  jump(tag_55)\n    /* \"#utility.yul\":3387:4036   */\ntag_63:\n    /* \"#utility.yul\":2247:2248   */\n  0x00\n    /* \"#utility.yul\":2240:2254   */\n  dup5\n  dup2\n  mstore\n    /* \"#utility.yul\":2284:2288   */\n  0x20\n    /* \"#utility.yul\":2271:2289   */\n  dup2\n  keccak256\n  not(0x1f)\n    /* \"#utility.yul\":3423:3443   */\n  dup6\n  and\n  swap2\n    /* \"#utility.yul\":3541:3763   */\ntag_67:\n    /* \"#utility.yul\":3555:3562   */\n  dup3\n    /* \"#utility.yul\":3552:3553   */\n  dup2\n    /* \"#utility.yul\":3549:3563   */\n  lt\n    /* \"#utility.yul\":3541:3763   */\n  iszero\n  tag_69\n  jumpi\n    /* \"#utility.yul\":3637:3656   */\n  dup8\n  dup6\n  add\n    /* \"#utility.yul\":3631:3657   */\n  mload\n    /* \"#utility.yul\":3616:3658   */\n  dup3\n  sstore\n    /* \"#utility.yul\":3744:3748   */\n  0x20\n    /* \"#utility.yul\":3729:3749   */\n  swap5\n  dup6\n  add\n  swap5\n    /* \"#utility.yul\":3697:3698   */\n  0x01\n    /* \"#utility.yul\":3685:3699   */\n  swap1\n  swap3\n  add\n  swap2\n    /* \"#utility.yul\":3571:3583   */\n  add\n    /* \"#utility.yul\":3541:3763   */\n  jump(tag_67)\ntag_69:\n    /* \"#utility.yul\":3545:3548   */\n  pop\n    /* \"#utility.yul\":3791:3797   */\n  dup5\n    /* \"#utility.yul\":3782:3789   */\n  dup3\n    /* \"#utility.yul\":3779:3798   */\n  lt\n    /* \"#utility.yul\":3776:3977   */\n  iszero\n  tag_70\n  jumpi\n    /* \"#utility.yul\":3852:3871   */\n  dup7\n  dup5\n  add\n    /* \"#utility.yul\":3846:3872   */\n  mload\n  not(0x00)\n    /* \"#utility.yul\":3935:3936   */\n  0x03\n    /* \"#utility.yul\":3931:3945   */\n  dup8\n  swap1\n  shl\n    /* \"#utility.yul\":3947:3950   */\n  0xf8\n    /* \"#utility.yul\":3927:3951   */\n  and\n    /* \"#utility.yul\":3923:3960   */\n  shr\n    /* \"#utility.yul\":3919:3961   */\n  not\n    /* \"#utility.yul\":3904:3962   */\n  and\n    /* \"#utility.yul\":3889:3963   */\n  dup2\n  sstore\n    /* \"#utility.yul\":3776:3977   */\ntag_70:\n  pop\n  pop\n  pop\n  pop\n    /* \"#utility.yul\":4023:4024   */\n  0x01\n    /* \"#utility.yul\":4007:4021   */\n  swap1\n  dup2\n  shl\n    /* \"#utility.yul\":4003:4025   */\n  add\n    /* \"#utility.yul\":3990:4026   */\n  swap1\n  sstore\n  pop\n    /* \"#utility.yul\":2994:4293   */\n  jump\t// out\n    /* \"#utility.yul\":4654:5055   */\ntag_27:\n    /* \"fund_shares.sol\":651:2744  contract WETHVault is ERC20, ReentrancyGuard {... */\n  mload(0x80)\n  mload(0xa0)\n  codecopy(0x00, dataOffset(sub_0), dataSize(sub_0))\n  0x00\n  assignImmutable(\"0x8fef2229291b68be841adf029e58b87f39ba144b2d3b0af1760243d0a9bc6a1c\")\n  0x00\n  assignImmutable(\"0x277ab82e5a4641341820a4a2933a62c1de997e42e92548657ae21b3728d580fe\")\n  return(0x00, dataSize(sub_0))\nstop\n\nsub_0: assembly {\n        /* \"fund_shares.sol\":651:2744  contract WETHVault is ERC20, ReentrancyGuard {... */\n      mstore(0x40, 0x80)\n      callvalue\n      dup1\n      iszero\n      tag_1\n      jumpi\n      revert(0x00, 0x00)\n    tag_1:\n      pop\n      jumpi(tag_2, lt(calldatasize, 0x04))\n      shr(0xe0, calldataload(0x00))\n      dup1\n      0x70a08231\n      gt\n      tag_18\n      jumpi\n      dup1\n      0xa9059cbb\n      gt\n      tag_19\n      jumpi\n      dup1\n      0xa9059cbb\n      eq\n      tag_14\n      jumpi\n      dup1\n      0xaa4d1655\n      eq\n      tag_15\n      jumpi\n      dup1\n      0xb6b55f25\n      eq\n      tag_16\n      jumpi\n      dup1\n      0xdd62ed3e\n      eq\n      tag_17\n      jumpi\n      revert(0x00, 0x00)\n    tag_19:\n      dup1\n      0x70a08231\n      eq\n      tag_10\n      jumpi\n      dup1\n      0x95d89b41\n      eq\n      tag_11\n      jumpi\n      dup1\n      0x99530b06\n      eq\n      tag_12\n      jumpi\n      dup1\n      0xa457c2d7\n      eq\n      tag_13\n      jumpi\n      revert(0x00, 0x00)\n    tag_18:\n      dup1\n      0x23b872dd\n      gt\n      tag_20\n      jumpi\n      dup1\n      0x23b872dd\n      eq\n      tag_6\n      jumpi\n      dup1\n      0x313ce567\n      eq\n      tag_7\n      jumpi\n      dup1\n      0x39509351\n      eq\n      tag_8\n      jumpi\n      dup1\n      0x3fc8cef3\n      eq\n      tag_9\n      jumpi\n      revert(0x00, 0x00)\n    tag_20:\n      dup1\n      0x06fdde03\n      eq\n      tag_3\n      jumpi\n      dup1\n      0x095ea7b3\n      eq\n      tag_4\n      jumpi\n      dup1\n      0x18160ddd\n      eq\n      tag_5\n      jumpi\n    tag_2:\n      revert(0x00, 0x00)\n        /* \"https://github.com/OpenZeppelin/openzeppelin-contracts/blob/v4.9.3/contracts/token/ERC20/ERC20.sol\":2158:2256  function name() public view virtual override returns (string memory) {... */\n    tag_3:\n      tag_21\n      tag_22\n      jump\t// in\n    tag_21:\n      mload(0x40)\n      tag_23\n      swap2\n      swap1\n      tag_24\n      jump\t// in\n    tag_23:\n      mload(0x40)\n      dup1\n      swap2\n      sub\n      swap1\n      return\n        /* \"https://github.com/OpenZeppelin/openzeppelin-contracts/blob/v4.9.3/contracts/token/ERC20/ERC20.sol\":4444:4641  function approve(address spender, uint256 amount) public virtual override returns (bool) {... */\n    tag_4:\n      tag_25\n      tag_26\n      calldatasize\n      0x04\n      tag_27\n      jump\t// in\n    tag_26:\n      tag_28\n      jump\t// in\n    tag_25:\n      mload(0x40)\n        /* \"#utility.yul\":1085:1099   */\n      swap1\n      iszero\n        /* \"#utility.yul\":1078:1100   */\n      iszero\n        /* \"#utility.yul\":1060:1101   */\n      dup2\n      mstore\n        /* \"#utility.yul\":1048:1050   */\n      0x20\n        /* \"#utility.yul\":1033:1051   */\n      add\n        /* \"https://github.com/OpenZeppelin/openzeppelin-contracts/blob/v4.9.3/contracts/token/ERC20/ERC20.sol\":4444:4641  function approve(address spender, uint256 amount) public virtual override returns (bool) {... */\n      tag_23\n        /* \"#utility.yul\":920:1107   */\n      jump\n        /* \"https://github.com/OpenZeppelin/openzeppelin-contracts/blob/v4.9.3/contracts/token/ERC20/ERC20.sol\":3255:3361  function totalSupply() public view virtual override returns (uint256) {... */\n    tag_5:\n        /* \"https://github.com/OpenZeppelin/openzeppelin-contracts/blob/v4.9.3/contracts/token/ERC20/ERC20.sol\":3342:3354  _totalSupply */\n      sload(0x02)\n        /* \"https://github.com/OpenZeppelin/openzeppelin-contracts/blob/v4.9.3/contracts/token/ERC20/ERC20.sol\":3255:3361  function totalSupply() public view virtual override returns (uint256) {... */\n    tag_31:\n      mload(0x40)\n        /* \"#utility.yul\":1258:1283   */\n      swap1\n      dup2\n      mstore\n        /* \"#utility.yul\":1246:1248   */\n      0x20\n        /* \"#utility.yul\":1231:1249   */\n      add\n        /* \"https://github.com/OpenZeppelin/openzeppelin-contracts/blob/v4.9.3/contracts/token/ERC20/ERC20.sol\":3255:3361  function totalSupply() public view virtual override returns (uint256) {... */\n      tag_23\n        /* \"#utility.yul\":1112:1289   */\n      jump\n        /* \"https://github.com/OpenZeppelin/openzeppelin-contracts/blob/v4.9.3/contracts/token/ERC20/ERC20.sol\":5203:5459  function transferFrom(address from, address to, uint256 amount) public virtual override returns (bool) {... */\n    tag_6:\n      tag_25\n      tag_36\n      calldatasize\n      0x04\n      tag_37\n      jump\t// in\n    tag_36:\n      tag_38\n      jump\t// in\n        /* \"https://github.com/OpenZeppelin/openzeppelin-contracts/blob/v4.9.3/contracts/token/ERC20/ERC20.sol\":3104:3195  function decimals() public view virtual override returns (uint8) {... */\n    tag_7:\n      mload(0x40)\n        /* \"https://github.com/OpenZeppelin/openzeppelin-contracts/blob/v4.9.3/contracts/token/ERC20/ERC20.sol\":3186:3188  18 */\n      0x12\n        /* \"#utility.yul\":1815:1851   */\n      dup2\n      mstore\n        /* \"#utility.yul\":1803:1805   */\n      0x20\n        /* \"#utility.yul\":1788:1806   */\n      add\n        /* \"https://github.com/OpenZeppelin/openzeppelin-contracts/blob/v4.9.3/contracts/token/ERC20/ERC20.sol\":3104:3195  function decimals() public view virtual override returns (uint8) {... */\n      tag_23\n        /* \"#utility.yul\":1673:1857   */\n      jump\n        /* \"https://github.com/OpenZeppelin/openzeppelin-contracts/blob/v4.9.3/contracts/token/ERC20/ERC20.sol\":5854:6088  function increaseAllowance(address spender, uint256 addedValue) public virtual returns (bool) {... */\n    tag_8:\n      tag_25\n      tag_45\n      calldatasize\n      0x04\n      tag_27\n      jump\t// in\n    tag_45:\n      tag_46\n      jump\t// in\n        /* \"fund_shares.sol\":738:766  IERC20 public immutable weth */\n    tag_9:\n      tag_48\n      immutable(\"0x277ab82e5a4641341820a4a2933a62c1de997e42e92548657ae21b3728d580fe\")\n      dup2\n      jump\n    tag_48:\n      mload(0x40)\n      sub(shl(0xa0, 0x01), 0x01)\n        /* \"#utility.yul\":2040:2072   */\n      swap1\n      swap2\n      and\n        /* \"#utility.yul\":2022:2073   */\n      dup2\n      mstore\n        /* \"#utility.yul\":2010:2012   */\n      0x20\n        /* \"#utility.yul\":1995:2013   */\n      add\n        /* \"fund_shares.sol\":738:766  IERC20 public immutable weth */\n      tag_23\n        /* \"#utility.yul\":1862:2079   */\n      jump\n        /* \"https://github.com/OpenZeppelin/openzeppelin-contracts/blob/v4.9.3/contracts/token/ERC20/ERC20.sol\":3419:3544  function balanceOf(address account) public view virtual override returns (uint256) {... */\n    tag_10:\n      tag_31\n      tag_53\n      calldatasize\n      0x04\n      tag_54\n      jump\t// in\n    tag_53:\n      sub(shl(0xa0, 0x01), 0x01)\n        /* \"https://github.com/OpenZeppelin/openzeppelin-contracts/blob/v4.9.3/contracts/token/ERC20/ERC20.sol\":3519:3537  _balances[account] */\n      and\n        /* \"https://github.com/OpenZeppelin/openzeppelin-contracts/blob/v4.9.3/contracts/token/ERC20/ERC20.sol\":3493:3500  uint256 */\n      0x00\n        /* \"https://github.com/OpenZeppelin/openzeppelin-contracts/blob/v4.9.3/contracts/token/ERC20/ERC20.sol\":3519:3537  _balances[account] */\n      swap1\n      dup2\n      mstore\n      0x20\n      dup2\n      swap1\n      mstore\n      0x40\n      swap1\n      keccak256\n      sload\n      swap1\n        /* \"https://github.com/OpenZeppelin/openzeppelin-contracts/blob/v4.9.3/contracts/token/ERC20/ERC20.sol\":3419:3544  function balanceOf(address account) public view virtual override returns (uint256) {... */\n      jump\n        /* \"https://github.com/OpenZeppelin/openzeppelin-contracts/blob/v4.9.3/contracts/token/ERC20/ERC20.sol\":2369:2471  function symbol() public view virtual override returns (string memory) {... */\n    tag_11:\n      tag_21\n      tag_58\n      jump\t// in\n        /* \"fund_shares.sol\":2549:2741  function pricePerShare() external view returns (uint256) {... */\n    tag_12:\n      tag_31\n      tag_61\n      jump\t// in\n        /* \"https://github.com/OpenZeppelin/openzeppelin-contracts/blob/v4.9.3/contracts/token/ERC20/ERC20.sol\":6575:7002  function decreaseAllowance(address spender, uint256 subtractedValue) public virtual returns (bool) {... */\n    tag_13:\n      tag_25\n      tag_64\n      calldatasize\n      0x04\n      tag_27\n      jump\t// in\n    tag_64:\n      tag_65\n      jump\t// in\n        /* \"https://github.com/OpenZeppelin/openzeppelin-contracts/blob/v4.9.3/contracts/token/ERC20/ERC20.sol\":3740:3929  function transfer(address to, uint256 amount) public virtual override returns (bool) {... */\n    tag_14:\n      tag_25\n      tag_68\n      calldatasize\n      0x04\n      tag_27\n      jump\t// in\n    tag_68:\n      tag_69\n      jump\t// in\n        /* \"fund_shares.sol\":773:811  address public immutable fundPortfolio */\n    tag_15:\n      tag_48\n      immutable(\"0x8fef2229291b68be841adf029e58b87f39ba144b2d3b0af1760243d0a9bc6a1c\")\n      dup2\n      jump\n        /* \"fund_shares.sol\":1398:1912  function deposit(uint256 amount) external nonReentrant {... */\n    tag_16:\n      tag_75\n      tag_76\n      calldatasize\n      0x04\n      tag_77\n      jump\t// in\n    tag_76:\n      tag_78\n      jump\t// in\n    tag_75:\n      stop\n        /* \"https://github.com/OpenZeppelin/openzeppelin-contracts/blob/v4.9.3/contracts/token/ERC20/ERC20.sol\":3987:4136  function allowance(address owner, address spender) public view virtual override returns (uint256) {... */\n    tag_17:\n      tag_31\n      tag_80\n      calldatasize\n      0x04\n      tag_81\n      jump\t// in\n    tag_80:\n      tag_82\n      jump\t// in\n        /* \"https://github.com/OpenZeppelin/openzeppelin-contracts/blob/v4.9.3/contracts/token/ERC20/ERC20.sol\":2158:2256  function name() public view virtual override returns (string memory) {... */\n    tag_22:\n        /* \"https://github.com/OpenZeppelin/openzeppelin-contracts/blob/v4.9.3/contracts/token/ERC20/ERC20.sol\":2212:2225  string memory */\n      0x60\n        /* \"https://github.com/OpenZeppelin/openzeppelin-contracts/blob/v4.9.3/contracts/token/ERC20/ERC20.sol\":2244:2249  _name */\n      0x03\n        /* \"https://github.com/OpenZeppelin/openzeppelin-contracts/blob/v4.9.3/contracts/token/ERC20/ERC20.sol\":2237:2249  return _name */\n      dup1\n      sload\n      tag_85\n      swap1\n      tag_86\n      jump\t// in\n    tag_85:\n      dup1\n      0x1f\n      add\n      0x20\n      dup1\n      swap2\n      div\n      mul\n      0x20\n      add\n      mload(0x40)\n      swap1\n      dup2\n      add\n      0x40\n      mstore\n      dup1\n      swap3\n      swap2\n      swap1\n      dup2\n      dup2\n      mstore\n      0x20\n      add\n      dup3\n      dup1\n      sload\n      tag_87\n      swap1\n      tag_86\n      jump\t// in\n    tag_87:\n      dup1\n      iszero\n      tag_88\n      jumpi\n      dup1\n      0x1f\n      lt\n      tag_89\n      jumpi\n      0x0100\n      dup1\n      dup4\n      sload\n      div\n      mul\n      dup4\n      mstore\n      swap2\n      0x20\n      add\n      swap2\n      jump(tag_88)\n    tag_89:\n      dup3\n      add\n      swap2\n      swap1\n      0x00\n      mstore\n      keccak256(0x00, 0x20)\n      swap1\n    tag_90:\n      dup2\n      sload\n      dup2\n      mstore\n      swap1\n      0x01\n      add\n      swap1\n      0x20\n      add\n      dup1\n      dup4\n      gt\n      tag_90\n      jumpi\n      dup3\n      swap1\n      sub\n      0x1f\n      and\n      dup3\n      add\n      swap2\n    tag_88:\n      pop\n      pop\n      pop\n      pop\n      pop\n      swap1\n      pop\n        /* \"https://github.com/OpenZeppelin/openzeppelin-contracts/blob/v4.9.3/contracts/token/ERC20/ERC20.sol\":2158:2256  function name() public view virtual override returns (string memory) {... */\n      swap1\n      jump\t// out\n        /* \"https://github.com/OpenZeppelin/openzeppelin-contracts/blob/v4.9.3/contracts/token/ERC20/ERC20.sol\":4444:4641  function approve(address spender, uint256 amount) public virtual override returns (bool) {... */\n    tag_28:\n        /* \"https://github.com/OpenZeppelin/openzeppelin-contracts/blob/v4.9.3/contracts/token/ERC20/ERC20.sol\":4527:4531  bool */\n      0x00\n        /* \"https://github.com/OpenZeppelin/openzeppelin-contracts/blob/v4.9.3/contracts/utils/Context.sol\":719:729  msg.sender */\n      caller\n        /* \"https://github.com/OpenZeppelin/openzeppelin-contracts/blob/v4.9.3/contracts/token/ERC20/ERC20.sol\":4581:4613  _approve(owner, spender, amount) */\n      tag_94\n        /* \"https://github.com/OpenZeppelin/openzeppelin-contracts/blob/v4.9.3/contracts/utils/Context.sol\":719:729  msg.sender */\n      dup2\n        /* \"https://github.com/OpenZeppelin/openzeppelin-contracts/blob/v4.9.3/contracts/token/ERC20/ERC20.sol\":4597:4604  spender */\n      dup6\n        /* \"https://github.com/OpenZeppelin/openzeppelin-contracts/blob/v4.9.3/contracts/token/ERC20/ERC20.sol\":4606:4612  amount */\n      dup6\n        /* \"https://github.com/OpenZeppelin/openzeppelin-contracts/blob/v4.9.3/contracts/token/ERC20/ERC20.sol\":4581:4589  _approve */\n      tag_95\n        /* \"https://github.com/OpenZeppelin/openzeppelin-contracts/blob/v4.9.3/contracts/token/ERC20/ERC20.sol\":4581:4613  _approve(owner, spender, amount) */\n      jump\t// in\n    tag_94:\n        /* \"https://github.com/OpenZeppelin/openzeppelin-contracts/blob/v4.9.3/contracts/token/ERC20/ERC20.sol\":4630:4634  true */\n      0x01\n        /* \"https://github.com/OpenZeppelin/openzeppelin-contracts/blob/v4.9.3/contracts/token/ERC20/ERC20.sol\":4623:4634  return true */\n      swap2\n      pop\n      pop\n        /* \"https://github.com/OpenZeppelin/openzeppelin-contracts/blob/v4.9.3/contracts/token/ERC20/ERC20.sol\":4444:4641  function approve(address spender, uint256 amount) public virtual override returns (bool) {... */\n    tag_91:\n      swap3\n      swap2\n      pop\n      pop\n      jump\t// out\n        /* \"https://github.com/OpenZeppelin/openzeppelin-contracts/blob/v4.9.3/contracts/token/ERC20/ERC20.sol\":5203:5459  function transferFrom(address from, address to, uint256 amount) public virtual override returns (bool) {... */\n    tag_38:\n        /* \"https://github.com/OpenZeppelin/openzeppelin-contracts/blob/v4.9.3/contracts/token/ERC20/ERC20.sol\":5300:5304  bool */\n      0x00\n        /* \"https://github.com/OpenZeppelin/openzeppelin-contracts/blob/v4.9.3/contracts/utils/Context.sol\":719:729  msg.sender */\n      caller\n        /* \"https://github.com/OpenZeppelin/openzeppelin-contracts/blob/v4.9.3/contracts/token/ERC20/ERC20.sol\":5356:5394  _spendAllowance(from, spender, amount) */\n      tag_99\n        /* \"https://github.com/OpenZeppelin/openzeppelin-contracts/blob/v4.9.3/contracts/token/ERC20/ERC20.sol\":5372:5376  from */\n      dup6\n        /* \"https://github.com/OpenZeppelin/openzeppelin-contracts/blob/v4.9.3/contracts/utils/Context.sol\":719:729  msg.sender */\n      dup3\n        /* \"https://github.com/OpenZeppelin/openzeppelin-contracts/blob/v4.9.3/contracts/token/ERC20/ERC20.sol\":5387:5393  amount */\n      dup6\n        /* \"https://github.com/OpenZeppelin/openzeppelin-contracts/blob/v4.9.3/contracts/token/ERC20/ERC20.sol\":5356:5371  _spendAllowance */\n      tag_100\n        /* \"https://github.com/OpenZeppelin/openzeppelin-contracts/blob/v4.9.3/contracts/token/ERC20/ERC20.sol\":5356:5394  _spendAllowance(from, spender, amount) */\n      jump\t// in\n    tag_99:\n        /* \"https://github.com/OpenZeppelin/openzeppelin-contracts/blob/v4.9.3/contracts/token/ERC20/ERC20.sol\":5404:5431  _transfer(from, to, amount) */\n      tag_101\n        /* \"https://github.com/OpenZeppelin/openzeppelin-contracts/blob/v4.9.3/contracts/token/ERC20/ERC20.sol\":5414:5418  from */\n      dup6\n        /* \"https://github.com/OpenZeppelin/openzeppelin-contracts/blob/v4.9.3/contracts/token/ERC20/ERC20.sol\":5420:5422  to */\n      dup6\n        /* \"https://github.com/OpenZeppelin/openzeppelin-contracts/blob/v4.9.3/contracts/token/ERC20/ERC20.sol\":5424:5430  amount */\n      dup6\n        /* \"https://github.com/OpenZeppelin/openzeppelin-contracts/blob/v4.9.3/contracts/token/ERC20/ERC20.sol\":5404:5413  _transfer */\n      tag_102\n        /* \"https://github.com/OpenZeppelin/openzeppelin-contracts/blob/v4.9.3/contracts/token/ERC20/ERC20.sol\":5404:5431  _transfer(from, to, amount) */\n      jump\t// in\n    tag_101:\n      pop\n        /* \"https://github.com/OpenZeppelin/openzeppelin-contracts/blob/v4.9.3/contracts/token/ERC20/ERC20.sol\":5448:5452  true */\n      0x01\n      swap5\n        /* \"https://github.com/OpenZeppelin/openzeppelin-contracts/blob/v4.9.3/contracts/token/ERC20/ERC20.sol\":5203:5459  function transferFrom(address from, address to, uint256 amount) public virtual override returns (bool) {... */\n      swap4\n      pop\n      pop\n      pop\n      pop\n      jump\t// out\n        /* \"https://github.com/OpenZeppelin/openzeppelin-contracts/blob/v4.9.3/contracts/token/ERC20/ERC20.sol\":5854:6088  function increaseAllowance(address spender, uint256 addedValue) public virtual returns (bool) {... */\n    tag_46:\n        /* \"https://github.com/OpenZeppelin/openzeppelin-contracts/blob/v4.9.3/contracts/token/ERC20/ERC20.sol\":5942:5946  bool */\n      0x00\n        /* \"https://github.com/OpenZeppelin/openzeppelin-contracts/blob/v4.9.3/contracts/utils/Context.sol\":719:729  msg.sender */\n      caller\n        /* \"https://github.com/OpenZeppelin/openzeppelin-contracts/blob/v4.9.3/contracts/token/ERC20/ERC20.sol\":5996:6060  _approve(owner, spender, allowance(owner, spender) + addedValue) */\n      tag_94\n        /* \"https://github.com/OpenZeppelin/openzeppelin-contracts/blob/v4.9.3/contracts/utils/Context.sol\":719:729  msg.sender */\n      dup2\n        /* \"https://github.com/OpenZeppelin/openzeppelin-contracts/blob/v4.9.3/contracts/token/ERC20/ERC20.sol\":6012:6019  spender */\n      dup6\n        /* \"https://github.com/OpenZeppelin/openzeppelin-contracts/blob/v4.9.3/contracts/token/ERC20/ERC20.sol\":6049:6059  addedValue */\n      dup6\n        /* \"https://github.com/OpenZeppelin/openzeppelin-contracts/blob/v4.9.3/contracts/token/ERC20/ERC20.sol\":6021:6046  allowance(owner, spender) */\n      tag_107\n        /* \"https://github.com/OpenZeppelin/openzeppelin-contracts/blob/v4.9.3/contracts/utils/Context.sol\":719:729  msg.sender */\n      dup4\n        /* \"https://github.com/OpenZeppelin/openzeppelin-contracts/blob/v4.9.3/contracts/token/ERC20/ERC20.sol\":6012:6019  spender */\n      dup4\n        /* \"https://github.com/OpenZeppelin/openzeppelin-contracts/blob/v4.9.3/contracts/token/ERC20/ERC20.sol\":6021:6030  allowance */\n      tag_82\n        /* \"https://github.com/OpenZeppelin/openzeppelin-contracts/blob/v4.9.3/contracts/token/ERC20/ERC20.sol\":6021:6046  allowance(owner, spender) */\n      jump\t// in\n    tag_107:\n        /* \"https://github.com/OpenZeppelin/openzeppelin-contracts/blob/v4.9.3/contracts/token/ERC20/ERC20.sol\":6021:6059  allowance(owner, spender) + addedValue */\n      tag_108\n      swap2\n      swap1\n      tag_109\n      jump\t// in\n    tag_108:\n        /* \"https://github.com/OpenZeppelin/openzeppelin-contracts/blob/v4.9.3/contracts/token/ERC20/ERC20.sol\":5996:6004  _approve */\n      tag_95\n        /* \"https://github.com/OpenZeppelin/openzeppelin-contracts/blob/v4.9.3/contracts/token/ERC20/ERC20.sol\":5996:6060  _approve(owner, spender, allowance(owner, spender) + addedValue) */\n      jump\t// in\n        /* \"https://github.com/OpenZeppelin/openzeppelin-contracts/blob/v4.9.3/contracts/token/ERC20/ERC20.sol\":2369:2471  function symbol() public view virtual override returns (string memory) {... */\n    tag_58:\n        /* \"https://github.com/OpenZeppelin/openzeppelin-contracts/blob/v4.9.3/contracts/token/ERC20/ERC20.sol\":2425:2438  string memory */\n      0x60\n        /* \"https://github.com/OpenZeppelin/openzeppelin-contracts/blob/v4.9.3/contracts/token/ERC20/ERC20.sol\":2457:2464  _symbol */\n      0x04\n        /* \"https://github.com/OpenZeppelin/openzeppelin-contracts/blob/v4.9.3/contracts/token/ERC20/ERC20.sol\":2450:2464  return _symbol */\n      dup1\n      sload\n      tag_85\n      swap1\n      tag_86\n      jump\t// in\n        /* \"fund_shares.sol\":2549:2741  function pricePerShare() external view returns (uint256) {... */\n    tag_61:\n        /* \"fund_shares.sol\":2597:2604  uint256 */\n      0x00\n        /* \"fund_shares.sol\":2617:2631  uint256 supply */\n      0x00\n        /* \"fund_shares.sol\":2634:2647  totalSupply() */\n      tag_118\n        /* \"https://github.com/OpenZeppelin/openzeppelin-contracts/blob/v4.9.3/contracts/token/ERC20/ERC20.sol\":3342:3354  _totalSupply */\n      sload(0x02)\n      swap1\n        /* \"https://github.com/OpenZeppelin/openzeppelin-contracts/blob/v4.9.3/contracts/token/ERC20/ERC20.sol\":3255:3361  function totalSupply() public view virtual override returns (uint256) {... */\n      jump\n        /* \"fund_shares.sol\":2634:2647  totalSupply() */\n    tag_118:\n        /* \"fund_shares.sol\":2617:2647  uint256 supply = totalSupply() */\n      swap1\n      pop\n        /* \"fund_shares.sol\":2665:2676  supply == 0 */\n      dup1\n      iszero\n        /* \"fund_shares.sol\":2665:2733  supply == 0 ? 1e18 : (weth.balanceOf(address(this)) * 1e18) / supply */\n      tag_119\n      jumpi\n        /* \"fund_shares.sol\":2687:2716  weth.balanceOf(address(this)) */\n      mload(0x40)\n      shl(0xe0, 0x70a08231)\n      dup2\n      mstore\n        /* \"fund_shares.sol\":2710:2714  this */\n      address\n        /* \"fund_shares.sol\":2687:2716  weth.balanceOf(address(this)) */\n      0x04\n      dup3\n      add\n        /* \"#utility.yul\":2022:2073   */\n      mstore\n        /* \"fund_shares.sol\":2727:2733  supply */\n      dup2\n      swap1\n        /* \"fund_shares.sol\":2687:2691  weth */\n      immutable(\"0x277ab82e5a4641341820a4a2933a62c1de997e42e92548657ae21b3728d580fe\")\n      sub(shl(0xa0, 0x01), 0x01)\n        /* \"fund_shares.sol\":2687:2701  weth.balanceOf */\n      and\n      swap1\n      0x70a08231\n      swap1\n        /* \"#utility.yul\":1995:2013   */\n      0x24\n      add\n        /* \"fund_shares.sol\":2687:2716  weth.balanceOf(address(this)) */\n      0x20\n      mload(0x40)\n      dup1\n      dup4\n      sub\n      dup2\n      dup7\n      gas\n      staticcall\n      iszero\n      dup1\n      iszero\n      tag_122\n      jumpi\n      returndatacopy(0x00, 0x00, returndatasize)\n      revert(0x00, returndatasize)\n    tag_122:\n      pop\n      pop\n      pop\n      pop\n      mload(0x40)\n      returndatasize\n      not(0x1f)\n      0x1f\n      dup3\n      add\n      and\n      dup3\n      add\n      dup1\n      0x40\n      mstore\n      pop\n      dup2\n      add\n      swap1\n      tag_123\n      swap2\n      swap1\n      tag_124\n      jump\t// in\n    tag_123:\n        /* \"fund_shares.sol\":2687:2723  weth.balanceOf(address(this)) * 1e18 */\n      tag_125\n      swap1\n        /* \"fund_shares.sol\":2719:2723  1e18 */\n      0x0de0b6b3a7640000\n        /* \"fund_shares.sol\":2687:2723  weth.balanceOf(address(this)) * 1e18 */\n      tag_126\n      jump\t// in\n    tag_125:\n        /* \"fund_shares.sol\":2686:2733  (weth.balanceOf(address(this)) * 1e18) / supply */\n      tag_127\n      swap2\n      swap1\n      tag_128\n      jump\t// in\n    tag_127:\n        /* \"fund_shares.sol\":2665:2733  supply == 0 ? 1e18 : (weth.balanceOf(address(this)) * 1e18) / supply */\n      jump(tag_129)\n    tag_119:\n        /* \"fund_shares.sol\":2679:2683  1e18 */\n      0x0de0b6b3a7640000\n        /* \"fund_shares.sol\":2665:2733  supply == 0 ? 1e18 : (weth.balanceOf(address(this)) * 1e18) / supply */\n    tag_129:\n        /* \"fund_shares.sol\":2658:2733  return supply == 0 ? 1e18 : (weth.balanceOf(address(this)) * 1e18) / supply */\n      swap2\n      pop\n      pop\n        /* \"fund_shares.sol\":2549:2741  function pricePerShare() external view returns (uint256) {... */\n      swap1\n      jump\t// out\n        /* \"https://github.com/OpenZeppelin/openzeppelin-contracts/blob/v4.9.3/contracts/token/ERC20/ERC20.sol\":6575:7002  function decreaseAllowance(address spender, uint256 subtractedValue) public virtual returns (bool) {... */\n    tag_65:\n        /* \"https://github.com/OpenZeppelin/openzeppelin-contracts/blob/v4.9.3/contracts/token/ERC20/ERC20.sol\":6668:6672  bool */\n      0x00\n        /* \"https://github.com/OpenZeppelin/openzeppelin-contracts/blob/v4.9.3/contracts/utils/Context.sol\":719:729  msg.sender */\n      caller\n        /* \"https://github.com/OpenZeppelin/openzeppelin-contracts/blob/v4.9.3/contracts/token/ERC20/ERC20.sol\":6668:6672  bool */\n      dup2\n        /* \"https://github.com/OpenZeppelin/openzeppelin-contracts/blob/v4.9.3/contracts/token/ERC20/ERC20.sol\":6749:6774  allowance(owner, spender) */\n      tag_132\n        /* \"https://github.com/OpenZeppelin/openzeppelin-contracts/blob/v4.9.3/contracts/utils/Context.sol\":719:729  msg.sender */\n      dup3\n        /* \"https://github.com/OpenZeppelin/openzeppelin-contracts/blob/v4.9.3/contracts/token/ERC20/ERC20.sol\":6766:6773  spender */\n      dup7\n        /* \"https://github.com/OpenZeppelin/openzeppelin-contracts/blob/v4.9.3/contracts/token/ERC20/ERC20.sol\":6749:6758  allowance */\n      tag_82\n        /* \"https://github.com/OpenZeppelin/openzeppelin-contracts/blob/v4.9.3/contracts/token/ERC20/ERC20.sol\":6749:6774  allowance(owner, spender) */\n      jump\t// in\n    tag_132:\n        /* \"https://github.com/OpenZeppelin/openzeppelin-contracts/blob/v4.9.3/contracts/token/ERC20/ERC20.sol\":6722:6774  uint256 currentAllowance = allowance(owner, spender) */\n      swap1\n      pop\n        /* \"https://github.com/OpenZeppelin/openzeppelin-contracts/blob/v4.9.3/contracts/token/ERC20/ERC20.sol\":6812:6827  subtractedValue */\n      dup4\n        /* \"https://github.com/OpenZeppelin/openzeppelin-contracts/blob/v4.9.3/contracts/token/ERC20/ERC20.sol\":6792:6808  currentAllowance */\n      dup2\n        /* \"https://github.com/OpenZeppelin/openzeppelin-contracts/blob/v4.9.3/contracts/token/ERC20/ERC20.sol\":6792:6827  currentAllowance >= subtractedValue */\n      lt\n      iszero\n        /* \"https://github.com/OpenZeppelin/openzeppelin-contracts/blob/v4.9.3/contracts/token/ERC20/ERC20.sol\":6784:6869  require(currentAllowance >= subtractedValue, \"ERC20: decreased allowance below zero\") */\n      tag_133\n      jumpi\n      mload(0x40)\n      shl(0xe5, 0x461bcd)\n      dup2\n      mstore\n        /* \"#utility.yul\":4412:4414   */\n      0x20\n        /* \"https://github.com/OpenZeppelin/openzeppelin-contracts/blob/v4.9.3/contracts/token/ERC20/ERC20.sol\":6784:6869  require(currentAllowance >= subtractedValue, \"ERC20: decreased allowance below zero\") */\n      0x04\n      dup3\n      add\n        /* \"#utility.yul\":4394:4415   */\n      mstore\n        /* \"#utility.yul\":4451:4453   */\n      0x25\n        /* \"#utility.yul\":4431:4449   */\n      0x24\n      dup3\n      add\n        /* \"#utility.yul\":4424:4454   */\n      mstore\n        /* \"#utility.yul\":4490:4524   */\n      0x45524332303a2064656372656173656420616c6c6f77616e63652062656c6f77\n        /* \"#utility.yul\":4470:4488   */\n      0x44\n      dup3\n      add\n        /* \"#utility.yul\":4463:4525   */\n      mstore\n      shl(0xd8, 0x207a65726f)\n        /* \"#utility.yul\":4541:4559   */\n      0x64\n      dup3\n      add\n        /* \"#utility.yul\":4534:4569   */\n      mstore\n        /* \"#utility.yul\":4586:4605   */\n      0x84\n      add\n        /* \"https://github.com/OpenZeppelin/openzeppelin-contracts/blob/v4.9.3/contracts/token/ERC20/ERC20.sol\":6784:6869  require(currentAllowance >= subtractedValue, \"ERC20: decreased allowance below zero\") */\n    tag_134:\n      mload(0x40)\n      dup1\n      swap2\n      sub\n      swap1\n      revert\n    tag_133:\n        /* \"https://github.com/OpenZeppelin/openzeppelin-contracts/blob/v4.9.3/contracts/token/ERC20/ERC20.sol\":6903:6963  _approve(owner, spender, currentAllowance - subtractedValue) */\n      tag_101\n        /* \"https://github.com/OpenZeppelin/openzeppelin-contracts/blob/v4.9.3/contracts/token/ERC20/ERC20.sol\":6912:6917  owner */\n      dup3\n        /* \"https://github.com/OpenZeppelin/openzeppelin-contracts/blob/v4.9.3/contracts/token/ERC20/ERC20.sol\":6919:6926  spender */\n      dup7\n        /* \"https://github.com/OpenZeppelin/openzeppelin-contracts/blob/v4.9.3/contracts/token/ERC20/ERC20.sol\":6947:6962  subtractedValue */\n      dup7\n        /* \"https://github.com/OpenZeppelin/openzeppelin-contracts/blob/v4.9.3/contracts/token/ERC20/ERC20.sol\":6928:6944  currentAllowance */\n      dup5\n        /* \"https://github.com/OpenZeppelin/openzeppelin-contracts/blob/v4.9.3/contracts/token/ERC20/ERC20.sol\":6928:6962  currentAllowance - subtractedValue */\n      sub\n        /* \"https://github.com/OpenZeppelin/openzeppelin-contracts/blob/v4.9.3/contracts/token/ERC20/ERC20.sol\":6903:6911  _approve */\n      tag_95\n        /* \"https://github.com/OpenZeppelin/openzeppelin-contracts/blob/v4.9.3/contracts/token/ERC20/ERC20.sol\":6903:6963  _approve(owner, spender, currentAllowance - subtractedValue) */\n      jump\t// in\n        /* \"https://github.com/OpenZeppelin/openzeppelin-contracts/blob/v4.9.3/contracts/token/ERC20/ERC20.sol\":3740:3929  function transfer(address to, uint256 amount) public virtual override returns (bool) {... */\n    tag_69:\n        /* \"https://github.com/OpenZeppelin/openzeppelin-contracts/blob/v4.9.3/contracts/token/ERC20/ERC20.sol\":3819:3823  bool */\n      0x00\n        /* \"https://github.com/OpenZeppelin/openzeppelin-contracts/blob/v4.9.3/contracts/utils/Context.sol\":719:729  msg.sender */\n      caller\n        /* \"https://github.com/OpenZeppelin/openzeppelin-contracts/blob/v4.9.3/contracts/token/ERC20/ERC20.sol\":3873:3901  _transfer(owner, to, amount) */\n      tag_94\n        /* \"https://github.com/OpenZeppelin/openzeppelin-contracts/blob/v4.9.3/contracts/utils/Context.sol\":719:729  msg.sender */\n      dup2\n        /* \"https://github.com/OpenZeppelin/openzeppelin-contracts/blob/v4.9.3/contracts/token/ERC20/ERC20.sol\":3890:3892  to */\n      dup6\n        /* \"https://github.com/OpenZeppelin/openzeppelin-contracts/blob/v4.9.3/contracts/token/ERC20/ERC20.sol\":3894:3900  amount */\n      dup6\n        /* \"https://github.com/OpenZeppelin/openzeppelin-contracts/blob/v4.9.3/contracts/token/ERC20/ERC20.sol\":3873:3882  _transfer */\n      tag_102\n        /* \"https://github.com/OpenZeppelin/openzeppelin-contracts/blob/v4.9.3/contracts/token/ERC20/ERC20.sol\":3873:3901  _transfer(owner, to, amount) */\n      jump\t// in\n        /* \"fund_shares.sol\":1398:1912  function deposit(uint256 amount) external nonReentrant {... */\n    tag_78:\n        /* \"https://github.com/OpenZeppelin/openzeppelin-contracts/blob/v4.9.3/contracts/security/ReentrancyGuard.sol\":2261:2282  _nonReentrantBefore() */\n      tag_141\n        /* \"https://github.com/OpenZeppelin/openzeppelin-contracts/blob/v4.9.3/contracts/security/ReentrancyGuard.sol\":2261:2280  _nonReentrantBefore */\n      tag_142\n        /* \"https://github.com/OpenZeppelin/openzeppelin-contracts/blob/v4.9.3/contracts/security/ReentrancyGuard.sol\":2261:2282  _nonReentrantBefore() */\n      jump\t// in\n    tag_141:\n        /* \"fund_shares.sol\":1481:1482  0 */\n      0x00\n        /* \"fund_shares.sol\":1472:1478  amount */\n      dup2\n        /* \"fund_shares.sol\":1472:1482  amount > 0 */\n      gt\n        /* \"fund_shares.sol\":1464:1519  require(amount > 0, \"Amount must be greater than zero\") */\n      tag_144\n      jumpi\n      mload(0x40)\n      shl(0xe5, 0x461bcd)\n      dup2\n      mstore\n        /* \"#utility.yul\":4818:4820   */\n      0x20\n        /* \"fund_shares.sol\":1464:1519  require(amount > 0, \"Amount must be greater than zero\") */\n      0x04\n      dup3\n      add\n        /* \"#utility.yul\":4800:4821   */\n      dup2\n      swap1\n      mstore\n        /* \"#utility.yul\":4837:4855   */\n      0x24\n      dup3\n      add\n        /* \"#utility.yul\":4830:4860   */\n      mstore\n        /* \"#utility.yul\":4896:4930   */\n      0x416d6f756e74206d7573742062652067726561746572207468616e207a65726f\n        /* \"#utility.yul\":4876:4894   */\n      0x44\n      dup3\n      add\n        /* \"#utility.yul\":4869:4931   */\n      mstore\n        /* \"#utility.yul\":4948:4966   */\n      0x64\n      add\n        /* \"fund_shares.sol\":1464:1519  require(amount > 0, \"Amount must be greater than zero\") */\n      tag_134\n        /* \"#utility.yul\":4616:4972   */\n      jump\n        /* \"fund_shares.sol\":1464:1519  require(amount > 0, \"Amount must be greater than zero\") */\n    tag_144:\n        /* \"fund_shares.sol\":1593:1649  weth.safeTransferFrom(msg.sender, address(this), amount) */\n      tag_147\n      sub(shl(0xa0, 0x01), 0x01)\n        /* \"fund_shares.sol\":1593:1597  weth */\n      immutable(\"0x277ab82e5a4641341820a4a2933a62c1de997e42e92548657ae21b3728d580fe\")\n        /* \"fund_shares.sol\":1593:1614  weth.safeTransferFrom */\n      and\n        /* \"fund_shares.sol\":1615:1625  msg.sender */\n      caller\n        /* \"fund_shares.sol\":1635:1639  this */\n      address\n        /* \"fund_shares.sol\":1642:1648  amount */\n      dup5\n        /* \"fund_shares.sol\":1593:1614  weth.safeTransferFrom */\n      tag_148\n        /* \"fund_shares.sol\":1593:1649  weth.safeTransferFrom(msg.sender, address(this), amount) */\n      jump\t// in\n    tag_147:\n        /* \"fund_shares.sol\":1707:1721  uint256 shares */\n      0x00\n        /* \"fund_shares.sol\":1724:1748  _convertToShares(amount) */\n      tag_149\n        /* \"fund_shares.sol\":1741:1747  amount */\n      dup3\n        /* \"fund_shares.sol\":1724:1740  _convertToShares */\n      tag_150\n        /* \"fund_shares.sol\":1724:1748  _convertToShares(amount) */\n      jump\t// in\n    tag_149:\n        /* \"fund_shares.sol\":1707:1748  uint256 shares = _convertToShares(amount) */\n      swap1\n      pop\n        /* \"fund_shares.sol\":1759:1784  _mint(msg.sender, shares) */\n      tag_151\n        /* \"fund_shares.sol\":1765:1775  msg.sender */\n      caller\n        /* \"fund_shares.sol\":1777:1783  shares */\n      dup3\n        /* \"fund_shares.sol\":1759:1764  _mint */\n      tag_152\n        /* \"fund_shares.sol\":1759:1784  _mint(msg.sender, shares) */\n      jump\t// in\n    tag_151:\n        /* \"fund_shares.sol\":1864:1904  weth.safeTransfer(fundPortfolio, amount) */\n      tag_153\n      sub(shl(0xa0, 0x01), 0x01)\n        /* \"fund_shares.sol\":1864:1868  weth */\n      immutable(\"0x277ab82e5a4641341820a4a2933a62c1de997e42e92548657ae21b3728d580fe\")\n        /* \"fund_shares.sol\":1864:1881  weth.safeTransfer */\n      and\n        /* \"fund_shares.sol\":1882:1895  fundPortfolio */\n      immutable(\"0x8fef2229291b68be841adf029e58b87f39ba144b2d3b0af1760243d0a9bc6a1c\")\n        /* \"fund_shares.sol\":1897:1903  amount */\n      dup5\n        /* \"fund_shares.sol\":1864:1881  weth.safeTransfer */\n      tag_154\n        /* \"fund_shares.sol\":1864:1904  weth.safeTransfer(fundPortfolio, amount) */\n      jump\t// in\n    tag_153:\n        /* \"fund_shares.sol\":1453:1912  {... */\n      pop\n        /* \"https://github.com/OpenZeppelin/openzeppelin-contracts/blob/v4.9.3/contracts/security/ReentrancyGuard.sol\":2303:2323  _nonReentrantAfter() */\n      tag_155\n        /* \"https://github.com/OpenZeppelin/openzeppelin-contracts/blob/v4.9.3/contracts/security/ReentrancyGuard.sol\":1716:1717  1 */\n      0x01\n        /* \"https://github.com/OpenZeppelin/openzeppelin-contracts/blob/v4.9.3/contracts/security/ReentrancyGuard.sol\":2809:2816  _status */\n      0x05\n        /* \"https://github.com/OpenZeppelin/openzeppelin-contracts/blob/v4.9.3/contracts/security/ReentrancyGuard.sol\":2809:2831  _status = _NOT_ENTERED */\n      sstore\n        /* \"https://github.com/OpenZeppelin/openzeppelin-contracts/blob/v4.9.3/contracts/security/ReentrancyGuard.sol\":2629:2838  function _nonReentrantAfter() private {... */\n      jump\n        /* \"https://github.com/OpenZeppelin/openzeppelin-contracts/blob/v4.9.3/contracts/security/ReentrancyGuard.sol\":2303:2323  _nonReentrantAfter() */\n    tag_155:\n        /* \"fund_shares.sol\":1398:1912  function deposit(uint256 amount) external nonReentrant {... */\n      pop\n      jump\t// out\n        /* \"https://github.com/OpenZeppelin/openzeppelin-contracts/blob/v4.9.3/contracts/token/ERC20/ERC20.sol\":3987:4136  function allowance(address owner, address spender) public view virtual override returns (uint256) {... */\n    tag_82:\n      sub(shl(0xa0, 0x01), 0x01)\n        /* \"https://github.com/OpenZeppelin/openzeppelin-contracts/blob/v4.9.3/contracts/token/ERC20/ERC20.sol\":4102:4120  _allowances[owner] */\n      swap2\n      dup3\n      and\n        /* \"https://github.com/OpenZeppelin/openzeppelin-contracts/blob/v4.9.3/contracts/token/ERC20/ERC20.sol\":4076:4083  uint256 */\n      0x00\n        /* \"https://github.com/OpenZeppelin/openzeppelin-contracts/blob/v4.9.3/contracts/token/ERC20/ERC20.sol\":4102:4120  _allowances[owner] */\n      swap1\n      dup2\n      mstore\n        /* \"https://github.com/OpenZeppelin/openzeppelin-contracts/blob/v4.9.3/contracts/token/ERC20/ERC20.sol\":4102:4113  _allowances */\n      0x01\n        /* \"https://github.com/OpenZeppelin/openzeppelin-contracts/blob/v4.9.3/contracts/token/ERC20/ERC20.sol\":4102:4120  _allowances[owner] */\n      0x20\n      swap1\n      dup2\n      mstore\n      0x40\n      dup1\n      dup4\n      keccak256\n        /* \"https://github.com/OpenZeppelin/openzeppelin-contracts/blob/v4.9.3/contracts/token/ERC20/ERC20.sol\":4102:4129  _allowances[owner][spender] */\n      swap4\n      swap1\n      swap5\n      and\n      dup3\n      mstore\n      swap2\n      swap1\n      swap2\n      mstore\n      keccak256\n      sload\n      swap1\n        /* \"https://github.com/OpenZeppelin/openzeppelin-contracts/blob/v4.9.3/contracts/token/ERC20/ERC20.sol\":3987:4136  function allowance(address owner, address spender) public view virtual override returns (uint256) {... */\n      jump\t// out\n        /* \"https://github.com/OpenZeppelin/openzeppelin-contracts/blob/v4.9.3/contracts/token/ERC20/ERC20.sol\":10457:10797  function _approve(address owner, address spender, uint256 amount) internal virtual {... */\n    tag_95:\n      sub(shl(0xa0, 0x01), 0x01)\n        /* \"https://github.com/OpenZeppelin/openzeppelin-contracts/blob/v4.9.3/contracts/token/ERC20/ERC20.sol\":10558:10577  owner != address(0) */\n      dup4\n      and\n        /* \"https://github.com/OpenZeppelin/openzeppelin-contracts/blob/v4.9.3/contracts/token/ERC20/ERC20.sol\":10550:10618  require(owner != address(0), \"ERC20: approve from the zero address\") */\n      tag_160\n      jumpi\n      mload(0x40)\n      shl(0xe5, 0x461bcd)\n      dup2\n      mstore\n        /* \"#utility.yul\":5179:5181   */\n      0x20\n        /* \"https://github.com/OpenZeppelin/openzeppelin-contracts/blob/v4.9.3/contracts/token/ERC20/ERC20.sol\":10550:10618  require(owner != address(0), \"ERC20: approve from the zero address\") */\n      0x04\n      dup3\n      add\n        /* \"#utility.yul\":5161:5182   */\n      mstore\n        /* \"#utility.yul\":5218:5220   */\n      0x24\n        /* \"#utility.yul\":5198:5216   */\n      dup1\n      dup3\n      add\n        /* \"#utility.yul\":5191:5221   */\n      mstore\n        /* \"#utility.yul\":5257:5291   */\n      0x45524332303a20617070726f76652066726f6d20746865207a65726f20616464\n        /* \"#utility.yul\":5237:5255   */\n      0x44\n      dup3\n      add\n        /* \"#utility.yul\":5230:5292   */\n      mstore\n      shl(0xe0, 0x72657373)\n        /* \"#utility.yul\":5308:5326   */\n      0x64\n      dup3\n      add\n        /* \"#utility.yul\":5301:5335   */\n      mstore\n        /* \"#utility.yul\":5352:5371   */\n      0x84\n      add\n        /* \"https://github.com/OpenZeppelin/openzeppelin-contracts/blob/v4.9.3/contracts/token/ERC20/ERC20.sol\":10550:10618  require(owner != address(0), \"ERC20: approve from the zero address\") */\n      tag_134\n        /* \"#utility.yul\":4977:5377   */\n      jump\n        /* \"https://github.com/OpenZeppelin/openzeppelin-contracts/blob/v4.9.3/contracts/token/ERC20/ERC20.sol\":10550:10618  require(owner != address(0), \"ERC20: approve from the zero address\") */\n    tag_160:\n      sub(shl(0xa0, 0x01), 0x01)\n        /* \"https://github.com/OpenZeppelin/openzeppelin-contracts/blob/v4.9.3/contracts/token/ERC20/ERC20.sol\":10636:10657  spender != address(0) */\n      dup3\n      and\n        /* \"https://github.com/OpenZeppelin/openzeppelin-contracts/blob/v4.9.3/contracts/token/ERC20/ERC20.sol\":10628:10696  require(spender != address(0), \"ERC20: approve to the zero address\") */\n      tag_163\n      jumpi\n      mload(0x40)\n      shl(0xe5, 0x461bcd)\n      dup2\n      mstore\n        /* \"#utility.yul\":5584:5586   */\n      0x20\n        /* \"https://github.com/OpenZeppelin/openzeppelin-contracts/blob/v4.9.3/contracts/token/ERC20/ERC20.sol\":10628:10696  require(spender != address(0), \"ERC20: approve to the zero address\") */\n      0x04\n      dup3\n      add\n        /* \"#utility.yul\":5566:5587   */\n      mstore\n        /* \"#utility.yul\":5623:5625   */\n      0x22\n        /* \"#utility.yul\":5603:5621   */\n      0x24\n      dup3\n      add\n        /* \"#utility.yul\":5596:5626   */\n      mstore\n        /* \"#utility.yul\":5662:5696   */\n      0x45524332303a20617070726f766520746f20746865207a65726f206164647265\n        /* \"#utility.yul\":5642:5660   */\n      0x44\n      dup3\n      add\n        /* \"#utility.yul\":5635:5697   */\n      mstore\n      shl(0xf0, 0x7373)\n        /* \"#utility.yul\":5713:5731   */\n      0x64\n      dup3\n      add\n        /* \"#utility.yul\":5706:5738   */\n      mstore\n        /* \"#utility.yul\":5755:5774   */\n      0x84\n      add\n        /* \"https://github.com/OpenZeppelin/openzeppelin-contracts/blob/v4.9.3/contracts/token/ERC20/ERC20.sol\":10628:10696  require(spender != address(0), \"ERC20: approve to the zero address\") */\n      tag_134\n        /* \"#utility.yul\":5382:5780   */\n      jump\n        /* \"https://github.com/OpenZeppelin/openzeppelin-contracts/blob/v4.9.3/contracts/token/ERC20/ERC20.sol\":10628:10696  require(spender != address(0), \"ERC20: approve to the zero address\") */\n    tag_163:\n      sub(shl(0xa0, 0x01), 0x01)\n        /* \"https://github.com/OpenZeppelin/openzeppelin-contracts/blob/v4.9.3/contracts/token/ERC20/ERC20.sol\":10707:10725  _allowances[owner] */\n      dup4\n      dup2\n      and\n      0x00\n      dup2\n      dup2\n      mstore\n        /* \"https://github.com/OpenZeppelin/openzeppelin-contracts/blob/v4.9.3/contracts/token/ERC20/ERC20.sol\":10707:10718  _allowances */\n      0x01\n        /* \"https://github.com/OpenZeppelin/openzeppelin-contracts/blob/v4.9.3/contracts/token/ERC20/ERC20.sol\":10707:10725  _allowances[owner] */\n      0x20\n      swap1\n      dup2\n      mstore\n      0x40\n      dup1\n      dup4\n      keccak256\n        /* \"https://github.com/OpenZeppelin/openzeppelin-contracts/blob/v4.9.3/contracts/token/ERC20/ERC20.sol\":10707:10734  _allowances[owner][spender] */\n      swap5\n      dup8\n      and\n      dup1\n      dup5\n      mstore\n      swap5\n      dup3\n      mstore\n      swap2\n      dup3\n      swap1\n      keccak256\n        /* \"https://github.com/OpenZeppelin/openzeppelin-contracts/blob/v4.9.3/contracts/token/ERC20/ERC20.sol\":10707:10743  _allowances[owner][spender] = amount */\n      dup6\n      swap1\n      sstore\n        /* \"https://github.com/OpenZeppelin/openzeppelin-contracts/blob/v4.9.3/contracts/token/ERC20/ERC20.sol\":10758:10790  Approval(owner, spender, amount) */\n      swap1\n      mload\n        /* \"#utility.yul\":1258:1283   */\n      dup5\n      dup2\n      mstore\n        /* \"https://github.com/OpenZeppelin/openzeppelin-contracts/blob/v4.9.3/contracts/token/ERC20/ERC20.sol\":10758:10790  Approval(owner, spender, amount) */\n      0x8c5be1e5ebec7d5bd14f71427d1e84f3dd0314c0f7b2291e5b200ac8c7c3b925\n      swap2\n        /* \"#utility.yul\":1231:1249   */\n      add\n        /* \"https://github.com/OpenZeppelin/openzeppelin-contracts/blob/v4.9.3/contracts/token/ERC20/ERC20.sol\":10758:10790  Approval(owner, spender, amount) */\n      mload(0x40)\n      dup1\n      swap2\n      sub\n      swap1\n      log3\n        /* \"https://github.com/OpenZeppelin/openzeppelin-contracts/blob/v4.9.3/contracts/token/ERC20/ERC20.sol\":10457:10797  function _approve(address owner, address spender, uint256 amount) internal virtual {... */\n      pop\n      pop\n      pop\n      jump\t// out\n        /* \"https://github.com/OpenZeppelin/openzeppelin-contracts/blob/v4.9.3/contracts/token/ERC20/ERC20.sol\":11078:11489  function _spendAllowance(address owner, address spender, uint256 amount) internal virtual {... */\n    tag_100:\n        /* \"https://github.com/OpenZeppelin/openzeppelin-contracts/blob/v4.9.3/contracts/token/ERC20/ERC20.sol\":11178:11202  uint256 currentAllowance */\n      0x00\n        /* \"https://github.com/OpenZeppelin/openzeppelin-contracts/blob/v4.9.3/contracts/token/ERC20/ERC20.sol\":11205:11230  allowance(owner, spender) */\n      tag_168\n        /* \"https://github.com/OpenZeppelin/openzeppelin-contracts/blob/v4.9.3/contracts/token/ERC20/ERC20.sol\":11215:11220  owner */\n      dup5\n        /* \"https://github.com/OpenZeppelin/openzeppelin-contracts/blob/v4.9.3/contracts/token/ERC20/ERC20.sol\":11222:11229  spender */\n      dup5\n        /* \"https://github.com/OpenZeppelin/openzeppelin-contracts/blob/v4.9.3/contracts/token/ERC20/ERC20.sol\":11205:11214  allowance */\n      tag_82\n        /* \"https://github.com/OpenZeppelin/openzeppelin-contracts/blob/v4.9.3/contracts/token/ERC20/ERC20.sol\":11205:11230  allowance(owner, spender) */\n      jump\t// in\n    tag_168:\n        /* \"https://github.com/OpenZeppelin/openzeppelin-contracts/blob/v4.9.3/contracts/token/ERC20/ERC20.sol\":11178:11230  uint256 currentAllowance = allowance(owner, spender) */\n      swap1\n      pop\n      not(0x00)\n        /* \"https://github.com/OpenZeppelin/openzeppelin-contracts/blob/v4.9.3/contracts/token/ERC20/ERC20.sol\":11244:11260  currentAllowance */\n      dup2\n        /* \"https://github.com/OpenZeppelin/openzeppelin-contracts/blob/v4.9.3/contracts/token/ERC20/ERC20.sol\":11244:11281  currentAllowance != type(uint256).max */\n      eq\n        /* \"https://github.com/OpenZeppelin/openzeppelin-contracts/blob/v4.9.3/contracts/token/ERC20/ERC20.sol\":11240:11483  if (currentAllowance != type(uint256).max) {... */\n      tag_173\n      jumpi\n        /* \"https://github.com/OpenZeppelin/openzeppelin-contracts/blob/v4.9.3/contracts/token/ERC20/ERC20.sol\":11325:11331  amount */\n      dup2\n        /* \"https://github.com/OpenZeppelin/openzeppelin-contracts/blob/v4.9.3/contracts/token/ERC20/ERC20.sol\":11305:11321  currentAllowance */\n      dup2\n        /* \"https://github.com/OpenZeppelin/openzeppelin-contracts/blob/v4.9.3/contracts/token/ERC20/ERC20.sol\":11305:11331  currentAllowance >= amount */\n      lt\n      iszero\n        /* \"https://github.com/OpenZeppelin/openzeppelin-contracts/blob/v4.9.3/contracts/token/ERC20/ERC20.sol\":11297:11365  require(currentAllowance >= amount, \"ERC20: insufficient allowance\") */\n      tag_170\n      jumpi\n      mload(0x40)\n      shl(0xe5, 0x461bcd)\n      dup2\n      mstore\n        /* \"#utility.yul\":5987:5989   */\n      0x20\n        /* \"https://github.com/OpenZeppelin/openzeppelin-contracts/blob/v4.9.3/contracts/token/ERC20/ERC20.sol\":11297:11365  require(currentAllowance >= amount, \"ERC20: insufficient allowance\") */\n      0x04\n      dup3\n      add\n        /* \"#utility.yul\":5969:5990   */\n      mstore\n        /* \"#utility.yul\":6026:6028   */\n      0x1d\n        /* \"#utility.yul\":6006:6024   */\n      0x24\n      dup3\n      add\n        /* \"#utility.yul\":5999:6029   */\n      mstore\n        /* \"#utility.yul\":6065:6096   */\n      0x45524332303a20696e73756666696369656e7420616c6c6f77616e6365000000\n        /* \"#utility.yul\":6045:6063   */\n      0x44\n      dup3\n      add\n        /* \"#utility.yul\":6038:6097   */\n      mstore\n        /* \"#utility.yul\":6114:6132   */\n      0x64\n      add\n        /* \"https://github.com/OpenZeppelin/openzeppelin-contracts/blob/v4.9.3/contracts/token/ERC20/ERC20.sol\":11297:11365  require(currentAllowance >= amount, \"ERC20: insufficient allowance\") */\n      tag_134\n        /* \"#utility.yul\":5785:6138   */\n      jump\n        /* \"https://github.com/OpenZeppelin/openzeppelin-contracts/blob/v4.9.3/contracts/token/ERC20/ERC20.sol\":11297:11365  require(currentAllowance >= amount, \"ERC20: insufficient allowance\") */\n    tag_170:\n        /* \"https://github.com/OpenZeppelin/openzeppelin-contracts/blob/v4.9.3/contracts/token/ERC20/ERC20.sol\":11407:11458  _approve(owner, spender, currentAllowance - amount) */\n      tag_173\n        /* \"https://github.com/OpenZeppelin/openzeppelin-contracts/blob/v4.9.3/contracts/token/ERC20/ERC20.sol\":11416:11421  owner */\n      dup5\n        /* \"https://github.com/OpenZeppelin/openzeppelin-contracts/blob/v4.9.3/contracts/token/ERC20/ERC20.sol\":11423:11430  spender */\n      dup5\n        /* \"https://github.com/OpenZeppelin/openzeppelin-contracts/blob/v4.9.3/contracts/token/ERC20/ERC20.sol\":11451:11457  amount */\n      dup5\n        /* \"https://github.com/OpenZeppelin/openzeppelin-contracts/blob/v4.9.3/contracts/token/ERC20/ERC20.sol\":11432:11448  currentAllowance */\n      dup5\n        /* \"https://github.com/OpenZeppelin/openzeppelin-contracts/blob/v4.9.3/contracts/token/ERC20/ERC20.sol\":11432:11457  currentAllowance - amount */\n      sub\n        /* \"https://github.com/OpenZeppelin/openzeppelin-contracts/blob/v4.9.3/contracts/token/ERC20/ERC20.sol\":11407:11415  _approve */\n      tag_95\n        /* \"https://github.com/OpenZeppelin/openzeppelin-contracts/blob/v4.9.3/contracts/token/ERC20/ERC20.sol\":11407:11458  _approve(owner, spender, currentAllowance - amount) */\n      jump\t// in\n    tag_173:\n        /* \"https://github.com/OpenZeppelin/openzeppelin-contracts/blob/v4.9.3/contracts/token/ERC20/ERC20.sol\":11168:11489  {... */\n      pop\n        /* \"https://github.com/OpenZeppelin/openzeppelin-contracts/blob/v4.9.3/contracts/token/ERC20/ERC20.sol\":11078:11489  function _spendAllowance(address owner, address spender, uint256 amount) internal virtual {... */\n      pop\n      pop\n      pop\n      jump\t// out\n        /* \"https://github.com/OpenZeppelin/openzeppelin-contracts/blob/v4.9.3/contracts/token/ERC20/ERC20.sol\":7456:8244  function _transfer(address from, address to, uint256 amount) internal virtual {... */\n    tag_102:\n      sub(shl(0xa0, 0x01), 0x01)\n        /* \"https://github.com/OpenZeppelin/openzeppelin-contracts/blob/v4.9.3/contracts/token/ERC20/ERC20.sol\":7552:7570  from != address(0) */\n      dup4\n      and\n        /* \"https://github.com/OpenZeppelin/openzeppelin-contracts/blob/v4.9.3/contracts/token/ERC20/ERC20.sol\":7544:7612  require(from != address(0), \"ERC20: transfer from the zero address\") */\n      tag_175\n      jumpi\n      mload(0x40)\n      shl(0xe5, 0x461bcd)\n      dup2\n      mstore\n        /* \"#utility.yul\":6345:6347   */\n      0x20\n        /* \"https://github.com/OpenZeppelin/openzeppelin-contracts/blob/v4.9.3/contracts/token/ERC20/ERC20.sol\":7544:7612  require(from != address(0), \"ERC20: transfer from the zero address\") */\n      0x04\n      dup3\n      add\n        /* \"#utility.yul\":6327:6348   */\n      mstore\n        /* \"#utility.yul\":6384:6386   */\n      0x25\n        /* \"#utility.yul\":6364:6382   */\n      0x24\n      dup3\n      add\n        /* \"#utility.yul\":6357:6387   */\n      mstore\n        /* \"#utility.yul\":6423:6457   */\n      0x45524332303a207472616e736665722066726f6d20746865207a65726f206164\n        /* \"#utility.yul\":6403:6421   */\n      0x44\n      dup3\n      add\n        /* \"#utility.yul\":6396:6458   */\n      mstore\n      shl(0xd8, 0x6472657373)\n        /* \"#utility.yul\":6474:6492   */\n      0x64\n      dup3\n      add\n        /* \"#utility.yul\":6467:6502   */\n      mstore\n        /* \"#utility.yul\":6519:6538   */\n      0x84\n      add\n        /* \"https://github.com/OpenZeppelin/openzeppelin-contracts/blob/v4.9.3/contracts/token/ERC20/ERC20.sol\":7544:7612  require(from != address(0), \"ERC20: transfer from the zero address\") */\n      tag_134\n        /* \"#utility.yul\":6143:6544   */\n      jump\n        /* \"https://github.com/OpenZeppelin/openzeppelin-contracts/blob/v4.9.3/contracts/token/ERC20/ERC20.sol\":7544:7612  require(from != address(0), \"ERC20: transfer from the zero address\") */\n    tag_175:\n      sub(shl(0xa0, 0x01), 0x01)\n        /* \"https://github.com/OpenZeppelin/openzeppelin-contracts/blob/v4.9.3/contracts/token/ERC20/ERC20.sol\":7630:7646  to != address(0) */\n      dup3\n      and\n        /* \"https://github.com/OpenZeppelin/openzeppelin-contracts/blob/v4.9.3/contracts/token/ERC20/ERC20.sol\":7622:7686  require(to != address(0), \"ERC20: transfer to the zero address\") */\n      tag_178\n      jumpi\n      mload(0x40)\n      shl(0xe5, 0x461bcd)\n      dup2\n      mstore\n        /* \"#utility.yul\":6751:6753   */\n      0x20\n        /* \"https://github.com/OpenZeppelin/openzeppelin-contracts/blob/v4.9.3/contracts/token/ERC20/ERC20.sol\":7622:7686  require(to != address(0), \"ERC20: transfer to the zero address\") */\n      0x04\n      dup3\n      add\n        /* \"#utility.yul\":6733:6754   */\n      mstore\n        /* \"#utility.yul\":6790:6792   */\n      0x23\n        /* \"#utility.yul\":6770:6788   */\n      0x24\n      dup3\n      add\n        /* \"#utility.yul\":6763:6793   */\n      mstore\n        /* \"#utility.yul\":6829:6863   */\n      0x45524332303a207472616e7366657220746f20746865207a65726f2061646472\n        /* \"#utility.yul\":6809:6827   */\n      0x44\n      dup3\n      add\n        /* \"#utility.yul\":6802:6864   */\n      mstore\n      shl(0xe8, 0x657373)\n        /* \"#utility.yul\":6880:6898   */\n      0x64\n      dup3\n      add\n        /* \"#utility.yul\":6873:6906   */\n      mstore\n        /* \"#utility.yul\":6923:6942   */\n      0x84\n      add\n        /* \"https://github.com/OpenZeppelin/openzeppelin-contracts/blob/v4.9.3/contracts/token/ERC20/ERC20.sol\":7622:7686  require(to != address(0), \"ERC20: transfer to the zero address\") */\n      tag_134\n        /* \"#utility.yul\":6549:6948   */\n      jump\n        /* \"https://github.com/OpenZeppelin/openzeppelin-contracts/blob/v4.9.3/contracts/token/ERC20/ERC20.sol\":7622:7686  require(to != address(0), \"ERC20: transfer to the zero address\") */\n    tag_178:\n      sub(shl(0xa0, 0x01), 0x01)\n        /* \"https://github.com/OpenZeppelin/openzeppelin-contracts/blob/v4.9.3/contracts/token/ERC20/ERC20.sol\":7768:7783  _balances[from] */\n      dup4\n      and\n        /* \"https://github.com/OpenZeppelin/openzeppelin-contracts/blob/v4.9.3/contracts/token/ERC20/ERC20.sol\":7746:7765  uint256 fromBalance */\n      0x00\n        /* \"https://github.com/OpenZeppelin/openzeppelin-contracts/blob/v4.9.3/contracts/token/ERC20/ERC20.sol\":7768:7783  _balances[from] */\n      swap1\n      dup2\n      mstore\n      0x20\n      dup2\n      swap1\n      mstore\n      0x40\n      swap1\n      keccak256\n      sload\n        /* \"https://github.com/OpenZeppelin/openzeppelin-contracts/blob/v4.9.3/contracts/token/ERC20/ERC20.sol\":7801:7822  fromBalance >= amount */\n      dup2\n      dup2\n      lt\n      iszero\n        /* \"https://github.com/OpenZeppelin/openzeppelin-contracts/blob/v4.9.3/contracts/token/ERC20/ERC20.sol\":7793:7865  require(fromBalance >= amount, \"ERC20: transfer amount exceeds balance\") */\n      tag_183\n      jumpi\n      mload(0x40)\n      shl(0xe5, 0x461bcd)\n      dup2\n      mstore\n        /* \"#utility.yul\":7155:7157   */\n      0x20\n        /* \"https://github.com/OpenZeppelin/openzeppelin-contracts/blob/v4.9.3/contracts/token/ERC20/ERC20.sol\":7793:7865  require(fromBalance >= amount, \"ERC20: transfer amount exceeds balance\") */\n      0x04\n      dup3\n      add\n        /* \"#utility.yul\":7137:7158   */\n      mstore\n        /* \"#utility.yul\":7194:7196   */\n      0x26\n        /* \"#utility.yul\":7174:7192   */\n      0x24\n      dup3\n      add\n        /* \"#utility.yul\":7167:7197   */\n      mstore\n        /* \"#utility.yul\":7233:7267   */\n      0x45524332303a207472616e7366657220616d6f756e7420657863656564732062\n        /* \"#utility.yul\":7213:7231   */\n      0x44\n      dup3\n      add\n        /* \"#utility.yul\":7206:7268   */\n      mstore\n      shl(0xd0, 0x616c616e6365)\n        /* \"#utility.yul\":7284:7302   */\n      0x64\n      dup3\n      add\n        /* \"#utility.yul\":7277:7313   */\n      mstore\n        /* \"#utility.yul\":7330:7349   */\n      0x84\n      add\n        /* \"https://github.com/OpenZeppelin/openzeppelin-contracts/blob/v4.9.3/contracts/token/ERC20/ERC20.sol\":7793:7865  require(fromBalance >= amount, \"ERC20: transfer amount exceeds balance\") */\n      tag_134\n        /* \"#utility.yul\":6953:7355   */\n      jump\n        /* \"https://github.com/OpenZeppelin/openzeppelin-contracts/blob/v4.9.3/contracts/token/ERC20/ERC20.sol\":7793:7865  require(fromBalance >= amount, \"ERC20: transfer amount exceeds balance\") */\n    tag_183:\n      sub(shl(0xa0, 0x01), 0x01)\n        /* \"https://github.com/OpenZeppelin/openzeppelin-contracts/blob/v4.9.3/contracts/token/ERC20/ERC20.sol\":7899:7914  _balances[from] */\n      dup5\n      dup2\n      and\n        /* \"https://github.com/OpenZeppelin/openzeppelin-contracts/blob/v4.9.3/contracts/token/ERC20/ERC20.sol\":7899:7908  _balances */\n      0x00\n        /* \"https://github.com/OpenZeppelin/openzeppelin-contracts/blob/v4.9.3/contracts/token/ERC20/ERC20.sol\":7899:7914  _balances[from] */\n      dup2\n      dup2\n      mstore\n      0x20\n      dup2\n      dup2\n      mstore\n      0x40\n      dup1\n      dup4\n      keccak256\n        /* \"https://github.com/OpenZeppelin/openzeppelin-contracts/blob/v4.9.3/contracts/token/ERC20/ERC20.sol\":7917:7937  fromBalance - amount */\n      dup8\n      dup8\n      sub\n        /* \"https://github.com/OpenZeppelin/openzeppelin-contracts/blob/v4.9.3/contracts/token/ERC20/ERC20.sol\":7899:7937  _balances[from] = fromBalance - amount */\n      swap1\n      sstore\n        /* \"https://github.com/OpenZeppelin/openzeppelin-contracts/blob/v4.9.3/contracts/token/ERC20/ERC20.sol\":8114:8127  _balances[to] */\n      swap4\n      dup8\n      and\n      dup1\n      dup4\n      mstore\n      swap2\n      dup5\n      swap1\n      keccak256\n        /* \"https://github.com/OpenZeppelin/openzeppelin-contracts/blob/v4.9.3/contracts/token/ERC20/ERC20.sol\":8114:8137  _balances[to] += amount */\n      dup1\n      sload\n      dup8\n      add\n      swap1\n      sstore\n        /* \"https://github.com/OpenZeppelin/openzeppelin-contracts/blob/v4.9.3/contracts/token/ERC20/ERC20.sol\":8163:8189  Transfer(from, to, amount) */\n      swap3\n      mload\n        /* \"#utility.yul\":1258:1283   */\n      dup6\n      dup2\n      mstore\n        /* \"https://github.com/OpenZeppelin/openzeppelin-contracts/blob/v4.9.3/contracts/token/ERC20/ERC20.sol\":8114:8127  _balances[to] */\n      swap1\n      swap3\n        /* \"https://github.com/OpenZeppelin/openzeppelin-contracts/blob/v4.9.3/contracts/token/ERC20/ERC20.sol\":8163:8189  Transfer(from, to, amount) */\n      0xddf252ad1be2c89b69c2b068fc378daa952ba7f163c4a11628f55a4df523b3ef\n      swap2\n        /* \"#utility.yul\":1231:1249   */\n      add\n        /* \"https://github.com/OpenZeppelin/openzeppelin-contracts/blob/v4.9.3/contracts/token/ERC20/ERC20.sol\":8163:8189  Transfer(from, to, amount) */\n      mload(0x40)\n      dup1\n      swap2\n      sub\n      swap1\n      log3\n        /* \"https://github.com/OpenZeppelin/openzeppelin-contracts/blob/v4.9.3/contracts/token/ERC20/ERC20.sol\":8200:8237  _afterTokenTransfer(from, to, amount) */\n      tag_173\n        /* \"https://github.com/OpenZeppelin/openzeppelin-contracts/blob/v4.9.3/contracts/token/ERC20/utils/SafeERC20.sol\":941:1116  function safeTransfer(IERC20 token, address to, uint256 value) internal {... */\n      jump\n        /* \"https://github.com/OpenZeppelin/openzeppelin-contracts/blob/v4.9.3/contracts/security/ReentrancyGuard.sol\":2336:2623  function _nonReentrantBefore() private {... */\n    tag_142:\n        /* \"https://github.com/OpenZeppelin/openzeppelin-contracts/blob/v4.9.3/contracts/security/ReentrancyGuard.sol\":1759:1760  2 */\n      0x02\n        /* \"https://github.com/OpenZeppelin/openzeppelin-contracts/blob/v4.9.3/contracts/security/ReentrancyGuard.sol\":2468:2475  _status */\n      sload(0x05)\n        /* \"https://github.com/OpenZeppelin/openzeppelin-contracts/blob/v4.9.3/contracts/security/ReentrancyGuard.sol\":2468:2487  _status != _ENTERED */\n      sub\n        /* \"https://github.com/OpenZeppelin/openzeppelin-contracts/blob/v4.9.3/contracts/security/ReentrancyGuard.sol\":2460:2523  require(_status != _ENTERED, \"ReentrancyGuard: reentrant call\") */\n      tag_190\n      jumpi\n      mload(0x40)\n      shl(0xe5, 0x461bcd)\n      dup2\n      mstore\n        /* \"#utility.yul\":7562:7564   */\n      0x20\n        /* \"https://github.com/OpenZeppelin/openzeppelin-contracts/blob/v4.9.3/contracts/security/ReentrancyGuard.sol\":2460:2523  require(_status != _ENTERED, \"ReentrancyGuard: reentrant call\") */\n      0x04\n      dup3\n      add\n        /* \"#utility.yul\":7544:7565   */\n      mstore\n        /* \"#utility.yul\":7601:7603   */\n      0x1f\n        /* \"#utility.yul\":7581:7599   */\n      0x24\n      dup3\n      add\n        /* \"#utility.yul\":7574:7604   */\n      mstore\n        /* \"#utility.yul\":7640:7673   */\n      0x5265656e7472616e637947756172643a207265656e7472616e742063616c6c00\n        /* \"#utility.yul\":7620:7638   */\n      0x44\n      dup3\n      add\n        /* \"#utility.yul\":7613:7674   */\n      mstore\n        /* \"#utility.yul\":7691:7709   */\n      0x64\n      add\n        /* \"https://github.com/OpenZeppelin/openzeppelin-contracts/blob/v4.9.3/contracts/security/ReentrancyGuard.sol\":2460:2523  require(_status != _ENTERED, \"ReentrancyGuard: reentrant call\") */\n      tag_134\n        /* \"#utility.yul\":7360:7715   */\n      jump\n        /* \"https://github.com/OpenZeppelin/openzeppelin-contracts/blob/v4.9.3/contracts/security/ReentrancyGuard.sol\":2460:2523  require(_status != _ENTERED, \"ReentrancyGuard: reentrant call\") */\n    tag_190:\n        /* \"https://github.com/OpenZeppelin/openzeppelin-contracts/blob/v4.9.3/contracts/security/ReentrancyGuard.sol\":1759:1760  2 */\n      0x02\n        /* \"https://github.com/OpenZeppelin/openzeppelin-contracts/blob/v4.9.3/contracts/security/ReentrancyGuard.sol\":2598:2605  _status */\n      0x05\n        /* \"https://github.com/OpenZeppelin/openzeppelin-contracts/blob/v4.9.3/contracts/security/ReentrancyGuard.sol\":2598:2616  _status = _ENTERED */\n      sstore\n        /* \"https://github.com/OpenZeppelin/openzeppelin-contracts/blob/v4.9.3/contracts/security/ReentrancyGuard.sol\":2336:2623  function _nonReentrantBefore() private {... */\n      jump\t// out\n        /* \"https://github.com/OpenZeppelin/openzeppelin-contracts/blob/v4.9.3/contracts/token/ERC20/utils/SafeERC20.sol\":1355:1558  function safeTransferFrom(IERC20 token, address from, address to, uint256 value) internal {... */\n    tag_148:\n        /* \"https://github.com/OpenZeppelin/openzeppelin-contracts/blob/v4.9.3/contracts/token/ERC20/utils/SafeERC20.sol\":1482:1550  abi.encodeWithSelector(token.transferFrom.selector, from, to, value) */\n      mload(0x40)\n      sub(shl(0xa0, 0x01), 0x01)\n        /* \"#utility.yul\":7940:7972   */\n      dup1\n      dup6\n      and\n        /* \"https://github.com/OpenZeppelin/openzeppelin-contracts/blob/v4.9.3/contracts/token/ERC20/utils/SafeERC20.sol\":1482:1550  abi.encodeWithSelector(token.transferFrom.selector, from, to, value) */\n      0x24\n      dup4\n      add\n        /* \"#utility.yul\":7922:7973   */\n      mstore\n        /* \"#utility.yul\":8009:8041   */\n      dup4\n      and\n        /* \"#utility.yul\":7989:8007   */\n      0x44\n      dup3\n      add\n        /* \"#utility.yul\":7982:8042   */\n      mstore\n        /* \"#utility.yul\":8058:8076   */\n      0x64\n      dup2\n      add\n        /* \"#utility.yul\":8051:8085   */\n      dup3\n      swap1\n      mstore\n        /* \"https://github.com/OpenZeppelin/openzeppelin-contracts/blob/v4.9.3/contracts/token/ERC20/utils/SafeERC20.sol\":1455:1551  _callOptionalReturn(token, abi.encodeWithSelector(token.transferFrom.selector, from, to, value)) */\n      tag_173\n      swap1\n        /* \"https://github.com/OpenZeppelin/openzeppelin-contracts/blob/v4.9.3/contracts/token/ERC20/utils/SafeERC20.sol\":1475:1480  token */\n      dup6\n      swap1\n      shl(0xe0, 0x23b872dd)\n        /* \"https://github.com/OpenZeppelin/openzeppelin-contracts/blob/v4.9.3/contracts/token/ERC20/utils/SafeERC20.sol\":1505:1532  token.transferFrom.selector */\n      swap1\n        /* \"#utility.yul\":7895:7913   */\n      0x84\n      add\n        /* \"https://github.com/OpenZeppelin/openzeppelin-contracts/blob/v4.9.3/contracts/token/ERC20/utils/SafeERC20.sol\":1482:1550  abi.encodeWithSelector(token.transferFrom.selector, from, to, value) */\n    tag_195:\n      0x40\n      dup1\n      mload\n      not(0x1f)\n      dup2\n      dup5\n      sub\n      add\n      dup2\n      mstore\n      swap2\n      swap1\n      mstore\n      0x20\n      dup2\n      add\n      dup1\n      mload\n      sub(shl(0xe0, 0x01), 0x01)\n      and\n      not(sub(shl(0xe0, 0x01), 0x01))\n      swap1\n      swap4\n      and\n      swap3\n      swap1\n      swap3\n      or\n      swap1\n      swap2\n      mstore\n        /* \"https://github.com/OpenZeppelin/openzeppelin-contracts/blob/v4.9.3/contracts/token/ERC20/utils/SafeERC20.sol\":1455:1474  _callOptionalReturn */\n      tag_197\n        /* \"https://github.com/OpenZeppelin/openzeppelin-contracts/blob/v4.9.3/contracts/token/ERC20/utils/SafeERC20.sol\":1455:1551  _callOptionalReturn(token, abi.encodeWithSelector(token.transferFrom.selector, from, to, value)) */\n      jump\t// in\n        /* \"fund_shares.sol\":2125:2456  function _convertToShares(uint256 assets) internal view returns (uint256) {... */\n    tag_150:\n        /* \"fund_shares.sol\":2190:2197  uint256 */\n      0x00\n        /* \"fund_shares.sol\":2210:2224  uint256 supply */\n      0x00\n        /* \"fund_shares.sol\":2227:2240  totalSupply() */\n      tag_199\n        /* \"https://github.com/OpenZeppelin/openzeppelin-contracts/blob/v4.9.3/contracts/token/ERC20/ERC20.sol\":3342:3354  _totalSupply */\n      sload(0x02)\n      swap1\n        /* \"https://github.com/OpenZeppelin/openzeppelin-contracts/blob/v4.9.3/contracts/token/ERC20/ERC20.sol\":3255:3361  function totalSupply() public view virtual override returns (uint256) {... */\n      jump\n        /* \"fund_shares.sol\":2227:2240  totalSupply() */\n    tag_199:\n        /* \"fund_shares.sol\":2296:2325  weth.balanceOf(address(this)) */\n      mload(0x40)\n      shl(0xe0, 0x70a08231)\n      dup2\n      mstore\n        /* \"fund_shares.sol\":2319:2323  this */\n      address\n        /* \"fund_shares.sol\":2296:2325  weth.balanceOf(address(this)) */\n      0x04\n      dup3\n      add\n        /* \"#utility.yul\":2022:2073   */\n      mstore\n        /* \"fund_shares.sol\":2210:2240  uint256 supply = totalSupply() */\n      swap1\n      swap2\n      pop\n        /* \"fund_shares.sol\":2274:2293  uint256 totalAssets */\n      0x00\n      swap1\n      sub(shl(0xa0, 0x01), 0x01)\n        /* \"fund_shares.sol\":2296:2300  weth */\n      immutable(\"0x277ab82e5a4641341820a4a2933a62c1de997e42e92548657ae21b3728d580fe\")\n        /* \"fund_shares.sol\":2296:2310  weth.balanceOf */\n      and\n      swap1\n      0x70a08231\n      swap1\n        /* \"#utility.yul\":1995:2013   */\n      0x24\n      add\n        /* \"fund_shares.sol\":2296:2325  weth.balanceOf(address(this)) */\n      0x20\n      mload(0x40)\n      dup1\n      dup4\n      sub\n      dup2\n      dup7\n      gas\n      staticcall\n      iszero\n      dup1\n      iszero\n      tag_202\n      jumpi\n      returndatacopy(0x00, 0x00, returndatasize)\n      revert(0x00, returndatasize)\n    tag_202:\n      pop\n      pop\n      pop\n      pop\n      mload(0x40)\n      returndatasize\n      not(0x1f)\n      0x1f\n      dup3\n      add\n      and\n      dup3\n      add\n      dup1\n      0x40\n      mstore\n      pop\n      dup2\n      add\n      swap1\n      tag_203\n      swap2\n      swap1\n      tag_124\n      jump\t// in\n    tag_203:\n        /* \"fund_shares.sol\":2274:2325  uint256 totalAssets = weth.balanceOf(address(this)) */\n      swap1\n      pop\n        /* \"fund_shares.sol\":2373:2384  supply == 0 */\n      dup2\n      iszero\n      dup1\n        /* \"fund_shares.sol\":2373:2404  supply == 0 || totalAssets == 0 */\n      tag_204\n      jumpi\n      pop\n        /* \"fund_shares.sol\":2388:2404  totalAssets == 0 */\n      dup1\n      iszero\n        /* \"fund_shares.sol\":2373:2404  supply == 0 || totalAssets == 0 */\n    tag_204:\n        /* \"fund_shares.sol\":2372:2448  (supply == 0 || totalAssets == 0) ? assets : (assets * supply) / totalAssets */\n      tag_205\n      jumpi\n        /* \"fund_shares.sol\":2437:2448  totalAssets */\n      dup1\n        /* \"fund_shares.sol\":2418:2433  assets * supply */\n      tag_206\n        /* \"fund_shares.sol\":2427:2433  supply */\n      dup4\n        /* \"fund_shares.sol\":2418:2424  assets */\n      dup7\n        /* \"fund_shares.sol\":2418:2433  assets * supply */\n      tag_126\n      jump\t// in\n    tag_206:\n        /* \"fund_shares.sol\":2417:2448  (assets * supply) / totalAssets */\n      tag_207\n      swap2\n      swap1\n      tag_128\n      jump\t// in\n    tag_207:\n        /* \"fund_shares.sol\":2372:2448  (supply == 0 || totalAssets == 0) ? assets : (assets * supply) / totalAssets */\n      jump(tag_208)\n    tag_205:\n        /* \"fund_shares.sol\":2408:2414  assets */\n      dup4\n        /* \"fund_shares.sol\":2372:2448  (supply == 0 || totalAssets == 0) ? assets : (assets * supply) / totalAssets */\n    tag_208:\n        /* \"fund_shares.sol\":2365:2448  return (supply == 0 || totalAssets == 0) ? assets : (assets * supply) / totalAssets */\n      swap5\n        /* \"fund_shares.sol\":2125:2456  function _convertToShares(uint256 assets) internal view returns (uint256) {... */\n      swap4\n      pop\n      pop\n      pop\n      pop\n      jump\t// out\n        /* \"https://github.com/OpenZeppelin/openzeppelin-contracts/blob/v4.9.3/contracts/token/ERC20/ERC20.sol\":8520:9055  function _mint(address account, uint256 amount) internal virtual {... */\n    tag_152:\n      sub(shl(0xa0, 0x01), 0x01)\n        /* \"https://github.com/OpenZeppelin/openzeppelin-contracts/blob/v4.9.3/contracts/token/ERC20/ERC20.sol\":8603:8624  account != address(0) */\n      dup3\n      and\n        /* \"https://github.com/OpenZeppelin/openzeppelin-contracts/blob/v4.9.3/contracts/token/ERC20/ERC20.sol\":8595:8660  require(account != address(0), \"ERC20: mint to the zero address\") */\n      tag_210\n      jumpi\n      mload(0x40)\n      shl(0xe5, 0x461bcd)\n      dup2\n      mstore\n        /* \"#utility.yul\":8298:8300   */\n      0x20\n        /* \"https://github.com/OpenZeppelin/openzeppelin-contracts/blob/v4.9.3/contracts/token/ERC20/ERC20.sol\":8595:8660  require(account != address(0), \"ERC20: mint to the zero address\") */\n      0x04\n      dup3\n      add\n        /* \"#utility.yul\":8280:8301   */\n      mstore\n        /* \"#utility.yul\":8337:8339   */\n      0x1f\n        /* \"#utility.yul\":8317:8335   */\n      0x24\n      dup3\n      add\n        /* \"#utility.yul\":8310:8340   */\n      mstore\n        /* \"#utility.yul\":8376:8409   */\n      0x45524332303a206d696e7420746f20746865207a65726f206164647265737300\n        /* \"#utility.yul\":8356:8374   */\n      0x44\n      dup3\n      add\n        /* \"#utility.yul\":8349:8410   */\n      mstore\n        /* \"#utility.yul\":8427:8445   */\n      0x64\n      add\n        /* \"https://github.com/OpenZeppelin/openzeppelin-contracts/blob/v4.9.3/contracts/token/ERC20/ERC20.sol\":8595:8660  require(account != address(0), \"ERC20: mint to the zero address\") */\n      tag_134\n        /* \"#utility.yul\":8096:8451   */\n      jump\n        /* \"https://github.com/OpenZeppelin/openzeppelin-contracts/blob/v4.9.3/contracts/token/ERC20/ERC20.sol\":8595:8660  require(account != address(0), \"ERC20: mint to the zero address\") */\n    tag_210:\n        /* \"https://github.com/OpenZeppelin/openzeppelin-contracts/blob/v4.9.3/contracts/token/ERC20/ERC20.sol\":8747:8753  amount */\n      dup1\n        /* \"https://github.com/OpenZeppelin/openzeppelin-contracts/blob/v4.9.3/contracts/token/ERC20/ERC20.sol\":8731:8743  _totalSupply */\n      0x02\n      0x00\n        /* \"https://github.com/OpenZeppelin/openzeppelin-contracts/blob/v4.9.3/contracts/token/ERC20/ERC20.sol\":8731:8753  _totalSupply += amount */\n      dup3\n      dup3\n      sload\n      tag_214\n      swap2\n      swap1\n      tag_109\n      jump\t// in\n    tag_214:\n      swap1\n      swap2\n      sstore\n      pop\n      pop\n      sub(shl(0xa0, 0x01), 0x01)\n        /* \"https://github.com/OpenZeppelin/openzeppelin-contracts/blob/v4.9.3/contracts/token/ERC20/ERC20.sol\":8899:8917  _balances[account] */\n      dup3\n      and\n        /* \"https://github.com/OpenZeppelin/openzeppelin-contracts/blob/v4.9.3/contracts/token/ERC20/ERC20.sol\":8899:8908  _balances */\n      0x00\n        /* \"https://github.com/OpenZeppelin/openzeppelin-contracts/blob/v4.9.3/contracts/token/ERC20/ERC20.sol\":8899:8917  _balances[account] */\n      dup2\n      dup2\n      mstore\n      0x20\n      dup2\n      dup2\n      mstore\n      0x40\n      dup1\n      dup4\n      keccak256\n        /* \"https://github.com/OpenZeppelin/openzeppelin-contracts/blob/v4.9.3/contracts/token/ERC20/ERC20.sol\":8899:8927  _balances[account] += amount */\n      dup1\n      sload\n      dup7\n      add\n      swap1\n      sstore\n        /* \"https://github.com/OpenZeppelin/openzeppelin-contracts/blob/v4.9.3/contracts/token/ERC20/ERC20.sol\":8952:8989  Transfer(address(0), account, amount) */\n      mload\n        /* \"#utility.yul\":1258:1283   */\n      dup5\n      dup2\n      mstore\n        /* \"https://github.com/OpenZeppelin/openzeppelin-contracts/blob/v4.9.3/contracts/token/ERC20/ERC20.sol\":8952:8989  Transfer(address(0), account, amount) */\n      0xddf252ad1be2c89b69c2b068fc378daa952ba7f163c4a11628f55a4df523b3ef\n      swap2\n        /* \"#utility.yul\":1231:1249   */\n      add\n        /* \"https://github.com/OpenZeppelin/openzeppelin-contracts/blob/v4.9.3/contracts/token/ERC20/ERC20.sol\":8952:8989  Transfer(address(0), account, amount) */\n      mload(0x40)\n      dup1\n      swap2\n      sub\n      swap1\n      log3\n        /* \"https://github.com/OpenZeppelin/openzeppelin-contracts/blob/v4.9.3/contracts/token/ERC20/ERC20.sol\":8520:9055  function _mint(address account, uint256 amount) internal virtual {... */\n      pop\n      pop\n      jump\t// out\n        /* \"https://github.com/OpenZeppelin/openzeppelin-contracts/blob/v4.9.3/contracts/token/ERC20/utils/SafeERC20.sol\":941:1116  function safeTransfer(IERC20 token, address to, uint256 value) internal {... */\n    tag_154:\n        /* \"https://github.com/OpenZeppelin/openzeppelin-contracts/blob/v4.9.3/contracts/token/ERC20/utils/SafeERC20.sol\":1050:1108  abi.encodeWithSelector(token.transfer.selector, to, value) */\n      mload(0x40)\n      sub(shl(0xa0, 0x01), 0x01)\n        /* \"#utility.yul\":8648:8680   */\n      dup4\n      and\n        /* \"https://github.com/OpenZeppelin/openzeppelin-contracts/blob/v4.9.3/contracts/token/ERC20/utils/SafeERC20.sol\":1050:1108  abi.encodeWithSelector(token.transfer.selector, to, value) */\n      0x24\n      dup3\n      add\n        /* \"#utility.yul\":8630:8681   */\n      mstore\n        /* \"#utility.yul\":8697:8715   */\n      0x44\n      dup2\n      add\n        /* \"#utility.yul\":8690:8724   */\n      dup3\n      swap1\n      mstore\n        /* \"https://github.com/OpenZeppelin/openzeppelin-contracts/blob/v4.9.3/contracts/token/ERC20/utils/SafeERC20.sol\":1023:1109  _callOptionalReturn(token, abi.encodeWithSelector(token.transfer.selector, to, value)) */\n      tag_218\n      swap1\n        /* \"https://github.com/OpenZeppelin/openzeppelin-contracts/blob/v4.9.3/contracts/token/ERC20/utils/SafeERC20.sol\":1043:1048  token */\n      dup5\n      swap1\n      shl(0xe0, 0xa9059cbb)\n        /* \"https://github.com/OpenZeppelin/openzeppelin-contracts/blob/v4.9.3/contracts/token/ERC20/utils/SafeERC20.sol\":1073:1096  token.transfer.selector */\n      swap1\n        /* \"#utility.yul\":8603:8621   */\n      0x64\n      add\n        /* \"https://github.com/OpenZeppelin/openzeppelin-contracts/blob/v4.9.3/contracts/token/ERC20/utils/SafeERC20.sol\":1050:1108  abi.encodeWithSelector(token.transfer.selector, to, value) */\n      tag_195\n        /* \"#utility.yul\":8456:8730   */\n      jump\n        /* \"https://github.com/OpenZeppelin/openzeppelin-contracts/blob/v4.9.3/contracts/token/ERC20/utils/SafeERC20.sol\":1023:1109  _callOptionalReturn(token, abi.encodeWithSelector(token.transfer.selector, to, value)) */\n    tag_218:\n        /* \"https://github.com/OpenZeppelin/openzeppelin-contracts/blob/v4.9.3/contracts/token/ERC20/utils/SafeERC20.sol\":941:1116  function safeTransfer(IERC20 token, address to, uint256 value) internal {... */\n      pop\n      pop\n      pop\n      jump\t// out\n        /* \"https://github.com/OpenZeppelin/openzeppelin-contracts/blob/v4.9.3/contracts/token/ERC20/utils/SafeERC20.sol\":5196:5838  function _callOptionalReturn(IERC20 token, bytes memory data) private {... */\n    tag_197:\n        /* \"https://github.com/OpenZeppelin/openzeppelin-contracts/blob/v4.9.3/contracts/token/ERC20/utils/SafeERC20.sol\":5615:5638  bytes memory returndata */\n      0x00\n        /* \"https://github.com/OpenZeppelin/openzeppelin-contracts/blob/v4.9.3/contracts/token/ERC20/utils/SafeERC20.sol\":5641:5710  address(token).functionCall(data, \"SafeERC20: low-level call failed\") */\n      tag_225\n        /* \"https://github.com/OpenZeppelin/openzeppelin-contracts/blob/v4.9.3/contracts/token/ERC20/utils/SafeERC20.sol\":5669:5673  data */\n      dup3\n        /* \"https://github.com/OpenZeppelin/openzeppelin-contracts/blob/v4.9.3/contracts/token/ERC20/utils/SafeERC20.sol\":5641:5710  address(token).functionCall(data, \"SafeERC20: low-level call failed\") */\n      mload(0x40)\n      dup1\n      0x40\n      add\n      0x40\n      mstore\n      dup1\n      0x20\n      dup2\n      mstore\n      0x20\n      add\n      0x5361666545524332303a206c6f772d6c6576656c2063616c6c206661696c6564\n      dup2\n      mstore\n      pop\n        /* \"https://github.com/OpenZeppelin/openzeppelin-contracts/blob/v4.9.3/contracts/token/ERC20/utils/SafeERC20.sol\":5649:5654  token */\n      dup6\n      sub(shl(0xa0, 0x01), 0x01)\n        /* \"https://github.com/OpenZeppelin/openzeppelin-contracts/blob/v4.9.3/contracts/token/ERC20/utils/SafeERC20.sol\":5641:5668  address(token).functionCall */\n      and\n      tag_226\n      swap1\n        /* \"https://github.com/OpenZeppelin/openzeppelin-contracts/blob/v4.9.3/contracts/token/ERC20/utils/SafeERC20.sol\":5641:5710  address(token).functionCall(data, \"SafeERC20: low-level call failed\") */\n      swap3\n      swap2\n      swap1\n      0xffffffff\n      and\n      jump\t// in\n    tag_225:\n        /* \"https://github.com/OpenZeppelin/openzeppelin-contracts/blob/v4.9.3/contracts/token/ERC20/utils/SafeERC20.sol\":5615:5710  bytes memory returndata = address(token).functionCall(data, \"SafeERC20: low-level call failed\") */\n      swap1\n      pop\n        /* \"https://github.com/OpenZeppelin/openzeppelin-contracts/blob/v4.9.3/contracts/token/ERC20/utils/SafeERC20.sol\":5728:5738  returndata */\n      dup1\n        /* \"https://github.com/OpenZeppelin/openzeppelin-contracts/blob/v4.9.3/contracts/token/ERC20/utils/SafeERC20.sol\":5728:5745  returndata.length */\n      mload\n        /* \"https://github.com/OpenZeppelin/openzeppelin-contracts/blob/v4.9.3/contracts/token/ERC20/utils/SafeERC20.sol\":5749:5750  0 */\n      0x00\n        /* \"https://github.com/OpenZeppelin/openzeppelin-contracts/blob/v4.9.3/contracts/token/ERC20/utils/SafeERC20.sol\":5728:5750  returndata.length == 0 */\n      eq\n        /* \"https://github.com/OpenZeppelin/openzeppelin-contracts/blob/v4.9.3/contracts/token/ERC20/utils/SafeERC20.sol\":5728:5784  returndata.length == 0 || abi.decode(returndata, (bool)) */\n      dup1\n      tag_228\n      jumpi\n      pop\n        /* \"https://github.com/OpenZeppelin/openzeppelin-contracts/blob/v4.9.3/contracts/token/ERC20/utils/SafeERC20.sol\":5765:5775  returndata */\n      dup1\n        /* \"https://github.com/OpenZeppelin/openzeppelin-contracts/blob/v4.9.3/contracts/token/ERC20/utils/SafeERC20.sol\":5754:5784  abi.decode(returndata, (bool)) */\n      dup1\n      0x20\n      add\n      swap1\n      mload\n      dup2\n      add\n      swap1\n      tag_228\n      swap2\n      swap1\n      tag_229\n      jump\t// in\n    tag_228:\n        /* \"https://github.com/OpenZeppelin/openzeppelin-contracts/blob/v4.9.3/contracts/token/ERC20/utils/SafeERC20.sol\":5720:5831  require(returndata.length == 0 || abi.decode(returndata, (bool)), \"SafeERC20: ERC20 operation did not succeed\") */\n      tag_218\n      jumpi\n      mload(0x40)\n      shl(0xe5, 0x461bcd)\n      dup2\n      mstore\n        /* \"#utility.yul\":9219:9221   */\n      0x20\n        /* \"https://github.com/OpenZeppelin/openzeppelin-contracts/blob/v4.9.3/contracts/token/ERC20/utils/SafeERC20.sol\":5720:5831  require(returndata.length == 0 || abi.decode(returndata, (bool)), \"SafeERC20: ERC20 operation did not succeed\") */\n      0x04\n      dup3\n      add\n        /* \"#utility.yul\":9201:9222   */\n      mstore\n        /* \"#utility.yul\":9258:9260   */\n      0x2a\n        /* \"#utility.yul\":9238:9256   */\n      0x24\n      dup3\n      add\n        /* \"#utility.yul\":9231:9261   */\n      mstore\n        /* \"#utility.yul\":9297:9331   */\n      0x5361666545524332303a204552433230206f7065726174696f6e20646964206e\n        /* \"#utility.yul\":9277:9295   */\n      0x44\n      dup3\n      add\n        /* \"#utility.yul\":9270:9332   */\n      mstore\n      shl(0xb2, 0x1bdd081cdd58d8d95959)\n        /* \"#utility.yul\":9348:9366   */\n      0x64\n      dup3\n      add\n        /* \"#utility.yul\":9341:9381   */\n      mstore\n        /* \"#utility.yul\":9398:9417   */\n      0x84\n      add\n        /* \"https://github.com/OpenZeppelin/openzeppelin-contracts/blob/v4.9.3/contracts/token/ERC20/utils/SafeERC20.sol\":5720:5831  require(returndata.length == 0 || abi.decode(returndata, (bool)), \"SafeERC20: ERC20 operation did not succeed\") */\n      tag_134\n        /* \"#utility.yul\":9017:9423   */\n      jump\n        /* \"https://github.com/OpenZeppelin/openzeppelin-contracts/blob/v4.9.3/contracts/utils/Address.sol\":4108:4331  function functionCall(... */\n    tag_226:\n        /* \"https://github.com/OpenZeppelin/openzeppelin-contracts/blob/v4.9.3/contracts/utils/Address.sol\":4241:4253  bytes memory */\n      0x60\n        /* \"https://github.com/OpenZeppelin/openzeppelin-contracts/blob/v4.9.3/contracts/utils/Address.sol\":4272:4324  functionCallWithValue(target, data, 0, errorMessage) */\n      tag_208\n        /* \"https://github.com/OpenZeppelin/openzeppelin-contracts/blob/v4.9.3/contracts/utils/Address.sol\":4294:4300  target */\n      dup5\n        /* \"https://github.com/OpenZeppelin/openzeppelin-contracts/blob/v4.9.3/contracts/utils/Address.sol\":4302:4306  data */\n      dup5\n        /* \"https://github.com/OpenZeppelin/openzeppelin-contracts/blob/v4.9.3/contracts/utils/Address.sol\":4308:4309  0 */\n      0x00\n        /* \"https://github.com/OpenZeppelin/openzeppelin-contracts/blob/v4.9.3/contracts/utils/Address.sol\":4311:4323  errorMessage */\n      dup6\n        /* \"https://github.com/OpenZeppelin/openzeppelin-contracts/blob/v4.9.3/contracts/utils/Address.sol\":4241:4253  bytes memory */\n      dup6\n        /* \"https://github.com/OpenZeppelin/openzeppelin-contracts/blob/v4.9.3/contracts/utils/Address.sol\":5446:5458  bool success */\n      0x00\n        /* \"https://github.com/OpenZeppelin/openzeppelin-contracts/blob/v4.9.3/contracts/utils/Address.sol\":5460:5483  bytes memory returndata */\n      0x00\n        /* \"https://github.com/OpenZeppelin/openzeppelin-contracts/blob/v4.9.3/contracts/utils/Address.sol\":5487:5493  target */\n      dup7\n      sub(shl(0xa0, 0x01), 0x01)\n        /* \"https://github.com/OpenZeppelin/openzeppelin-contracts/blob/v4.9.3/contracts/utils/Address.sol\":5487:5498  target.call */\n      and\n        /* \"https://github.com/OpenZeppelin/openzeppelin-contracts/blob/v4.9.3/contracts/utils/Address.sol\":5506:5511  value */\n      dup6\n        /* \"https://github.com/OpenZeppelin/openzeppelin-contracts/blob/v4.9.3/contracts/utils/Address.sol\":5513:5517  data */\n      dup8\n        /* \"https://github.com/OpenZeppelin/openzeppelin-contracts/blob/v4.9.3/contracts/utils/Address.sol\":5487:5518  target.call{value: value}(data) */\n      mload(0x40)\n      tag_240\n      swap2\n      swap1\n      tag_241\n      jump\t// in\n    tag_240:\n      0x00\n      mload(0x40)\n      dup1\n      dup4\n      sub\n      dup2\n      dup6\n      dup8\n      gas\n      call\n      swap3\n      pop\n      pop\n      pop\n      returndatasize\n      dup1\n      0x00\n      dup2\n      eq\n      tag_244\n      jumpi\n      mload(0x40)\n      swap2\n      pop\n      and(add(returndatasize, 0x3f), not(0x1f))\n      dup3\n      add\n      0x40\n      mstore\n      returndatasize\n      dup3\n      mstore\n      returndatasize\n      0x00\n      0x20\n      dup5\n      add\n      returndatacopy\n      jump(tag_243)\n    tag_244:\n      0x60\n      swap2\n      pop\n    tag_243:\n      pop\n        /* \"https://github.com/OpenZeppelin/openzeppelin-contracts/blob/v4.9.3/contracts/utils/Address.sol\":5445:5518  (bool success, bytes memory returndata) = target.call{value: value}(data) */\n      swap2\n      pop\n      swap2\n      pop\n        /* \"https://github.com/OpenZeppelin/openzeppelin-contracts/blob/v4.9.3/contracts/utils/Address.sol\":5535:5604  verifyCallResultFromTarget(target, success, returndata, errorMessage) */\n      tag_245\n        /* \"https://github.com/OpenZeppelin/openzeppelin-contracts/blob/v4.9.3/contracts/utils/Address.sol\":5562:5568  target */\n      dup8\n        /* \"https://github.com/OpenZeppelin/openzeppelin-contracts/blob/v4.9.3/contracts/utils/Address.sol\":5570:5577  success */\n      dup4\n        /* \"https://github.com/OpenZeppelin/openzeppelin-contracts/blob/v4.9.3/contracts/utils/Address.sol\":5579:5589  returndata */\n      dup4\n        /* \"https://github.com/OpenZeppelin/openzeppelin-contracts/blob/v4.9.3/contracts/utils/Address.sol\":5591:5603  errorMessage */\n      dup8\n        /* \"https://github.com/OpenZeppelin/openzeppelin-contracts/blob/v4.9.3/contracts/utils/Address.sol\":5535:5561  verifyCallResultFromTarget */\n      tag_246\n        /* \"https://github.com/OpenZeppelin/openzeppelin-contracts/blob/v4.9.3/contracts/utils/Address.sol\":5535:5604  verifyCallResultFromTarget(target, success, returndata, errorMessage) */\n      jump\t// in\n    tag_245:\n        /* \"https://github.com/OpenZeppelin/openzeppelin-contracts/blob/v4.9.3/contracts/utils/Address.sol\":5528:5604  return verifyCallResultFromTarget(target, success, returndata, errorMessage) */\n      swap8\n        /* \"https://github.com/OpenZeppelin/openzeppelin-contracts/blob/v4.9.3/contracts/utils/Address.sol\":5165:5611  function functionCallWithValue(... */\n      swap7\n      pop\n      pop\n      pop\n      pop\n      pop\n      pop\n      pop\n      jump\t// out\n        /* \"https://github.com/OpenZeppelin/openzeppelin-contracts/blob/v4.9.3/contracts/utils/Address.sol\":7671:8299  function verifyCallResultFromTarget(... */\n    tag_246:\n        /* \"https://github.com/OpenZeppelin/openzeppelin-contracts/blob/v4.9.3/contracts/utils/Address.sol\":7851:7863  bytes memory */\n      0x60\n        /* \"https://github.com/OpenZeppelin/openzeppelin-contracts/blob/v4.9.3/contracts/utils/Address.sol\":7879:7886  success */\n      dup4\n        /* \"https://github.com/OpenZeppelin/openzeppelin-contracts/blob/v4.9.3/contracts/utils/Address.sol\":7875:8293  if (success) {... */\n      iszero\n      tag_248\n      jumpi\n        /* \"https://github.com/OpenZeppelin/openzeppelin-contracts/blob/v4.9.3/contracts/utils/Address.sol\":7906:7916  returndata */\n      dup3\n        /* \"https://github.com/OpenZeppelin/openzeppelin-contracts/blob/v4.9.3/contracts/utils/Address.sol\":7906:7923  returndata.length */\n      mload\n        /* \"https://github.com/OpenZeppelin/openzeppelin-contracts/blob/v4.9.3/contracts/utils/Address.sol\":7927:7928  0 */\n      0x00\n        /* \"https://github.com/OpenZeppelin/openzeppelin-contracts/blob/v4.9.3/contracts/utils/Address.sol\":7906:7928  returndata.length == 0 */\n      sub\n        /* \"https://github.com/OpenZeppelin/openzeppelin-contracts/blob/v4.9.3/contracts/utils/Address.sol\":7902:8188  if (returndata.length == 0) {... */\n      tag_252\n      jumpi\n      sub(shl(0xa0, 0x01), 0x01)\n        /* \"https://github.com/OpenZeppelin/openzeppelin-contracts/blob/v4.9.3/contracts/utils/Address.sol\":1702:1721  account.code.length */\n      dup6\n      and\n      extcodesize\n        /* \"https://github.com/OpenZeppelin/openzeppelin-contracts/blob/v4.9.3/contracts/utils/Address.sol\":8113:8173  require(isContract(target), \"Address: call to non-contract\") */\n      tag_252\n      jumpi\n      mload(0x40)\n      shl(0xe5, 0x461bcd)\n      dup2\n      mstore\n        /* \"#utility.yul\":10343:10345   */\n      0x20\n        /* \"https://github.com/OpenZeppelin/openzeppelin-contracts/blob/v4.9.3/contracts/utils/Address.sol\":8113:8173  require(isContract(target), \"Address: call to non-contract\") */\n      0x04\n      dup3\n      add\n        /* \"#utility.yul\":10325:10346   */\n      mstore\n        /* \"#utility.yul\":10382:10384   */\n      0x1d\n        /* \"#utility.yul\":10362:10380   */\n      0x24\n      dup3\n      add\n        /* \"#utility.yul\":10355:10385   */\n      mstore\n        /* \"#utility.yul\":10421:10452   */\n      0x416464726573733a2063616c6c20746f206e6f6e2d636f6e7472616374000000\n        /* \"#utility.yul\":10401:10419   */\n      0x44\n      dup3\n      add\n        /* \"#utility.yul\":10394:10453   */\n      mstore\n        /* \"#utility.yul\":10470:10488   */\n      0x64\n      add\n        /* \"https://github.com/OpenZeppelin/openzeppelin-contracts/blob/v4.9.3/contracts/utils/Address.sol\":8113:8173  require(isContract(target), \"Address: call to non-contract\") */\n      tag_134\n        /* \"#utility.yul\":10141:10494   */\n      jump\n        /* \"https://github.com/OpenZeppelin/openzeppelin-contracts/blob/v4.9.3/contracts/utils/Address.sol\":8113:8173  require(isContract(target), \"Address: call to non-contract\") */\n    tag_252:\n      pop\n        /* \"https://github.com/OpenZeppelin/openzeppelin-contracts/blob/v4.9.3/contracts/utils/Address.sol\":8208:8218  returndata */\n      dup2\n        /* \"https://github.com/OpenZeppelin/openzeppelin-contracts/blob/v4.9.3/contracts/utils/Address.sol\":8201:8218  return returndata */\n      jump(tag_208)\n        /* \"https://github.com/OpenZeppelin/openzeppelin-contracts/blob/v4.9.3/contracts/utils/Address.sol\":7875:8293  if (success) {... */\n    tag_248:\n        /* \"https://github.com/OpenZeppelin/openzeppelin-contracts/blob/v4.9.3/contracts/utils/Address.sol\":8249:8282  _revert(returndata, errorMessage) */\n      tag_208\n        /* \"https://github.com/OpenZeppelin/openzeppelin-contracts/blob/v4.9.3/contracts/utils/Address.sol\":8257:8267  returndata */\n      dup4\n        /* \"https://github.com/OpenZeppelin/openzeppelin-contracts/blob/v4.9.3/contracts/utils/Address.sol\":8269:8281  errorMessage */\n      dup4\n        /* \"https://github.com/OpenZeppelin/openzeppelin-contracts/blob/v4.9.3/contracts/utils/Address.sol\":8980:8997  returndata.length */\n      dup2\n      mload\n        /* \"https://github.com/OpenZeppelin/openzeppelin-contracts/blob/v4.9.3/contracts/utils/Address.sol\":8980:9001  returndata.length > 0 */\n      iszero\n        /* \"https://github.com/OpenZeppelin/openzeppelin-contracts/blob/v4.9.3/contracts/utils/Address.sol\":8976:9355  if (returndata.length > 0) {... */\n      tag_260\n      jumpi\n        /* \"https://github.com/OpenZeppelin/openzeppelin-contracts/blob/v4.9.3/contracts/utils/Address.sol\":9208:9218  returndata */\n      dup2\n        /* \"https://github.com/OpenZeppelin/openzeppelin-contracts/blob/v4.9.3/contracts/utils/Address.sol\":9202:9219  mload(returndata) */\n      mload\n        /* \"https://github.com/OpenZeppelin/openzeppelin-contracts/blob/v4.9.3/contracts/utils/Address.sol\":9264:9279  returndata_size */\n      dup1\n        /* \"https://github.com/OpenZeppelin/openzeppelin-contracts/blob/v4.9.3/contracts/utils/Address.sol\":9251:9261  returndata */\n      dup4\n        /* \"https://github.com/OpenZeppelin/openzeppelin-contracts/blob/v4.9.3/contracts/utils/Address.sol\":9247:9249  32 */\n      0x20\n        /* \"https://github.com/OpenZeppelin/openzeppelin-contracts/blob/v4.9.3/contracts/utils/Address.sol\":9243:9262  add(32, returndata) */\n      add\n        /* \"https://github.com/OpenZeppelin/openzeppelin-contracts/blob/v4.9.3/contracts/utils/Address.sol\":9236:9280  revert(add(32, returndata), returndata_size) */\n      revert\n        /* \"https://github.com/OpenZeppelin/openzeppelin-contracts/blob/v4.9.3/contracts/utils/Address.sol\":8976:9355  if (returndata.length > 0) {... */\n    tag_260:\n        /* \"https://github.com/OpenZeppelin/openzeppelin-contracts/blob/v4.9.3/contracts/utils/Address.sol\":9331:9343  errorMessage */\n      dup1\n        /* \"https://github.com/OpenZeppelin/openzeppelin-contracts/blob/v4.9.3/contracts/utils/Address.sol\":9324:9344  revert(errorMessage) */\n      mload(0x40)\n      shl(0xe5, 0x461bcd)\n      dup2\n      mstore\n      0x04\n      add\n      tag_134\n      swap2\n      swap1\n        /* \"#utility.yul\":14:432   */\n    tag_24:\n        /* \"#utility.yul\":163:165   */\n      0x20\n        /* \"#utility.yul\":152:161   */\n      dup2\n        /* \"#utility.yul\":145:166   */\n      mstore\n        /* \"#utility.yul\":126:130   */\n      0x00\n        /* \"#utility.yul\":195:201   */\n      dup3\n        /* \"#utility.yul\":189:202   */\n      mload\n        /* \"#utility.yul\":238:244   */\n      dup1\n        /* \"#utility.yul\":233:235   */\n      0x20\n        /* \"#utility.yul\":222:231   */\n      dup5\n        /* \"#utility.yul\":218:236   */\n      add\n        /* \"#utility.yul\":211:245   */\n      mstore\n        /* \"#utility.yul\":297:303   */\n      dup1\n        /* \"#utility.yul\":292:294   */\n      0x20\n        /* \"#utility.yul\":284:290   */\n      dup6\n        /* \"#utility.yul\":280:295   */\n      add\n        /* \"#utility.yul\":275:277   */\n      0x40\n        /* \"#utility.yul\":264:273   */\n      dup6\n        /* \"#utility.yul\":260:278   */\n      add\n        /* \"#utility.yul\":254:304   */\n      mcopy\n        /* \"#utility.yul\":353:354   */\n      0x00\n        /* \"#utility.yul\":348:350   */\n      0x40\n        /* \"#utility.yul\":339:345   */\n      dup3\n        /* \"#utility.yul\":328:337   */\n      dup6\n        /* \"#utility.yul\":324:346   */\n      add\n        /* \"#utility.yul\":320:351   */\n      add\n        /* \"#utility.yul\":313:355   */\n      mstore\n        /* \"#utility.yul\":423:425   */\n      0x40\n        /* \"#utility.yul\":416:418   */\n      0x1f\n        /* \"#utility.yul\":412:419   */\n      not\n        /* \"#utility.yul\":407:409   */\n      0x1f\n        /* \"#utility.yul\":399:405   */\n      dup4\n        /* \"#utility.yul\":395:410   */\n      add\n        /* \"#utility.yul\":391:420   */\n      and\n        /* \"#utility.yul\":380:389   */\n      dup5\n        /* \"#utility.yul\":376:421   */\n      add\n        /* \"#utility.yul\":372:426   */\n      add\n        /* \"#utility.yul\":364:426   */\n      swap2\n      pop\n      pop\n        /* \"#utility.yul\":14:432   */\n      swap3\n      swap2\n      pop\n      pop\n      jump\t// out\n        /* \"#utility.yul\":437:610   */\n    tag_263:\n        /* \"#utility.yul\":505:525   */\n      dup1\n      calldataload\n      sub(shl(0xa0, 0x01), 0x01)\n        /* \"#utility.yul\":554:585   */\n      dup2\n      and\n        /* \"#utility.yul\":544:586   */\n      dup2\n      eq\n        /* \"#utility.yul\":534:604   */\n      tag_268\n      jumpi\n        /* \"#utility.yul\":600:601   */\n      0x00\n        /* \"#utility.yul\":597:598   */\n      0x00\n        /* \"#utility.yul\":590:602   */\n      revert\n        /* \"#utility.yul\":534:604   */\n    tag_268:\n        /* \"#utility.yul\":437:610   */\n      swap2\n      swap1\n      pop\n      jump\t// out\n        /* \"#utility.yul\":615:915   */\n    tag_27:\n        /* \"#utility.yul\":683:689   */\n      0x00\n        /* \"#utility.yul\":691:697   */\n      0x00\n        /* \"#utility.yul\":744:746   */\n      0x40\n        /* \"#utility.yul\":732:741   */\n      dup4\n        /* \"#utility.yul\":723:730   */\n      dup6\n        /* \"#utility.yul\":719:742   */\n      sub\n        /* \"#utility.yul\":715:747   */\n      slt\n        /* \"#utility.yul\":712:764   */\n      iszero\n      tag_270\n      jumpi\n        /* \"#utility.yul\":760:761   */\n      0x00\n        /* \"#utility.yul\":757:758   */\n      0x00\n        /* \"#utility.yul\":750:762   */\n      revert\n        /* \"#utility.yul\":712:764   */\n    tag_270:\n        /* \"#utility.yul\":783:812   */\n      tag_271\n        /* \"#utility.yul\":802:811   */\n      dup4\n        /* \"#utility.yul\":783:812   */\n      tag_263\n      jump\t// in\n    tag_271:\n        /* \"#utility.yul\":773:812   */\n      swap5\n        /* \"#utility.yul\":881:883   */\n      0x20\n        /* \"#utility.yul\":866:884   */\n      swap4\n      swap1\n      swap4\n      add\n        /* \"#utility.yul\":853:885   */\n      calldataload\n      swap4\n      pop\n      pop\n      pop\n        /* \"#utility.yul\":615:915   */\n      jump\t// out\n        /* \"#utility.yul\":1294:1668   */\n    tag_37:\n        /* \"#utility.yul\":1371:1377   */\n      0x00\n        /* \"#utility.yul\":1379:1385   */\n      0x00\n        /* \"#utility.yul\":1387:1393   */\n      0x00\n        /* \"#utility.yul\":1440:1442   */\n      0x60\n        /* \"#utility.yul\":1428:1437   */\n      dup5\n        /* \"#utility.yul\":1419:1426   */\n      dup7\n        /* \"#utility.yul\":1415:1438   */\n      sub\n        /* \"#utility.yul\":1411:1443   */\n      slt\n        /* \"#utility.yul\":1408:1460   */\n      iszero\n      tag_275\n      jumpi\n        /* \"#utility.yul\":1456:1457   */\n      0x00\n        /* \"#utility.yul\":1453:1454   */\n      0x00\n        /* \"#utility.yul\":1446:1458   */\n      revert\n        /* \"#utility.yul\":1408:1460   */\n    tag_275:\n        /* \"#utility.yul\":1479:1508   */\n      tag_276\n        /* \"#utility.yul\":1498:1507   */\n      dup5\n        /* \"#utility.yul\":1479:1508   */\n      tag_263\n      jump\t// in\n    tag_276:\n        /* \"#utility.yul\":1469:1508   */\n      swap3\n      pop\n        /* \"#utility.yul\":1527:1565   */\n      tag_277\n        /* \"#utility.yul\":1561:1563   */\n      0x20\n        /* \"#utility.yul\":1550:1559   */\n      dup6\n        /* \"#utility.yul\":1546:1564   */\n      add\n        /* \"#utility.yul\":1527:1565   */\n      tag_263\n      jump\t// in\n    tag_277:\n        /* \"#utility.yul\":1294:1668   */\n      swap3\n      swap6\n        /* \"#utility.yul\":1517:1565   */\n      swap3\n      swap5\n      pop\n      pop\n      pop\n        /* \"#utility.yul\":1634:1636   */\n      0x40\n        /* \"#utility.yul\":1619:1637   */\n      swap2\n      swap1\n      swap2\n      add\n        /* \"#utility.yul\":1606:1638   */\n      calldataload\n      swap1\n        /* \"#utility.yul\":1294:1668   */\n      jump\t// out\n        /* \"#utility.yul\":2084:2270   */\n    tag_54:\n        /* \"#utility.yul\":2143:2149   */\n      0x00\n        /* \"#utility.yul\":2196:2198   */\n      0x20\n        /* \"#utility.yul\":2184:2193   */\n      dup3\n        /* \"#utility.yul\":2175:2182   */\n      dup5\n        /* \"#utility.yul\":2171:2194   */\n      sub\n        /* \"#utility.yul\":2167:2199   */\n      slt\n        /* \"#utility.yul\":2164:2216   */\n      iszero\n      tag_281\n      jumpi\n        /* \"#utility.yul\":2212:2213   */\n      0x00\n        /* \"#utility.yul\":2209:2210   */\n      0x00\n        /* \"#utility.yul\":2202:2214   */\n      revert\n        /* \"#utility.yul\":2164:2216   */\n    tag_281:\n        /* \"#utility.yul\":2235:2264   */\n      tag_282\n        /* \"#utility.yul\":2254:2263   */\n      dup3\n        /* \"#utility.yul\":2235:2264   */\n      tag_263\n      jump\t// in\n    tag_282:\n        /* \"#utility.yul\":2225:2264   */\n      swap4\n        /* \"#utility.yul\":2084:2270   */\n      swap3\n      pop\n      pop\n      pop\n      jump\t// out\n        /* \"#utility.yul\":2483:2709   */\n    tag_77:\n        /* \"#utility.yul\":2542:2548   */\n      0x00\n        /* \"#utility.yul\":2595:2597   */\n      0x20\n        /* \"#utility.yul\":2583:2592   */\n      dup3\n        /* \"#utility.yul\":2574:2581   */\n      dup5\n        /* \"#utility.yul\":2570:2593   */\n      sub\n        /* \"#utility.yul\":2566:2598   */\n      slt\n        /* \"#utility.yul\":2563:2615   */\n      iszero\n      tag_285\n      jumpi\n        /* \"#utility.yul\":2611:2612   */\n      0x00\n        /* \"#utility.yul\":2608:2609   */\n      0x00\n        /* \"#utility.yul\":2601:2613   */\n      revert\n        /* \"#utility.yul\":2563:2615   */\n    tag_285:\n      pop\n        /* \"#utility.yul\":2656:2679   */\n      calldataload\n      swap2\n        /* \"#utility.yul\":2483:2709   */\n      swap1\n      pop\n      jump\t// out\n        /* \"#utility.yul\":2714:2974   */\n    tag_81:\n        /* \"#utility.yul\":2782:2788   */\n      0x00\n        /* \"#utility.yul\":2790:2796   */\n      0x00\n        /* \"#utility.yul\":2843:2845   */\n      0x40\n        /* \"#utility.yul\":2831:2840   */\n      dup4\n        /* \"#utility.yul\":2822:2829   */\n      dup6\n        /* \"#utility.yul\":2818:2841   */\n      sub\n        /* \"#utility.yul\":2814:2846   */\n      slt\n        /* \"#utility.yul\":2811:2863   */\n      iszero\n      tag_287\n      jumpi\n        /* \"#utility.yul\":2859:2860   */\n      0x00\n        /* \"#utility.yul\":2856:2857   */\n      0x00\n        /* \"#utility.yul\":2849:2861   */\n      revert\n        /* \"#utility.yul\":2811:2863   */\n    tag_287:\n        /* \"#utility.yul\":2882:2911   */\n      tag_288\n        /* \"#utility.yul\":2901:2910   */\n      dup4\n        /* \"#utility.yul\":2882:2911   */\n      tag_263\n      jump\t// in\n    tag_288:\n        /* \"#utility.yul\":2872:2911   */\n      swap2\n      pop\n        /* \"#utility.yul\":2930:2968   */\n      tag_289\n        /* \"#utility.yul\":2964:2966   */\n      0x20\n        /* \"#utility.yul\":2953:2962   */\n      dup5\n        /* \"#utility.yul\":2949:2967   */\n      add\n        /* \"#utility.yul\":2930:2968   */\n      tag_263\n      jump\t// in\n    tag_289:\n        /* \"#utility.yul\":2920:2968   */\n      swap1\n      pop\n        /* \"#utility.yul\":2714:2974   */\n      swap3\n      pop\n      swap3\n      swap1\n      pop\n      jump\t// out\n        /* \"#utility.yul\":2979:3359   */\n    tag_86:\n        /* \"#utility.yul\":3058:3059   */\n      0x01\n        /* \"#utility.yul\":3054:3066   */\n      dup2\n      dup2\n      shr\n      swap1\n        /* \"#utility.yul\":3101:3113   */\n      dup3\n      and\n      dup1\n        /* \"#utility.yul\":3122:3183   */\n      tag_291\n      jumpi\n        /* \"#utility.yul\":3176:3180   */\n      0x7f\n        /* \"#utility.yul\":3168:3174   */\n      dup3\n        /* \"#utility.yul\":3164:3181   */\n      and\n        /* \"#utility.yul\":3154:3181   */\n      swap2\n      pop\n        /* \"#utility.yul\":3122:3183   */\n    tag_291:\n        /* \"#utility.yul\":3229:3231   */\n      0x20\n        /* \"#utility.yul\":3221:3227   */\n      dup3\n        /* \"#utility.yul\":3218:3232   */\n      lt\n        /* \"#utility.yul\":3198:3216   */\n      dup2\n        /* \"#utility.yul\":3195:3233   */\n      sub\n        /* \"#utility.yul\":3192:3353   */\n      tag_292\n      jumpi\n        /* \"#utility.yul\":3275:3285   */\n      0x4e487b71\n        /* \"#utility.yul\":3270:3273   */\n      0xe0\n        /* \"#utility.yul\":3266:3286   */\n      shl\n        /* \"#utility.yul\":3263:3264   */\n      0x00\n        /* \"#utility.yul\":3256:3287   */\n      mstore\n        /* \"#utility.yul\":3310:3314   */\n      0x22\n        /* \"#utility.yul\":3307:3308   */\n      0x04\n        /* \"#utility.yul\":3300:3315   */\n      mstore\n        /* \"#utility.yul\":3338:3342   */\n      0x24\n        /* \"#utility.yul\":3335:3336   */\n      0x00\n        /* \"#utility.yul\":3328:3343   */\n      revert\n        /* \"#utility.yul\":3192:3353   */\n    tag_292:\n      pop\n        /* \"#utility.yul\":2979:3359   */\n      swap2\n      swap1\n      pop\n      jump\t// out\n        /* \"#utility.yul\":3364:3491   */\n    tag_264:\n        /* \"#utility.yul\":3425:3435   */\n      0x4e487b71\n        /* \"#utility.yul\":3420:3423   */\n      0xe0\n        /* \"#utility.yul\":3416:3436   */\n      shl\n        /* \"#utility.yul\":3413:3414   */\n      0x00\n        /* \"#utility.yul\":3406:3437   */\n      mstore\n        /* \"#utility.yul\":3456:3460   */\n      0x11\n        /* \"#utility.yul\":3453:3454   */\n      0x04\n        /* \"#utility.yul\":3446:3461   */\n      mstore\n        /* \"#utility.yul\":3480:3484   */\n      0x24\n        /* \"#utility.yul\":3477:3478   */\n      0x00\n        /* \"#utility.yul\":3470:3485   */\n      revert\n        /* \"#utility.yul\":3496:3621   */\n    tag_109:\n        /* \"#utility.yul\":3561:3570   */\n      dup1\n      dup3\n      add\n        /* \"#utility.yul\":3582:3592   */\n      dup1\n      dup3\n      gt\n        /* \"#utility.yul\":3579:3615   */\n      iszero\n      tag_91\n      jumpi\n        /* \"#utility.yul\":3595:3613   */\n      tag_91\n      tag_264\n      jump\t// in\n        /* \"#utility.yul\":3626:3810   */\n    tag_124:\n        /* \"#utility.yul\":3696:3702   */\n      0x00\n        /* \"#utility.yul\":3749:3751   */\n      0x20\n        /* \"#utility.yul\":3737:3746   */\n      dup3\n        /* \"#utility.yul\":3728:3735   */\n      dup5\n        /* \"#utility.yul\":3724:3747   */\n      sub\n        /* \"#utility.yul\":3720:3752   */\n      slt\n        /* \"#utility.yul\":3717:3769   */\n      iszero\n      tag_298\n      jumpi\n        /* \"#utility.yul\":3765:3766   */\n      0x00\n        /* \"#utility.yul\":3762:3763   */\n      0x00\n        /* \"#utility.yul\":3755:3767   */\n      revert\n        /* \"#utility.yul\":3717:3769   */\n    tag_298:\n      pop\n        /* \"#utility.yul\":3788:3804   */\n      mload\n      swap2\n        /* \"#utility.yul\":3626:3810   */\n      swap1\n      pop\n      jump\t// out\n        /* \"#utility.yul\":3815:3983   */\n    tag_126:\n        /* \"#utility.yul\":3888:3897   */\n      dup1\n      dup3\n      mul\n        /* \"#utility.yul\":3919:3928   */\n      dup2\n      iszero\n        /* \"#utility.yul\":3936:3951   */\n      dup3\n      dup3\n      div\n        /* \"#utility.yul\":3930:3952   */\n      dup5\n      eq\n        /* \"#utility.yul\":3916:3953   */\n      or\n        /* \"#utility.yul\":3906:3977   */\n      tag_91\n      jumpi\n        /* \"#utility.yul\":3957:3975   */\n      tag_91\n      tag_264\n      jump\t// in\n        /* \"#utility.yul\":3988:4205   */\n    tag_128:\n        /* \"#utility.yul\":4028:4029   */\n      0x00\n        /* \"#utility.yul\":4054:4055   */\n      dup3\n        /* \"#utility.yul\":4044:4176   */\n      tag_303\n      jumpi\n        /* \"#utility.yul\":4098:4108   */\n      0x4e487b71\n        /* \"#utility.yul\":4093:4096   */\n      0xe0\n        /* \"#utility.yul\":4089:4109   */\n      shl\n        /* \"#utility.yul\":4086:4087   */\n      0x00\n        /* \"#utility.yul\":4079:4110   */\n      mstore\n        /* \"#utility.yul\":4133:4137   */\n      0x12\n        /* \"#utility.yul\":4130:4131   */\n      0x04\n        /* \"#utility.yul\":4123:4138   */\n      mstore\n        /* \"#utility.yul\":4161:4165   */\n      0x24\n        /* \"#utility.yul\":4158:4159   */\n      0x00\n        /* \"#utility.yul\":4151:4166   */\n      revert\n        /* \"#utility.yul\":4044:4176   */\n    tag_303:\n      pop\n        /* \"#utility.yul\":4190:4199   */\n      div\n      swap1\n        /* \"#utility.yul\":3988:4205   */\n      jump\t// out\n        /* \"#utility.yul\":8735:9012   */\n    tag_229:\n        /* \"#utility.yul\":8802:8808   */\n      0x00\n        /* \"#utility.yul\":8855:8857   */\n      0x20\n        /* \"#utility.yul\":8843:8852   */\n      dup3\n        /* \"#utility.yul\":8834:8841   */\n      dup5\n        /* \"#utility.yul\":8830:8853   */\n      sub\n        /* \"#utility.yul\":8826:8858   */\n      slt\n        /* \"#utility.yul\":8823:8875   */\n      iszero\n      tag_317\n      jumpi\n        /* \"#utility.yul\":8871:8872   */\n      0x00\n        /* \"#utility.yul\":8868:8869   */\n      0x00\n        /* \"#utility.yul\":8861:8873   */\n      revert\n        /* \"#utility.yul\":8823:8875   */\n    tag_317:\n        /* \"#utility.yul\":8903:8912   */\n      dup2\n        /* \"#utility.yul\":8897:8913   */\n      mload\n        /* \"#utility.yul\":8956:8961   */\n      dup1\n        /* \"#utility.yul\":8949:8962   */\n      iszero\n        /* \"#utility.yul\":8942:8963   */\n      iszero\n        /* \"#utility.yul\":8935:8940   */\n      dup2\n        /* \"#utility.yul\":8932:8964   */\n      eq\n        /* \"#utility.yul\":8922:8982   */\n      tag_282\n      jumpi\n        /* \"#utility.yul\":8978:8979   */\n      0x00\n        /* \"#utility.yul\":8975:8976   */\n      0x00\n        /* \"#utility.yul\":8968:8980   */\n      revert\n        /* \"#utility.yul\":9835:10136   */\n    tag_241:\n        /* \"#utility.yul\":9964:9967   */\n      0x00\n        /* \"#utility.yul\":10002:10008   */\n      dup3\n        /* \"#utility.yul\":9996:10009   */\n      mload\n        /* \"#utility.yul\":10048:10054   */\n      dup1\n        /* \"#utility.yul\":10041:10045   */\n      0x20\n        /* \"#utility.yul\":10033:10039   */\n      dup6\n        /* \"#utility.yul\":10029:10046   */\n      add\n        /* \"#utility.yul\":10024:10027   */\n      dup5\n        /* \"#utility.yul\":10018:10055   */\n      mcopy\n        /* \"#utility.yul\":10110:10111   */\n      0x00\n        /* \"#utility.yul\":10074:10090   */\n      swap3\n      add\n        /* \"#utility.yul\":10099:10112   */\n      swap2\n      dup3\n      mstore\n      pop\n        /* \"#utility.yul\":10074:10090   */\n      swap2\n        /* \"#utility.yul\":9835:10136   */\n      swap1\n      pop\n      jump\t// out\n\n    auxdata: 0xa2646970667358221220b282e2f884110e2777e007fd94ba7b2a7bf84118b4572dd43a1b05bdf3b1f93e64736f6c634300081c0033\n}\n",
				"bytecode": {
					"linkReferences": {},
					"object": "60c060405234801561000f575f5ffd5b506040516113ae3803806113ae83398101604081905261002e916101e1565b8181600361003c83826102eb565b50600461004982826102eb565b50506001600555506001600160a01b0384166100ac5760405162461bcd60e51b815260206004820152601b60248201527f5745544820616464726573732063616e6e6f74206265207a65726f000000000060448201526064015b60405180910390fd5b6001600160a01b0383166101105760405162461bcd60e51b815260206004820152602560248201527f46756e6420706f7274666f6c696f20616464726573732063616e6e6f74206265604482015264207a65726f60d81b60648201526084016100a3565b50506001600160a01b039182166080521660a0526103a5565b80516001600160a01b038116811461013f575f5ffd5b919050565b634e487b7160e01b5f52604160045260245ffd5b5f82601f830112610167575f5ffd5b81516001600160401b0381111561018057610180610144565b604051601f8201601f19908116603f011681016001600160401b03811182821017156101ae576101ae610144565b6040528181528382016020018510156101c5575f5ffd5b8160208501602083015e5f918101602001919091529392505050565b5f5f5f5f608085870312156101f4575f5ffd5b6101fd85610129565b935061020b60208601610129565b60408601519093506001600160401b03811115610226575f5ffd5b61023287828801610158565b606087015190935090506001600160401b0381111561024f575f5ffd5b61025b87828801610158565b91505092959194509250565b600181811c9082168061027b57607f821691505b60208210810361029957634e487b7160e01b5f52602260045260245ffd5b50919050565b601f8211156102e657805f5260205f20601f840160051c810160208510156102c45750805b601f840160051c820191505b818110156102e3575f81556001016102d0565b50505b505050565b81516001600160401b0381111561030457610304610144565b610318816103128454610267565b8461029f565b6020601f82116001811461034a575f83156103335750848201515b5f19600385901b1c1916600184901b1784556102e3565b5f84815260208120601f198516915b828110156103795787850151825560209485019460019092019101610359565b508482101561039657868401515f19600387901b60f8161c191681555b50505050600190811b01905550565b60805160a051610fc56103e95f395f818161021e015261058d01525f81816101810152818161038e015281816105200152818161056b0152610a180152610fc55ff3fe608060405234801561000f575f5ffd5b50600436106100f0575f3560e01c806370a0823111610093578063a9059cbb11610063578063a9059cbb14610206578063aa4d165514610219578063b6b55f2514610240578063dd62ed3e14610255575f5ffd5b806370a08231146101bb57806395d89b41146101e357806399530b06146101eb578063a457c2d7146101f3575f5ffd5b806323b872dd116100ce57806323b872dd14610147578063313ce5671461015a57806339509351146101695780633fc8cef31461017c575f5ffd5b806306fdde03146100f4578063095ea7b31461011257806318160ddd14610135575b5f5ffd5b6100fc610268565b6040516101099190610d94565b60405180910390f35b610125610120366004610de4565b6102f8565b6040519015158152602001610109565b6002545b604051908152602001610109565b610125610155366004610e0c565b610311565b60405160128152602001610109565b610125610177366004610de4565b610334565b6101a37f000000000000000000000000000000000000000000000000000000000000000081565b6040516001600160a01b039091168152602001610109565b6101396101c9366004610e46565b6001600160a01b03165f9081526020819052604090205490565b6100fc610355565b610139610364565b610125610201366004610de4565b610430565b610125610214366004610de4565b6104af565b6101a37f000000000000000000000000000000000000000000000000000000000000000081565b61025361024e366004610e66565b6104bc565b005b610139610263366004610e7d565b6105c0565b60606003805461027790610eae565b80601f01602080910402602001604051908101604052809291908181526020018280546102a390610eae565b80156102ee5780601f106102c5576101008083540402835291602001916102ee565b820191905f5260205f20905b8154815290600101906020018083116102d157829003601f168201915b5050505050905090565b5f336103058185856105ea565b60019150505b92915050565b5f3361031e85828561070d565b610329858585610785565b506001949350505050565b5f3361030581858561034683836105c0565b6103509190610efa565b6105ea565b60606004805461027790610eae565b5f5f61036f60025490565b90508015610420576040516370a0823160e01b815230600482015281907f00000000000000000000000000000000000000000000000000000000000000006001600160a01b0316906370a0823190602401602060405180830381865afa1580156103db573d5f5f3e3d5ffd5b505050506040513d601f19601f820116820180604052508101906103ff9190610f0d565b61041190670de0b6b3a7640000610f24565b61041b9190610f3b565b61042a565b670de0b6b3a76400005b91505090565b5f338161043d82866105c0565b9050838110156104a25760405162461bcd60e51b815260206004820152602560248201527f45524332303a2064656372656173656420616c6c6f77616e63652062656c6f77604482015264207a65726f60d81b60648201526084015b60405180910390fd5b61032982868684036105ea565b5f33610305818585610785565b6104c4610927565b5f81116105135760405162461bcd60e51b815260206004820181905260248201527f416d6f756e74206d7573742062652067726561746572207468616e207a65726f6044820152606401610499565b6105486001600160a01b037f000000000000000000000000000000000000000000000000000000000000000016333084610980565b5f610552826109eb565b905061055e3382610ab6565b6105b26001600160a01b037f0000000000000000000000000000000000000000000000000000000000000000167f000000000000000000000000000000000000000000000000000000000000000084610b73565b506105bd6001600555565b50565b6001600160a01b039182165f90815260016020908152604080832093909416825291909152205490565b6001600160a01b03831661064c5760405162461bcd60e51b8152602060048201526024808201527f45524332303a20617070726f76652066726f6d20746865207a65726f206164646044820152637265737360e01b6064820152608401610499565b6001600160a01b0382166106ad5760405162461bcd60e51b815260206004820152602260248201527f45524332303a20617070726f766520746f20746865207a65726f206164647265604482015261737360f01b6064820152608401610499565b6001600160a01b038381165f8181526001602090815260408083209487168084529482529182902085905590518481527f8c5be1e5ebec7d5bd14f71427d1e84f3dd0314c0f7b2291e5b200ac8c7c3b925910160405180910390a3505050565b5f61071884846105c0565b90505f19811461077f57818110156107725760405162461bcd60e51b815260206004820152601d60248201527f45524332303a20696e73756666696369656e7420616c6c6f77616e63650000006044820152606401610499565b61077f84848484036105ea565b50505050565b6001600160a01b0383166107e95760405162461bcd60e51b815260206004820152602560248201527f45524332303a207472616e736665722066726f6d20746865207a65726f206164604482015264647265737360d81b6064820152608401610499565b6001600160a01b03821661084b5760405162461bcd60e51b815260206004820152602360248201527f45524332303a207472616e7366657220746f20746865207a65726f206164647260448201526265737360e81b6064820152608401610499565b6001600160a01b0383165f90815260208190526040902054818110156108c25760405162461bcd60e51b815260206004820152602660248201527f45524332303a207472616e7366657220616d6f756e7420657863656564732062604482015265616c616e636560d01b6064820152608401610499565b6001600160a01b038481165f81815260208181526040808320878703905593871680835291849020805487019055925185815290927fddf252ad1be2c89b69c2b068fc378daa952ba7f163c4a11628f55a4df523b3ef910160405180910390a361077f565b6002600554036109795760405162461bcd60e51b815260206004820152601f60248201527f5265656e7472616e637947756172643a207265656e7472616e742063616c6c006044820152606401610499565b6002600555565b6040516001600160a01b038085166024830152831660448201526064810182905261077f9085906323b872dd60e01b906084015b60408051601f198184030181529190526020810180516001600160e01b03166001600160e01b031990931692909217909152610ba8565b5f5f6109f660025490565b6040516370a0823160e01b81523060048201529091505f906001600160a01b037f000000000000000000000000000000000000000000000000000000000000000016906370a0823190602401602060405180830381865afa158015610a5d573d5f5f3e3d5ffd5b505050506040513d601f19601f82011682018060405250810190610a819190610f0d565b9050811580610a8e575080155b610aac5780610a9d8386610f24565b610aa79190610f3b565b610aae565b835b949350505050565b6001600160a01b038216610b0c5760405162461bcd60e51b815260206004820152601f60248201527f45524332303a206d696e7420746f20746865207a65726f2061646472657373006044820152606401610499565b8060025f828254610b1d9190610efa565b90915550506001600160a01b0382165f81815260208181526040808320805486019055518481527fddf252ad1be2c89b69c2b068fc378daa952ba7f163c4a11628f55a4df523b3ef910160405180910390a35050565b6040516001600160a01b038316602482015260448101829052610ba390849063a9059cbb60e01b906064016109b4565b505050565b5f610bfc826040518060400160405280602081526020017f5361666545524332303a206c6f772d6c6576656c2063616c6c206661696c6564815250856001600160a01b0316610c7b9092919063ffffffff16565b905080515f1480610c1c575080806020019051810190610c1c9190610f5a565b610ba35760405162461bcd60e51b815260206004820152602a60248201527f5361666545524332303a204552433230206f7065726174696f6e20646964206e6044820152691bdd081cdd58d8d9595960b21b6064820152608401610499565b6060610aae84845f85855f5f866001600160a01b03168587604051610ca09190610f79565b5f6040518083038185875af1925050503d805f8114610cda576040519150601f19603f3d011682016040523d82523d5f602084013e610cdf565b606091505b5091509150610cf087838387610cfb565b979650505050505050565b60608315610d695782515f03610d62576001600160a01b0385163b610d625760405162461bcd60e51b815260206004820152601d60248201527f416464726573733a2063616c6c20746f206e6f6e2d636f6e74726163740000006044820152606401610499565b5081610aae565b610aae8383815115610d7e5781518083602001fd5b8060405162461bcd60e51b815260040161049991905b602081525f82518060208401528060208501604085015e5f604082850101526040601f19601f83011684010191505092915050565b80356001600160a01b0381168114610ddf575f5ffd5b919050565b5f5f60408385031215610df5575f5ffd5b610dfe83610dc9565b946020939093013593505050565b5f5f5f60608486031215610e1e575f5ffd5b610e2784610dc9565b9250610e3560208501610dc9565b929592945050506040919091013590565b5f60208284031215610e56575f5ffd5b610e5f82610dc9565b9392505050565b5f60208284031215610e76575f5ffd5b5035919050565b5f5f60408385031215610e8e575f5ffd5b610e9783610dc9565b9150610ea560208401610dc9565b90509250929050565b600181811c90821680610ec257607f821691505b602082108103610ee057634e487b7160e01b5f52602260045260245ffd5b50919050565b634e487b7160e01b5f52601160045260245ffd5b8082018082111561030b5761030b610ee6565b5f60208284031215610f1d575f5ffd5b5051919050565b808202811582820484141761030b5761030b610ee6565b5f82610f5557634e487b7160e01b5f52601260045260245ffd5b500490565b5f60208284031215610f6a575f5ffd5b81518015158114610e5f575f5ffd5b5f82518060208501845e5f92019182525091905056fea2646970667358221220b282e2f884110e2777e007fd94ba7b2a7bf84118b4572dd43a1b05bdf3b1f93e64736f6c634300081c0033",
					"opcodes": "PUSH1 0xC0 PUSH1 0x40 MSTORE CALLVALUE DUP1 ISZERO PUSH2 0xF JUMPI PUSH0 PUSH0 REVERT JUMPDEST POP PUSH1 0x40 MLOAD PUSH2 0x13AE CODESIZE SUB DUP1 PUSH2 0x13AE DUP4 CODECOPY DUP2 ADD PUSH1 0x40 DUP2 SWAP1 MSTORE PUSH2 0x2E SWAP2 PUSH2 0x1E1 JUMP JUMPDEST DUP2 DUP2 PUSH1 0x3 PUSH2 0x3C DUP4 DUP3 PUSH2 0x2EB JUMP JUMPDEST POP PUSH1 0x4 PUSH2 0x49 DUP3 DUP3 PUSH2 0x2EB JUMP JUMPDEST POP POP PUSH1 0x1 PUSH1 0x5 SSTORE POP PUSH1 0x1 PUSH1 0x1 PUSH1 0xA0 SHL SUB DUP5 AND PUSH2 0xAC JUMPI PUSH1 0x40 MLOAD PUSH3 0x461BCD PUSH1 0xE5 SHL DUP2 MSTORE PUSH1 0x20 PUSH1 0x4 DUP3 ADD MSTORE PUSH1 0x1B PUSH1 0x24 DUP3 ADD MSTORE PUSH32 0x5745544820616464726573732063616E6E6F74206265207A65726F0000000000 PUSH1 0x44 DUP3 ADD MSTORE PUSH1 0x64 ADD JUMPDEST PUSH1 0x40 MLOAD DUP1 SWAP2 SUB SWAP1 REVERT JUMPDEST PUSH1 0x1 PUSH1 0x1 PUSH1 0xA0 SHL SUB DUP4 AND PUSH2 0x110 JUMPI PUSH1 0x40 MLOAD PUSH3 0x461BCD PUSH1 0xE5 SHL DUP2 MSTORE PUSH1 0x20 PUSH1 0x4 DUP3 ADD MSTORE PUSH1 0x25 PUSH1 0x24 DUP3 ADD MSTORE PUSH32 0x46756E6420706F7274666F6C696F20616464726573732063616E6E6F74206265 PUSH1 0x44 DUP3 ADD MSTORE PUSH5 0x207A65726F PUSH1 0xD8 SHL PUSH1 0x64 DUP3 ADD MSTORE PUSH1 0x84 ADD PUSH2 0xA3 JUMP JUMPDEST POP POP PUSH1 0x1 PUSH1 0x1 PUSH1 0xA0 SHL SUB SWAP2 DUP3 AND PUSH1 0x80 MSTORE AND PUSH1 0xA0 MSTORE PUSH2 0x3A5 JUMP JUMPDEST DUP1 MLOAD PUSH1 0x1 PUSH1 0x1 PUSH1 0xA0 SHL SUB DUP2 AND DUP2 EQ PUSH2 0x13F JUMPI PUSH0 PUSH0 REVERT JUMPDEST SWAP2 SWAP1 POP JUMP JUMPDEST PUSH4 0x4E487B71 PUSH1 0xE0 SHL PUSH0 MSTORE PUSH1 0x41 PUSH1 0x4 MSTORE PUSH1 0x24 PUSH0 REVERT JUMPDEST PUSH0 DUP3 PUSH1 0x1F DUP4 ADD SLT PUSH2 0x167 JUMPI PUSH0 PUSH0 REVERT JUMPDEST DUP2 MLOAD PUSH1 0x1 PUSH1 0x1 PUSH1 0x40 SHL SUB DUP2 GT ISZERO PUSH2 0x180 JUMPI PUSH2 0x180 PUSH2 0x144 JUMP JUMPDEST PUSH1 0x40 MLOAD PUSH1 0x1F DUP3 ADD PUSH1 0x1F NOT SWAP1 DUP2 AND PUSH1 0x3F ADD AND DUP2 ADD PUSH1 0x1 PUSH1 0x1 PUSH1 0x40 SHL SUB DUP2 GT DUP3 DUP3 LT OR ISZERO PUSH2 0x1AE JUMPI PUSH2 0x1AE PUSH2 0x144 JUMP JUMPDEST PUSH1 0x40 MSTORE DUP2 DUP2 MSTORE DUP4 DUP3 ADD PUSH1 0x20 ADD DUP6 LT ISZERO PUSH2 0x1C5 JUMPI PUSH0 PUSH0 REVERT JUMPDEST DUP2 PUSH1 0x20 DUP6 ADD PUSH1 0x20 DUP4 ADD MCOPY PUSH0 SWAP2 DUP2 ADD PUSH1 0x20 ADD SWAP2 SWAP1 SWAP2 MSTORE SWAP4 SWAP3 POP POP POP JUMP JUMPDEST PUSH0 PUSH0 PUSH0 PUSH0 PUSH1 0x80 DUP6 DUP8 SUB SLT ISZERO PUSH2 0x1F4 JUMPI PUSH0 PUSH0 REVERT JUMPDEST PUSH2 0x1FD DUP6 PUSH2 0x129 JUMP JUMPDEST SWAP4 POP PUSH2 0x20B PUSH1 0x20 DUP7 ADD PUSH2 0x129 JUMP JUMPDEST PUSH1 0x40 DUP7 ADD MLOAD SWAP1 SWAP4 POP PUSH1 0x1 PUSH1 0x1 PUSH1 0x40 SHL SUB DUP2 GT ISZERO PUSH2 0x226 JUMPI PUSH0 PUSH0 REVERT JUMPDEST PUSH2 0x232 DUP8 DUP3 DUP9 ADD PUSH2 0x158 JUMP JUMPDEST PUSH1 0x60 DUP8 ADD MLOAD SWAP1 SWAP4 POP SWAP1 POP PUSH1 0x1 PUSH1 0x1 PUSH1 0x40 SHL SUB DUP2 GT ISZERO PUSH2 0x24F JUMPI PUSH0 PUSH0 REVERT JUMPDEST PUSH2 0x25B DUP8 DUP3 DUP9 ADD PUSH2 0x158 JUMP JUMPDEST SWAP2 POP POP SWAP3 SWAP6 SWAP2 SWAP5 POP SWAP3 POP JUMP JUMPDEST PUSH1 0x1 DUP2 DUP2 SHR SWAP1 DUP3 AND DUP1 PUSH2 0x27B JUMPI PUSH1 0x7F DUP3 AND SWAP2 POP JUMPDEST PUSH1 0x20 DUP3 LT DUP2 SUB PUSH2 0x299 JUMPI PUSH4 0x4E487B71 PUSH1 0xE0 SHL PUSH0 MSTORE PUSH1 0x22 PUSH1 0x4 MSTORE PUSH1 0x24 PUSH0 REVERT JUMPDEST POP SWAP2 SWAP1 POP JUMP JUMPDEST PUSH1 0x1F DUP3 GT ISZERO PUSH2 0x2E6 JUMPI DUP1 PUSH0 MSTORE PUSH1 0x20 PUSH0 KECCAK256 PUSH1 0x1F DUP5 ADD PUSH1 0x5 SHR DUP2 ADD PUSH1 0x20 DUP6 LT ISZERO PUSH2 0x2C4 JUMPI POP DUP1 JUMPDEST PUSH1 0x1F DUP5 ADD PUSH1 0x5 SHR DUP3 ADD SWAP2 POP JUMPDEST DUP2 DUP2 LT ISZERO PUSH2 0x2E3 JUMPI PUSH0 DUP2 SSTORE PUSH1 0x1 ADD PUSH2 0x2D0 JUMP JUMPDEST POP POP JUMPDEST POP POP POP JUMP JUMPDEST DUP2 MLOAD PUSH1 0x1 PUSH1 0x1 PUSH1 0x40 SHL SUB DUP2 GT ISZERO PUSH2 0x304 JUMPI PUSH2 0x304 PUSH2 0x144 JUMP JUMPDEST PUSH2 0x318 DUP2 PUSH2 0x312 DUP5 SLOAD PUSH2 0x267 JUMP JUMPDEST DUP5 PUSH2 0x29F JUMP JUMPDEST PUSH1 0x20 PUSH1 0x1F DUP3 GT PUSH1 0x1 DUP2 EQ PUSH2 0x34A JUMPI PUSH0 DUP4 ISZERO PUSH2 0x333 JUMPI POP DUP5 DUP3 ADD MLOAD JUMPDEST PUSH0 NOT PUSH1 0x3 DUP6 SWAP1 SHL SHR NOT AND PUSH1 0x1 DUP5 SWAP1 SHL OR DUP5 SSTORE PUSH2 0x2E3 JUMP JUMPDEST PUSH0 DUP5 DUP2 MSTORE PUSH1 0x20 DUP2 KECCAK256 PUSH1 0x1F NOT DUP6 AND SWAP2 JUMPDEST DUP3 DUP2 LT ISZERO PUSH2 0x379 JUMPI DUP8 DUP6 ADD MLOAD DUP3 SSTORE PUSH1 0x20 SWAP5 DUP6 ADD SWAP5 PUSH1 0x1 SWAP1 SWAP3 ADD SWAP2 ADD PUSH2 0x359 JUMP JUMPDEST POP DUP5 DUP3 LT ISZERO PUSH2 0x396 JUMPI DUP7 DUP5 ADD MLOAD PUSH0 NOT PUSH1 0x3 DUP8 SWAP1 SHL PUSH1 0xF8 AND SHR NOT AND DUP2 SSTORE JUMPDEST POP POP POP POP PUSH1 0x1 SWAP1 DUP2 SHL ADD SWAP1 SSTORE POP JUMP JUMPDEST PUSH1 0x80 MLOAD PUSH1 0xA0 MLOAD PUSH2 0xFC5 PUSH2 0x3E9 PUSH0 CODECOPY PUSH0 DUP2 DUP2 PUSH2 0x21E ADD MSTORE PUSH2 0x58D ADD MSTORE PUSH0 DUP2 DUP2 PUSH2 0x181 ADD MSTORE DUP2 DUP2 PUSH2 0x38E ADD MSTORE DUP2 DUP2 PUSH2 0x520 ADD MSTORE DUP2 DUP2 PUSH2 0x56B ADD MSTORE PUSH2 0xA18 ADD MSTORE PUSH2 0xFC5 PUSH0 RETURN INVALID PUSH1 0x80 PUSH1 0x40 MSTORE CALLVALUE DUP1 ISZERO PUSH2 0xF JUMPI PUSH0 PUSH0 REVERT JUMPDEST POP PUSH1 0x4 CALLDATASIZE LT PUSH2 0xF0 JUMPI PUSH0 CALLDATALOAD PUSH1 0xE0 SHR DUP1 PUSH4 0x70A08231 GT PUSH2 0x93 JUMPI DUP1 PUSH4 0xA9059CBB GT PUSH2 0x63 JUMPI DUP1 PUSH4 0xA9059CBB EQ PUSH2 0x206 JUMPI DUP1 PUSH4 0xAA4D1655 EQ PUSH2 0x219 JUMPI DUP1 PUSH4 0xB6B55F25 EQ PUSH2 0x240 JUMPI DUP1 PUSH4 0xDD62ED3E EQ PUSH2 0x255 JUMPI PUSH0 PUSH0 REVERT JUMPDEST DUP1 PUSH4 0x70A08231 EQ PUSH2 0x1BB JUMPI DUP1 PUSH4 0x95D89B41 EQ PUSH2 0x1E3 JUMPI DUP1 PUSH4 0x99530B06 EQ PUSH2 0x1EB JUMPI DUP1 PUSH4 0xA457C2D7 EQ PUSH2 0x1F3 JUMPI PUSH0 PUSH0 REVERT JUMPDEST DUP1 PUSH4 0x23B872DD GT PUSH2 0xCE JUMPI DUP1 PUSH4 0x23B872DD EQ PUSH2 0x147 JUMPI DUP1 PUSH4 0x313CE567 EQ PUSH2 0x15A JUMPI DUP1 PUSH4 0x39509351 EQ PUSH2 0x169 JUMPI DUP1 PUSH4 0x3FC8CEF3 EQ PUSH2 0x17C JUMPI PUSH0 PUSH0 REVERT JUMPDEST DUP1 PUSH4 0x6FDDE03 EQ PUSH2 0xF4 JUMPI DUP1 PUSH4 0x95EA7B3 EQ PUSH2 0x112 JUMPI DUP1 PUSH4 0x18160DDD EQ PUSH2 0x135 JUMPI JUMPDEST PUSH0 PUSH0 REVERT JUMPDEST PUSH2 0xFC PUSH2 0x268 JUMP JUMPDEST PUSH1 0x40 MLOAD PUSH2 0x109 SWAP2 SWAP1 PUSH2 0xD94 JUMP JUMPDEST PUSH1 0x40 MLOAD DUP1 SWAP2 SUB SWAP1 RETURN JUMPDEST PUSH2 0x125 PUSH2 0x120 CALLDATASIZE PUSH1 0x4 PUSH2 0xDE4 JUMP JUMPDEST PUSH2 0x2F8 JUMP JUMPDEST PUSH1 0x40 MLOAD SWAP1 ISZERO ISZERO DUP2 MSTORE PUSH1 0x20 ADD PUSH2 0x109 JUMP JUMPDEST PUSH1 0x2 SLOAD JUMPDEST PUSH1 0x40 MLOAD SWAP1 DUP2 MSTORE PUSH1 0x20 ADD PUSH2 0x109 JUMP JUMPDEST PUSH2 0x125 PUSH2 0x155 CALLDATASIZE PUSH1 0x4 PUSH2 0xE0C JUMP JUMPDEST PUSH2 0x311 JUMP JUMPDEST PUSH1 0x40 MLOAD PUSH1 0x12 DUP2 MSTORE PUSH1 0x20 ADD PUSH2 0x109 JUMP JUMPDEST PUSH2 0x125 PUSH2 0x177 CALLDATASIZE PUSH1 0x4 PUSH2 0xDE4 JUMP JUMPDEST PUSH2 0x334 JUMP JUMPDEST PUSH2 0x1A3 PUSH32 0x0 DUP2 JUMP JUMPDEST PUSH1 0x40 MLOAD PUSH1 0x1 PUSH1 0x1 PUSH1 0xA0 SHL SUB SWAP1 SWAP2 AND DUP2 MSTORE PUSH1 0x20 ADD PUSH2 0x109 JUMP JUMPDEST PUSH2 0x139 PUSH2 0x1C9 CALLDATASIZE PUSH1 0x4 PUSH2 0xE46 JUMP JUMPDEST PUSH1 0x1 PUSH1 0x1 PUSH1 0xA0 SHL SUB AND PUSH0 SWAP1 DUP2 MSTORE PUSH1 0x20 DUP2 SWAP1 MSTORE PUSH1 0x40 SWAP1 KECCAK256 SLOAD SWAP1 JUMP JUMPDEST PUSH2 0xFC PUSH2 0x355 JUMP JUMPDEST PUSH2 0x139 PUSH2 0x364 JUMP JUMPDEST PUSH2 0x125 PUSH2 0x201 CALLDATASIZE PUSH1 0x4 PUSH2 0xDE4 JUMP JUMPDEST PUSH2 0x430 JUMP JUMPDEST PUSH2 0x125 PUSH2 0x214 CALLDATASIZE PUSH1 0x4 PUSH2 0xDE4 JUMP JUMPDEST PUSH2 0x4AF JUMP JUMPDEST PUSH2 0x1A3 PUSH32 0x0 DUP2 JUMP JUMPDEST PUSH2 0x253 PUSH2 0x24E CALLDATASIZE PUSH1 0x4 PUSH2 0xE66 JUMP JUMPDEST PUSH2 0x4BC JUMP JUMPDEST STOP JUMPDEST PUSH2 0x139 PUSH2 0x263 CALLDATASIZE PUSH1 0x4 PUSH2 0xE7D JUMP JUMPDEST PUSH2 0x5C0 JUMP JUMPDEST PUSH1 0x60 PUSH1 0x3 DUP1 SLOAD PUSH2 0x277 SWAP1 PUSH2 0xEAE JUMP JUMPDEST DUP1 PUSH1 0x1F ADD PUSH1 0x20 DUP1 SWAP2 DIV MUL PUSH1 0x20 ADD PUSH1 0x40 MLOAD SWAP1 DUP2 ADD PUSH1 0x40 MSTORE DUP1 SWAP3 SWAP2 SWAP1 DUP2 DUP2 MSTORE PUSH1 0x20 ADD DUP3 DUP1 SLOAD PUSH2 0x2A3 SWAP1 PUSH2 0xEAE JUMP JUMPDEST DUP1 ISZERO PUSH2 0x2EE JUMPI DUP1 PUSH1 0x1F LT PUSH2 0x2C5 JUMPI PUSH2 0x100 DUP1 DUP4 SLOAD DIV MUL DUP4 MSTORE SWAP2 PUSH1 0x20 ADD SWAP2 PUSH2 0x2EE JUMP JUMPDEST DUP3 ADD SWAP2 SWAP1 PUSH0 MSTORE PUSH1 0x20 PUSH0 KECCAK256 SWAP1 JUMPDEST DUP2 SLOAD DUP2 MSTORE SWAP1 PUSH1 0x1 ADD SWAP1 PUSH1 0x20 ADD DUP1 DUP4 GT PUSH2 0x2D1 JUMPI DUP3 SWAP1 SUB PUSH1 0x1F AND DUP3 ADD SWAP2 JUMPDEST POP POP POP POP POP SWAP1 POP SWAP1 JUMP JUMPDEST PUSH0 CALLER PUSH2 0x305 DUP2 DUP6 DUP6 PUSH2 0x5EA JUMP JUMPDEST PUSH1 0x1 SWAP2 POP POP JUMPDEST SWAP3 SWAP2 POP POP JUMP JUMPDEST PUSH0 CALLER PUSH2 0x31E DUP6 DUP3 DUP6 PUSH2 0x70D JUMP JUMPDEST PUSH2 0x329 DUP6 DUP6 DUP6 PUSH2 0x785 JUMP JUMPDEST POP PUSH1 0x1 SWAP5 SWAP4 POP POP POP POP JUMP JUMPDEST PUSH0 CALLER PUSH2 0x305 DUP2 DUP6 DUP6 PUSH2 0x346 DUP4 DUP4 PUSH2 0x5C0 JUMP JUMPDEST PUSH2 0x350 SWAP2 SWAP1 PUSH2 0xEFA JUMP JUMPDEST PUSH2 0x5EA JUMP JUMPDEST PUSH1 0x60 PUSH1 0x4 DUP1 SLOAD PUSH2 0x277 SWAP1 PUSH2 0xEAE JUMP JUMPDEST PUSH0 PUSH0 PUSH2 0x36F PUSH1 0x2 SLOAD SWAP1 JUMP JUMPDEST SWAP1 POP DUP1 ISZERO PUSH2 0x420 JUMPI PUSH1 0x40 MLOAD PUSH4 0x70A08231 PUSH1 0xE0 SHL DUP2 MSTORE ADDRESS PUSH1 0x4 DUP3 ADD MSTORE DUP2 SWAP1 PUSH32 0x0 PUSH1 0x1 PUSH1 0x1 PUSH1 0xA0 SHL SUB AND SWAP1 PUSH4 0x70A08231 SWAP1 PUSH1 0x24 ADD PUSH1 0x20 PUSH1 0x40 MLOAD DUP1 DUP4 SUB DUP2 DUP7 GAS STATICCALL ISZERO DUP1 ISZERO PUSH2 0x3DB JUMPI RETURNDATASIZE PUSH0 PUSH0 RETURNDATACOPY RETURNDATASIZE PUSH0 REVERT JUMPDEST POP POP POP POP PUSH1 0x40 MLOAD RETURNDATASIZE PUSH1 0x1F NOT PUSH1 0x1F DUP3 ADD AND DUP3 ADD DUP1 PUSH1 0x40 MSTORE POP DUP2 ADD SWAP1 PUSH2 0x3FF SWAP2 SWAP1 PUSH2 0xF0D JUMP JUMPDEST PUSH2 0x411 SWAP1 PUSH8 0xDE0B6B3A7640000 PUSH2 0xF24 JUMP JUMPDEST PUSH2 0x41B SWAP2 SWAP1 PUSH2 0xF3B JUMP JUMPDEST PUSH2 0x42A JUMP JUMPDEST PUSH8 0xDE0B6B3A7640000 JUMPDEST SWAP2 POP POP SWAP1 JUMP JUMPDEST PUSH0 CALLER DUP2 PUSH2 0x43D DUP3 DUP7 PUSH2 0x5C0 JUMP JUMPDEST SWAP1 POP DUP4 DUP2 LT ISZERO PUSH2 0x4A2 JUMPI PUSH1 0x40 MLOAD PUSH3 0x461BCD PUSH1 0xE5 SHL DUP2 MSTORE PUSH1 0x20 PUSH1 0x4 DUP3 ADD MSTORE PUSH1 0x25 PUSH1 0x24 DUP3 ADD MSTORE PUSH32 0x45524332303A2064656372656173656420616C6C6F77616E63652062656C6F77 PUSH1 0x44 DUP3 ADD MSTORE PUSH5 0x207A65726F PUSH1 0xD8 SHL PUSH1 0x64 DUP3 ADD MSTORE PUSH1 0x84 ADD JUMPDEST PUSH1 0x40 MLOAD DUP1 SWAP2 SUB SWAP1 REVERT JUMPDEST PUSH2 0x329 DUP3 DUP7 DUP7 DUP5 SUB PUSH2 0x5EA JUMP JUMPDEST PUSH0 CALLER PUSH2 0x305 DUP2 DUP6 DUP6 PUSH2 0x785 JUMP JUMPDEST PUSH2 0x4C4 PUSH2 0x927 JUMP JUMPDEST PUSH0 DUP2 GT PUSH2 0x513 JUMPI PUSH1 0x40 MLOAD PUSH3 0x461BCD PUSH1 0xE5 SHL DUP2 MSTORE PUSH1 0x20 PUSH1 0x4 DUP3 ADD DUP2 SWAP1 MSTORE PUSH1 0x24 DUP3 ADD MSTORE PUSH32 0x416D6F756E74206D7573742062652067726561746572207468616E207A65726F PUSH1 0x44 DUP3 ADD MSTORE PUSH1 0x64 ADD PUSH2 0x499 JUMP JUMPDEST PUSH2 0x548 PUSH1 0x1 PUSH1 0x1 PUSH1 0xA0 SHL SUB PUSH32 0x0 AND CALLER ADDRESS DUP5 PUSH2 0x980 JUMP JUMPDEST PUSH0 PUSH2 0x552 DUP3 PUSH2 0x9EB JUMP JUMPDEST SWAP1 POP PUSH2 0x55E CALLER DUP3 PUSH2 0xAB6 JUMP JUMPDEST PUSH2 0x5B2 PUSH1 0x1 PUSH1 0x1 PUSH1 0xA0 SHL SUB PUSH32 0x0 AND PUSH32 0x0 DUP5 PUSH2 0xB73 JUMP JUMPDEST POP PUSH2 0x5BD PUSH1 0x1 PUSH1 0x5 SSTORE JUMP JUMPDEST POP JUMP JUMPDEST PUSH1 0x1 PUSH1 0x1 PUSH1 0xA0 SHL SUB SWAP2 DUP3 AND PUSH0 SWAP1 DUP2 MSTORE PUSH1 0x1 PUSH1 0x20 SWAP1 DUP2 MSTORE PUSH1 0x40 DUP1 DUP4 KECCAK256 SWAP4 SWAP1 SWAP5 AND DUP3 MSTORE SWAP2 SWAP1 SWAP2 MSTORE KECCAK256 SLOAD SWAP1 JUMP JUMPDEST PUSH1 0x1 PUSH1 0x1 PUSH1 0xA0 SHL SUB DUP4 AND PUSH2 0x64C JUMPI PUSH1 0x40 MLOAD PUSH3 0x461BCD PUSH1 0xE5 SHL DUP2 MSTORE PUSH1 0x20 PUSH1 0x4 DUP3 ADD MSTORE PUSH1 0x24 DUP1 DUP3 ADD MSTORE PUSH32 0x45524332303A20617070726F76652066726F6D20746865207A65726F20616464 PUSH1 0x44 DUP3 ADD MSTORE PUSH4 0x72657373 PUSH1 0xE0 SHL PUSH1 0x64 DUP3 ADD MSTORE PUSH1 0x84 ADD PUSH2 0x499 JUMP JUMPDEST PUSH1 0x1 PUSH1 0x1 PUSH1 0xA0 SHL SUB DUP3 AND PUSH2 0x6AD JUMPI PUSH1 0x40 MLOAD PUSH3 0x461BCD PUSH1 0xE5 SHL DUP2 MSTORE PUSH1 0x20 PUSH1 0x4 DUP3 ADD MSTORE PUSH1 0x22 PUSH1 0x24 DUP3 ADD MSTORE PUSH32 0x45524332303A20617070726F766520746F20746865207A65726F206164647265 PUSH1 0x44 DUP3 ADD MSTORE PUSH2 0x7373 PUSH1 0xF0 SHL PUSH1 0x64 DUP3 ADD MSTORE PUSH1 0x84 ADD PUSH2 0x499 JUMP JUMPDEST PUSH1 0x1 PUSH1 0x1 PUSH1 0xA0 SHL SUB DUP4 DUP2 AND PUSH0 DUP2 DUP2 MSTORE PUSH1 0x1 PUSH1 0x20 SWAP1 DUP2 MSTORE PUSH1 0x40 DUP1 DUP4 KECCAK256 SWAP5 DUP8 AND DUP1 DUP5 MSTORE SWAP5 DUP3 MSTORE SWAP2 DUP3 SWAP1 KECCAK256 DUP6 SWAP1 SSTORE SWAP1 MLOAD DUP5 DUP2 MSTORE PUSH32 0x8C5BE1E5EBEC7D5BD14F71427D1E84F3DD0314C0F7B2291E5B200AC8C7C3B925 SWAP2 ADD PUSH1 0x40 MLOAD DUP1 SWAP2 SUB SWAP1 LOG3 POP POP POP JUMP JUMPDEST PUSH0 PUSH2 0x718 DUP5 DUP5 PUSH2 0x5C0 JUMP JUMPDEST SWAP1 POP PUSH0 NOT DUP2 EQ PUSH2 0x77F JUMPI DUP2 DUP2 LT ISZERO PUSH2 0x772 JUMPI PUSH1 0x40 MLOAD PUSH3 0x461BCD PUSH1 0xE5 SHL DUP2 MSTORE PUSH1 0x20 PUSH1 0x4 DUP3 ADD MSTORE PUSH1 0x1D PUSH1 0x24 DUP3 ADD MSTORE PUSH32 0x45524332303A20696E73756666696369656E7420616C6C6F77616E6365000000 PUSH1 0x44 DUP3 ADD MSTORE PUSH1 0x64 ADD PUSH2 0x499 JUMP JUMPDEST PUSH2 0x77F DUP5 DUP5 DUP5 DUP5 SUB PUSH2 0x5EA JUMP JUMPDEST POP POP POP POP JUMP JUMPDEST PUSH1 0x1 PUSH1 0x1 PUSH1 0xA0 SHL SUB DUP4 AND PUSH2 0x7E9 JUMPI PUSH1 0x40 MLOAD PUSH3 0x461BCD PUSH1 0xE5 SHL DUP2 MSTORE PUSH1 0x20 PUSH1 0x4 DUP3 ADD MSTORE PUSH1 0x25 PUSH1 0x24 DUP3 ADD MSTORE PUSH32 0x45524332303A207472616E736665722066726F6D20746865207A65726F206164 PUSH1 0x44 DUP3 ADD MSTORE PUSH5 0x6472657373 PUSH1 0xD8 SHL PUSH1 0x64 DUP3 ADD MSTORE PUSH1 0x84 ADD PUSH2 0x499 JUMP JUMPDEST PUSH1 0x1 PUSH1 0x1 PUSH1 0xA0 SHL SUB DUP3 AND PUSH2 0x84B JUMPI PUSH1 0x40 MLOAD PUSH3 0x461BCD PUSH1 0xE5 SHL DUP2 MSTORE PUSH1 0x20 PUSH1 0x4 DUP3 ADD MSTORE PUSH1 0x23 PUSH1 0x24 DUP3 ADD MSTORE PUSH32 0x45524332303A207472616E7366657220746F20746865207A65726F2061646472 PUSH1 0x44 DUP3 ADD MSTORE PUSH3 0x657373 PUSH1 0xE8 SHL PUSH1 0x64 DUP3 ADD MSTORE PUSH1 0x84 ADD PUSH2 0x499 JUMP JUMPDEST PUSH1 0x1 PUSH1 0x1 PUSH1 0xA0 SHL SUB DUP4 AND PUSH0 SWAP1 DUP2 MSTORE PUSH1 0x20 DUP2 SWAP1 MSTORE PUSH1 0x40 SWAP1 KECCAK256 SLOAD DUP2 DUP2 LT ISZERO PUSH2 0x8C2 JUMPI PUSH1 0x40 MLOAD PUSH3 0x461BCD PUSH1 0xE5 SHL DUP2 MSTORE PUSH1 0x20 PUSH1 0x4 DUP3 ADD MSTORE PUSH1 0x26 PUSH1 0x24 DUP3 ADD MSTORE PUSH32 0x45524332303A207472616E7366657220616D6F756E7420657863656564732062 PUSH1 0x44 DUP3 ADD MSTORE PUSH6 0x616C616E6365 PUSH1 0xD0 SHL PUSH1 0x64 DUP3 ADD MSTORE PUSH1 0x84 ADD PUSH2 0x499 JUMP JUMPDEST PUSH1 0x1 PUSH1 0x1 PUSH1 0xA0 SHL SUB DUP5 DUP2 AND PUSH0 DUP2 DUP2 MSTORE PUSH1 0x20 DUP2 DUP2 MSTORE PUSH1 0x40 DUP1 DUP4 KECCAK256 DUP8 DUP8 SUB SWAP1 SSTORE SWAP4 DUP8 AND DUP1 DUP4 MSTORE SWAP2 DUP5 SWAP1 KECCAK256 DUP1 SLOAD DUP8 ADD SWAP1 SSTORE SWAP3 MLOAD DUP6 DUP2 MSTORE SWAP1 SWAP3 PUSH32 0xDDF252AD1BE2C89B69C2B068FC378DAA952BA7F163C4A11628F55A4DF523B3EF SWAP2 ADD PUSH1 0x40 MLOAD DUP1 SWAP2 SUB SWAP1 LOG3 PUSH2 0x77F JUMP JUMPDEST PUSH1 0x2 PUSH1 0x5 SLOAD SUB PUSH2 0x979 JUMPI PUSH1 0x40 MLOAD PUSH3 0x461BCD PUSH1 0xE5 SHL DUP2 MSTORE PUSH1 0x20 PUSH1 0x4 DUP3 ADD MSTORE PUSH1 0x1F PUSH1 0x24 DUP3 ADD MSTORE PUSH32 0x5265656E7472616E637947756172643A207265656E7472616E742063616C6C00 PUSH1 0x44 DUP3 ADD MSTORE PUSH1 0x64 ADD PUSH2 0x499 JUMP JUMPDEST PUSH1 0x2 PUSH1 0x5 SSTORE JUMP JUMPDEST PUSH1 0x40 MLOAD PUSH1 0x1 PUSH1 0x1 PUSH1 0xA0 SHL SUB DUP1 DUP6 AND PUSH1 0x24 DUP4 ADD MSTORE DUP4 AND PUSH1 0x44 DUP3 ADD MSTORE PUSH1 0x64 DUP2 ADD DUP3 SWAP1 MSTORE PUSH2 0x77F SWAP1 DUP6 SWAP1 PUSH4 0x23B872DD PUSH1 0xE0 SHL SWAP1 PUSH1 0x84 ADD JUMPDEST PUSH1 0x40 DUP1 MLOAD PUSH1 0x1F NOT DUP2 DUP5 SUB ADD DUP2 MSTORE SWAP2 SWAP1 MSTORE PUSH1 0x20 DUP2 ADD DUP1 MLOAD PUSH1 0x1 PUSH1 0x1 PUSH1 0xE0 SHL SUB AND PUSH1 0x1 PUSH1 0x1 PUSH1 0xE0 SHL SUB NOT SWAP1 SWAP4 AND SWAP3 SWAP1 SWAP3 OR SWAP1 SWAP2 MSTORE PUSH2 0xBA8 JUMP JUMPDEST PUSH0 PUSH0 PUSH2 0x9F6 PUSH1 0x2 SLOAD SWAP1 JUMP JUMPDEST PUSH1 0x40 MLOAD PUSH4 0x70A08231 PUSH1 0xE0 SHL DUP2 MSTORE ADDRESS PUSH1 0x4 DUP3 ADD MSTORE SWAP1 SWAP2 POP PUSH0 SWAP1 PUSH1 0x1 PUSH1 0x1 PUSH1 0xA0 SHL SUB PUSH32 0x0 AND SWAP1 PUSH4 0x70A08231 SWAP1 PUSH1 0x24 ADD PUSH1 0x20 PUSH1 0x40 MLOAD DUP1 DUP4 SUB DUP2 DUP7 GAS STATICCALL ISZERO DUP1 ISZERO PUSH2 0xA5D JUMPI RETURNDATASIZE PUSH0 PUSH0 RETURNDATACOPY RETURNDATASIZE PUSH0 REVERT JUMPDEST POP POP POP POP PUSH1 0x40 MLOAD RETURNDATASIZE PUSH1 0x1F NOT PUSH1 0x1F DUP3 ADD AND DUP3 ADD DUP1 PUSH1 0x40 MSTORE POP DUP2 ADD SWAP1 PUSH2 0xA81 SWAP2 SWAP1 PUSH2 0xF0D JUMP JUMPDEST SWAP1 POP DUP2 ISZERO DUP1 PUSH2 0xA8E JUMPI POP DUP1 ISZERO JUMPDEST PUSH2 0xAAC JUMPI DUP1 PUSH2 0xA9D DUP4 DUP7 PUSH2 0xF24 JUMP JUMPDEST PUSH2 0xAA7 SWAP2 SWAP1 PUSH2 0xF3B JUMP JUMPDEST PUSH2 0xAAE JUMP JUMPDEST DUP4 JUMPDEST SWAP5 SWAP4 POP POP POP POP JUMP JUMPDEST PUSH1 0x1 PUSH1 0x1 PUSH1 0xA0 SHL SUB DUP3 AND PUSH2 0xB0C JUMPI PUSH1 0x40 MLOAD PUSH3 0x461BCD PUSH1 0xE5 SHL DUP2 MSTORE PUSH1 0x20 PUSH1 0x4 DUP3 ADD MSTORE PUSH1 0x1F PUSH1 0x24 DUP3 ADD MSTORE PUSH32 0x45524332303A206D696E7420746F20746865207A65726F206164647265737300 PUSH1 0x44 DUP3 ADD MSTORE PUSH1 0x64 ADD PUSH2 0x499 JUMP JUMPDEST DUP1 PUSH1 0x2 PUSH0 DUP3 DUP3 SLOAD PUSH2 0xB1D SWAP2 SWAP1 PUSH2 0xEFA JUMP JUMPDEST SWAP1 SWAP2 SSTORE POP POP PUSH1 0x1 PUSH1 0x1 PUSH1 0xA0 SHL SUB DUP3 AND PUSH0 DUP2 DUP2 MSTORE PUSH1 0x20 DUP2 DUP2 MSTORE PUSH1 0x40 DUP1 DUP4 KECCAK256 DUP1 SLOAD DUP7 ADD SWAP1 SSTORE MLOAD DUP5 DUP2 MSTORE PUSH32 0xDDF252AD1BE2C89B69C2B068FC378DAA952BA7F163C4A11628F55A4DF523B3EF SWAP2 ADD PUSH1 0x40 MLOAD DUP1 SWAP2 SUB SWAP1 LOG3 POP POP JUMP JUMPDEST PUSH1 0x40 MLOAD PUSH1 0x1 PUSH1 0x1 PUSH1 0xA0 SHL SUB DUP4 AND PUSH1 0x24 DUP3 ADD MSTORE PUSH1 0x44 DUP2 ADD DUP3 SWAP1 MSTORE PUSH2 0xBA3 SWAP1 DUP5 SWAP1 PUSH4 0xA9059CBB PUSH1 0xE0 SHL SWAP1 PUSH1 0x64 ADD PUSH2 0x9B4 JUMP JUMPDEST POP POP POP JUMP JUMPDEST PUSH0 PUSH2 0xBFC DUP3 PUSH1 0x40 MLOAD DUP1 PUSH1 0x40 ADD PUSH1 0x40 MSTORE DUP1 PUSH1 0x20 DUP2 MSTORE PUSH1 0x20 ADD PUSH32 0x5361666545524332303A206C6F772D6C6576656C2063616C6C206661696C6564 DUP2 MSTORE POP DUP6 PUSH1 0x1 PUSH1 0x1 PUSH1 0xA0 SHL SUB AND PUSH2 0xC7B SWAP1 SWAP3 SWAP2 SWAP1 PUSH4 0xFFFFFFFF AND JUMP JUMPDEST SWAP1 POP DUP1 MLOAD PUSH0 EQ DUP1 PUSH2 0xC1C JUMPI POP DUP1 DUP1 PUSH1 0x20 ADD SWAP1 MLOAD DUP2 ADD SWAP1 PUSH2 0xC1C SWAP2 SWAP1 PUSH2 0xF5A JUMP JUMPDEST PUSH2 0xBA3 JUMPI PUSH1 0x40 MLOAD PUSH3 0x461BCD PUSH1 0xE5 SHL DUP2 MSTORE PUSH1 0x20 PUSH1 0x4 DUP3 ADD MSTORE PUSH1 0x2A PUSH1 0x24 DUP3 ADD MSTORE PUSH32 0x5361666545524332303A204552433230206F7065726174696F6E20646964206E PUSH1 0x44 DUP3 ADD MSTORE PUSH10 0x1BDD081CDD58D8D95959 PUSH1 0xB2 SHL PUSH1 0x64 DUP3 ADD MSTORE PUSH1 0x84 ADD PUSH2 0x499 JUMP JUMPDEST PUSH1 0x60 PUSH2 0xAAE DUP5 DUP5 PUSH0 DUP6 DUP6 PUSH0 PUSH0 DUP7 PUSH1 0x1 PUSH1 0x1 PUSH1 0xA0 SHL SUB AND DUP6 DUP8 PUSH1 0x40 MLOAD PUSH2 0xCA0 SWAP2 SWAP1 PUSH2 0xF79 JUMP JUMPDEST PUSH0 PUSH1 0x40 MLOAD DUP1 DUP4 SUB DUP2 DUP6 DUP8 GAS CALL SWAP3 POP POP POP RETURNDATASIZE DUP1 PUSH0 DUP2 EQ PUSH2 0xCDA JUMPI PUSH1 0x40 MLOAD SWAP2 POP PUSH1 0x1F NOT PUSH1 0x3F RETURNDATASIZE ADD AND DUP3 ADD PUSH1 0x40 MSTORE RETURNDATASIZE DUP3 MSTORE RETURNDATASIZE PUSH0 PUSH1 0x20 DUP5 ADD RETURNDATACOPY PUSH2 0xCDF JUMP JUMPDEST PUSH1 0x60 SWAP2 POP JUMPDEST POP SWAP2 POP SWAP2 POP PUSH2 0xCF0 DUP8 DUP4 DUP4 DUP8 PUSH2 0xCFB JUMP JUMPDEST SWAP8 SWAP7 POP POP POP POP POP POP POP JUMP JUMPDEST PUSH1 0x60 DUP4 ISZERO PUSH2 0xD69 JUMPI DUP3 MLOAD PUSH0 SUB PUSH2 0xD62 JUMPI PUSH1 0x1 PUSH1 0x1 PUSH1 0xA0 SHL SUB DUP6 AND EXTCODESIZE PUSH2 0xD62 JUMPI PUSH1 0x40 MLOAD PUSH3 0x461BCD PUSH1 0xE5 SHL DUP2 MSTORE PUSH1 0x20 PUSH1 0x4 DUP3 ADD MSTORE PUSH1 0x1D PUSH1 0x24 DUP3 ADD MSTORE PUSH32 0x416464726573733A2063616C6C20746F206E6F6E2D636F6E7472616374000000 PUSH1 0x44 DUP3 ADD MSTORE PUSH1 0x64 ADD PUSH2 0x499 JUMP JUMPDEST POP DUP2 PUSH2 0xAAE JUMP JUMPDEST PUSH2 0xAAE DUP4 DUP4 DUP2 MLOAD ISZERO PUSH2 0xD7E JUMPI DUP2 MLOAD DUP1 DUP4 PUSH1 0x20 ADD REVERT JUMPDEST DUP1 PUSH1 0x40 MLOAD PUSH3 0x461BCD PUSH1 0xE5 SHL DUP2 MSTORE PUSH1 0x4 ADD PUSH2 0x499 SWAP2 SWAP1 JUMPDEST PUSH1 0x20 DUP2 MSTORE PUSH0 DUP3 MLOAD DUP1 PUSH1 0x20 DUP5 ADD MSTORE DUP1 PUSH1 0x20 DUP6 ADD PUSH1 0x40 DUP6 ADD MCOPY PUSH0 PUSH1 0x40 DUP3 DUP6 ADD ADD MSTORE PUSH1 0x40 PUSH1 0x1F NOT PUSH1 0x1F DUP4 ADD AND DUP5 ADD ADD SWAP2 POP POP SWAP3 SWAP2 POP POP JUMP JUMPDEST DUP1 CALLDATALOAD PUSH1 0x1 PUSH1 0x1 PUSH1 0xA0 SHL SUB DUP2 AND DUP2 EQ PUSH2 0xDDF JUMPI PUSH0 PUSH0 REVERT JUMPDEST SWAP2 SWAP1 POP JUMP JUMPDEST PUSH0 PUSH0 PUSH1 0x40 DUP4 DUP6 SUB SLT ISZERO PUSH2 0xDF5 JUMPI PUSH0 PUSH0 REVERT JUMPDEST PUSH2 0xDFE DUP4 PUSH2 0xDC9 JUMP JUMPDEST SWAP5 PUSH1 0x20 SWAP4 SWAP1 SWAP4 ADD CALLDATALOAD SWAP4 POP POP POP JUMP JUMPDEST PUSH0 PUSH0 PUSH0 PUSH1 0x60 DUP5 DUP7 SUB SLT ISZERO PUSH2 0xE1E JUMPI PUSH0 PUSH0 REVERT JUMPDEST PUSH2 0xE27 DUP5 PUSH2 0xDC9 JUMP JUMPDEST SWAP3 POP PUSH2 0xE35 PUSH1 0x20 DUP6 ADD PUSH2 0xDC9 JUMP JUMPDEST SWAP3 SWAP6 SWAP3 SWAP5 POP POP POP PUSH1 0x40 SWAP2 SWAP1 SWAP2 ADD CALLDATALOAD SWAP1 JUMP JUMPDEST PUSH0 PUSH1 0x20 DUP3 DUP5 SUB SLT ISZERO PUSH2 0xE56 JUMPI PUSH0 PUSH0 REVERT JUMPDEST PUSH2 0xE5F DUP3 PUSH2 0xDC9 JUMP JUMPDEST SWAP4 SWAP3 POP POP POP JUMP JUMPDEST PUSH0 PUSH1 0x20 DUP3 DUP5 SUB SLT ISZERO PUSH2 0xE76 JUMPI PUSH0 PUSH0 REVERT JUMPDEST POP CALLDATALOAD SWAP2 SWAP1 POP JUMP JUMPDEST PUSH0 PUSH0 PUSH1 0x40 DUP4 DUP6 SUB SLT ISZERO PUSH2 0xE8E JUMPI PUSH0 PUSH0 REVERT JUMPDEST PUSH2 0xE97 DUP4 PUSH2 0xDC9 JUMP JUMPDEST SWAP2 POP PUSH2 0xEA5 PUSH1 0x20 DUP5 ADD PUSH2 0xDC9 JUMP JUMPDEST SWAP1 POP SWAP3 POP SWAP3 SWAP1 POP JUMP JUMPDEST PUSH1 0x1 DUP2 DUP2 SHR SWAP1 DUP3 AND DUP1 PUSH2 0xEC2 JUMPI PUSH1 0x7F DUP3 AND SWAP2 POP JUMPDEST PUSH1 0x20 DUP3 LT DUP2 SUB PUSH2 0xEE0 JUMPI PUSH4 0x4E487B71 PUSH1 0xE0 SHL PUSH0 MSTORE PUSH1 0x22 PUSH1 0x4 MSTORE PUSH1 0x24 PUSH0 REVERT JUMPDEST POP SWAP2 SWAP1 POP JUMP JUMPDEST PUSH4 0x4E487B71 PUSH1 0xE0 SHL PUSH0 MSTORE PUSH1 0x11 PUSH1 0x4 MSTORE PUSH1 0x24 PUSH0 REVERT JUMPDEST DUP1 DUP3 ADD DUP1 DUP3 GT ISZERO PUSH2 0x30B JUMPI PUSH2 0x30B PUSH2 0xEE6 JUMP JUMPDEST PUSH0 PUSH1 0x20 DUP3 DUP5 SUB SLT ISZERO PUSH2 0xF1D JUMPI PUSH0 PUSH0 REVERT JUMPDEST POP MLOAD SWAP2 SWAP1 POP JUMP JUMPDEST DUP1 DUP3 MUL DUP2 ISZERO DUP3 DUP3 DIV DUP5 EQ OR PUSH2 0x30B JUMPI PUSH2 0x30B PUSH2 0xEE6 JUMP JUMPDEST PUSH0 DUP3 PUSH2 0xF55 JUMPI PUSH4 0x4E487B71 PUSH1 0xE0 SHL PUSH0 MSTORE PUSH1 0x12 PUSH1 0x4 MSTORE PUSH1 0x24 PUSH0 REVERT JUMPDEST POP DIV SWAP1 JUMP JUMPDEST PUSH0 PUSH1 0x20 DUP3 DUP5 SUB SLT ISZERO PUSH2 0xF6A JUMPI PUSH0 PUSH0 REVERT JUMPDEST DUP2 MLOAD DUP1 ISZERO ISZERO DUP2 EQ PUSH2 0xE5F JUMPI PUSH0 PUSH0 REVERT JUMPDEST PUSH0 DUP3 MLOAD DUP1 PUSH1 0x20 DUP6 ADD DUP5 MCOPY PUSH0 SWAP3 ADD SWAP2 DUP3 MSTORE POP SWAP2 SWAP1 POP JUMP INVALID LOG2 PUSH5 0x6970667358 0x22 SLT KECCAK256 0xB2 DUP3 0xE2 0xF8 DUP5 GT 0xE 0x27 PUSH24 0xE007FD94BA7B2A7BF84118B4572DD43A1B05BDF3B1F93E64 PUSH20 0x6F6C634300081C00330000000000000000000000 "
				},
				"gasEstimates": {
					"creation": {
						"codeDepositCost": "807400",
						"executionCost": "infinite",
						"totalCost": "infinite"
					},
					"external": {
						"allowance(address,address)": "infinite",
						"approve(address,uint256)": "24646",
						"balanceOf(address)": "2560",
						"decimals()": "221",
						"decreaseAllowance(address,uint256)": "27033",
						"deposit(uint256)": "infinite",
						"fundPortfolio()": "infinite",
						"increaseAllowance(address,uint256)": "infinite",
						"name()": "infinite",
						"pricePerShare()": "infinite",
						"symbol()": "infinite",
						"totalSupply()": "2348",
						"transfer(address,uint256)": "51066",
						"transferFrom(address,address,uint256)": "infinite",
						"weth()": "infinite"
					},
					"internal": {
						"_convertToShares(uint256)": "infinite"
					}
				},
				"methodIdentifiers": {
					"allowance(address,address)": "dd62ed3e",
					"approve(address,uint256)": "095ea7b3",
					"balanceOf(address)": "70a08231",
					"decimals()": "313ce567",
					"decreaseAllowance(address,uint256)": "a457c2d7",
					"deposit(uint256)": "b6b55f25",
					"fundPortfolio()": "aa4d1655",
					"increaseAllowance(address,uint256)": "39509351",
					"name()": "06fdde03",
					"pricePerShare()": "99530b06",
					"symbol()": "95d89b41",
					"totalSupply()": "18160ddd",
					"transfer(address,uint256)": "a9059cbb",
					"transferFrom(address,address,uint256)": "23b872dd",
					"weth()": "3fc8cef3"
				}
			},
			"storageLayout": {
				"storage": [
					{
						"astId": 264,
						"contract": "fund_shares.sol:WETHVault",
						"label": "_balances",
						"offset": 0,
						"slot": "0",
						"type": "t_mapping(t_address,t_uint256)"
					},
					{
						"astId": 270,
						"contract": "fund_shares.sol:WETHVault",
						"label": "_allowances",
						"offset": 0,
						"slot": "1",
						"type": "t_mapping(t_address,t_mapping(t_address,t_uint256))"
					},
					{
						"astId": 272,
						"contract": "fund_shares.sol:WETHVault",
						"label": "_totalSupply",
						"offset": 0,
						"slot": "2",
						"type": "t_uint256"
					},
					{
						"astId": 274,
						"contract": "fund_shares.sol:WETHVault",
						"label": "_name",
						"offset": 0,
						"slot": "3",
						"type": "t_string_storage"
					},
					{
						"astId": 276,
						"contract": "fund_shares.sol:WETHVault",
						"label": "_symbol",
						"offset": 0,
						"slot": "4",
						"type": "t_string_storage"
					},
					{
						"astId": 194,
						"contract": "fund_shares.sol:WETHVault",
						"label": "_status",
						"offset": 0,
						"slot": "5",
						"type": "t_uint256"
					}
				],
				"types": {
					"t_address": {
						"encoding": "inplace",
						"label": "address",
						"numberOfBytes": "20"
					},
					"t_mapping(t_address,t_mapping(t_address,t_uint256))": {
						"encoding": "mapping",
						"key": "t_address",
						"label": "mapping(address => mapping(address => uint256))",
						"numberOfBytes": "32",
						"value": "t_mapping(t_address,t_uint256)"
					},
					"t_mapping(t_address,t_uint256)": {
						"encoding": "mapping",
						"key": "t_address",
						"label": "mapping(address => uint256)",
						"numberOfBytes": "32",
						"value": "t_uint256"
					},
					"t_string_storage": {
						"encoding": "bytes",
						"label": "string",
						"numberOfBytes": "32"
					},
					"t_uint256": {
						"encoding": "inplace",
						"label": "uint256",
						"numberOfBytes": "32"
					}
				}
			},
			"userdoc": {
				"kind": "user",
				"methods": {},
				"version": 1
			}
		}
	}
}