{
	"fund_shares.sol": {
		"WETHVault": {
			"abi": [
				{
					"inputs": [
						{
							"internalType": "address",
							"name": "_weth",
							"type": "address"
						},
						{
							"internalType": "address",
							"name": "_fundPortfolio",
							"type": "address"
						},
						{
							"internalType": "string",
							"name": "_name",
							"type": "string"
						},
						{
							"internalType": "string",
							"name": "_symbol",
							"type": "string"
						}
					],
					"stateMutability": "nonpayable",
					"type": "constructor"
				},
				{
					"anonymous": false,
					"inputs": [
						{
							"indexed": true,
							"internalType": "address",
							"name": "owner",
							"type": "address"
						},
						{
							"indexed": true,
							"internalType": "address",
							"name": "spender",
							"type": "address"
						},
						{
							"indexed": false,
							"internalType": "uint256",
							"name": "value",
							"type": "uint256"
						}
					],
					"name": "Approval",
					"type": "event"
				},
				{
					"anonymous": false,
					"inputs": [
						{
							"indexed": true,
							"internalType": "address",
							"name": "from",
							"type": "address"
						},
						{
							"indexed": true,
							"internalType": "address",
							"name": "to",
							"type": "address"
						},
						{
							"indexed": false,
							"internalType": "uint256",
							"name": "value",
							"type": "uint256"
						}
					],
					"name": "Transfer",
					"type": "event"
				},
				{
					"anonymous": false,
					"inputs": [
						{
							"indexed": true,
							"internalType": "address",
							"name": "user",
							"type": "address"
						},
						{
							"indexed": false,
							"internalType": "uint256",
							"name": "amount",
							"type": "uint256"
						}
					],
					"name": "WithdrawalRequest",
					"type": "event"
				},
				{
					"inputs": [
						{
							"internalType": "address",
							"name": "",
							"type": "address"
						}
					],
					"name": "admins",
					"outputs": [
						{
							"internalType": "bool",
							"name": "",
							"type": "bool"
						}
					],
					"stateMutability": "view",
					"type": "function"
				},
				{
					"inputs": [
						{
							"internalType": "address",
							"name": "owner",
							"type": "address"
						},
						{
							"internalType": "address",
							"name": "spender",
							"type": "address"
						}
					],
					"name": "allowance",
					"outputs": [
						{
							"internalType": "uint256",
							"name": "",
							"type": "uint256"
						}
					],
					"stateMutability": "view",
					"type": "function"
				},
				{
					"inputs": [
						{
							"internalType": "address",
							"name": "spender",
							"type": "address"
						},
						{
							"internalType": "uint256",
							"name": "amount",
							"type": "uint256"
						}
					],
					"name": "approve",
					"outputs": [
						{
							"internalType": "bool",
							"name": "",
							"type": "bool"
						}
					],
					"stateMutability": "nonpayable",
					"type": "function"
				},
				{
					"inputs": [
						{
							"internalType": "address",
							"name": "account",
							"type": "address"
						}
					],
					"name": "balanceOf",
					"outputs": [
						{
							"internalType": "uint256",
							"name": "",
							"type": "uint256"
						}
					],
					"stateMutability": "view",
					"type": "function"
				},
				{
					"inputs": [],
					"name": "decimals",
					"outputs": [
						{
							"internalType": "uint8",
							"name": "",
							"type": "uint8"
						}
					],
					"stateMutability": "view",
					"type": "function"
				},
				{
					"inputs": [
						{
							"internalType": "address",
							"name": "spender",
							"type": "address"
						},
						{
							"internalType": "uint256",
							"name": "subtractedValue",
							"type": "uint256"
						}
					],
					"name": "decreaseAllowance",
					"outputs": [
						{
							"internalType": "bool",
							"name": "",
							"type": "bool"
						}
					],
					"stateMutability": "nonpayable",
					"type": "function"
				},
				{
					"inputs": [
						{
							"internalType": "uint256",
							"name": "amount",
							"type": "uint256"
						}
					],
					"name": "deposit",
					"outputs": [],
					"stateMutability": "nonpayable",
					"type": "function"
				},
				{
					"inputs": [],
					"name": "fundPortfolio",
					"outputs": [
						{
							"internalType": "address",
							"name": "",
							"type": "address"
						}
					],
					"stateMutability": "view",
					"type": "function"
				},
				{
					"inputs": [
						{
							"internalType": "address",
							"name": "spender",
							"type": "address"
						},
						{
							"internalType": "uint256",
							"name": "addedValue",
							"type": "uint256"
						}
					],
					"name": "increaseAllowance",
					"outputs": [
						{
							"internalType": "bool",
							"name": "",
							"type": "bool"
						}
					],
					"stateMutability": "nonpayable",
					"type": "function"
				},
				{
					"inputs": [],
					"name": "name",
					"outputs": [
						{
							"internalType": "string",
							"name": "",
							"type": "string"
						}
					],
					"stateMutability": "view",
					"type": "function"
				},
				{
					"inputs": [],
					"name": "portfolioValue",
					"outputs": [
						{
							"internalType": "uint256",
							"name": "",
							"type": "uint256"
						}
					],
					"stateMutability": "view",
					"type": "function"
				},
				{
					"inputs": [],
					"name": "pricePerShare",
					"outputs": [
						{
							"internalType": "uint256",
							"name": "",
							"type": "uint256"
						}
					],
					"stateMutability": "view",
					"type": "function"
				},
				{
					"inputs": [
						{
							"internalType": "address",
							"name": "admin",
							"type": "address"
						},
						{
							"internalType": "bool",
							"name": "status",
							"type": "bool"
						}
					],
					"name": "setAdmin",
					"outputs": [],
					"stateMutability": "nonpayable",
					"type": "function"
				},
				{
					"inputs": [
						{
							"internalType": "uint256",
							"name": "_newValue",
							"type": "uint256"
						}
					],
					"name": "setPortfolioValue",
					"outputs": [],
					"stateMutability": "nonpayable",
					"type": "function"
				},
				{
					"inputs": [],
					"name": "symbol",
					"outputs": [
						{
							"internalType": "string",
							"name": "",
							"type": "string"
						}
					],
					"stateMutability": "view",
					"type": "function"
				},
				{
					"inputs": [],
					"name": "totalSupply",
					"outputs": [
						{
							"internalType": "uint256",
							"name": "",
							"type": "uint256"
						}
					],
					"stateMutability": "view",
					"type": "function"
				},
				{
					"inputs": [
						{
							"internalType": "address",
							"name": "to",
							"type": "address"
						},
						{
							"internalType": "uint256",
							"name": "amount",
							"type": "uint256"
						}
					],
					"name": "transfer",
					"outputs": [
						{
							"internalType": "bool",
							"name": "",
							"type": "bool"
						}
					],
					"stateMutability": "nonpayable",
					"type": "function"
				},
				{
					"inputs": [
						{
							"internalType": "address",
							"name": "from",
							"type": "address"
						},
						{
							"internalType": "address",
							"name": "to",
							"type": "address"
						},
						{
							"internalType": "uint256",
							"name": "amount",
							"type": "uint256"
						}
					],
					"name": "transferFrom",
					"outputs": [
						{
							"internalType": "bool",
							"name": "",
							"type": "bool"
						}
					],
					"stateMutability": "nonpayable",
					"type": "function"
				},
				{
					"inputs": [],
					"name": "weth",
					"outputs": [
						{
							"internalType": "contract IERC20",
							"name": "",
							"type": "address"
						}
					],
					"stateMutability": "view",
					"type": "function"
				},
				{
					"inputs": [
						{
							"internalType": "uint256",
							"name": "shares",
							"type": "uint256"
						}
					],
					"name": "withdraw",
					"outputs": [],
					"stateMutability": "nonpayable",
					"type": "function"
				}
			],
			"devdoc": {
				"details": "This contract allows users to deposit WETH, mint proportional fund shares,      and send WETH to a designated fund portfolio while relying on an external      portfolio value update for tracking share value.",
				"events": {
					"Approval(address,address,uint256)": {
						"details": "Emitted when the allowance of a `spender` for an `owner` is set by a call to {approve}. `value` is the new allowance."
					},
					"Transfer(address,address,uint256)": {
						"details": "Emitted when `value` tokens are moved from one account (`from`) to another (`to`). Note that `value` may be zero."
					}
				},
				"kind": "dev",
				"methods": {
					"allowance(address,address)": {
						"details": "See {IERC20-allowance}."
					},
					"approve(address,uint256)": {
						"details": "See {IERC20-approve}. NOTE: If `amount` is the maximum `uint256`, the allowance is not updated on `transferFrom`. This is semantically equivalent to an infinite approval. Requirements: - `spender` cannot be the zero address."
					},
					"balanceOf(address)": {
						"details": "See {IERC20-balanceOf}."
					},
					"decimals()": {
						"details": "Returns the number of decimals used to get its user representation. For example, if `decimals` equals `2`, a balance of `505` tokens should be displayed to a user as `5.05` (`505 / 10 ** 2`). Tokens usually opt for a value of 18, imitating the relationship between Ether and Wei. This is the default value returned by this function, unless it's overridden. NOTE: This information is only used for _display_ purposes: it in no way affects any of the arithmetic of the contract, including {IERC20-balanceOf} and {IERC20-transfer}."
					},
					"decreaseAllowance(address,uint256)": {
						"details": "Atomically decreases the allowance granted to `spender` by the caller. This is an alternative to {approve} that can be used as a mitigation for problems described in {IERC20-approve}. Emits an {Approval} event indicating the updated allowance. Requirements: - `spender` cannot be the zero address. - `spender` must have allowance for the caller of at least `subtractedValue`."
					},
					"deposit(uint256)": {
						"details": "Deposit WETH, mint proportional shares, and send WETH to the fund portfolio.",
						"params": {
							"amount": "The amount of WETH to deposit."
						}
					},
					"increaseAllowance(address,uint256)": {
						"details": "Atomically increases the allowance granted to `spender` by the caller. This is an alternative to {approve} that can be used as a mitigation for problems described in {IERC20-approve}. Emits an {Approval} event indicating the updated allowance. Requirements: - `spender` cannot be the zero address."
					},
					"name()": {
						"details": "Returns the name of the token."
					},
					"pricePerShare()": {
						"details": "Returns the value of a single share based on fundPortfolio's total valuation."
					},
					"setAdmin(address,bool)": {
						"details": "Adds or removes admin privileges."
					},
					"setPortfolioValue(uint256)": {
						"details": "Allows an admin to update the total portfolio value (tracked externally)."
					},
					"symbol()": {
						"details": "Returns the symbol of the token, usually a shorter version of the name."
					},
					"totalSupply()": {
						"details": "See {IERC20-totalSupply}."
					},
					"transfer(address,uint256)": {
						"details": "See {IERC20-transfer}. Requirements: - `to` cannot be the zero address. - the caller must have a balance of at least `amount`."
					},
					"transferFrom(address,address,uint256)": {
						"details": "See {IERC20-transferFrom}. Emits an {Approval} event indicating the updated allowance. This is not required by the EIP. See the note at the beginning of {ERC20}. NOTE: Does not update the allowance if the current allowance is the maximum `uint256`. Requirements: - `from` and `to` cannot be the zero address. - `from` must have a balance of at least `amount`. - the caller must have allowance for ``from``'s tokens of at least `amount`."
					},
					"withdraw(uint256)": {
						"details": "Withdraw WETH by burning vault shares.",
						"params": {
							"shares": "The number of vault shares to redeem."
						}
					}
				},
				"title": "WETH ERC-4626 Vault",
				"version": 1
			},
			"evm": {
				"assembly": "    /* \"fund_shares.sol\":737:3953  contract WETHVault is ERC20, ReentrancyGuard {... */\n  mstore(0x40, 0xc0)\n    /* \"fund_shares.sol\":1137:1626  constructor(... */\n  callvalue\n  dup1\n  iszero\n  tag_1\n  jumpi\n  revert(0x00, 0x00)\ntag_1:\n  pop\n  mload(0x40)\n  sub(codesize, bytecodeSize)\n  dup1\n  bytecodeSize\n  dup4\n  codecopy\n  dup2\n  add\n  0x40\n  dup2\n  swap1\n  mstore\n  tag_2\n  swap2\n  tag_3\n  jump\t// in\ntag_2:\n    /* \"fund_shares.sol\":1281:1286  _name */\n  dup2\n    /* \"fund_shares.sol\":1288:1295  _symbol */\n  dup2\n    /* \"https://github.com/OpenZeppelin/openzeppelin-contracts/blob/v4.9.3/contracts/token/ERC20/ERC20.sol\":2046:2051  _name */\n  0x03\n    /* \"https://github.com/OpenZeppelin/openzeppelin-contracts/blob/v4.9.3/contracts/token/ERC20/ERC20.sol\":2046:2059  _name = name_ */\n  tag_8\n    /* \"fund_shares.sol\":1281:1286  _name */\n  dup4\n    /* \"https://github.com/OpenZeppelin/openzeppelin-contracts/blob/v4.9.3/contracts/token/ERC20/ERC20.sol\":2046:2051  _name */\n  dup3\n    /* \"https://github.com/OpenZeppelin/openzeppelin-contracts/blob/v4.9.3/contracts/token/ERC20/ERC20.sol\":2046:2059  _name = name_ */\n  tag_9\n  jump\t// in\ntag_8:\n  pop\n    /* \"https://github.com/OpenZeppelin/openzeppelin-contracts/blob/v4.9.3/contracts/token/ERC20/ERC20.sol\":2069:2076  _symbol */\n  0x04\n    /* \"https://github.com/OpenZeppelin/openzeppelin-contracts/blob/v4.9.3/contracts/token/ERC20/ERC20.sol\":2069:2086  _symbol = symbol_ */\n  tag_10\n    /* \"https://github.com/OpenZeppelin/openzeppelin-contracts/blob/v4.9.3/contracts/token/ERC20/ERC20.sol\":2079:2086  symbol_ */\n  dup3\n    /* \"https://github.com/OpenZeppelin/openzeppelin-contracts/blob/v4.9.3/contracts/token/ERC20/ERC20.sol\":2069:2076  _symbol */\n  dup3\n    /* \"https://github.com/OpenZeppelin/openzeppelin-contracts/blob/v4.9.3/contracts/token/ERC20/ERC20.sol\":2069:2086  _symbol = symbol_ */\n  tag_9\n  jump\t// in\ntag_10:\n  pop\n  pop\n    /* \"https://github.com/OpenZeppelin/openzeppelin-contracts/blob/v4.9.3/contracts/security/ReentrancyGuard.sol\":1716:1717  1 */\n  0x01\n    /* \"https://github.com/OpenZeppelin/openzeppelin-contracts/blob/v4.9.3/contracts/security/ReentrancyGuard.sol\":1821:1828  _status */\n  0x05\n    /* \"https://github.com/OpenZeppelin/openzeppelin-contracts/blob/v4.9.3/contracts/security/ReentrancyGuard.sol\":1821:1843  _status = _NOT_ENTERED */\n  sstore\n  pop\n  sub(shl(0xa0, 0x01), 0x01)\n    /* \"fund_shares.sol\":1316:1335  _weth != address(0) */\n  dup5\n  and\n    /* \"fund_shares.sol\":1308:1367  require(_weth != address(0), \"WETH address cannot be zero\") */\n  tag_13\n  jumpi\n  mload(0x40)\n  shl(0xe5, 0x461bcd)\n  dup2\n  mstore\n    /* \"#utility.yul\":4500:4502   */\n  0x20\n    /* \"fund_shares.sol\":1308:1367  require(_weth != address(0), \"WETH address cannot be zero\") */\n  0x04\n  dup3\n  add\n    /* \"#utility.yul\":4482:4503   */\n  mstore\n    /* \"#utility.yul\":4539:4541   */\n  0x1b\n    /* \"#utility.yul\":4519:4537   */\n  0x24\n  dup3\n  add\n    /* \"#utility.yul\":4512:4542   */\n  mstore\n    /* \"#utility.yul\":4578:4607   */\n  0x5745544820616464726573732063616e6e6f74206265207a65726f0000000000\n    /* \"#utility.yul\":4558:4576   */\n  0x44\n  dup3\n  add\n    /* \"#utility.yul\":4551:4608   */\n  mstore\n    /* \"#utility.yul\":4625:4643   */\n  0x64\n  add\n    /* \"fund_shares.sol\":1308:1367  require(_weth != address(0), \"WETH address cannot be zero\") */\ntag_14:\n  mload(0x40)\n  dup1\n  swap2\n  sub\n  swap1\n  revert\ntag_13:\n  sub(shl(0xa0, 0x01), 0x01)\n    /* \"fund_shares.sol\":1386:1414  _fundPortfolio != address(0) */\n  dup4\n  and\n    /* \"fund_shares.sol\":1378:1456  require(_fundPortfolio != address(0), \"Fund portfolio address cannot be zero\") */\n  tag_16\n  jumpi\n  mload(0x40)\n  shl(0xe5, 0x461bcd)\n  dup2\n  mstore\n    /* \"#utility.yul\":4856:4858   */\n  0x20\n    /* \"fund_shares.sol\":1378:1456  require(_fundPortfolio != address(0), \"Fund portfolio address cannot be zero\") */\n  0x04\n  dup3\n  add\n    /* \"#utility.yul\":4838:4859   */\n  mstore\n    /* \"#utility.yul\":4895:4897   */\n  0x25\n    /* \"#utility.yul\":4875:4893   */\n  0x24\n  dup3\n  add\n    /* \"#utility.yul\":4868:4898   */\n  mstore\n    /* \"#utility.yul\":4934:4968   */\n  0x46756e6420706f7274666f6c696f20616464726573732063616e6e6f74206265\n    /* \"#utility.yul\":4914:4932   */\n  0x44\n  dup3\n  add\n    /* \"#utility.yul\":4907:4969   */\n  mstore\n  shl(0xd8, 0x207a65726f)\n    /* \"#utility.yul\":4985:5003   */\n  0x64\n  dup3\n  add\n    /* \"#utility.yul\":4978:5013   */\n  mstore\n    /* \"#utility.yul\":5030:5049   */\n  0x84\n  add\n    /* \"fund_shares.sol\":1378:1456  require(_fundPortfolio != address(0), \"Fund portfolio address cannot be zero\") */\n  tag_14\n    /* \"#utility.yul\":4654:5055   */\n  jump\n    /* \"fund_shares.sol\":1378:1456  require(_fundPortfolio != address(0), \"Fund portfolio address cannot be zero\") */\ntag_16:\n  pop\n  pop\n  sub(shl(0xa0, 0x01), 0x01)\n    /* \"fund_shares.sol\":1477:1497  weth = IERC20(_weth) */\n  swap2\n  dup3\n  and\n  0x80\n  mstore\n    /* \"fund_shares.sol\":1508:1538  fundPortfolio = _fundPortfolio */\n  and\n  0xa0\n  mstore\n    /* \"fund_shares.sol\":1556:1566  msg.sender */\n  caller\n    /* \"fund_shares.sol\":1549:1567  admins[msg.sender] */\n  0x00\n  swap1\n  dup2\n  mstore\n    /* \"fund_shares.sol\":1549:1555  admins */\n  0x06\n    /* \"fund_shares.sol\":1549:1567  admins[msg.sender] */\n  0x20\n  mstore\n  0x40\n  swap1\n  keccak256\n    /* \"fund_shares.sol\":1549:1574  admins[msg.sender] = true */\n  dup1\n  sload\n  not(0xff)\n  and\n    /* \"fund_shares.sol\":1570:1574  true */\n  0x01\n    /* \"fund_shares.sol\":1549:1574  admins[msg.sender] = true */\n  or\n  swap1\n  sstore\n    /* \"fund_shares.sol\":737:3953  contract WETHVault is ERC20, ReentrancyGuard {... */\n  jump(tag_27)\n    /* \"#utility.yul\":14:191   */\ntag_20:\n    /* \"#utility.yul\":93:106   */\n  dup1\n  mload\n  sub(shl(0xa0, 0x01), 0x01)\n    /* \"#utility.yul\":135:166   */\n  dup2\n  and\n    /* \"#utility.yul\":125:167   */\n  dup2\n  eq\n    /* \"#utility.yul\":115:185   */\n  tag_29\n  jumpi\n    /* \"#utility.yul\":181:182   */\n  0x00\n    /* \"#utility.yul\":178:179   */\n  0x00\n    /* \"#utility.yul\":171:183   */\n  revert\n    /* \"#utility.yul\":115:185   */\ntag_29:\n    /* \"#utility.yul\":14:191   */\n  swap2\n  swap1\n  pop\n  jump\t// out\n    /* \"#utility.yul\":196:323   */\ntag_21:\n    /* \"#utility.yul\":257:267   */\n  0x4e487b71\n    /* \"#utility.yul\":252:255   */\n  0xe0\n    /* \"#utility.yul\":248:268   */\n  shl\n    /* \"#utility.yul\":245:246   */\n  0x00\n    /* \"#utility.yul\":238:269   */\n  mstore\n    /* \"#utility.yul\":288:292   */\n  0x41\n    /* \"#utility.yul\":285:286   */\n  0x04\n    /* \"#utility.yul\":278:293   */\n  mstore\n    /* \"#utility.yul\":312:316   */\n  0x24\n    /* \"#utility.yul\":309:310   */\n  0x00\n    /* \"#utility.yul\":302:317   */\n  revert\n    /* \"#utility.yul\":328:1051   */\ntag_22:\n    /* \"#utility.yul\":382:387   */\n  0x00\n    /* \"#utility.yul\":435:438   */\n  dup3\n    /* \"#utility.yul\":428:432   */\n  0x1f\n    /* \"#utility.yul\":420:426   */\n  dup4\n    /* \"#utility.yul\":416:433   */\n  add\n    /* \"#utility.yul\":412:439   */\n  slt\n    /* \"#utility.yul\":402:457   */\n  tag_32\n  jumpi\n    /* \"#utility.yul\":453:454   */\n  0x00\n    /* \"#utility.yul\":450:451   */\n  0x00\n    /* \"#utility.yul\":443:455   */\n  revert\n    /* \"#utility.yul\":402:457   */\ntag_32:\n    /* \"#utility.yul\":480:493   */\n  dup2\n  mload\n  sub(shl(0x40, 0x01), 0x01)\n    /* \"#utility.yul\":505:535   */\n  dup2\n  gt\n    /* \"#utility.yul\":502:558   */\n  iszero\n  tag_34\n  jumpi\n    /* \"#utility.yul\":538:556   */\n  tag_34\n  tag_21\n  jump\t// in\ntag_34:\n    /* \"#utility.yul\":587:589   */\n  0x40\n    /* \"#utility.yul\":581:590   */\n  mload\n    /* \"#utility.yul\":679:681   */\n  0x1f\n    /* \"#utility.yul\":641:658   */\n  dup3\n  add\n  not(0x1f)\n    /* \"#utility.yul\":637:668   */\n  swap1\n  dup2\n  and\n    /* \"#utility.yul\":670:672   */\n  0x3f\n    /* \"#utility.yul\":633:673   */\n  add\n    /* \"#utility.yul\":629:683   */\n  and\n    /* \"#utility.yul\":617:684   */\n  dup2\n  add\n  sub(shl(0x40, 0x01), 0x01)\n    /* \"#utility.yul\":699:733   */\n  dup2\n  gt\n    /* \"#utility.yul\":735:757   */\n  dup3\n  dup3\n  lt\n    /* \"#utility.yul\":696:758   */\n  or\n    /* \"#utility.yul\":693:781   */\n  iszero\n  tag_36\n  jumpi\n    /* \"#utility.yul\":761:779   */\n  tag_36\n  tag_21\n  jump\t// in\ntag_36:\n    /* \"#utility.yul\":797:799   */\n  0x40\n    /* \"#utility.yul\":790:812   */\n  mstore\n    /* \"#utility.yul\":821:843   */\n  dup2\n  dup2\n  mstore\n    /* \"#utility.yul\":862:881   */\n  dup4\n  dup3\n  add\n    /* \"#utility.yul\":883:887   */\n  0x20\n    /* \"#utility.yul\":858:888   */\n  add\n    /* \"#utility.yul\":855:894   */\n  dup6\n  lt\n    /* \"#utility.yul\":852:911   */\n  iszero\n  tag_37\n  jumpi\n    /* \"#utility.yul\":907:908   */\n  0x00\n    /* \"#utility.yul\":904:905   */\n  0x00\n    /* \"#utility.yul\":897:909   */\n  revert\n    /* \"#utility.yul\":852:911   */\ntag_37:\n    /* \"#utility.yul\":964:970   */\n  dup2\n    /* \"#utility.yul\":957:961   */\n  0x20\n    /* \"#utility.yul\":949:955   */\n  dup6\n    /* \"#utility.yul\":945:962   */\n  add\n    /* \"#utility.yul\":938:942   */\n  0x20\n    /* \"#utility.yul\":930:936   */\n  dup4\n    /* \"#utility.yul\":926:943   */\n  add\n    /* \"#utility.yul\":920:971   */\n  mcopy\n    /* \"#utility.yul\":1019:1020   */\n  0x00\n    /* \"#utility.yul\":991:1010   */\n  swap2\n  dup2\n  add\n    /* \"#utility.yul\":1012:1016   */\n  0x20\n    /* \"#utility.yul\":987:1017   */\n  add\n    /* \"#utility.yul\":980:1021   */\n  swap2\n  swap1\n  swap2\n  mstore\n    /* \"#utility.yul\":995:1001   */\n  swap4\n    /* \"#utility.yul\":328:1051   */\n  swap3\n  pop\n  pop\n  pop\n  jump\t// out\n    /* \"#utility.yul\":1056:1784   */\ntag_3:\n    /* \"#utility.yul\":1173:1179   */\n  0x00\n    /* \"#utility.yul\":1181:1187   */\n  0x00\n    /* \"#utility.yul\":1189:1195   */\n  0x00\n    /* \"#utility.yul\":1197:1203   */\n  0x00\n    /* \"#utility.yul\":1250:1253   */\n  0x80\n    /* \"#utility.yul\":1238:1247   */\n  dup6\n    /* \"#utility.yul\":1229:1236   */\n  dup8\n    /* \"#utility.yul\":1225:1248   */\n  sub\n    /* \"#utility.yul\":1221:1254   */\n  slt\n    /* \"#utility.yul\":1218:1271   */\n  iszero\n  tag_39\n  jumpi\n    /* \"#utility.yul\":1267:1268   */\n  0x00\n    /* \"#utility.yul\":1264:1265   */\n  0x00\n    /* \"#utility.yul\":1257:1269   */\n  revert\n    /* \"#utility.yul\":1218:1271   */\ntag_39:\n    /* \"#utility.yul\":1290:1330   */\n  tag_40\n    /* \"#utility.yul\":1320:1329   */\n  dup6\n    /* \"#utility.yul\":1290:1330   */\n  tag_20\n  jump\t// in\ntag_40:\n    /* \"#utility.yul\":1280:1330   */\n  swap4\n  pop\n    /* \"#utility.yul\":1349:1398   */\n  tag_41\n    /* \"#utility.yul\":1394:1396   */\n  0x20\n    /* \"#utility.yul\":1383:1392   */\n  dup7\n    /* \"#utility.yul\":1379:1397   */\n  add\n    /* \"#utility.yul\":1349:1398   */\n  tag_20\n  jump\t// in\ntag_41:\n    /* \"#utility.yul\":1442:1444   */\n  0x40\n    /* \"#utility.yul\":1427:1445   */\n  dup7\n  add\n    /* \"#utility.yul\":1421:1446   */\n  mload\n    /* \"#utility.yul\":1339:1398   */\n  swap1\n  swap4\n  pop\n  sub(shl(0x40, 0x01), 0x01)\n    /* \"#utility.yul\":1458:1488   */\n  dup2\n  gt\n    /* \"#utility.yul\":1455:1505   */\n  iszero\n  tag_42\n  jumpi\n    /* \"#utility.yul\":1501:1502   */\n  0x00\n    /* \"#utility.yul\":1498:1499   */\n  0x00\n    /* \"#utility.yul\":1491:1503   */\n  revert\n    /* \"#utility.yul\":1455:1505   */\ntag_42:\n    /* \"#utility.yul\":1524:1585   */\n  tag_43\n    /* \"#utility.yul\":1577:1584   */\n  dup8\n    /* \"#utility.yul\":1568:1574   */\n  dup3\n    /* \"#utility.yul\":1557:1566   */\n  dup9\n    /* \"#utility.yul\":1553:1575   */\n  add\n    /* \"#utility.yul\":1524:1585   */\n  tag_22\n  jump\t// in\ntag_43:\n    /* \"#utility.yul\":1631:1633   */\n  0x60\n    /* \"#utility.yul\":1616:1634   */\n  dup8\n  add\n    /* \"#utility.yul\":1610:1635   */\n  mload\n    /* \"#utility.yul\":1514:1585   */\n  swap1\n  swap4\n  pop\n    /* \"#utility.yul\":1610:1635   */\n  swap1\n  pop\n  sub(shl(0x40, 0x01), 0x01)\n    /* \"#utility.yul\":1647:1679   */\n  dup2\n  gt\n    /* \"#utility.yul\":1644:1696   */\n  iszero\n  tag_44\n  jumpi\n    /* \"#utility.yul\":1692:1693   */\n  0x00\n    /* \"#utility.yul\":1689:1690   */\n  0x00\n    /* \"#utility.yul\":1682:1694   */\n  revert\n    /* \"#utility.yul\":1644:1696   */\ntag_44:\n    /* \"#utility.yul\":1715:1778   */\n  tag_45\n    /* \"#utility.yul\":1770:1777   */\n  dup8\n    /* \"#utility.yul\":1759:1767   */\n  dup3\n    /* \"#utility.yul\":1748:1757   */\n  dup9\n    /* \"#utility.yul\":1744:1768   */\n  add\n    /* \"#utility.yul\":1715:1778   */\n  tag_22\n  jump\t// in\ntag_45:\n    /* \"#utility.yul\":1705:1778   */\n  swap2\n  pop\n  pop\n    /* \"#utility.yul\":1056:1784   */\n  swap3\n  swap6\n  swap2\n  swap5\n  pop\n  swap3\n  pop\n  jump\t// out\n    /* \"#utility.yul\":1789:2169   */\ntag_23:\n    /* \"#utility.yul\":1868:1869   */\n  0x01\n    /* \"#utility.yul\":1864:1876   */\n  dup2\n  dup2\n  shr\n  swap1\n    /* \"#utility.yul\":1911:1923   */\n  dup3\n  and\n  dup1\n    /* \"#utility.yul\":1932:1993   */\n  tag_47\n  jumpi\n    /* \"#utility.yul\":1986:1990   */\n  0x7f\n    /* \"#utility.yul\":1978:1984   */\n  dup3\n    /* \"#utility.yul\":1974:1991   */\n  and\n    /* \"#utility.yul\":1964:1991   */\n  swap2\n  pop\n    /* \"#utility.yul\":1932:1993   */\ntag_47:\n    /* \"#utility.yul\":2039:2041   */\n  0x20\n    /* \"#utility.yul\":2031:2037   */\n  dup3\n    /* \"#utility.yul\":2028:2042   */\n  lt\n    /* \"#utility.yul\":2008:2026   */\n  dup2\n    /* \"#utility.yul\":2005:2043   */\n  sub\n    /* \"#utility.yul\":2002:2163   */\n  tag_48\n  jumpi\n    /* \"#utility.yul\":2085:2095   */\n  0x4e487b71\n    /* \"#utility.yul\":2080:2083   */\n  0xe0\n    /* \"#utility.yul\":2076:2096   */\n  shl\n    /* \"#utility.yul\":2073:2074   */\n  0x00\n    /* \"#utility.yul\":2066:2097   */\n  mstore\n    /* \"#utility.yul\":2120:2124   */\n  0x22\n    /* \"#utility.yul\":2117:2118   */\n  0x04\n    /* \"#utility.yul\":2110:2125   */\n  mstore\n    /* \"#utility.yul\":2148:2152   */\n  0x24\n    /* \"#utility.yul\":2145:2146   */\n  0x00\n    /* \"#utility.yul\":2138:2153   */\n  revert\n    /* \"#utility.yul\":2002:2163   */\ntag_48:\n  pop\n    /* \"#utility.yul\":1789:2169   */\n  swap2\n  swap1\n  pop\n  jump\t// out\n    /* \"#utility.yul\":2300:2818   */\ntag_25:\n    /* \"#utility.yul\":2402:2404   */\n  0x1f\n    /* \"#utility.yul\":2397:2400   */\n  dup3\n    /* \"#utility.yul\":2394:2405   */\n  gt\n    /* \"#utility.yul\":2391:2812   */\n  iszero\n  tag_51\n  jumpi\n    /* \"#utility.yul\":2438:2443   */\n  dup1\n    /* \"#utility.yul\":2435:2436   */\n  0x00\n    /* \"#utility.yul\":2428:2444   */\n  mstore\n    /* \"#utility.yul\":2482:2486   */\n  0x20\n    /* \"#utility.yul\":2479:2480   */\n  0x00\n    /* \"#utility.yul\":2469:2487   */\n  keccak256\n    /* \"#utility.yul\":2552:2554   */\n  0x1f\n    /* \"#utility.yul\":2540:2550   */\n  dup5\n    /* \"#utility.yul\":2536:2555   */\n  add\n    /* \"#utility.yul\":2533:2534   */\n  0x05\n    /* \"#utility.yul\":2529:2556   */\n  shr\n    /* \"#utility.yul\":2523:2527   */\n  dup2\n    /* \"#utility.yul\":2519:2557   */\n  add\n    /* \"#utility.yul\":2588:2592   */\n  0x20\n    /* \"#utility.yul\":2576:2586   */\n  dup6\n    /* \"#utility.yul\":2573:2593   */\n  lt\n    /* \"#utility.yul\":2570:2617   */\n  iszero\n  tag_52\n  jumpi\n  pop\n    /* \"#utility.yul\":2611:2615   */\n  dup1\n    /* \"#utility.yul\":2570:2617   */\ntag_52:\n    /* \"#utility.yul\":2666:2668   */\n  0x1f\n    /* \"#utility.yul\":2661:2664   */\n  dup5\n    /* \"#utility.yul\":2657:2669   */\n  add\n    /* \"#utility.yul\":2654:2655   */\n  0x05\n    /* \"#utility.yul\":2650:2670   */\n  shr\n    /* \"#utility.yul\":2644:2648   */\n  dup3\n    /* \"#utility.yul\":2640:2671   */\n  add\n    /* \"#utility.yul\":2630:2671   */\n  swap2\n  pop\n    /* \"#utility.yul\":2721:2802   */\ntag_53:\n    /* \"#utility.yul\":2739:2741   */\n  dup2\n    /* \"#utility.yul\":2732:2737   */\n  dup2\n    /* \"#utility.yul\":2729:2742   */\n  lt\n    /* \"#utility.yul\":2721:2802   */\n  iszero\n  tag_55\n  jumpi\n    /* \"#utility.yul\":2798:2799   */\n  0x00\n    /* \"#utility.yul\":2784:2800   */\n  dup2\n  sstore\n    /* \"#utility.yul\":2765:2766   */\n  0x01\n    /* \"#utility.yul\":2754:2767   */\n  add\n    /* \"#utility.yul\":2721:2802   */\n  jump(tag_53)\ntag_55:\n    /* \"#utility.yul\":2725:2728   */\n  pop\n  pop\n    /* \"#utility.yul\":2391:2812   */\ntag_51:\n    /* \"#utility.yul\":2300:2818   */\n  pop\n  pop\n  pop\n  jump\t// out\n    /* \"#utility.yul\":2994:4293   */\ntag_9:\n    /* \"#utility.yul\":3114:3124   */\n  dup2\n  mload\n  sub(shl(0x40, 0x01), 0x01)\n    /* \"#utility.yul\":3136:3166   */\n  dup2\n  gt\n    /* \"#utility.yul\":3133:3189   */\n  iszero\n  tag_59\n  jumpi\n    /* \"#utility.yul\":3169:3187   */\n  tag_59\n  tag_21\n  jump\t// in\ntag_59:\n    /* \"#utility.yul\":3198:3295   */\n  tag_60\n    /* \"#utility.yul\":3288:3294   */\n  dup2\n    /* \"#utility.yul\":3248:3286   */\n  tag_61\n    /* \"#utility.yul\":3280:3284   */\n  dup5\n    /* \"#utility.yul\":3274:3285   */\n  sload\n    /* \"#utility.yul\":3248:3286   */\n  tag_23\n  jump\t// in\ntag_61:\n    /* \"#utility.yul\":3242:3246   */\n  dup5\n    /* \"#utility.yul\":3198:3295   */\n  tag_25\n  jump\t// in\ntag_60:\n    /* \"#utility.yul\":3344:3348   */\n  0x20\n    /* \"#utility.yul\":3375:3377   */\n  0x1f\n    /* \"#utility.yul\":3364:3378   */\n  dup3\n  gt\n    /* \"#utility.yul\":3392:3393   */\n  0x01\n    /* \"#utility.yul\":3387:4036   */\n  dup2\n  eq\n  tag_63\n  jumpi\n    /* \"#utility.yul\":4080:4081   */\n  0x00\n    /* \"#utility.yul\":4097:4103   */\n  dup4\n    /* \"#utility.yul\":4094:4183   */\n  iszero\n  tag_64\n  jumpi\n  pop\n    /* \"#utility.yul\":4149:4168   */\n  dup5\n  dup3\n  add\n    /* \"#utility.yul\":4143:4169   */\n  mload\n    /* \"#utility.yul\":4094:4183   */\ntag_64:\n  not(0x00)\n    /* \"#utility.yul\":2951:2952   */\n  0x03\n    /* \"#utility.yul\":2947:2958   */\n  dup6\n  swap1\n  shl\n    /* \"#utility.yul\":2943:2967   */\n  shr\n    /* \"#utility.yul\":2939:2968   */\n  not\n    /* \"#utility.yul\":2929:2969   */\n  and\n    /* \"#utility.yul\":2975:2976   */\n  0x01\n    /* \"#utility.yul\":2971:2982   */\n  dup5\n  swap1\n  shl\n    /* \"#utility.yul\":2926:2983   */\n  or\n    /* \"#utility.yul\":4196:4277   */\n  dup5\n  sstore\n    /* \"#utility.yul\":3357:4287   */\n  jump(tag_55)\n    /* \"#utility.yul\":3387:4036   */\ntag_63:\n    /* \"#utility.yul\":2247:2248   */\n  0x00\n    /* \"#utility.yul\":2240:2254   */\n  dup5\n  dup2\n  mstore\n    /* \"#utility.yul\":2284:2288   */\n  0x20\n    /* \"#utility.yul\":2271:2289   */\n  dup2\n  keccak256\n  not(0x1f)\n    /* \"#utility.yul\":3423:3443   */\n  dup6\n  and\n  swap2\n    /* \"#utility.yul\":3541:3763   */\ntag_67:\n    /* \"#utility.yul\":3555:3562   */\n  dup3\n    /* \"#utility.yul\":3552:3553   */\n  dup2\n    /* \"#utility.yul\":3549:3563   */\n  lt\n    /* \"#utility.yul\":3541:3763   */\n  iszero\n  tag_69\n  jumpi\n    /* \"#utility.yul\":3637:3656   */\n  dup8\n  dup6\n  add\n    /* \"#utility.yul\":3631:3657   */\n  mload\n    /* \"#utility.yul\":3616:3658   */\n  dup3\n  sstore\n    /* \"#utility.yul\":3744:3748   */\n  0x20\n    /* \"#utility.yul\":3729:3749   */\n  swap5\n  dup6\n  add\n  swap5\n    /* \"#utility.yul\":3697:3698   */\n  0x01\n    /* \"#utility.yul\":3685:3699   */\n  swap1\n  swap3\n  add\n  swap2\n    /* \"#utility.yul\":3571:3583   */\n  add\n    /* \"#utility.yul\":3541:3763   */\n  jump(tag_67)\ntag_69:\n    /* \"#utility.yul\":3545:3548   */\n  pop\n    /* \"#utility.yul\":3791:3797   */\n  dup5\n    /* \"#utility.yul\":3782:3789   */\n  dup3\n    /* \"#utility.yul\":3779:3798   */\n  lt\n    /* \"#utility.yul\":3776:3977   */\n  iszero\n  tag_70\n  jumpi\n    /* \"#utility.yul\":3852:3871   */\n  dup7\n  dup5\n  add\n    /* \"#utility.yul\":3846:3872   */\n  mload\n  not(0x00)\n    /* \"#utility.yul\":3935:3936   */\n  0x03\n    /* \"#utility.yul\":3931:3945   */\n  dup8\n  swap1\n  shl\n    /* \"#utility.yul\":3947:3950   */\n  0xf8\n    /* \"#utility.yul\":3927:3951   */\n  and\n    /* \"#utility.yul\":3923:3960   */\n  shr\n    /* \"#utility.yul\":3919:3961   */\n  not\n    /* \"#utility.yul\":3904:3962   */\n  and\n    /* \"#utility.yul\":3889:3963   */\n  dup2\n  sstore\n    /* \"#utility.yul\":3776:3977   */\ntag_70:\n  pop\n  pop\n  pop\n  pop\n    /* \"#utility.yul\":4023:4024   */\n  0x01\n    /* \"#utility.yul\":4007:4021   */\n  swap1\n  dup2\n  shl\n    /* \"#utility.yul\":4003:4025   */\n  add\n    /* \"#utility.yul\":3990:4026   */\n  swap1\n  sstore\n  pop\n    /* \"#utility.yul\":2994:4293   */\n  jump\t// out\n    /* \"#utility.yul\":4654:5055   */\ntag_27:\n    /* \"fund_shares.sol\":737:3953  contract WETHVault is ERC20, ReentrancyGuard {... */\n  mload(0x80)\n  mload(0xa0)\n  codecopy(0x00, dataOffset(sub_0), dataSize(sub_0))\n  0x00\n  assignImmutable(\"0x8fef2229291b68be841adf029e58b87f39ba144b2d3b0af1760243d0a9bc6a1c\")\n  0x00\n  assignImmutable(\"0x277ab82e5a4641341820a4a2933a62c1de997e42e92548657ae21b3728d580fe\")\n  return(0x00, dataSize(sub_0))\nstop\n\nsub_0: assembly {\n        /* \"fund_shares.sol\":737:3953  contract WETHVault is ERC20, ReentrancyGuard {... */\n      mstore(0x40, 0x80)\n      callvalue\n      dup1\n      iszero\n      tag_1\n      jumpi\n      revert(0x00, 0x00)\n    tag_1:\n      pop\n      jumpi(tag_2, lt(calldatasize, 0x04))\n      shr(0xe0, calldataload(0x00))\n      dup1\n      0x4b0bddd2\n      gt\n      tag_23\n      jumpi\n      dup1\n      0xa457c2d7\n      gt\n      tag_24\n      jumpi\n      dup1\n      0xa457c2d7\n      eq\n      tag_18\n      jumpi\n      dup1\n      0xa9059cbb\n      eq\n      tag_19\n      jumpi\n      dup1\n      0xaa4d1655\n      eq\n      tag_20\n      jumpi\n      dup1\n      0xb6b55f25\n      eq\n      tag_21\n      jumpi\n      dup1\n      0xdd62ed3e\n      eq\n      tag_22\n      jumpi\n      revert(0x00, 0x00)\n    tag_24:\n      dup1\n      0x4b0bddd2\n      eq\n      tag_13\n      jumpi\n      dup1\n      0x70a08231\n      eq\n      tag_14\n      jumpi\n      dup1\n      0x73acb590\n      eq\n      tag_15\n      jumpi\n      dup1\n      0x95d89b41\n      eq\n      tag_16\n      jumpi\n      dup1\n      0x99530b06\n      eq\n      tag_17\n      jumpi\n      revert(0x00, 0x00)\n    tag_23:\n      dup1\n      0x2e1a7d4d\n      gt\n      tag_25\n      jumpi\n      dup1\n      0x2e1a7d4d\n      eq\n      tag_8\n      jumpi\n      dup1\n      0x313ce567\n      eq\n      tag_9\n      jumpi\n      dup1\n      0x39509351\n      eq\n      tag_10\n      jumpi\n      dup1\n      0x3fc8cef3\n      eq\n      tag_11\n      jumpi\n      dup1\n      0x429b62e5\n      eq\n      tag_12\n      jumpi\n      revert(0x00, 0x00)\n    tag_25:\n      dup1\n      0x06fdde03\n      eq\n      tag_3\n      jumpi\n      dup1\n      0x08867db6\n      eq\n      tag_4\n      jumpi\n      dup1\n      0x095ea7b3\n      eq\n      tag_5\n      jumpi\n      dup1\n      0x18160ddd\n      eq\n      tag_6\n      jumpi\n      dup1\n      0x23b872dd\n      eq\n      tag_7\n      jumpi\n    tag_2:\n      revert(0x00, 0x00)\n        /* \"https://github.com/OpenZeppelin/openzeppelin-contracts/blob/v4.9.3/contracts/token/ERC20/ERC20.sol\":2158:2256  function name() public view virtual override returns (string memory) {... */\n    tag_3:\n      tag_26\n      tag_27\n      jump\t// in\n    tag_26:\n      mload(0x40)\n      tag_28\n      swap2\n      swap1\n      tag_29\n      jump\t// in\n    tag_28:\n      mload(0x40)\n      dup1\n      swap2\n      sub\n      swap1\n      return\n        /* \"fund_shares.sol\":1739:1962  function setPortfolioValue(uint256 _newValue) external {... */\n    tag_4:\n      tag_30\n      tag_31\n      calldatasize\n      0x04\n      tag_32\n      jump\t// in\n    tag_31:\n      tag_33\n      jump\t// in\n    tag_30:\n      stop\n        /* \"https://github.com/OpenZeppelin/openzeppelin-contracts/blob/v4.9.3/contracts/token/ERC20/ERC20.sol\":4444:4641  function approve(address spender, uint256 amount) public virtual override returns (bool) {... */\n    tag_5:\n      tag_34\n      tag_35\n      calldatasize\n      0x04\n      tag_36\n      jump\t// in\n    tag_35:\n      tag_37\n      jump\t// in\n    tag_34:\n      mload(0x40)\n        /* \"#utility.yul\":1316:1330   */\n      swap1\n      iszero\n        /* \"#utility.yul\":1309:1331   */\n      iszero\n        /* \"#utility.yul\":1291:1332   */\n      dup2\n      mstore\n        /* \"#utility.yul\":1279:1281   */\n      0x20\n        /* \"#utility.yul\":1264:1282   */\n      add\n        /* \"https://github.com/OpenZeppelin/openzeppelin-contracts/blob/v4.9.3/contracts/token/ERC20/ERC20.sol\":4444:4641  function approve(address spender, uint256 amount) public virtual override returns (bool) {... */\n      tag_28\n        /* \"#utility.yul\":1151:1338   */\n      jump\n        /* \"https://github.com/OpenZeppelin/openzeppelin-contracts/blob/v4.9.3/contracts/token/ERC20/ERC20.sol\":3255:3361  function totalSupply() public view virtual override returns (uint256) {... */\n    tag_6:\n        /* \"https://github.com/OpenZeppelin/openzeppelin-contracts/blob/v4.9.3/contracts/token/ERC20/ERC20.sol\":3342:3354  _totalSupply */\n      sload(0x02)\n        /* \"https://github.com/OpenZeppelin/openzeppelin-contracts/blob/v4.9.3/contracts/token/ERC20/ERC20.sol\":3255:3361  function totalSupply() public view virtual override returns (uint256) {... */\n    tag_40:\n      mload(0x40)\n        /* \"#utility.yul\":1489:1514   */\n      swap1\n      dup2\n      mstore\n        /* \"#utility.yul\":1477:1479   */\n      0x20\n        /* \"#utility.yul\":1462:1480   */\n      add\n        /* \"https://github.com/OpenZeppelin/openzeppelin-contracts/blob/v4.9.3/contracts/token/ERC20/ERC20.sol\":3255:3361  function totalSupply() public view virtual override returns (uint256) {... */\n      tag_28\n        /* \"#utility.yul\":1343:1520   */\n      jump\n        /* \"https://github.com/OpenZeppelin/openzeppelin-contracts/blob/v4.9.3/contracts/token/ERC20/ERC20.sol\":5203:5459  function transferFrom(address from, address to, uint256 amount) public virtual override returns (bool) {... */\n    tag_7:\n      tag_34\n      tag_45\n      calldatasize\n      0x04\n      tag_46\n      jump\t// in\n    tag_45:\n      tag_47\n      jump\t// in\n        /* \"fund_shares.sol\":2921:3433  function withdraw(uint256 shares) external nonReentrant {... */\n    tag_8:\n      tag_30\n      tag_50\n      calldatasize\n      0x04\n      tag_32\n      jump\t// in\n    tag_50:\n      tag_51\n      jump\t// in\n        /* \"https://github.com/OpenZeppelin/openzeppelin-contracts/blob/v4.9.3/contracts/token/ERC20/ERC20.sol\":3104:3195  function decimals() public view virtual override returns (uint8) {... */\n    tag_9:\n      mload(0x40)\n        /* \"https://github.com/OpenZeppelin/openzeppelin-contracts/blob/v4.9.3/contracts/token/ERC20/ERC20.sol\":3186:3188  18 */\n      0x12\n        /* \"#utility.yul\":2046:2082   */\n      dup2\n      mstore\n        /* \"#utility.yul\":2034:2036   */\n      0x20\n        /* \"#utility.yul\":2019:2037   */\n      add\n        /* \"https://github.com/OpenZeppelin/openzeppelin-contracts/blob/v4.9.3/contracts/token/ERC20/ERC20.sol\":3104:3195  function decimals() public view virtual override returns (uint8) {... */\n      tag_28\n        /* \"#utility.yul\":1904:2088   */\n      jump\n        /* \"https://github.com/OpenZeppelin/openzeppelin-contracts/blob/v4.9.3/contracts/token/ERC20/ERC20.sol\":5854:6088  function increaseAllowance(address spender, uint256 addedValue) public virtual returns (bool) {... */\n    tag_10:\n      tag_34\n      tag_57\n      calldatasize\n      0x04\n      tag_36\n      jump\t// in\n    tag_57:\n      tag_58\n      jump\t// in\n        /* \"fund_shares.sol\":824:852  IERC20 public immutable weth */\n    tag_11:\n      tag_60\n      immutable(\"0x277ab82e5a4641341820a4a2933a62c1de997e42e92548657ae21b3728d580fe\")\n      dup2\n      jump\n    tag_60:\n      mload(0x40)\n      sub(shl(0xa0, 0x01), 0x01)\n        /* \"#utility.yul\":2272:2304   */\n      swap1\n      swap2\n      and\n        /* \"#utility.yul\":2254:2305   */\n      dup2\n      mstore\n        /* \"#utility.yul\":2242:2244   */\n      0x20\n        /* \"#utility.yul\":2227:2245   */\n      add\n        /* \"fund_shares.sol\":824:852  IERC20 public immutable weth */\n      tag_28\n        /* \"#utility.yul\":2093:2311   */\n      jump\n        /* \"fund_shares.sol\":904:942  mapping(address => bool) public admins */\n    tag_12:\n      tag_34\n      tag_65\n      calldatasize\n      0x04\n      tag_66\n      jump\t// in\n    tag_65:\n      mstore(0x20, 0x06)\n      0x00\n      swap1\n      dup2\n      mstore\n      0x40\n      swap1\n      keccak256\n      sload\n      0xff\n      and\n      dup2\n      jump\n        /* \"fund_shares.sol\":3800:3950  function setAdmin(address admin, bool status) external {... */\n    tag_13:\n      tag_30\n      tag_70\n      calldatasize\n      0x04\n      tag_71\n      jump\t// in\n    tag_70:\n      tag_72\n      jump\t// in\n        /* \"https://github.com/OpenZeppelin/openzeppelin-contracts/blob/v4.9.3/contracts/token/ERC20/ERC20.sol\":3419:3544  function balanceOf(address account) public view virtual override returns (uint256) {... */\n    tag_14:\n      tag_40\n      tag_74\n      calldatasize\n      0x04\n      tag_66\n      jump\t// in\n    tag_74:\n      sub(shl(0xa0, 0x01), 0x01)\n        /* \"https://github.com/OpenZeppelin/openzeppelin-contracts/blob/v4.9.3/contracts/token/ERC20/ERC20.sol\":3519:3537  _balances[account] */\n      and\n        /* \"https://github.com/OpenZeppelin/openzeppelin-contracts/blob/v4.9.3/contracts/token/ERC20/ERC20.sol\":3493:3500  uint256 */\n      0x00\n        /* \"https://github.com/OpenZeppelin/openzeppelin-contracts/blob/v4.9.3/contracts/token/ERC20/ERC20.sol\":3519:3537  _balances[account] */\n      swap1\n      dup2\n      mstore\n      0x20\n      dup2\n      swap1\n      mstore\n      0x40\n      swap1\n      keccak256\n      sload\n      swap1\n        /* \"https://github.com/OpenZeppelin/openzeppelin-contracts/blob/v4.9.3/contracts/token/ERC20/ERC20.sol\":3419:3544  function balanceOf(address account) public view virtual override returns (uint256) {... */\n      jump\n        /* \"fund_shares.sol\":990:1019  uint256 public portfolioValue */\n    tag_15:\n      tag_40\n      sload(0x07)\n      dup2\n      jump\n        /* \"https://github.com/OpenZeppelin/openzeppelin-contracts/blob/v4.9.3/contracts/token/ERC20/ERC20.sol\":2369:2471  function symbol() public view virtual override returns (string memory) {... */\n    tag_16:\n      tag_26\n      tag_81\n      jump\t// in\n        /* \"fund_shares.sol\":3550:3727  function pricePerShare() external view returns (uint256) {... */\n    tag_17:\n      tag_40\n      tag_84\n      jump\t// in\n        /* \"https://github.com/OpenZeppelin/openzeppelin-contracts/blob/v4.9.3/contracts/token/ERC20/ERC20.sol\":6575:7002  function decreaseAllowance(address spender, uint256 subtractedValue) public virtual returns (bool) {... */\n    tag_18:\n      tag_34\n      tag_87\n      calldatasize\n      0x04\n      tag_36\n      jump\t// in\n    tag_87:\n      tag_88\n      jump\t// in\n        /* \"https://github.com/OpenZeppelin/openzeppelin-contracts/blob/v4.9.3/contracts/token/ERC20/ERC20.sol\":3740:3929  function transfer(address to, uint256 amount) public virtual override returns (bool) {... */\n    tag_19:\n      tag_34\n      tag_91\n      calldatasize\n      0x04\n      tag_36\n      jump\t// in\n    tag_91:\n      tag_92\n      jump\t// in\n        /* \"fund_shares.sol\":859:897  address public immutable fundPortfolio */\n    tag_20:\n      tag_60\n      immutable(\"0x8fef2229291b68be841adf029e58b87f39ba144b2d3b0af1760243d0a9bc6a1c\")\n      dup2\n      jump\n        /* \"fund_shares.sol\":2131:2783  function deposit(uint256 amount) external nonReentrant {... */\n    tag_21:\n      tag_30\n      tag_99\n      calldatasize\n      0x04\n      tag_32\n      jump\t// in\n    tag_99:\n      tag_100\n      jump\t// in\n        /* \"https://github.com/OpenZeppelin/openzeppelin-contracts/blob/v4.9.3/contracts/token/ERC20/ERC20.sol\":3987:4136  function allowance(address owner, address spender) public view virtual override returns (uint256) {... */\n    tag_22:\n      tag_40\n      tag_102\n      calldatasize\n      0x04\n      tag_103\n      jump\t// in\n    tag_102:\n      tag_104\n      jump\t// in\n        /* \"https://github.com/OpenZeppelin/openzeppelin-contracts/blob/v4.9.3/contracts/token/ERC20/ERC20.sol\":2158:2256  function name() public view virtual override returns (string memory) {... */\n    tag_27:\n        /* \"https://github.com/OpenZeppelin/openzeppelin-contracts/blob/v4.9.3/contracts/token/ERC20/ERC20.sol\":2212:2225  string memory */\n      0x60\n        /* \"https://github.com/OpenZeppelin/openzeppelin-contracts/blob/v4.9.3/contracts/token/ERC20/ERC20.sol\":2244:2249  _name */\n      0x03\n        /* \"https://github.com/OpenZeppelin/openzeppelin-contracts/blob/v4.9.3/contracts/token/ERC20/ERC20.sol\":2237:2249  return _name */\n      dup1\n      sload\n      tag_107\n      swap1\n      tag_108\n      jump\t// in\n    tag_107:\n      dup1\n      0x1f\n      add\n      0x20\n      dup1\n      swap2\n      div\n      mul\n      0x20\n      add\n      mload(0x40)\n      swap1\n      dup2\n      add\n      0x40\n      mstore\n      dup1\n      swap3\n      swap2\n      swap1\n      dup2\n      dup2\n      mstore\n      0x20\n      add\n      dup3\n      dup1\n      sload\n      tag_109\n      swap1\n      tag_108\n      jump\t// in\n    tag_109:\n      dup1\n      iszero\n      tag_110\n      jumpi\n      dup1\n      0x1f\n      lt\n      tag_111\n      jumpi\n      0x0100\n      dup1\n      dup4\n      sload\n      div\n      mul\n      dup4\n      mstore\n      swap2\n      0x20\n      add\n      swap2\n      jump(tag_110)\n    tag_111:\n      dup3\n      add\n      swap2\n      swap1\n      0x00\n      mstore\n      keccak256(0x00, 0x20)\n      swap1\n    tag_112:\n      dup2\n      sload\n      dup2\n      mstore\n      swap1\n      0x01\n      add\n      swap1\n      0x20\n      add\n      dup1\n      dup4\n      gt\n      tag_112\n      jumpi\n      dup3\n      swap1\n      sub\n      0x1f\n      and\n      dup3\n      add\n      swap2\n    tag_110:\n      pop\n      pop\n      pop\n      pop\n      pop\n      swap1\n      pop\n        /* \"https://github.com/OpenZeppelin/openzeppelin-contracts/blob/v4.9.3/contracts/token/ERC20/ERC20.sol\":2158:2256  function name() public view virtual override returns (string memory) {... */\n      swap1\n      jump\t// out\n        /* \"fund_shares.sol\":1739:1962  function setPortfolioValue(uint256 _newValue) external {... */\n    tag_33:\n        /* \"fund_shares.sol\":1820:1830  msg.sender */\n      caller\n        /* \"fund_shares.sol\":1813:1831  admins[msg.sender] */\n      0x00\n      swap1\n      dup2\n      mstore\n        /* \"fund_shares.sol\":1813:1819  admins */\n      0x06\n        /* \"fund_shares.sol\":1813:1831  admins[msg.sender] */\n      0x20\n      mstore\n      0x40\n      swap1\n      keccak256\n      sload\n      0xff\n      and\n        /* \"fund_shares.sol\":1805:1848  require(admins[msg.sender], \"Not an admin\") */\n      tag_114\n      jumpi\n      mload(0x40)\n      shl(0xe5, 0x461bcd)\n      dup2\n      mstore\n        /* \"#utility.yul\":4010:4012   */\n      0x20\n        /* \"fund_shares.sol\":1805:1848  require(admins[msg.sender], \"Not an admin\") */\n      0x04\n      dup3\n      add\n        /* \"#utility.yul\":3992:4013   */\n      mstore\n        /* \"#utility.yul\":4049:4051   */\n      0x0c\n        /* \"#utility.yul\":4029:4047   */\n      0x24\n      dup3\n      add\n        /* \"#utility.yul\":4022:4052   */\n      mstore\n      shl(0xa1, 0x2737ba1030b71030b236b4b7)\n        /* \"#utility.yul\":4068:4086   */\n      0x44\n      dup3\n      add\n        /* \"#utility.yul\":4061:4103   */\n      mstore\n        /* \"#utility.yul\":4120:4138   */\n      0x64\n      add\n        /* \"fund_shares.sol\":1805:1848  require(admins[msg.sender], \"Not an admin\") */\n    tag_115:\n      mload(0x40)\n      dup1\n      swap2\n      sub\n      swap1\n      revert\n    tag_114:\n        /* \"fund_shares.sol\":1879:1880  0 */\n      0x00\n        /* \"fund_shares.sol\":1867:1876  _newValue */\n      dup2\n        /* \"fund_shares.sol\":1867:1880  _newValue > 0 */\n      gt\n        /* \"fund_shares.sol\":1859:1917  require(_newValue > 0, \"Portfolio value must be positive\") */\n      tag_117\n      jumpi\n      mload(0x40)\n      shl(0xe5, 0x461bcd)\n      dup2\n      mstore\n        /* \"#utility.yul\":4351:4353   */\n      0x20\n        /* \"fund_shares.sol\":1859:1917  require(_newValue > 0, \"Portfolio value must be positive\") */\n      0x04\n      dup3\n      add\n        /* \"#utility.yul\":4333:4354   */\n      dup2\n      swap1\n      mstore\n        /* \"#utility.yul\":4370:4388   */\n      0x24\n      dup3\n      add\n        /* \"#utility.yul\":4363:4393   */\n      mstore\n        /* \"#utility.yul\":4429:4463   */\n      0x506f7274666f6c696f2076616c7565206d75737420626520706f736974697665\n        /* \"#utility.yul\":4409:4427   */\n      0x44\n      dup3\n      add\n        /* \"#utility.yul\":4402:4464   */\n      mstore\n        /* \"#utility.yul\":4481:4499   */\n      0x64\n      add\n        /* \"fund_shares.sol\":1859:1917  require(_newValue > 0, \"Portfolio value must be positive\") */\n      tag_115\n        /* \"#utility.yul\":4149:4505   */\n      jump\n        /* \"fund_shares.sol\":1859:1917  require(_newValue > 0, \"Portfolio value must be positive\") */\n    tag_117:\n        /* \"fund_shares.sol\":1928:1942  portfolioValue */\n      0x07\n        /* \"fund_shares.sol\":1928:1954  portfolioValue = _newValue */\n      sstore\n        /* \"fund_shares.sol\":1739:1962  function setPortfolioValue(uint256 _newValue) external {... */\n      jump\t// out\n        /* \"https://github.com/OpenZeppelin/openzeppelin-contracts/blob/v4.9.3/contracts/token/ERC20/ERC20.sol\":4444:4641  function approve(address spender, uint256 amount) public virtual override returns (bool) {... */\n    tag_37:\n        /* \"https://github.com/OpenZeppelin/openzeppelin-contracts/blob/v4.9.3/contracts/token/ERC20/ERC20.sol\":4527:4531  bool */\n      0x00\n        /* \"https://github.com/OpenZeppelin/openzeppelin-contracts/blob/v4.9.3/contracts/utils/Context.sol\":719:729  msg.sender */\n      caller\n        /* \"https://github.com/OpenZeppelin/openzeppelin-contracts/blob/v4.9.3/contracts/token/ERC20/ERC20.sol\":4581:4613  _approve(owner, spender, amount) */\n      tag_123\n        /* \"https://github.com/OpenZeppelin/openzeppelin-contracts/blob/v4.9.3/contracts/utils/Context.sol\":719:729  msg.sender */\n      dup2\n        /* \"https://github.com/OpenZeppelin/openzeppelin-contracts/blob/v4.9.3/contracts/token/ERC20/ERC20.sol\":4597:4604  spender */\n      dup6\n        /* \"https://github.com/OpenZeppelin/openzeppelin-contracts/blob/v4.9.3/contracts/token/ERC20/ERC20.sol\":4606:4612  amount */\n      dup6\n        /* \"https://github.com/OpenZeppelin/openzeppelin-contracts/blob/v4.9.3/contracts/token/ERC20/ERC20.sol\":4581:4589  _approve */\n      tag_124\n        /* \"https://github.com/OpenZeppelin/openzeppelin-contracts/blob/v4.9.3/contracts/token/ERC20/ERC20.sol\":4581:4613  _approve(owner, spender, amount) */\n      jump\t// in\n    tag_123:\n        /* \"https://github.com/OpenZeppelin/openzeppelin-contracts/blob/v4.9.3/contracts/token/ERC20/ERC20.sol\":4630:4634  true */\n      0x01\n        /* \"https://github.com/OpenZeppelin/openzeppelin-contracts/blob/v4.9.3/contracts/token/ERC20/ERC20.sol\":4623:4634  return true */\n      swap2\n      pop\n      pop\n        /* \"https://github.com/OpenZeppelin/openzeppelin-contracts/blob/v4.9.3/contracts/token/ERC20/ERC20.sol\":4444:4641  function approve(address spender, uint256 amount) public virtual override returns (bool) {... */\n    tag_120:\n      swap3\n      swap2\n      pop\n      pop\n      jump\t// out\n        /* \"https://github.com/OpenZeppelin/openzeppelin-contracts/blob/v4.9.3/contracts/token/ERC20/ERC20.sol\":5203:5459  function transferFrom(address from, address to, uint256 amount) public virtual override returns (bool) {... */\n    tag_47:\n        /* \"https://github.com/OpenZeppelin/openzeppelin-contracts/blob/v4.9.3/contracts/token/ERC20/ERC20.sol\":5300:5304  bool */\n      0x00\n        /* \"https://github.com/OpenZeppelin/openzeppelin-contracts/blob/v4.9.3/contracts/utils/Context.sol\":719:729  msg.sender */\n      caller\n        /* \"https://github.com/OpenZeppelin/openzeppelin-contracts/blob/v4.9.3/contracts/token/ERC20/ERC20.sol\":5356:5394  _spendAllowance(from, spender, amount) */\n      tag_128\n        /* \"https://github.com/OpenZeppelin/openzeppelin-contracts/blob/v4.9.3/contracts/token/ERC20/ERC20.sol\":5372:5376  from */\n      dup6\n        /* \"https://github.com/OpenZeppelin/openzeppelin-contracts/blob/v4.9.3/contracts/utils/Context.sol\":719:729  msg.sender */\n      dup3\n        /* \"https://github.com/OpenZeppelin/openzeppelin-contracts/blob/v4.9.3/contracts/token/ERC20/ERC20.sol\":5387:5393  amount */\n      dup6\n        /* \"https://github.com/OpenZeppelin/openzeppelin-contracts/blob/v4.9.3/contracts/token/ERC20/ERC20.sol\":5356:5371  _spendAllowance */\n      tag_129\n        /* \"https://github.com/OpenZeppelin/openzeppelin-contracts/blob/v4.9.3/contracts/token/ERC20/ERC20.sol\":5356:5394  _spendAllowance(from, spender, amount) */\n      jump\t// in\n    tag_128:\n        /* \"https://github.com/OpenZeppelin/openzeppelin-contracts/blob/v4.9.3/contracts/token/ERC20/ERC20.sol\":5404:5431  _transfer(from, to, amount) */\n      tag_130\n        /* \"https://github.com/OpenZeppelin/openzeppelin-contracts/blob/v4.9.3/contracts/token/ERC20/ERC20.sol\":5414:5418  from */\n      dup6\n        /* \"https://github.com/OpenZeppelin/openzeppelin-contracts/blob/v4.9.3/contracts/token/ERC20/ERC20.sol\":5420:5422  to */\n      dup6\n        /* \"https://github.com/OpenZeppelin/openzeppelin-contracts/blob/v4.9.3/contracts/token/ERC20/ERC20.sol\":5424:5430  amount */\n      dup6\n        /* \"https://github.com/OpenZeppelin/openzeppelin-contracts/blob/v4.9.3/contracts/token/ERC20/ERC20.sol\":5404:5413  _transfer */\n      tag_131\n        /* \"https://github.com/OpenZeppelin/openzeppelin-contracts/blob/v4.9.3/contracts/token/ERC20/ERC20.sol\":5404:5431  _transfer(from, to, amount) */\n      jump\t// in\n    tag_130:\n      pop\n        /* \"https://github.com/OpenZeppelin/openzeppelin-contracts/blob/v4.9.3/contracts/token/ERC20/ERC20.sol\":5448:5452  true */\n      0x01\n      swap5\n        /* \"https://github.com/OpenZeppelin/openzeppelin-contracts/blob/v4.9.3/contracts/token/ERC20/ERC20.sol\":5203:5459  function transferFrom(address from, address to, uint256 amount) public virtual override returns (bool) {... */\n      swap4\n      pop\n      pop\n      pop\n      pop\n      jump\t// out\n        /* \"fund_shares.sol\":2921:3433  function withdraw(uint256 shares) external nonReentrant {... */\n    tag_51:\n        /* \"https://github.com/OpenZeppelin/openzeppelin-contracts/blob/v4.9.3/contracts/security/ReentrancyGuard.sol\":2261:2282  _nonReentrantBefore() */\n      tag_133\n        /* \"https://github.com/OpenZeppelin/openzeppelin-contracts/blob/v4.9.3/contracts/security/ReentrancyGuard.sol\":2261:2280  _nonReentrantBefore */\n      tag_134\n        /* \"https://github.com/OpenZeppelin/openzeppelin-contracts/blob/v4.9.3/contracts/security/ReentrancyGuard.sol\":2261:2282  _nonReentrantBefore() */\n      jump\t// in\n    tag_133:\n        /* \"fund_shares.sol\":3005:3006  0 */\n      0x00\n        /* \"fund_shares.sol\":2996:3002  shares */\n      dup2\n        /* \"fund_shares.sol\":2996:3006  shares > 0 */\n      gt\n        /* \"fund_shares.sol\":2988:3043  require(shares > 0, \"Shares must be greater than zero\") */\n      tag_136\n      jumpi\n      mload(0x40)\n      shl(0xe5, 0x461bcd)\n      dup2\n      mstore\n        /* \"#utility.yul\":4712:4714   */\n      0x20\n        /* \"fund_shares.sol\":2988:3043  require(shares > 0, \"Shares must be greater than zero\") */\n      0x04\n      dup3\n      add\n        /* \"#utility.yul\":4694:4715   */\n      dup2\n      swap1\n      mstore\n        /* \"#utility.yul\":4731:4749   */\n      0x24\n      dup3\n      add\n        /* \"#utility.yul\":4724:4754   */\n      mstore\n        /* \"#utility.yul\":4790:4824   */\n      0x536861726573206d7573742062652067726561746572207468616e207a65726f\n        /* \"#utility.yul\":4770:4788   */\n      0x44\n      dup3\n      add\n        /* \"#utility.yul\":4763:4825   */\n      mstore\n        /* \"#utility.yul\":4842:4860   */\n      0x64\n      add\n        /* \"fund_shares.sol\":2988:3043  require(shares > 0, \"Shares must be greater than zero\") */\n      tag_115\n        /* \"#utility.yul\":4510:4866   */\n      jump\n        /* \"fund_shares.sol\":2988:3043  require(shares > 0, \"Shares must be greater than zero\") */\n    tag_136:\n        /* \"fund_shares.sol\":3072:3082  msg.sender */\n      caller\n        /* \"https://github.com/OpenZeppelin/openzeppelin-contracts/blob/v4.9.3/contracts/token/ERC20/ERC20.sol\":3493:3500  uint256 */\n      0x00\n        /* \"https://github.com/OpenZeppelin/openzeppelin-contracts/blob/v4.9.3/contracts/token/ERC20/ERC20.sol\":3519:3537  _balances[account] */\n      swap1\n      dup2\n      mstore\n      0x20\n      dup2\n      swap1\n      mstore\n      0x40\n      swap1\n      keccak256\n      sload\n        /* \"fund_shares.sol\":3087:3093  shares */\n      dup2\n      gt\n        /* \"fund_shares.sol\":3062:3093  balanceOf(msg.sender) >= shares */\n      iszero\n        /* \"fund_shares.sol\":3054:3117  require(balanceOf(msg.sender) >= shares, \"Insufficient shares\") */\n      tag_140\n      jumpi\n      mload(0x40)\n      shl(0xe5, 0x461bcd)\n      dup2\n      mstore\n        /* \"#utility.yul\":5073:5075   */\n      0x20\n        /* \"fund_shares.sol\":3054:3117  require(balanceOf(msg.sender) >= shares, \"Insufficient shares\") */\n      0x04\n      dup3\n      add\n        /* \"#utility.yul\":5055:5076   */\n      mstore\n        /* \"#utility.yul\":5112:5114   */\n      0x13\n        /* \"#utility.yul\":5092:5110   */\n      0x24\n      dup3\n      add\n        /* \"#utility.yul\":5085:5115   */\n      mstore\n      shl(0x68, 0x496e73756666696369656e7420736861726573)\n        /* \"#utility.yul\":5131:5149   */\n      0x44\n      dup3\n      add\n        /* \"#utility.yul\":5124:5173   */\n      mstore\n        /* \"#utility.yul\":5190:5208   */\n      0x64\n      add\n        /* \"fund_shares.sol\":3054:3117  require(balanceOf(msg.sender) >= shares, \"Insufficient shares\") */\n      tag_115\n        /* \"#utility.yul\":4871:5214   */\n      jump\n        /* \"fund_shares.sol\":3054:3117  require(balanceOf(msg.sender) >= shares, \"Insufficient shares\") */\n    tag_140:\n        /* \"fund_shares.sol\":3130:3144  uint256 supply */\n      0x00\n        /* \"fund_shares.sol\":3147:3160  totalSupply() */\n      tag_143\n        /* \"https://github.com/OpenZeppelin/openzeppelin-contracts/blob/v4.9.3/contracts/token/ERC20/ERC20.sol\":3342:3354  _totalSupply */\n      sload(0x02)\n      swap1\n        /* \"https://github.com/OpenZeppelin/openzeppelin-contracts/blob/v4.9.3/contracts/token/ERC20/ERC20.sol\":3255:3361  function totalSupply() public view virtual override returns (uint256) {... */\n      jump\n        /* \"fund_shares.sol\":3147:3160  totalSupply() */\n    tag_143:\n        /* \"fund_shares.sol\":3130:3160  uint256 supply = totalSupply() */\n      swap1\n      pop\n        /* \"fund_shares.sol\":3171:3185  uint256 amount */\n      0x00\n        /* \"fund_shares.sol\":3216:3222  supply */\n      dup2\n        /* \"fund_shares.sol\":3198:3212  portfolioValue */\n      sload(0x07)\n        /* \"fund_shares.sol\":3189:3195  shares */\n      dup5\n        /* \"fund_shares.sol\":3189:3212  shares * portfolioValue */\n      tag_144\n      swap2\n      swap1\n      tag_145\n      jump\t// in\n    tag_144:\n        /* \"fund_shares.sol\":3188:3222  (shares * portfolioValue) / supply */\n      tag_146\n      swap2\n      swap1\n      tag_147\n      jump\t// in\n    tag_146:\n        /* \"fund_shares.sol\":3171:3222  uint256 amount = (shares * portfolioValue) / supply */\n      swap1\n      pop\n        /* \"fund_shares.sol\":3262:3287  _burn(msg.sender, shares) */\n      tag_148\n        /* \"fund_shares.sol\":3268:3278  msg.sender */\n      caller\n        /* \"fund_shares.sol\":3280:3286  shares */\n      dup5\n        /* \"fund_shares.sol\":3262:3267  _burn */\n      tag_149\n        /* \"fund_shares.sol\":3262:3287  _burn(msg.sender, shares) */\n      jump\t// in\n    tag_148:\n        /* \"fund_shares.sol\":3388:3425  WithdrawalRequest(msg.sender, amount) */\n      mload(0x40)\n        /* \"#utility.yul\":1489:1514   */\n      dup2\n      dup2\n      mstore\n        /* \"fund_shares.sol\":3406:3416  msg.sender */\n      caller\n      swap1\n        /* \"fund_shares.sol\":3388:3425  WithdrawalRequest(msg.sender, amount) */\n      0x9345a8a944c0bca27038313dd8066210a495ba6374e523065a2e7adcc020ff2b\n      swap1\n        /* \"#utility.yul\":1477:1479   */\n      0x20\n        /* \"#utility.yul\":1462:1480   */\n      add\n        /* \"fund_shares.sol\":3388:3425  WithdrawalRequest(msg.sender, amount) */\n      mload(0x40)\n      dup1\n      swap2\n      sub\n      swap1\n      log2\n        /* \"fund_shares.sol\":2977:3433  {... */\n      pop\n      pop\n        /* \"https://github.com/OpenZeppelin/openzeppelin-contracts/blob/v4.9.3/contracts/security/ReentrancyGuard.sol\":2303:2323  _nonReentrantAfter() */\n      tag_151\n        /* \"https://github.com/OpenZeppelin/openzeppelin-contracts/blob/v4.9.3/contracts/security/ReentrancyGuard.sol\":1716:1717  1 */\n      0x01\n        /* \"https://github.com/OpenZeppelin/openzeppelin-contracts/blob/v4.9.3/contracts/security/ReentrancyGuard.sol\":2809:2816  _status */\n      0x05\n        /* \"https://github.com/OpenZeppelin/openzeppelin-contracts/blob/v4.9.3/contracts/security/ReentrancyGuard.sol\":2809:2831  _status = _NOT_ENTERED */\n      sstore\n        /* \"https://github.com/OpenZeppelin/openzeppelin-contracts/blob/v4.9.3/contracts/security/ReentrancyGuard.sol\":2629:2838  function _nonReentrantAfter() private {... */\n      jump\n        /* \"https://github.com/OpenZeppelin/openzeppelin-contracts/blob/v4.9.3/contracts/security/ReentrancyGuard.sol\":2303:2323  _nonReentrantAfter() */\n    tag_151:\n        /* \"fund_shares.sol\":2921:3433  function withdraw(uint256 shares) external nonReentrant {... */\n      pop\n      jump\t// out\n        /* \"https://github.com/OpenZeppelin/openzeppelin-contracts/blob/v4.9.3/contracts/token/ERC20/ERC20.sol\":5854:6088  function increaseAllowance(address spender, uint256 addedValue) public virtual returns (bool) {... */\n    tag_58:\n        /* \"https://github.com/OpenZeppelin/openzeppelin-contracts/blob/v4.9.3/contracts/token/ERC20/ERC20.sol\":5942:5946  bool */\n      0x00\n        /* \"https://github.com/OpenZeppelin/openzeppelin-contracts/blob/v4.9.3/contracts/utils/Context.sol\":719:729  msg.sender */\n      caller\n        /* \"https://github.com/OpenZeppelin/openzeppelin-contracts/blob/v4.9.3/contracts/token/ERC20/ERC20.sol\":5996:6060  _approve(owner, spender, allowance(owner, spender) + addedValue) */\n      tag_123\n        /* \"https://github.com/OpenZeppelin/openzeppelin-contracts/blob/v4.9.3/contracts/utils/Context.sol\":719:729  msg.sender */\n      dup2\n        /* \"https://github.com/OpenZeppelin/openzeppelin-contracts/blob/v4.9.3/contracts/token/ERC20/ERC20.sol\":6012:6019  spender */\n      dup6\n        /* \"https://github.com/OpenZeppelin/openzeppelin-contracts/blob/v4.9.3/contracts/token/ERC20/ERC20.sol\":6049:6059  addedValue */\n      dup6\n        /* \"https://github.com/OpenZeppelin/openzeppelin-contracts/blob/v4.9.3/contracts/token/ERC20/ERC20.sol\":6021:6046  allowance(owner, spender) */\n      tag_157\n        /* \"https://github.com/OpenZeppelin/openzeppelin-contracts/blob/v4.9.3/contracts/utils/Context.sol\":719:729  msg.sender */\n      dup4\n        /* \"https://github.com/OpenZeppelin/openzeppelin-contracts/blob/v4.9.3/contracts/token/ERC20/ERC20.sol\":6012:6019  spender */\n      dup4\n        /* \"https://github.com/OpenZeppelin/openzeppelin-contracts/blob/v4.9.3/contracts/token/ERC20/ERC20.sol\":6021:6030  allowance */\n      tag_104\n        /* \"https://github.com/OpenZeppelin/openzeppelin-contracts/blob/v4.9.3/contracts/token/ERC20/ERC20.sol\":6021:6046  allowance(owner, spender) */\n      jump\t// in\n    tag_157:\n        /* \"https://github.com/OpenZeppelin/openzeppelin-contracts/blob/v4.9.3/contracts/token/ERC20/ERC20.sol\":6021:6059  allowance(owner, spender) + addedValue */\n      tag_158\n      swap2\n      swap1\n      tag_159\n      jump\t// in\n    tag_158:\n        /* \"https://github.com/OpenZeppelin/openzeppelin-contracts/blob/v4.9.3/contracts/token/ERC20/ERC20.sol\":5996:6004  _approve */\n      tag_124\n        /* \"https://github.com/OpenZeppelin/openzeppelin-contracts/blob/v4.9.3/contracts/token/ERC20/ERC20.sol\":5996:6060  _approve(owner, spender, allowance(owner, spender) + addedValue) */\n      jump\t// in\n        /* \"fund_shares.sol\":3800:3950  function setAdmin(address admin, bool status) external {... */\n    tag_72:\n        /* \"fund_shares.sol\":3881:3891  msg.sender */\n      caller\n        /* \"fund_shares.sol\":3874:3892  admins[msg.sender] */\n      0x00\n      swap1\n      dup2\n      mstore\n        /* \"fund_shares.sol\":3874:3880  admins */\n      0x06\n        /* \"fund_shares.sol\":3874:3892  admins[msg.sender] */\n      0x20\n      mstore\n      0x40\n      swap1\n      keccak256\n      sload\n      0xff\n      and\n        /* \"fund_shares.sol\":3866:3909  require(admins[msg.sender], \"Not an admin\") */\n      tag_161\n      jumpi\n      mload(0x40)\n      shl(0xe5, 0x461bcd)\n      dup2\n      mstore\n        /* \"#utility.yul\":4010:4012   */\n      0x20\n        /* \"fund_shares.sol\":3866:3909  require(admins[msg.sender], \"Not an admin\") */\n      0x04\n      dup3\n      add\n        /* \"#utility.yul\":3992:4013   */\n      mstore\n        /* \"#utility.yul\":4049:4051   */\n      0x0c\n        /* \"#utility.yul\":4029:4047   */\n      0x24\n      dup3\n      add\n        /* \"#utility.yul\":4022:4052   */\n      mstore\n      shl(0xa1, 0x2737ba1030b71030b236b4b7)\n        /* \"#utility.yul\":4068:4086   */\n      0x44\n      dup3\n      add\n        /* \"#utility.yul\":4061:4103   */\n      mstore\n        /* \"#utility.yul\":4120:4138   */\n      0x64\n      add\n        /* \"fund_shares.sol\":3866:3909  require(admins[msg.sender], \"Not an admin\") */\n      tag_115\n        /* \"#utility.yul\":3808:4144   */\n      jump\n        /* \"fund_shares.sol\":3866:3909  require(admins[msg.sender], \"Not an admin\") */\n    tag_161:\n      sub(shl(0xa0, 0x01), 0x01)\n        /* \"fund_shares.sol\":3920:3933  admins[admin] */\n      swap2\n      swap1\n      swap2\n      and\n      0x00\n      swap1\n      dup2\n      mstore\n        /* \"fund_shares.sol\":3920:3926  admins */\n      0x06\n        /* \"fund_shares.sol\":3920:3933  admins[admin] */\n      0x20\n      mstore\n      0x40\n      swap1\n      keccak256\n        /* \"fund_shares.sol\":3920:3942  admins[admin] = status */\n      dup1\n      sload\n      not(0xff)\n      and\n      swap2\n      iszero\n      iszero\n      swap2\n      swap1\n      swap2\n      or\n      swap1\n      sstore\n        /* \"fund_shares.sol\":3800:3950  function setAdmin(address admin, bool status) external {... */\n      jump\t// out\n        /* \"https://github.com/OpenZeppelin/openzeppelin-contracts/blob/v4.9.3/contracts/token/ERC20/ERC20.sol\":2369:2471  function symbol() public view virtual override returns (string memory) {... */\n    tag_81:\n        /* \"https://github.com/OpenZeppelin/openzeppelin-contracts/blob/v4.9.3/contracts/token/ERC20/ERC20.sol\":2425:2438  string memory */\n      0x60\n        /* \"https://github.com/OpenZeppelin/openzeppelin-contracts/blob/v4.9.3/contracts/token/ERC20/ERC20.sol\":2457:2464  _symbol */\n      0x04\n        /* \"https://github.com/OpenZeppelin/openzeppelin-contracts/blob/v4.9.3/contracts/token/ERC20/ERC20.sol\":2450:2464  return _symbol */\n      dup1\n      sload\n      tag_107\n      swap1\n      tag_108\n      jump\t// in\n        /* \"fund_shares.sol\":3550:3727  function pricePerShare() external view returns (uint256) {... */\n    tag_84:\n        /* \"fund_shares.sol\":3598:3605  uint256 */\n      0x00\n        /* \"fund_shares.sol\":3618:3632  uint256 supply */\n      0x00\n        /* \"fund_shares.sol\":3635:3648  totalSupply() */\n      tag_171\n        /* \"https://github.com/OpenZeppelin/openzeppelin-contracts/blob/v4.9.3/contracts/token/ERC20/ERC20.sol\":3342:3354  _totalSupply */\n      sload(0x02)\n      swap1\n        /* \"https://github.com/OpenZeppelin/openzeppelin-contracts/blob/v4.9.3/contracts/token/ERC20/ERC20.sol\":3255:3361  function totalSupply() public view virtual override returns (uint256) {... */\n      jump\n        /* \"fund_shares.sol\":3635:3648  totalSupply() */\n    tag_171:\n        /* \"fund_shares.sol\":3618:3648  uint256 supply = totalSupply() */\n      swap1\n      pop\n        /* \"fund_shares.sol\":3666:3677  supply == 0 */\n      dup1\n      iszero\n        /* \"fund_shares.sol\":3666:3719  supply == 0 ? 1e18 : (portfolioValue * 1e18) / supply */\n      tag_172\n      jumpi\n        /* \"fund_shares.sol\":3713:3719  supply */\n      dup1\n        /* \"fund_shares.sol\":3688:3702  portfolioValue */\n      sload(0x07)\n        /* \"fund_shares.sol\":3705:3709  1e18 */\n      0x0de0b6b3a7640000\n        /* \"fund_shares.sol\":3688:3709  portfolioValue * 1e18 */\n      tag_173\n      swap2\n      swap1\n      tag_145\n      jump\t// in\n    tag_173:\n        /* \"fund_shares.sol\":3687:3719  (portfolioValue * 1e18) / supply */\n      tag_174\n      swap2\n      swap1\n      tag_147\n      jump\t// in\n    tag_174:\n        /* \"fund_shares.sol\":3666:3719  supply == 0 ? 1e18 : (portfolioValue * 1e18) / supply */\n      jump(tag_175)\n    tag_172:\n        /* \"fund_shares.sol\":3680:3684  1e18 */\n      0x0de0b6b3a7640000\n        /* \"fund_shares.sol\":3666:3719  supply == 0 ? 1e18 : (portfolioValue * 1e18) / supply */\n    tag_175:\n        /* \"fund_shares.sol\":3659:3719  return supply == 0 ? 1e18 : (portfolioValue * 1e18) / supply */\n      swap2\n      pop\n      pop\n        /* \"fund_shares.sol\":3550:3727  function pricePerShare() external view returns (uint256) {... */\n      swap1\n      jump\t// out\n        /* \"https://github.com/OpenZeppelin/openzeppelin-contracts/blob/v4.9.3/contracts/token/ERC20/ERC20.sol\":6575:7002  function decreaseAllowance(address spender, uint256 subtractedValue) public virtual returns (bool) {... */\n    tag_88:\n        /* \"https://github.com/OpenZeppelin/openzeppelin-contracts/blob/v4.9.3/contracts/token/ERC20/ERC20.sol\":6668:6672  bool */\n      0x00\n        /* \"https://github.com/OpenZeppelin/openzeppelin-contracts/blob/v4.9.3/contracts/utils/Context.sol\":719:729  msg.sender */\n      caller\n        /* \"https://github.com/OpenZeppelin/openzeppelin-contracts/blob/v4.9.3/contracts/token/ERC20/ERC20.sol\":6668:6672  bool */\n      dup2\n        /* \"https://github.com/OpenZeppelin/openzeppelin-contracts/blob/v4.9.3/contracts/token/ERC20/ERC20.sol\":6749:6774  allowance(owner, spender) */\n      tag_178\n        /* \"https://github.com/OpenZeppelin/openzeppelin-contracts/blob/v4.9.3/contracts/utils/Context.sol\":719:729  msg.sender */\n      dup3\n        /* \"https://github.com/OpenZeppelin/openzeppelin-contracts/blob/v4.9.3/contracts/token/ERC20/ERC20.sol\":6766:6773  spender */\n      dup7\n        /* \"https://github.com/OpenZeppelin/openzeppelin-contracts/blob/v4.9.3/contracts/token/ERC20/ERC20.sol\":6749:6758  allowance */\n      tag_104\n        /* \"https://github.com/OpenZeppelin/openzeppelin-contracts/blob/v4.9.3/contracts/token/ERC20/ERC20.sol\":6749:6774  allowance(owner, spender) */\n      jump\t// in\n    tag_178:\n        /* \"https://github.com/OpenZeppelin/openzeppelin-contracts/blob/v4.9.3/contracts/token/ERC20/ERC20.sol\":6722:6774  uint256 currentAllowance = allowance(owner, spender) */\n      swap1\n      pop\n        /* \"https://github.com/OpenZeppelin/openzeppelin-contracts/blob/v4.9.3/contracts/token/ERC20/ERC20.sol\":6812:6827  subtractedValue */\n      dup4\n        /* \"https://github.com/OpenZeppelin/openzeppelin-contracts/blob/v4.9.3/contracts/token/ERC20/ERC20.sol\":6792:6808  currentAllowance */\n      dup2\n        /* \"https://github.com/OpenZeppelin/openzeppelin-contracts/blob/v4.9.3/contracts/token/ERC20/ERC20.sol\":6792:6827  currentAllowance >= subtractedValue */\n      lt\n      iszero\n        /* \"https://github.com/OpenZeppelin/openzeppelin-contracts/blob/v4.9.3/contracts/token/ERC20/ERC20.sol\":6784:6869  require(currentAllowance >= subtractedValue, \"ERC20: decreased allowance below zero\") */\n      tag_179\n      jumpi\n      mload(0x40)\n      shl(0xe5, 0x461bcd)\n      dup2\n      mstore\n        /* \"#utility.yul\":6078:6080   */\n      0x20\n        /* \"https://github.com/OpenZeppelin/openzeppelin-contracts/blob/v4.9.3/contracts/token/ERC20/ERC20.sol\":6784:6869  require(currentAllowance >= subtractedValue, \"ERC20: decreased allowance below zero\") */\n      0x04\n      dup3\n      add\n        /* \"#utility.yul\":6060:6081   */\n      mstore\n        /* \"#utility.yul\":6117:6119   */\n      0x25\n        /* \"#utility.yul\":6097:6115   */\n      0x24\n      dup3\n      add\n        /* \"#utility.yul\":6090:6120   */\n      mstore\n        /* \"#utility.yul\":6156:6190   */\n      0x45524332303a2064656372656173656420616c6c6f77616e63652062656c6f77\n        /* \"#utility.yul\":6136:6154   */\n      0x44\n      dup3\n      add\n        /* \"#utility.yul\":6129:6191   */\n      mstore\n      shl(0xd8, 0x207a65726f)\n        /* \"#utility.yul\":6207:6225   */\n      0x64\n      dup3\n      add\n        /* \"#utility.yul\":6200:6235   */\n      mstore\n        /* \"#utility.yul\":6252:6271   */\n      0x84\n      add\n        /* \"https://github.com/OpenZeppelin/openzeppelin-contracts/blob/v4.9.3/contracts/token/ERC20/ERC20.sol\":6784:6869  require(currentAllowance >= subtractedValue, \"ERC20: decreased allowance below zero\") */\n      tag_115\n        /* \"#utility.yul\":5876:6277   */\n      jump\n        /* \"https://github.com/OpenZeppelin/openzeppelin-contracts/blob/v4.9.3/contracts/token/ERC20/ERC20.sol\":6784:6869  require(currentAllowance >= subtractedValue, \"ERC20: decreased allowance below zero\") */\n    tag_179:\n        /* \"https://github.com/OpenZeppelin/openzeppelin-contracts/blob/v4.9.3/contracts/token/ERC20/ERC20.sol\":6903:6963  _approve(owner, spender, currentAllowance - subtractedValue) */\n      tag_130\n        /* \"https://github.com/OpenZeppelin/openzeppelin-contracts/blob/v4.9.3/contracts/token/ERC20/ERC20.sol\":6912:6917  owner */\n      dup3\n        /* \"https://github.com/OpenZeppelin/openzeppelin-contracts/blob/v4.9.3/contracts/token/ERC20/ERC20.sol\":6919:6926  spender */\n      dup7\n        /* \"https://github.com/OpenZeppelin/openzeppelin-contracts/blob/v4.9.3/contracts/token/ERC20/ERC20.sol\":6947:6962  subtractedValue */\n      dup7\n        /* \"https://github.com/OpenZeppelin/openzeppelin-contracts/blob/v4.9.3/contracts/token/ERC20/ERC20.sol\":6928:6944  currentAllowance */\n      dup5\n        /* \"https://github.com/OpenZeppelin/openzeppelin-contracts/blob/v4.9.3/contracts/token/ERC20/ERC20.sol\":6928:6962  currentAllowance - subtractedValue */\n      sub\n        /* \"https://github.com/OpenZeppelin/openzeppelin-contracts/blob/v4.9.3/contracts/token/ERC20/ERC20.sol\":6903:6911  _approve */\n      tag_124\n        /* \"https://github.com/OpenZeppelin/openzeppelin-contracts/blob/v4.9.3/contracts/token/ERC20/ERC20.sol\":6903:6963  _approve(owner, spender, currentAllowance - subtractedValue) */\n      jump\t// in\n        /* \"https://github.com/OpenZeppelin/openzeppelin-contracts/blob/v4.9.3/contracts/token/ERC20/ERC20.sol\":3740:3929  function transfer(address to, uint256 amount) public virtual override returns (bool) {... */\n    tag_92:\n        /* \"https://github.com/OpenZeppelin/openzeppelin-contracts/blob/v4.9.3/contracts/token/ERC20/ERC20.sol\":3819:3823  bool */\n      0x00\n        /* \"https://github.com/OpenZeppelin/openzeppelin-contracts/blob/v4.9.3/contracts/utils/Context.sol\":719:729  msg.sender */\n      caller\n        /* \"https://github.com/OpenZeppelin/openzeppelin-contracts/blob/v4.9.3/contracts/token/ERC20/ERC20.sol\":3873:3901  _transfer(owner, to, amount) */\n      tag_123\n        /* \"https://github.com/OpenZeppelin/openzeppelin-contracts/blob/v4.9.3/contracts/utils/Context.sol\":719:729  msg.sender */\n      dup2\n        /* \"https://github.com/OpenZeppelin/openzeppelin-contracts/blob/v4.9.3/contracts/token/ERC20/ERC20.sol\":3890:3892  to */\n      dup6\n        /* \"https://github.com/OpenZeppelin/openzeppelin-contracts/blob/v4.9.3/contracts/token/ERC20/ERC20.sol\":3894:3900  amount */\n      dup6\n        /* \"https://github.com/OpenZeppelin/openzeppelin-contracts/blob/v4.9.3/contracts/token/ERC20/ERC20.sol\":3873:3882  _transfer */\n      tag_131\n        /* \"https://github.com/OpenZeppelin/openzeppelin-contracts/blob/v4.9.3/contracts/token/ERC20/ERC20.sol\":3873:3901  _transfer(owner, to, amount) */\n      jump\t// in\n        /* \"fund_shares.sol\":2131:2783  function deposit(uint256 amount) external nonReentrant {... */\n    tag_100:\n        /* \"https://github.com/OpenZeppelin/openzeppelin-contracts/blob/v4.9.3/contracts/security/ReentrancyGuard.sol\":2261:2282  _nonReentrantBefore() */\n      tag_187\n        /* \"https://github.com/OpenZeppelin/openzeppelin-contracts/blob/v4.9.3/contracts/security/ReentrancyGuard.sol\":2261:2280  _nonReentrantBefore */\n      tag_134\n        /* \"https://github.com/OpenZeppelin/openzeppelin-contracts/blob/v4.9.3/contracts/security/ReentrancyGuard.sol\":2261:2282  _nonReentrantBefore() */\n      jump\t// in\n    tag_187:\n        /* \"fund_shares.sol\":2214:2215  0 */\n      0x00\n        /* \"fund_shares.sol\":2205:2211  amount */\n      dup2\n        /* \"fund_shares.sol\":2205:2215  amount > 0 */\n      gt\n        /* \"fund_shares.sol\":2197:2252  require(amount > 0, \"Amount must be greater than zero\") */\n      tag_189\n      jumpi\n      mload(0x40)\n      shl(0xe5, 0x461bcd)\n      dup2\n      mstore\n        /* \"#utility.yul\":6484:6486   */\n      0x20\n        /* \"fund_shares.sol\":2197:2252  require(amount > 0, \"Amount must be greater than zero\") */\n      0x04\n      dup3\n      add\n        /* \"#utility.yul\":6466:6487   */\n      dup2\n      swap1\n      mstore\n        /* \"#utility.yul\":6503:6521   */\n      0x24\n      dup3\n      add\n        /* \"#utility.yul\":6496:6526   */\n      mstore\n        /* \"#utility.yul\":6562:6596   */\n      0x416d6f756e74206d7573742062652067726561746572207468616e207a65726f\n        /* \"#utility.yul\":6542:6560   */\n      0x44\n      dup3\n      add\n        /* \"#utility.yul\":6535:6597   */\n      mstore\n        /* \"#utility.yul\":6614:6632   */\n      0x64\n      add\n        /* \"fund_shares.sol\":2197:2252  require(amount > 0, \"Amount must be greater than zero\") */\n      tag_115\n        /* \"#utility.yul\":6282:6638   */\n      jump\n        /* \"fund_shares.sol\":2197:2252  require(amount > 0, \"Amount must be greater than zero\") */\n    tag_189:\n        /* \"fund_shares.sol\":2326:2382  weth.safeTransferFrom(msg.sender, address(this), amount) */\n      tag_192\n      sub(shl(0xa0, 0x01), 0x01)\n        /* \"fund_shares.sol\":2326:2330  weth */\n      immutable(\"0x277ab82e5a4641341820a4a2933a62c1de997e42e92548657ae21b3728d580fe\")\n        /* \"fund_shares.sol\":2326:2347  weth.safeTransferFrom */\n      and\n        /* \"fund_shares.sol\":2348:2358  msg.sender */\n      caller\n        /* \"fund_shares.sol\":2368:2372  this */\n      address\n        /* \"fund_shares.sol\":2375:2381  amount */\n      dup5\n        /* \"fund_shares.sol\":2326:2347  weth.safeTransferFrom */\n      tag_193\n        /* \"fund_shares.sol\":2326:2382  weth.safeTransferFrom(msg.sender, address(this), amount) */\n      jump\t// in\n    tag_192:\n        /* \"fund_shares.sol\":2460:2500  weth.safeTransfer(fundPortfolio, amount) */\n      tag_194\n      sub(shl(0xa0, 0x01), 0x01)\n        /* \"fund_shares.sol\":2460:2464  weth */\n      immutable(\"0x277ab82e5a4641341820a4a2933a62c1de997e42e92548657ae21b3728d580fe\")\n        /* \"fund_shares.sol\":2460:2477  weth.safeTransfer */\n      and\n        /* \"fund_shares.sol\":2478:2491  fundPortfolio */\n      immutable(\"0x8fef2229291b68be841adf029e58b87f39ba144b2d3b0af1760243d0a9bc6a1c\")\n        /* \"fund_shares.sol\":2493:2499  amount */\n      dup4\n        /* \"fund_shares.sol\":2460:2477  weth.safeTransfer */\n      tag_195\n        /* \"fund_shares.sol\":2460:2500  weth.safeTransfer(fundPortfolio, amount) */\n      jump\t// in\n    tag_194:\n        /* \"fund_shares.sol\":2589:2603  uint256 supply */\n      0x00\n        /* \"fund_shares.sol\":2606:2619  totalSupply() */\n      tag_196\n        /* \"https://github.com/OpenZeppelin/openzeppelin-contracts/blob/v4.9.3/contracts/token/ERC20/ERC20.sol\":3342:3354  _totalSupply */\n      sload(0x02)\n      swap1\n        /* \"https://github.com/OpenZeppelin/openzeppelin-contracts/blob/v4.9.3/contracts/token/ERC20/ERC20.sol\":3255:3361  function totalSupply() public view virtual override returns (uint256) {... */\n      jump\n        /* \"fund_shares.sol\":2606:2619  totalSupply() */\n    tag_196:\n        /* \"fund_shares.sol\":2589:2619  uint256 supply = totalSupply() */\n      swap1\n      pop\n        /* \"fund_shares.sol\":2630:2644  uint256 shares */\n      0x00\n        /* \"fund_shares.sol\":2648:2659  supply == 0 */\n      dup2\n      iszero\n      dup1\n        /* \"fund_shares.sol\":2648:2682  supply == 0 || portfolioValue == 0 */\n      tag_197\n      jumpi\n      pop\n        /* \"fund_shares.sol\":2663:2677  portfolioValue */\n      sload(0x07)\n        /* \"fund_shares.sol\":2663:2682  portfolioValue == 0 */\n      iszero\n        /* \"fund_shares.sol\":2648:2682  supply == 0 || portfolioValue == 0 */\n    tag_197:\n        /* \"fund_shares.sol\":2647:2729  (supply == 0 || portfolioValue == 0) ? amount : (amount * supply) / portfolioValue */\n      tag_198\n      jumpi\n        /* \"fund_shares.sol\":2715:2729  portfolioValue */\n      sload(0x07)\n        /* \"fund_shares.sol\":2696:2711  amount * supply */\n      tag_199\n        /* \"fund_shares.sol\":2705:2711  supply */\n      dup4\n        /* \"fund_shares.sol\":2696:2702  amount */\n      dup6\n        /* \"fund_shares.sol\":2696:2711  amount * supply */\n      tag_145\n      jump\t// in\n    tag_199:\n        /* \"fund_shares.sol\":2695:2729  (amount * supply) / portfolioValue */\n      tag_200\n      swap2\n      swap1\n      tag_147\n      jump\t// in\n    tag_200:\n        /* \"fund_shares.sol\":2647:2729  (supply == 0 || portfolioValue == 0) ? amount : (amount * supply) / portfolioValue */\n      jump(tag_201)\n    tag_198:\n        /* \"fund_shares.sol\":2686:2692  amount */\n      dup3\n        /* \"fund_shares.sol\":2647:2729  (supply == 0 || portfolioValue == 0) ? amount : (amount * supply) / portfolioValue */\n    tag_201:\n        /* \"fund_shares.sol\":2630:2729  uint256 shares = (supply == 0 || portfolioValue == 0) ? amount : (amount * supply) / portfolioValue */\n      swap1\n      pop\n        /* \"fund_shares.sol\":2750:2775  _mint(msg.sender, shares) */\n      tag_202\n        /* \"fund_shares.sol\":2756:2766  msg.sender */\n      caller\n        /* \"fund_shares.sol\":2768:2774  shares */\n      dup3\n        /* \"fund_shares.sol\":2750:2755  _mint */\n      tag_203\n        /* \"fund_shares.sol\":2750:2775  _mint(msg.sender, shares) */\n      jump\t// in\n    tag_202:\n        /* \"fund_shares.sol\":2186:2783  {... */\n      pop\n      pop\n        /* \"https://github.com/OpenZeppelin/openzeppelin-contracts/blob/v4.9.3/contracts/security/ReentrancyGuard.sol\":2303:2323  _nonReentrantAfter() */\n      tag_151\n        /* \"https://github.com/OpenZeppelin/openzeppelin-contracts/blob/v4.9.3/contracts/security/ReentrancyGuard.sol\":1716:1717  1 */\n      0x01\n        /* \"https://github.com/OpenZeppelin/openzeppelin-contracts/blob/v4.9.3/contracts/security/ReentrancyGuard.sol\":2809:2816  _status */\n      0x05\n        /* \"https://github.com/OpenZeppelin/openzeppelin-contracts/blob/v4.9.3/contracts/security/ReentrancyGuard.sol\":2809:2831  _status = _NOT_ENTERED */\n      sstore\n        /* \"https://github.com/OpenZeppelin/openzeppelin-contracts/blob/v4.9.3/contracts/security/ReentrancyGuard.sol\":2629:2838  function _nonReentrantAfter() private {... */\n      jump\n        /* \"https://github.com/OpenZeppelin/openzeppelin-contracts/blob/v4.9.3/contracts/token/ERC20/ERC20.sol\":3987:4136  function allowance(address owner, address spender) public view virtual override returns (uint256) {... */\n    tag_104:\n      sub(shl(0xa0, 0x01), 0x01)\n        /* \"https://github.com/OpenZeppelin/openzeppelin-contracts/blob/v4.9.3/contracts/token/ERC20/ERC20.sol\":4102:4120  _allowances[owner] */\n      swap2\n      dup3\n      and\n        /* \"https://github.com/OpenZeppelin/openzeppelin-contracts/blob/v4.9.3/contracts/token/ERC20/ERC20.sol\":4076:4083  uint256 */\n      0x00\n        /* \"https://github.com/OpenZeppelin/openzeppelin-contracts/blob/v4.9.3/contracts/token/ERC20/ERC20.sol\":4102:4120  _allowances[owner] */\n      swap1\n      dup2\n      mstore\n        /* \"https://github.com/OpenZeppelin/openzeppelin-contracts/blob/v4.9.3/contracts/token/ERC20/ERC20.sol\":4102:4113  _allowances */\n      0x01\n        /* \"https://github.com/OpenZeppelin/openzeppelin-contracts/blob/v4.9.3/contracts/token/ERC20/ERC20.sol\":4102:4120  _allowances[owner] */\n      0x20\n      swap1\n      dup2\n      mstore\n      0x40\n      dup1\n      dup4\n      keccak256\n        /* \"https://github.com/OpenZeppelin/openzeppelin-contracts/blob/v4.9.3/contracts/token/ERC20/ERC20.sol\":4102:4129  _allowances[owner][spender] */\n      swap4\n      swap1\n      swap5\n      and\n      dup3\n      mstore\n      swap2\n      swap1\n      swap2\n      mstore\n      keccak256\n      sload\n      swap1\n        /* \"https://github.com/OpenZeppelin/openzeppelin-contracts/blob/v4.9.3/contracts/token/ERC20/ERC20.sol\":3987:4136  function allowance(address owner, address spender) public view virtual override returns (uint256) {... */\n      jump\t// out\n        /* \"https://github.com/OpenZeppelin/openzeppelin-contracts/blob/v4.9.3/contracts/token/ERC20/ERC20.sol\":10457:10797  function _approve(address owner, address spender, uint256 amount) internal virtual {... */\n    tag_124:\n      sub(shl(0xa0, 0x01), 0x01)\n        /* \"https://github.com/OpenZeppelin/openzeppelin-contracts/blob/v4.9.3/contracts/token/ERC20/ERC20.sol\":10558:10577  owner != address(0) */\n      dup4\n      and\n        /* \"https://github.com/OpenZeppelin/openzeppelin-contracts/blob/v4.9.3/contracts/token/ERC20/ERC20.sol\":10550:10618  require(owner != address(0), \"ERC20: approve from the zero address\") */\n      tag_208\n      jumpi\n      mload(0x40)\n      shl(0xe5, 0x461bcd)\n      dup2\n      mstore\n        /* \"#utility.yul\":6845:6847   */\n      0x20\n        /* \"https://github.com/OpenZeppelin/openzeppelin-contracts/blob/v4.9.3/contracts/token/ERC20/ERC20.sol\":10550:10618  require(owner != address(0), \"ERC20: approve from the zero address\") */\n      0x04\n      dup3\n      add\n        /* \"#utility.yul\":6827:6848   */\n      mstore\n        /* \"#utility.yul\":6884:6886   */\n      0x24\n        /* \"#utility.yul\":6864:6882   */\n      dup1\n      dup3\n      add\n        /* \"#utility.yul\":6857:6887   */\n      mstore\n        /* \"#utility.yul\":6923:6957   */\n      0x45524332303a20617070726f76652066726f6d20746865207a65726f20616464\n        /* \"#utility.yul\":6903:6921   */\n      0x44\n      dup3\n      add\n        /* \"#utility.yul\":6896:6958   */\n      mstore\n      shl(0xe0, 0x72657373)\n        /* \"#utility.yul\":6974:6992   */\n      0x64\n      dup3\n      add\n        /* \"#utility.yul\":6967:7001   */\n      mstore\n        /* \"#utility.yul\":7018:7037   */\n      0x84\n      add\n        /* \"https://github.com/OpenZeppelin/openzeppelin-contracts/blob/v4.9.3/contracts/token/ERC20/ERC20.sol\":10550:10618  require(owner != address(0), \"ERC20: approve from the zero address\") */\n      tag_115\n        /* \"#utility.yul\":6643:7043   */\n      jump\n        /* \"https://github.com/OpenZeppelin/openzeppelin-contracts/blob/v4.9.3/contracts/token/ERC20/ERC20.sol\":10550:10618  require(owner != address(0), \"ERC20: approve from the zero address\") */\n    tag_208:\n      sub(shl(0xa0, 0x01), 0x01)\n        /* \"https://github.com/OpenZeppelin/openzeppelin-contracts/blob/v4.9.3/contracts/token/ERC20/ERC20.sol\":10636:10657  spender != address(0) */\n      dup3\n      and\n        /* \"https://github.com/OpenZeppelin/openzeppelin-contracts/blob/v4.9.3/contracts/token/ERC20/ERC20.sol\":10628:10696  require(spender != address(0), \"ERC20: approve to the zero address\") */\n      tag_211\n      jumpi\n      mload(0x40)\n      shl(0xe5, 0x461bcd)\n      dup2\n      mstore\n        /* \"#utility.yul\":7250:7252   */\n      0x20\n        /* \"https://github.com/OpenZeppelin/openzeppelin-contracts/blob/v4.9.3/contracts/token/ERC20/ERC20.sol\":10628:10696  require(spender != address(0), \"ERC20: approve to the zero address\") */\n      0x04\n      dup3\n      add\n        /* \"#utility.yul\":7232:7253   */\n      mstore\n        /* \"#utility.yul\":7289:7291   */\n      0x22\n        /* \"#utility.yul\":7269:7287   */\n      0x24\n      dup3\n      add\n        /* \"#utility.yul\":7262:7292   */\n      mstore\n        /* \"#utility.yul\":7328:7362   */\n      0x45524332303a20617070726f766520746f20746865207a65726f206164647265\n        /* \"#utility.yul\":7308:7326   */\n      0x44\n      dup3\n      add\n        /* \"#utility.yul\":7301:7363   */\n      mstore\n      shl(0xf0, 0x7373)\n        /* \"#utility.yul\":7379:7397   */\n      0x64\n      dup3\n      add\n        /* \"#utility.yul\":7372:7404   */\n      mstore\n        /* \"#utility.yul\":7421:7440   */\n      0x84\n      add\n        /* \"https://github.com/OpenZeppelin/openzeppelin-contracts/blob/v4.9.3/contracts/token/ERC20/ERC20.sol\":10628:10696  require(spender != address(0), \"ERC20: approve to the zero address\") */\n      tag_115\n        /* \"#utility.yul\":7048:7446   */\n      jump\n        /* \"https://github.com/OpenZeppelin/openzeppelin-contracts/blob/v4.9.3/contracts/token/ERC20/ERC20.sol\":10628:10696  require(spender != address(0), \"ERC20: approve to the zero address\") */\n    tag_211:\n      sub(shl(0xa0, 0x01), 0x01)\n        /* \"https://github.com/OpenZeppelin/openzeppelin-contracts/blob/v4.9.3/contracts/token/ERC20/ERC20.sol\":10707:10725  _allowances[owner] */\n      dup4\n      dup2\n      and\n      0x00\n      dup2\n      dup2\n      mstore\n        /* \"https://github.com/OpenZeppelin/openzeppelin-contracts/blob/v4.9.3/contracts/token/ERC20/ERC20.sol\":10707:10718  _allowances */\n      0x01\n        /* \"https://github.com/OpenZeppelin/openzeppelin-contracts/blob/v4.9.3/contracts/token/ERC20/ERC20.sol\":10707:10725  _allowances[owner] */\n      0x20\n      swap1\n      dup2\n      mstore\n      0x40\n      dup1\n      dup4\n      keccak256\n        /* \"https://github.com/OpenZeppelin/openzeppelin-contracts/blob/v4.9.3/contracts/token/ERC20/ERC20.sol\":10707:10734  _allowances[owner][spender] */\n      swap5\n      dup8\n      and\n      dup1\n      dup5\n      mstore\n      swap5\n      dup3\n      mstore\n      swap2\n      dup3\n      swap1\n      keccak256\n        /* \"https://github.com/OpenZeppelin/openzeppelin-contracts/blob/v4.9.3/contracts/token/ERC20/ERC20.sol\":10707:10743  _allowances[owner][spender] = amount */\n      dup6\n      swap1\n      sstore\n        /* \"https://github.com/OpenZeppelin/openzeppelin-contracts/blob/v4.9.3/contracts/token/ERC20/ERC20.sol\":10758:10790  Approval(owner, spender, amount) */\n      swap1\n      mload\n        /* \"#utility.yul\":1489:1514   */\n      dup5\n      dup2\n      mstore\n        /* \"https://github.com/OpenZeppelin/openzeppelin-contracts/blob/v4.9.3/contracts/token/ERC20/ERC20.sol\":10758:10790  Approval(owner, spender, amount) */\n      0x8c5be1e5ebec7d5bd14f71427d1e84f3dd0314c0f7b2291e5b200ac8c7c3b925\n      swap2\n        /* \"#utility.yul\":1462:1480   */\n      add\n        /* \"https://github.com/OpenZeppelin/openzeppelin-contracts/blob/v4.9.3/contracts/token/ERC20/ERC20.sol\":10758:10790  Approval(owner, spender, amount) */\n    tag_214:\n      mload(0x40)\n      dup1\n      swap2\n      sub\n      swap1\n      log3\n        /* \"https://github.com/OpenZeppelin/openzeppelin-contracts/blob/v4.9.3/contracts/token/ERC20/ERC20.sol\":10457:10797  function _approve(address owner, address spender, uint256 amount) internal virtual {... */\n      pop\n      pop\n      pop\n      jump\t// out\n        /* \"https://github.com/OpenZeppelin/openzeppelin-contracts/blob/v4.9.3/contracts/token/ERC20/ERC20.sol\":11078:11489  function _spendAllowance(address owner, address spender, uint256 amount) internal virtual {... */\n    tag_129:\n        /* \"https://github.com/OpenZeppelin/openzeppelin-contracts/blob/v4.9.3/contracts/token/ERC20/ERC20.sol\":11178:11202  uint256 currentAllowance */\n      0x00\n        /* \"https://github.com/OpenZeppelin/openzeppelin-contracts/blob/v4.9.3/contracts/token/ERC20/ERC20.sol\":11205:11230  allowance(owner, spender) */\n      tag_216\n        /* \"https://github.com/OpenZeppelin/openzeppelin-contracts/blob/v4.9.3/contracts/token/ERC20/ERC20.sol\":11215:11220  owner */\n      dup5\n        /* \"https://github.com/OpenZeppelin/openzeppelin-contracts/blob/v4.9.3/contracts/token/ERC20/ERC20.sol\":11222:11229  spender */\n      dup5\n        /* \"https://github.com/OpenZeppelin/openzeppelin-contracts/blob/v4.9.3/contracts/token/ERC20/ERC20.sol\":11205:11214  allowance */\n      tag_104\n        /* \"https://github.com/OpenZeppelin/openzeppelin-contracts/blob/v4.9.3/contracts/token/ERC20/ERC20.sol\":11205:11230  allowance(owner, spender) */\n      jump\t// in\n    tag_216:\n        /* \"https://github.com/OpenZeppelin/openzeppelin-contracts/blob/v4.9.3/contracts/token/ERC20/ERC20.sol\":11178:11230  uint256 currentAllowance = allowance(owner, spender) */\n      swap1\n      pop\n      not(0x00)\n        /* \"https://github.com/OpenZeppelin/openzeppelin-contracts/blob/v4.9.3/contracts/token/ERC20/ERC20.sol\":11244:11260  currentAllowance */\n      dup2\n        /* \"https://github.com/OpenZeppelin/openzeppelin-contracts/blob/v4.9.3/contracts/token/ERC20/ERC20.sol\":11244:11281  currentAllowance != type(uint256).max */\n      eq\n        /* \"https://github.com/OpenZeppelin/openzeppelin-contracts/blob/v4.9.3/contracts/token/ERC20/ERC20.sol\":11240:11483  if (currentAllowance != type(uint256).max) {... */\n      tag_221\n      jumpi\n        /* \"https://github.com/OpenZeppelin/openzeppelin-contracts/blob/v4.9.3/contracts/token/ERC20/ERC20.sol\":11325:11331  amount */\n      dup2\n        /* \"https://github.com/OpenZeppelin/openzeppelin-contracts/blob/v4.9.3/contracts/token/ERC20/ERC20.sol\":11305:11321  currentAllowance */\n      dup2\n        /* \"https://github.com/OpenZeppelin/openzeppelin-contracts/blob/v4.9.3/contracts/token/ERC20/ERC20.sol\":11305:11331  currentAllowance >= amount */\n      lt\n      iszero\n        /* \"https://github.com/OpenZeppelin/openzeppelin-contracts/blob/v4.9.3/contracts/token/ERC20/ERC20.sol\":11297:11365  require(currentAllowance >= amount, \"ERC20: insufficient allowance\") */\n      tag_218\n      jumpi\n      mload(0x40)\n      shl(0xe5, 0x461bcd)\n      dup2\n      mstore\n        /* \"#utility.yul\":7653:7655   */\n      0x20\n        /* \"https://github.com/OpenZeppelin/openzeppelin-contracts/blob/v4.9.3/contracts/token/ERC20/ERC20.sol\":11297:11365  require(currentAllowance >= amount, \"ERC20: insufficient allowance\") */\n      0x04\n      dup3\n      add\n        /* \"#utility.yul\":7635:7656   */\n      mstore\n        /* \"#utility.yul\":7692:7694   */\n      0x1d\n        /* \"#utility.yul\":7672:7690   */\n      0x24\n      dup3\n      add\n        /* \"#utility.yul\":7665:7695   */\n      mstore\n        /* \"#utility.yul\":7731:7762   */\n      0x45524332303a20696e73756666696369656e7420616c6c6f77616e6365000000\n        /* \"#utility.yul\":7711:7729   */\n      0x44\n      dup3\n      add\n        /* \"#utility.yul\":7704:7763   */\n      mstore\n        /* \"#utility.yul\":7780:7798   */\n      0x64\n      add\n        /* \"https://github.com/OpenZeppelin/openzeppelin-contracts/blob/v4.9.3/contracts/token/ERC20/ERC20.sol\":11297:11365  require(currentAllowance >= amount, \"ERC20: insufficient allowance\") */\n      tag_115\n        /* \"#utility.yul\":7451:7804   */\n      jump\n        /* \"https://github.com/OpenZeppelin/openzeppelin-contracts/blob/v4.9.3/contracts/token/ERC20/ERC20.sol\":11297:11365  require(currentAllowance >= amount, \"ERC20: insufficient allowance\") */\n    tag_218:\n        /* \"https://github.com/OpenZeppelin/openzeppelin-contracts/blob/v4.9.3/contracts/token/ERC20/ERC20.sol\":11407:11458  _approve(owner, spender, currentAllowance - amount) */\n      tag_221\n        /* \"https://github.com/OpenZeppelin/openzeppelin-contracts/blob/v4.9.3/contracts/token/ERC20/ERC20.sol\":11416:11421  owner */\n      dup5\n        /* \"https://github.com/OpenZeppelin/openzeppelin-contracts/blob/v4.9.3/contracts/token/ERC20/ERC20.sol\":11423:11430  spender */\n      dup5\n        /* \"https://github.com/OpenZeppelin/openzeppelin-contracts/blob/v4.9.3/contracts/token/ERC20/ERC20.sol\":11451:11457  amount */\n      dup5\n        /* \"https://github.com/OpenZeppelin/openzeppelin-contracts/blob/v4.9.3/contracts/token/ERC20/ERC20.sol\":11432:11448  currentAllowance */\n      dup5\n        /* \"https://github.com/OpenZeppelin/openzeppelin-contracts/blob/v4.9.3/contracts/token/ERC20/ERC20.sol\":11432:11457  currentAllowance - amount */\n      sub\n        /* \"https://github.com/OpenZeppelin/openzeppelin-contracts/blob/v4.9.3/contracts/token/ERC20/ERC20.sol\":11407:11415  _approve */\n      tag_124\n        /* \"https://github.com/OpenZeppelin/openzeppelin-contracts/blob/v4.9.3/contracts/token/ERC20/ERC20.sol\":11407:11458  _approve(owner, spender, currentAllowance - amount) */\n      jump\t// in\n    tag_221:\n        /* \"https://github.com/OpenZeppelin/openzeppelin-contracts/blob/v4.9.3/contracts/token/ERC20/ERC20.sol\":11168:11489  {... */\n      pop\n        /* \"https://github.com/OpenZeppelin/openzeppelin-contracts/blob/v4.9.3/contracts/token/ERC20/ERC20.sol\":11078:11489  function _spendAllowance(address owner, address spender, uint256 amount) internal virtual {... */\n      pop\n      pop\n      pop\n      jump\t// out\n        /* \"https://github.com/OpenZeppelin/openzeppelin-contracts/blob/v4.9.3/contracts/token/ERC20/ERC20.sol\":7456:8244  function _transfer(address from, address to, uint256 amount) internal virtual {... */\n    tag_131:\n      sub(shl(0xa0, 0x01), 0x01)\n        /* \"https://github.com/OpenZeppelin/openzeppelin-contracts/blob/v4.9.3/contracts/token/ERC20/ERC20.sol\":7552:7570  from != address(0) */\n      dup4\n      and\n        /* \"https://github.com/OpenZeppelin/openzeppelin-contracts/blob/v4.9.3/contracts/token/ERC20/ERC20.sol\":7544:7612  require(from != address(0), \"ERC20: transfer from the zero address\") */\n      tag_223\n      jumpi\n      mload(0x40)\n      shl(0xe5, 0x461bcd)\n      dup2\n      mstore\n        /* \"#utility.yul\":8011:8013   */\n      0x20\n        /* \"https://github.com/OpenZeppelin/openzeppelin-contracts/blob/v4.9.3/contracts/token/ERC20/ERC20.sol\":7544:7612  require(from != address(0), \"ERC20: transfer from the zero address\") */\n      0x04\n      dup3\n      add\n        /* \"#utility.yul\":7993:8014   */\n      mstore\n        /* \"#utility.yul\":8050:8052   */\n      0x25\n        /* \"#utility.yul\":8030:8048   */\n      0x24\n      dup3\n      add\n        /* \"#utility.yul\":8023:8053   */\n      mstore\n        /* \"#utility.yul\":8089:8123   */\n      0x45524332303a207472616e736665722066726f6d20746865207a65726f206164\n        /* \"#utility.yul\":8069:8087   */\n      0x44\n      dup3\n      add\n        /* \"#utility.yul\":8062:8124   */\n      mstore\n      shl(0xd8, 0x6472657373)\n        /* \"#utility.yul\":8140:8158   */\n      0x64\n      dup3\n      add\n        /* \"#utility.yul\":8133:8168   */\n      mstore\n        /* \"#utility.yul\":8185:8204   */\n      0x84\n      add\n        /* \"https://github.com/OpenZeppelin/openzeppelin-contracts/blob/v4.9.3/contracts/token/ERC20/ERC20.sol\":7544:7612  require(from != address(0), \"ERC20: transfer from the zero address\") */\n      tag_115\n        /* \"#utility.yul\":7809:8210   */\n      jump\n        /* \"https://github.com/OpenZeppelin/openzeppelin-contracts/blob/v4.9.3/contracts/token/ERC20/ERC20.sol\":7544:7612  require(from != address(0), \"ERC20: transfer from the zero address\") */\n    tag_223:\n      sub(shl(0xa0, 0x01), 0x01)\n        /* \"https://github.com/OpenZeppelin/openzeppelin-contracts/blob/v4.9.3/contracts/token/ERC20/ERC20.sol\":7630:7646  to != address(0) */\n      dup3\n      and\n        /* \"https://github.com/OpenZeppelin/openzeppelin-contracts/blob/v4.9.3/contracts/token/ERC20/ERC20.sol\":7622:7686  require(to != address(0), \"ERC20: transfer to the zero address\") */\n      tag_226\n      jumpi\n      mload(0x40)\n      shl(0xe5, 0x461bcd)\n      dup2\n      mstore\n        /* \"#utility.yul\":8417:8419   */\n      0x20\n        /* \"https://github.com/OpenZeppelin/openzeppelin-contracts/blob/v4.9.3/contracts/token/ERC20/ERC20.sol\":7622:7686  require(to != address(0), \"ERC20: transfer to the zero address\") */\n      0x04\n      dup3\n      add\n        /* \"#utility.yul\":8399:8420   */\n      mstore\n        /* \"#utility.yul\":8456:8458   */\n      0x23\n        /* \"#utility.yul\":8436:8454   */\n      0x24\n      dup3\n      add\n        /* \"#utility.yul\":8429:8459   */\n      mstore\n        /* \"#utility.yul\":8495:8529   */\n      0x45524332303a207472616e7366657220746f20746865207a65726f2061646472\n        /* \"#utility.yul\":8475:8493   */\n      0x44\n      dup3\n      add\n        /* \"#utility.yul\":8468:8530   */\n      mstore\n      shl(0xe8, 0x657373)\n        /* \"#utility.yul\":8546:8564   */\n      0x64\n      dup3\n      add\n        /* \"#utility.yul\":8539:8572   */\n      mstore\n        /* \"#utility.yul\":8589:8608   */\n      0x84\n      add\n        /* \"https://github.com/OpenZeppelin/openzeppelin-contracts/blob/v4.9.3/contracts/token/ERC20/ERC20.sol\":7622:7686  require(to != address(0), \"ERC20: transfer to the zero address\") */\n      tag_115\n        /* \"#utility.yul\":8215:8614   */\n      jump\n        /* \"https://github.com/OpenZeppelin/openzeppelin-contracts/blob/v4.9.3/contracts/token/ERC20/ERC20.sol\":7622:7686  require(to != address(0), \"ERC20: transfer to the zero address\") */\n    tag_226:\n      sub(shl(0xa0, 0x01), 0x01)\n        /* \"https://github.com/OpenZeppelin/openzeppelin-contracts/blob/v4.9.3/contracts/token/ERC20/ERC20.sol\":7768:7783  _balances[from] */\n      dup4\n      and\n        /* \"https://github.com/OpenZeppelin/openzeppelin-contracts/blob/v4.9.3/contracts/token/ERC20/ERC20.sol\":7746:7765  uint256 fromBalance */\n      0x00\n        /* \"https://github.com/OpenZeppelin/openzeppelin-contracts/blob/v4.9.3/contracts/token/ERC20/ERC20.sol\":7768:7783  _balances[from] */\n      swap1\n      dup2\n      mstore\n      0x20\n      dup2\n      swap1\n      mstore\n      0x40\n      swap1\n      keccak256\n      sload\n        /* \"https://github.com/OpenZeppelin/openzeppelin-contracts/blob/v4.9.3/contracts/token/ERC20/ERC20.sol\":7801:7822  fromBalance >= amount */\n      dup2\n      dup2\n      lt\n      iszero\n        /* \"https://github.com/OpenZeppelin/openzeppelin-contracts/blob/v4.9.3/contracts/token/ERC20/ERC20.sol\":7793:7865  require(fromBalance >= amount, \"ERC20: transfer amount exceeds balance\") */\n      tag_231\n      jumpi\n      mload(0x40)\n      shl(0xe5, 0x461bcd)\n      dup2\n      mstore\n        /* \"#utility.yul\":8821:8823   */\n      0x20\n        /* \"https://github.com/OpenZeppelin/openzeppelin-contracts/blob/v4.9.3/contracts/token/ERC20/ERC20.sol\":7793:7865  require(fromBalance >= amount, \"ERC20: transfer amount exceeds balance\") */\n      0x04\n      dup3\n      add\n        /* \"#utility.yul\":8803:8824   */\n      mstore\n        /* \"#utility.yul\":8860:8862   */\n      0x26\n        /* \"#utility.yul\":8840:8858   */\n      0x24\n      dup3\n      add\n        /* \"#utility.yul\":8833:8863   */\n      mstore\n        /* \"#utility.yul\":8899:8933   */\n      0x45524332303a207472616e7366657220616d6f756e7420657863656564732062\n        /* \"#utility.yul\":8879:8897   */\n      0x44\n      dup3\n      add\n        /* \"#utility.yul\":8872:8934   */\n      mstore\n      shl(0xd0, 0x616c616e6365)\n        /* \"#utility.yul\":8950:8968   */\n      0x64\n      dup3\n      add\n        /* \"#utility.yul\":8943:8979   */\n      mstore\n        /* \"#utility.yul\":8996:9015   */\n      0x84\n      add\n        /* \"https://github.com/OpenZeppelin/openzeppelin-contracts/blob/v4.9.3/contracts/token/ERC20/ERC20.sol\":7793:7865  require(fromBalance >= amount, \"ERC20: transfer amount exceeds balance\") */\n      tag_115\n        /* \"#utility.yul\":8619:9021   */\n      jump\n        /* \"https://github.com/OpenZeppelin/openzeppelin-contracts/blob/v4.9.3/contracts/token/ERC20/ERC20.sol\":7793:7865  require(fromBalance >= amount, \"ERC20: transfer amount exceeds balance\") */\n    tag_231:\n      sub(shl(0xa0, 0x01), 0x01)\n        /* \"https://github.com/OpenZeppelin/openzeppelin-contracts/blob/v4.9.3/contracts/token/ERC20/ERC20.sol\":7899:7914  _balances[from] */\n      dup5\n      dup2\n      and\n        /* \"https://github.com/OpenZeppelin/openzeppelin-contracts/blob/v4.9.3/contracts/token/ERC20/ERC20.sol\":7899:7908  _balances */\n      0x00\n        /* \"https://github.com/OpenZeppelin/openzeppelin-contracts/blob/v4.9.3/contracts/token/ERC20/ERC20.sol\":7899:7914  _balances[from] */\n      dup2\n      dup2\n      mstore\n      0x20\n      dup2\n      dup2\n      mstore\n      0x40\n      dup1\n      dup4\n      keccak256\n        /* \"https://github.com/OpenZeppelin/openzeppelin-contracts/blob/v4.9.3/contracts/token/ERC20/ERC20.sol\":7917:7937  fromBalance - amount */\n      dup8\n      dup8\n      sub\n        /* \"https://github.com/OpenZeppelin/openzeppelin-contracts/blob/v4.9.3/contracts/token/ERC20/ERC20.sol\":7899:7937  _balances[from] = fromBalance - amount */\n      swap1\n      sstore\n        /* \"https://github.com/OpenZeppelin/openzeppelin-contracts/blob/v4.9.3/contracts/token/ERC20/ERC20.sol\":8114:8127  _balances[to] */\n      swap4\n      dup8\n      and\n      dup1\n      dup4\n      mstore\n      swap2\n      dup5\n      swap1\n      keccak256\n        /* \"https://github.com/OpenZeppelin/openzeppelin-contracts/blob/v4.9.3/contracts/token/ERC20/ERC20.sol\":8114:8137  _balances[to] += amount */\n      dup1\n      sload\n      dup8\n      add\n      swap1\n      sstore\n        /* \"https://github.com/OpenZeppelin/openzeppelin-contracts/blob/v4.9.3/contracts/token/ERC20/ERC20.sol\":8163:8189  Transfer(from, to, amount) */\n      swap3\n      mload\n        /* \"#utility.yul\":1489:1514   */\n      dup6\n      dup2\n      mstore\n        /* \"https://github.com/OpenZeppelin/openzeppelin-contracts/blob/v4.9.3/contracts/token/ERC20/ERC20.sol\":8114:8127  _balances[to] */\n      swap1\n      swap3\n        /* \"https://github.com/OpenZeppelin/openzeppelin-contracts/blob/v4.9.3/contracts/token/ERC20/ERC20.sol\":8163:8189  Transfer(from, to, amount) */\n      0xddf252ad1be2c89b69c2b068fc378daa952ba7f163c4a11628f55a4df523b3ef\n      swap2\n        /* \"#utility.yul\":1462:1480   */\n      add\n        /* \"https://github.com/OpenZeppelin/openzeppelin-contracts/blob/v4.9.3/contracts/token/ERC20/ERC20.sol\":8163:8189  Transfer(from, to, amount) */\n      mload(0x40)\n      dup1\n      swap2\n      sub\n      swap1\n      log3\n        /* \"https://github.com/OpenZeppelin/openzeppelin-contracts/blob/v4.9.3/contracts/token/ERC20/ERC20.sol\":8200:8237  _afterTokenTransfer(from, to, amount) */\n      tag_221\n        /* \"https://github.com/OpenZeppelin/openzeppelin-contracts/blob/v4.9.3/contracts/token/ERC20/ERC20.sol\":9375:10034  function _burn(address account, uint256 amount) internal virtual {... */\n      jump\n        /* \"https://github.com/OpenZeppelin/openzeppelin-contracts/blob/v4.9.3/contracts/security/ReentrancyGuard.sol\":2336:2623  function _nonReentrantBefore() private {... */\n    tag_134:\n        /* \"https://github.com/OpenZeppelin/openzeppelin-contracts/blob/v4.9.3/contracts/security/ReentrancyGuard.sol\":1759:1760  2 */\n      0x02\n        /* \"https://github.com/OpenZeppelin/openzeppelin-contracts/blob/v4.9.3/contracts/security/ReentrancyGuard.sol\":2468:2475  _status */\n      sload(0x05)\n        /* \"https://github.com/OpenZeppelin/openzeppelin-contracts/blob/v4.9.3/contracts/security/ReentrancyGuard.sol\":2468:2487  _status != _ENTERED */\n      sub\n        /* \"https://github.com/OpenZeppelin/openzeppelin-contracts/blob/v4.9.3/contracts/security/ReentrancyGuard.sol\":2460:2523  require(_status != _ENTERED, \"ReentrancyGuard: reentrant call\") */\n      tag_238\n      jumpi\n      mload(0x40)\n      shl(0xe5, 0x461bcd)\n      dup2\n      mstore\n        /* \"#utility.yul\":9228:9230   */\n      0x20\n        /* \"https://github.com/OpenZeppelin/openzeppelin-contracts/blob/v4.9.3/contracts/security/ReentrancyGuard.sol\":2460:2523  require(_status != _ENTERED, \"ReentrancyGuard: reentrant call\") */\n      0x04\n      dup3\n      add\n        /* \"#utility.yul\":9210:9231   */\n      mstore\n        /* \"#utility.yul\":9267:9269   */\n      0x1f\n        /* \"#utility.yul\":9247:9265   */\n      0x24\n      dup3\n      add\n        /* \"#utility.yul\":9240:9270   */\n      mstore\n        /* \"#utility.yul\":9306:9339   */\n      0x5265656e7472616e637947756172643a207265656e7472616e742063616c6c00\n        /* \"#utility.yul\":9286:9304   */\n      0x44\n      dup3\n      add\n        /* \"#utility.yul\":9279:9340   */\n      mstore\n        /* \"#utility.yul\":9357:9375   */\n      0x64\n      add\n        /* \"https://github.com/OpenZeppelin/openzeppelin-contracts/blob/v4.9.3/contracts/security/ReentrancyGuard.sol\":2460:2523  require(_status != _ENTERED, \"ReentrancyGuard: reentrant call\") */\n      tag_115\n        /* \"#utility.yul\":9026:9381   */\n      jump\n        /* \"https://github.com/OpenZeppelin/openzeppelin-contracts/blob/v4.9.3/contracts/security/ReentrancyGuard.sol\":2460:2523  require(_status != _ENTERED, \"ReentrancyGuard: reentrant call\") */\n    tag_238:\n        /* \"https://github.com/OpenZeppelin/openzeppelin-contracts/blob/v4.9.3/contracts/security/ReentrancyGuard.sol\":1759:1760  2 */\n      0x02\n        /* \"https://github.com/OpenZeppelin/openzeppelin-contracts/blob/v4.9.3/contracts/security/ReentrancyGuard.sol\":2598:2605  _status */\n      0x05\n        /* \"https://github.com/OpenZeppelin/openzeppelin-contracts/blob/v4.9.3/contracts/security/ReentrancyGuard.sol\":2598:2616  _status = _ENTERED */\n      sstore\n        /* \"https://github.com/OpenZeppelin/openzeppelin-contracts/blob/v4.9.3/contracts/security/ReentrancyGuard.sol\":2336:2623  function _nonReentrantBefore() private {... */\n      jump\t// out\n        /* \"https://github.com/OpenZeppelin/openzeppelin-contracts/blob/v4.9.3/contracts/token/ERC20/ERC20.sol\":9375:10034  function _burn(address account, uint256 amount) internal virtual {... */\n    tag_149:\n      sub(shl(0xa0, 0x01), 0x01)\n        /* \"https://github.com/OpenZeppelin/openzeppelin-contracts/blob/v4.9.3/contracts/token/ERC20/ERC20.sol\":9458:9479  account != address(0) */\n      dup3\n      and\n        /* \"https://github.com/OpenZeppelin/openzeppelin-contracts/blob/v4.9.3/contracts/token/ERC20/ERC20.sol\":9450:9517  require(account != address(0), \"ERC20: burn from the zero address\") */\n      tag_242\n      jumpi\n      mload(0x40)\n      shl(0xe5, 0x461bcd)\n      dup2\n      mstore\n        /* \"#utility.yul\":9588:9590   */\n      0x20\n        /* \"https://github.com/OpenZeppelin/openzeppelin-contracts/blob/v4.9.3/contracts/token/ERC20/ERC20.sol\":9450:9517  require(account != address(0), \"ERC20: burn from the zero address\") */\n      0x04\n      dup3\n      add\n        /* \"#utility.yul\":9570:9591   */\n      mstore\n        /* \"#utility.yul\":9627:9629   */\n      0x21\n        /* \"#utility.yul\":9607:9625   */\n      0x24\n      dup3\n      add\n        /* \"#utility.yul\":9600:9630   */\n      mstore\n        /* \"#utility.yul\":9666:9700   */\n      0x45524332303a206275726e2066726f6d20746865207a65726f20616464726573\n        /* \"#utility.yul\":9646:9664   */\n      0x44\n      dup3\n      add\n        /* \"#utility.yul\":9639:9701   */\n      mstore\n      shl(0xf8, 0x73)\n        /* \"#utility.yul\":9717:9735   */\n      0x64\n      dup3\n      add\n        /* \"#utility.yul\":9710:9741   */\n      mstore\n        /* \"#utility.yul\":9758:9777   */\n      0x84\n      add\n        /* \"https://github.com/OpenZeppelin/openzeppelin-contracts/blob/v4.9.3/contracts/token/ERC20/ERC20.sol\":9450:9517  require(account != address(0), \"ERC20: burn from the zero address\") */\n      tag_115\n        /* \"#utility.yul\":9386:9783   */\n      jump\n        /* \"https://github.com/OpenZeppelin/openzeppelin-contracts/blob/v4.9.3/contracts/token/ERC20/ERC20.sol\":9450:9517  require(account != address(0), \"ERC20: burn from the zero address\") */\n    tag_242:\n      sub(shl(0xa0, 0x01), 0x01)\n        /* \"https://github.com/OpenZeppelin/openzeppelin-contracts/blob/v4.9.3/contracts/token/ERC20/ERC20.sol\":9613:9631  _balances[account] */\n      dup3\n      and\n        /* \"https://github.com/OpenZeppelin/openzeppelin-contracts/blob/v4.9.3/contracts/token/ERC20/ERC20.sol\":9588:9610  uint256 accountBalance */\n      0x00\n        /* \"https://github.com/OpenZeppelin/openzeppelin-contracts/blob/v4.9.3/contracts/token/ERC20/ERC20.sol\":9613:9631  _balances[account] */\n      swap1\n      dup2\n      mstore\n      0x20\n      dup2\n      swap1\n      mstore\n      0x40\n      swap1\n      keccak256\n      sload\n        /* \"https://github.com/OpenZeppelin/openzeppelin-contracts/blob/v4.9.3/contracts/token/ERC20/ERC20.sol\":9649:9673  accountBalance >= amount */\n      dup2\n      dup2\n      lt\n      iszero\n        /* \"https://github.com/OpenZeppelin/openzeppelin-contracts/blob/v4.9.3/contracts/token/ERC20/ERC20.sol\":9641:9712  require(accountBalance >= amount, \"ERC20: burn amount exceeds balance\") */\n      tag_246\n      jumpi\n      mload(0x40)\n      shl(0xe5, 0x461bcd)\n      dup2\n      mstore\n        /* \"#utility.yul\":9990:9992   */\n      0x20\n        /* \"https://github.com/OpenZeppelin/openzeppelin-contracts/blob/v4.9.3/contracts/token/ERC20/ERC20.sol\":9641:9712  require(accountBalance >= amount, \"ERC20: burn amount exceeds balance\") */\n      0x04\n      dup3\n      add\n        /* \"#utility.yul\":9972:9993   */\n      mstore\n        /* \"#utility.yul\":10029:10031   */\n      0x22\n        /* \"#utility.yul\":10009:10027   */\n      0x24\n      dup3\n      add\n        /* \"#utility.yul\":10002:10032   */\n      mstore\n        /* \"#utility.yul\":10068:10102   */\n      0x45524332303a206275726e20616d6f756e7420657863656564732062616c616e\n        /* \"#utility.yul\":10048:10066   */\n      0x44\n      dup3\n      add\n        /* \"#utility.yul\":10041:10103   */\n      mstore\n      shl(0xf0, 0x6365)\n        /* \"#utility.yul\":10119:10137   */\n      0x64\n      dup3\n      add\n        /* \"#utility.yul\":10112:10144   */\n      mstore\n        /* \"#utility.yul\":10161:10180   */\n      0x84\n      add\n        /* \"https://github.com/OpenZeppelin/openzeppelin-contracts/blob/v4.9.3/contracts/token/ERC20/ERC20.sol\":9641:9712  require(accountBalance >= amount, \"ERC20: burn amount exceeds balance\") */\n      tag_115\n        /* \"#utility.yul\":9788:10186   */\n      jump\n        /* \"https://github.com/OpenZeppelin/openzeppelin-contracts/blob/v4.9.3/contracts/token/ERC20/ERC20.sol\":9641:9712  require(accountBalance >= amount, \"ERC20: burn amount exceeds balance\") */\n    tag_246:\n      sub(shl(0xa0, 0x01), 0x01)\n        /* \"https://github.com/OpenZeppelin/openzeppelin-contracts/blob/v4.9.3/contracts/token/ERC20/ERC20.sol\":9746:9764  _balances[account] */\n      dup4\n      and\n        /* \"https://github.com/OpenZeppelin/openzeppelin-contracts/blob/v4.9.3/contracts/token/ERC20/ERC20.sol\":9746:9755  _balances */\n      0x00\n        /* \"https://github.com/OpenZeppelin/openzeppelin-contracts/blob/v4.9.3/contracts/token/ERC20/ERC20.sol\":9746:9764  _balances[account] */\n      dup2\n      dup2\n      mstore\n      0x20\n      dup2\n      dup2\n      mstore\n      0x40\n      dup1\n      dup4\n      keccak256\n        /* \"https://github.com/OpenZeppelin/openzeppelin-contracts/blob/v4.9.3/contracts/token/ERC20/ERC20.sol\":9767:9790  accountBalance - amount */\n      dup7\n      dup7\n      sub\n        /* \"https://github.com/OpenZeppelin/openzeppelin-contracts/blob/v4.9.3/contracts/token/ERC20/ERC20.sol\":9746:9790  _balances[account] = accountBalance - amount */\n      swap1\n      sstore\n        /* \"https://github.com/OpenZeppelin/openzeppelin-contracts/blob/v4.9.3/contracts/token/ERC20/ERC20.sol\":9883:9895  _totalSupply */\n      0x02\n        /* \"https://github.com/OpenZeppelin/openzeppelin-contracts/blob/v4.9.3/contracts/token/ERC20/ERC20.sol\":9883:9905  _totalSupply -= amount */\n      dup1\n      sload\n      dup8\n      swap1\n      sub\n      swap1\n      sstore\n        /* \"https://github.com/OpenZeppelin/openzeppelin-contracts/blob/v4.9.3/contracts/token/ERC20/ERC20.sol\":9931:9968  Transfer(account, address(0), amount) */\n      mload\n        /* \"#utility.yul\":1489:1514   */\n      dup6\n      dup2\n      mstore\n        /* \"https://github.com/OpenZeppelin/openzeppelin-contracts/blob/v4.9.3/contracts/token/ERC20/ERC20.sol\":9746:9755  _balances */\n      swap2\n      swap3\n        /* \"https://github.com/OpenZeppelin/openzeppelin-contracts/blob/v4.9.3/contracts/token/ERC20/ERC20.sol\":9746:9764  _balances[account] */\n      swap2\n        /* \"https://github.com/OpenZeppelin/openzeppelin-contracts/blob/v4.9.3/contracts/token/ERC20/ERC20.sol\":9931:9968  Transfer(account, address(0), amount) */\n      0xddf252ad1be2c89b69c2b068fc378daa952ba7f163c4a11628f55a4df523b3ef\n      swap2\n        /* \"#utility.yul\":1462:1480   */\n      add\n        /* \"https://github.com/OpenZeppelin/openzeppelin-contracts/blob/v4.9.3/contracts/token/ERC20/ERC20.sol\":9931:9968  Transfer(account, address(0), amount) */\n      tag_214\n        /* \"#utility.yul\":1343:1520   */\n      jump\n        /* \"https://github.com/OpenZeppelin/openzeppelin-contracts/blob/v4.9.3/contracts/token/ERC20/ERC20.sol\":9979:10027  _afterTokenTransfer(account, address(0), amount) */\n    tag_250:\n        /* \"https://github.com/OpenZeppelin/openzeppelin-contracts/blob/v4.9.3/contracts/token/ERC20/ERC20.sol\":9440:10034  {... */\n      pop\n        /* \"https://github.com/OpenZeppelin/openzeppelin-contracts/blob/v4.9.3/contracts/token/ERC20/ERC20.sol\":9375:10034  function _burn(address account, uint256 amount) internal virtual {... */\n      pop\n      pop\n      jump\t// out\n        /* \"https://github.com/OpenZeppelin/openzeppelin-contracts/blob/v4.9.3/contracts/token/ERC20/utils/SafeERC20.sol\":1355:1558  function safeTransferFrom(IERC20 token, address from, address to, uint256 value) internal {... */\n    tag_193:\n        /* \"https://github.com/OpenZeppelin/openzeppelin-contracts/blob/v4.9.3/contracts/token/ERC20/utils/SafeERC20.sol\":1482:1550  abi.encodeWithSelector(token.transferFrom.selector, from, to, value) */\n      mload(0x40)\n      sub(shl(0xa0, 0x01), 0x01)\n        /* \"#utility.yul\":10411:10443   */\n      dup1\n      dup6\n      and\n        /* \"https://github.com/OpenZeppelin/openzeppelin-contracts/blob/v4.9.3/contracts/token/ERC20/utils/SafeERC20.sol\":1482:1550  abi.encodeWithSelector(token.transferFrom.selector, from, to, value) */\n      0x24\n      dup4\n      add\n        /* \"#utility.yul\":10393:10444   */\n      mstore\n        /* \"#utility.yul\":10480:10512   */\n      dup4\n      and\n        /* \"#utility.yul\":10460:10478   */\n      0x44\n      dup3\n      add\n        /* \"#utility.yul\":10453:10513   */\n      mstore\n        /* \"#utility.yul\":10529:10547   */\n      0x64\n      dup2\n      add\n        /* \"#utility.yul\":10522:10556   */\n      dup3\n      swap1\n      mstore\n        /* \"https://github.com/OpenZeppelin/openzeppelin-contracts/blob/v4.9.3/contracts/token/ERC20/utils/SafeERC20.sol\":1455:1551  _callOptionalReturn(token, abi.encodeWithSelector(token.transferFrom.selector, from, to, value)) */\n      tag_221\n      swap1\n        /* \"https://github.com/OpenZeppelin/openzeppelin-contracts/blob/v4.9.3/contracts/token/ERC20/utils/SafeERC20.sol\":1475:1480  token */\n      dup6\n      swap1\n      shl(0xe0, 0x23b872dd)\n        /* \"https://github.com/OpenZeppelin/openzeppelin-contracts/blob/v4.9.3/contracts/token/ERC20/utils/SafeERC20.sol\":1505:1532  token.transferFrom.selector */\n      swap1\n        /* \"#utility.yul\":10366:10384   */\n      0x84\n      add\n        /* \"https://github.com/OpenZeppelin/openzeppelin-contracts/blob/v4.9.3/contracts/token/ERC20/utils/SafeERC20.sol\":1482:1550  abi.encodeWithSelector(token.transferFrom.selector, from, to, value) */\n    tag_254:\n      0x40\n      dup1\n      mload\n      not(0x1f)\n      dup2\n      dup5\n      sub\n      add\n      dup2\n      mstore\n      swap2\n      swap1\n      mstore\n      0x20\n      dup2\n      add\n      dup1\n      mload\n      sub(shl(0xe0, 0x01), 0x01)\n      and\n      not(sub(shl(0xe0, 0x01), 0x01))\n      swap1\n      swap4\n      and\n      swap3\n      swap1\n      swap3\n      or\n      swap1\n      swap2\n      mstore\n        /* \"https://github.com/OpenZeppelin/openzeppelin-contracts/blob/v4.9.3/contracts/token/ERC20/utils/SafeERC20.sol\":1455:1474  _callOptionalReturn */\n      tag_256\n        /* \"https://github.com/OpenZeppelin/openzeppelin-contracts/blob/v4.9.3/contracts/token/ERC20/utils/SafeERC20.sol\":1455:1551  _callOptionalReturn(token, abi.encodeWithSelector(token.transferFrom.selector, from, to, value)) */\n      jump\t// in\n        /* \"https://github.com/OpenZeppelin/openzeppelin-contracts/blob/v4.9.3/contracts/token/ERC20/utils/SafeERC20.sol\":941:1116  function safeTransfer(IERC20 token, address to, uint256 value) internal {... */\n    tag_195:\n        /* \"https://github.com/OpenZeppelin/openzeppelin-contracts/blob/v4.9.3/contracts/token/ERC20/utils/SafeERC20.sol\":1050:1108  abi.encodeWithSelector(token.transfer.selector, to, value) */\n      mload(0x40)\n      sub(shl(0xa0, 0x01), 0x01)\n        /* \"#utility.yul\":10759:10791   */\n      dup4\n      and\n        /* \"https://github.com/OpenZeppelin/openzeppelin-contracts/blob/v4.9.3/contracts/token/ERC20/utils/SafeERC20.sol\":1050:1108  abi.encodeWithSelector(token.transfer.selector, to, value) */\n      0x24\n      dup3\n      add\n        /* \"#utility.yul\":10741:10792   */\n      mstore\n        /* \"#utility.yul\":10808:10826   */\n      0x44\n      dup2\n      add\n        /* \"#utility.yul\":10801:10835   */\n      dup3\n      swap1\n      mstore\n        /* \"https://github.com/OpenZeppelin/openzeppelin-contracts/blob/v4.9.3/contracts/token/ERC20/utils/SafeERC20.sol\":1023:1109  _callOptionalReturn(token, abi.encodeWithSelector(token.transfer.selector, to, value)) */\n      tag_250\n      swap1\n        /* \"https://github.com/OpenZeppelin/openzeppelin-contracts/blob/v4.9.3/contracts/token/ERC20/utils/SafeERC20.sol\":1043:1048  token */\n      dup5\n      swap1\n      shl(0xe0, 0xa9059cbb)\n        /* \"https://github.com/OpenZeppelin/openzeppelin-contracts/blob/v4.9.3/contracts/token/ERC20/utils/SafeERC20.sol\":1073:1096  token.transfer.selector */\n      swap1\n        /* \"#utility.yul\":10714:10732   */\n      0x64\n      add\n        /* \"https://github.com/OpenZeppelin/openzeppelin-contracts/blob/v4.9.3/contracts/token/ERC20/utils/SafeERC20.sol\":1050:1108  abi.encodeWithSelector(token.transfer.selector, to, value) */\n      tag_254\n        /* \"#utility.yul\":10567:10841   */\n      jump\n        /* \"https://github.com/OpenZeppelin/openzeppelin-contracts/blob/v4.9.3/contracts/token/ERC20/ERC20.sol\":8520:9055  function _mint(address account, uint256 amount) internal virtual {... */\n    tag_203:\n      sub(shl(0xa0, 0x01), 0x01)\n        /* \"https://github.com/OpenZeppelin/openzeppelin-contracts/blob/v4.9.3/contracts/token/ERC20/ERC20.sol\":8603:8624  account != address(0) */\n      dup3\n      and\n        /* \"https://github.com/OpenZeppelin/openzeppelin-contracts/blob/v4.9.3/contracts/token/ERC20/ERC20.sol\":8595:8660  require(account != address(0), \"ERC20: mint to the zero address\") */\n      tag_262\n      jumpi\n      mload(0x40)\n      shl(0xe5, 0x461bcd)\n      dup2\n      mstore\n        /* \"#utility.yul\":11048:11050   */\n      0x20\n        /* \"https://github.com/OpenZeppelin/openzeppelin-contracts/blob/v4.9.3/contracts/token/ERC20/ERC20.sol\":8595:8660  require(account != address(0), \"ERC20: mint to the zero address\") */\n      0x04\n      dup3\n      add\n        /* \"#utility.yul\":11030:11051   */\n      mstore\n        /* \"#utility.yul\":11087:11089   */\n      0x1f\n        /* \"#utility.yul\":11067:11085   */\n      0x24\n      dup3\n      add\n        /* \"#utility.yul\":11060:11090   */\n      mstore\n        /* \"#utility.yul\":11126:11159   */\n      0x45524332303a206d696e7420746f20746865207a65726f206164647265737300\n        /* \"#utility.yul\":11106:11124   */\n      0x44\n      dup3\n      add\n        /* \"#utility.yul\":11099:11160   */\n      mstore\n        /* \"#utility.yul\":11177:11195   */\n      0x64\n      add\n        /* \"https://github.com/OpenZeppelin/openzeppelin-contracts/blob/v4.9.3/contracts/token/ERC20/ERC20.sol\":8595:8660  require(account != address(0), \"ERC20: mint to the zero address\") */\n      tag_115\n        /* \"#utility.yul\":10846:11201   */\n      jump\n        /* \"https://github.com/OpenZeppelin/openzeppelin-contracts/blob/v4.9.3/contracts/token/ERC20/ERC20.sol\":8595:8660  require(account != address(0), \"ERC20: mint to the zero address\") */\n    tag_262:\n        /* \"https://github.com/OpenZeppelin/openzeppelin-contracts/blob/v4.9.3/contracts/token/ERC20/ERC20.sol\":8747:8753  amount */\n      dup1\n        /* \"https://github.com/OpenZeppelin/openzeppelin-contracts/blob/v4.9.3/contracts/token/ERC20/ERC20.sol\":8731:8743  _totalSupply */\n      0x02\n      0x00\n        /* \"https://github.com/OpenZeppelin/openzeppelin-contracts/blob/v4.9.3/contracts/token/ERC20/ERC20.sol\":8731:8753  _totalSupply += amount */\n      dup3\n      dup3\n      sload\n      tag_266\n      swap2\n      swap1\n      tag_159\n      jump\t// in\n    tag_266:\n      swap1\n      swap2\n      sstore\n      pop\n      pop\n      sub(shl(0xa0, 0x01), 0x01)\n        /* \"https://github.com/OpenZeppelin/openzeppelin-contracts/blob/v4.9.3/contracts/token/ERC20/ERC20.sol\":8899:8917  _balances[account] */\n      dup3\n      and\n        /* \"https://github.com/OpenZeppelin/openzeppelin-contracts/blob/v4.9.3/contracts/token/ERC20/ERC20.sol\":8899:8908  _balances */\n      0x00\n        /* \"https://github.com/OpenZeppelin/openzeppelin-contracts/blob/v4.9.3/contracts/token/ERC20/ERC20.sol\":8899:8917  _balances[account] */\n      dup2\n      dup2\n      mstore\n      0x20\n      dup2\n      dup2\n      mstore\n      0x40\n      dup1\n      dup4\n      keccak256\n        /* \"https://github.com/OpenZeppelin/openzeppelin-contracts/blob/v4.9.3/contracts/token/ERC20/ERC20.sol\":8899:8927  _balances[account] += amount */\n      dup1\n      sload\n      dup7\n      add\n      swap1\n      sstore\n        /* \"https://github.com/OpenZeppelin/openzeppelin-contracts/blob/v4.9.3/contracts/token/ERC20/ERC20.sol\":8952:8989  Transfer(address(0), account, amount) */\n      mload\n        /* \"#utility.yul\":1489:1514   */\n      dup5\n      dup2\n      mstore\n        /* \"https://github.com/OpenZeppelin/openzeppelin-contracts/blob/v4.9.3/contracts/token/ERC20/ERC20.sol\":8952:8989  Transfer(address(0), account, amount) */\n      0xddf252ad1be2c89b69c2b068fc378daa952ba7f163c4a11628f55a4df523b3ef\n      swap2\n        /* \"#utility.yul\":1462:1480   */\n      add\n        /* \"https://github.com/OpenZeppelin/openzeppelin-contracts/blob/v4.9.3/contracts/token/ERC20/ERC20.sol\":8952:8989  Transfer(address(0), account, amount) */\n      mload(0x40)\n      dup1\n      swap2\n      sub\n      swap1\n      log3\n        /* \"https://github.com/OpenZeppelin/openzeppelin-contracts/blob/v4.9.3/contracts/token/ERC20/ERC20.sol\":8520:9055  function _mint(address account, uint256 amount) internal virtual {... */\n      pop\n      pop\n      jump\t// out\n        /* \"https://github.com/OpenZeppelin/openzeppelin-contracts/blob/v4.9.3/contracts/token/ERC20/utils/SafeERC20.sol\":5196:5838  function _callOptionalReturn(IERC20 token, bytes memory data) private {... */\n    tag_256:\n        /* \"https://github.com/OpenZeppelin/openzeppelin-contracts/blob/v4.9.3/contracts/token/ERC20/utils/SafeERC20.sol\":5615:5638  bytes memory returndata */\n      0x00\n        /* \"https://github.com/OpenZeppelin/openzeppelin-contracts/blob/v4.9.3/contracts/token/ERC20/utils/SafeERC20.sol\":5641:5710  address(token).functionCall(data, \"SafeERC20: low-level call failed\") */\n      tag_272\n        /* \"https://github.com/OpenZeppelin/openzeppelin-contracts/blob/v4.9.3/contracts/token/ERC20/utils/SafeERC20.sol\":5669:5673  data */\n      dup3\n        /* \"https://github.com/OpenZeppelin/openzeppelin-contracts/blob/v4.9.3/contracts/token/ERC20/utils/SafeERC20.sol\":5641:5710  address(token).functionCall(data, \"SafeERC20: low-level call failed\") */\n      mload(0x40)\n      dup1\n      0x40\n      add\n      0x40\n      mstore\n      dup1\n      0x20\n      dup2\n      mstore\n      0x20\n      add\n      0x5361666545524332303a206c6f772d6c6576656c2063616c6c206661696c6564\n      dup2\n      mstore\n      pop\n        /* \"https://github.com/OpenZeppelin/openzeppelin-contracts/blob/v4.9.3/contracts/token/ERC20/utils/SafeERC20.sol\":5649:5654  token */\n      dup6\n      sub(shl(0xa0, 0x01), 0x01)\n        /* \"https://github.com/OpenZeppelin/openzeppelin-contracts/blob/v4.9.3/contracts/token/ERC20/utils/SafeERC20.sol\":5641:5668  address(token).functionCall */\n      and\n      tag_273\n      swap1\n        /* \"https://github.com/OpenZeppelin/openzeppelin-contracts/blob/v4.9.3/contracts/token/ERC20/utils/SafeERC20.sol\":5641:5710  address(token).functionCall(data, \"SafeERC20: low-level call failed\") */\n      swap3\n      swap2\n      swap1\n      0xffffffff\n      and\n      jump\t// in\n    tag_272:\n        /* \"https://github.com/OpenZeppelin/openzeppelin-contracts/blob/v4.9.3/contracts/token/ERC20/utils/SafeERC20.sol\":5615:5710  bytes memory returndata = address(token).functionCall(data, \"SafeERC20: low-level call failed\") */\n      swap1\n      pop\n        /* \"https://github.com/OpenZeppelin/openzeppelin-contracts/blob/v4.9.3/contracts/token/ERC20/utils/SafeERC20.sol\":5728:5738  returndata */\n      dup1\n        /* \"https://github.com/OpenZeppelin/openzeppelin-contracts/blob/v4.9.3/contracts/token/ERC20/utils/SafeERC20.sol\":5728:5745  returndata.length */\n      mload\n        /* \"https://github.com/OpenZeppelin/openzeppelin-contracts/blob/v4.9.3/contracts/token/ERC20/utils/SafeERC20.sol\":5749:5750  0 */\n      0x00\n        /* \"https://github.com/OpenZeppelin/openzeppelin-contracts/blob/v4.9.3/contracts/token/ERC20/utils/SafeERC20.sol\":5728:5750  returndata.length == 0 */\n      eq\n        /* \"https://github.com/OpenZeppelin/openzeppelin-contracts/blob/v4.9.3/contracts/token/ERC20/utils/SafeERC20.sol\":5728:5784  returndata.length == 0 || abi.decode(returndata, (bool)) */\n      dup1\n      tag_275\n      jumpi\n      pop\n        /* \"https://github.com/OpenZeppelin/openzeppelin-contracts/blob/v4.9.3/contracts/token/ERC20/utils/SafeERC20.sol\":5765:5775  returndata */\n      dup1\n        /* \"https://github.com/OpenZeppelin/openzeppelin-contracts/blob/v4.9.3/contracts/token/ERC20/utils/SafeERC20.sol\":5754:5784  abi.decode(returndata, (bool)) */\n      dup1\n      0x20\n      add\n      swap1\n      mload\n      dup2\n      add\n      swap1\n      tag_275\n      swap2\n      swap1\n      tag_276\n      jump\t// in\n    tag_275:\n        /* \"https://github.com/OpenZeppelin/openzeppelin-contracts/blob/v4.9.3/contracts/token/ERC20/utils/SafeERC20.sol\":5720:5831  require(returndata.length == 0 || abi.decode(returndata, (bool)), \"SafeERC20: ERC20 operation did not succeed\") */\n      tag_250\n      jumpi\n      mload(0x40)\n      shl(0xe5, 0x461bcd)\n      dup2\n      mstore\n        /* \"#utility.yul\":11658:11660   */\n      0x20\n        /* \"https://github.com/OpenZeppelin/openzeppelin-contracts/blob/v4.9.3/contracts/token/ERC20/utils/SafeERC20.sol\":5720:5831  require(returndata.length == 0 || abi.decode(returndata, (bool)), \"SafeERC20: ERC20 operation did not succeed\") */\n      0x04\n      dup3\n      add\n        /* \"#utility.yul\":11640:11661   */\n      mstore\n        /* \"#utility.yul\":11697:11699   */\n      0x2a\n        /* \"#utility.yul\":11677:11695   */\n      0x24\n      dup3\n      add\n        /* \"#utility.yul\":11670:11700   */\n      mstore\n        /* \"#utility.yul\":11736:11770   */\n      0x5361666545524332303a204552433230206f7065726174696f6e20646964206e\n        /* \"#utility.yul\":11716:11734   */\n      0x44\n      dup3\n      add\n        /* \"#utility.yul\":11709:11771   */\n      mstore\n      shl(0xb2, 0x1bdd081cdd58d8d95959)\n        /* \"#utility.yul\":11787:11805   */\n      0x64\n      dup3\n      add\n        /* \"#utility.yul\":11780:11820   */\n      mstore\n        /* \"#utility.yul\":11837:11856   */\n      0x84\n      add\n        /* \"https://github.com/OpenZeppelin/openzeppelin-contracts/blob/v4.9.3/contracts/token/ERC20/utils/SafeERC20.sol\":5720:5831  require(returndata.length == 0 || abi.decode(returndata, (bool)), \"SafeERC20: ERC20 operation did not succeed\") */\n      tag_115\n        /* \"#utility.yul\":11456:11862   */\n      jump\n        /* \"https://github.com/OpenZeppelin/openzeppelin-contracts/blob/v4.9.3/contracts/utils/Address.sol\":4108:4331  function functionCall(... */\n    tag_273:\n        /* \"https://github.com/OpenZeppelin/openzeppelin-contracts/blob/v4.9.3/contracts/utils/Address.sol\":4241:4253  bytes memory */\n      0x60\n        /* \"https://github.com/OpenZeppelin/openzeppelin-contracts/blob/v4.9.3/contracts/utils/Address.sol\":4272:4324  functionCallWithValue(target, data, 0, errorMessage) */\n      tag_281\n        /* \"https://github.com/OpenZeppelin/openzeppelin-contracts/blob/v4.9.3/contracts/utils/Address.sol\":4294:4300  target */\n      dup5\n        /* \"https://github.com/OpenZeppelin/openzeppelin-contracts/blob/v4.9.3/contracts/utils/Address.sol\":4302:4306  data */\n      dup5\n        /* \"https://github.com/OpenZeppelin/openzeppelin-contracts/blob/v4.9.3/contracts/utils/Address.sol\":4308:4309  0 */\n      0x00\n        /* \"https://github.com/OpenZeppelin/openzeppelin-contracts/blob/v4.9.3/contracts/utils/Address.sol\":4311:4323  errorMessage */\n      dup6\n        /* \"https://github.com/OpenZeppelin/openzeppelin-contracts/blob/v4.9.3/contracts/utils/Address.sol\":4272:4293  functionCallWithValue */\n      tag_282\n        /* \"https://github.com/OpenZeppelin/openzeppelin-contracts/blob/v4.9.3/contracts/utils/Address.sol\":4272:4324  functionCallWithValue(target, data, 0, errorMessage) */\n      jump\t// in\n    tag_281:\n        /* \"https://github.com/OpenZeppelin/openzeppelin-contracts/blob/v4.9.3/contracts/utils/Address.sol\":4265:4324  return functionCallWithValue(target, data, 0, errorMessage) */\n      swap5\n        /* \"https://github.com/OpenZeppelin/openzeppelin-contracts/blob/v4.9.3/contracts/utils/Address.sol\":4108:4331  function functionCall(... */\n      swap4\n      pop\n      pop\n      pop\n      pop\n      jump\t// out\n        /* \"https://github.com/OpenZeppelin/openzeppelin-contracts/blob/v4.9.3/contracts/utils/Address.sol\":5165:5611  function functionCallWithValue(... */\n    tag_282:\n        /* \"https://github.com/OpenZeppelin/openzeppelin-contracts/blob/v4.9.3/contracts/utils/Address.sol\":5330:5342  bytes memory */\n      0x60\n        /* \"https://github.com/OpenZeppelin/openzeppelin-contracts/blob/v4.9.3/contracts/utils/Address.sol\":5387:5392  value */\n      dup3\n        /* \"https://github.com/OpenZeppelin/openzeppelin-contracts/blob/v4.9.3/contracts/utils/Address.sol\":5362:5383  address(this).balance */\n      selfbalance\n        /* \"https://github.com/OpenZeppelin/openzeppelin-contracts/blob/v4.9.3/contracts/utils/Address.sol\":5362:5392  address(this).balance >= value */\n      lt\n      iszero\n        /* \"https://github.com/OpenZeppelin/openzeppelin-contracts/blob/v4.9.3/contracts/utils/Address.sol\":5354:5435  require(address(this).balance >= value, \"Address: insufficient balance for call\") */\n      tag_284\n      jumpi\n      mload(0x40)\n      shl(0xe5, 0x461bcd)\n      dup2\n      mstore\n        /* \"#utility.yul\":12069:12071   */\n      0x20\n        /* \"https://github.com/OpenZeppelin/openzeppelin-contracts/blob/v4.9.3/contracts/utils/Address.sol\":5354:5435  require(address(this).balance >= value, \"Address: insufficient balance for call\") */\n      0x04\n      dup3\n      add\n        /* \"#utility.yul\":12051:12072   */\n      mstore\n        /* \"#utility.yul\":12108:12110   */\n      0x26\n        /* \"#utility.yul\":12088:12106   */\n      0x24\n      dup3\n      add\n        /* \"#utility.yul\":12081:12111   */\n      mstore\n        /* \"#utility.yul\":12147:12181   */\n      0x416464726573733a20696e73756666696369656e742062616c616e636520666f\n        /* \"#utility.yul\":12127:12145   */\n      0x44\n      dup3\n      add\n        /* \"#utility.yul\":12120:12182   */\n      mstore\n      shl(0xd2, 0x1c8818d85b1b)\n        /* \"#utility.yul\":12198:12216   */\n      0x64\n      dup3\n      add\n        /* \"#utility.yul\":12191:12227   */\n      mstore\n        /* \"#utility.yul\":12244:12263   */\n      0x84\n      add\n        /* \"https://github.com/OpenZeppelin/openzeppelin-contracts/blob/v4.9.3/contracts/utils/Address.sol\":5354:5435  require(address(this).balance >= value, \"Address: insufficient balance for call\") */\n      tag_115\n        /* \"#utility.yul\":11867:12269   */\n      jump\n        /* \"https://github.com/OpenZeppelin/openzeppelin-contracts/blob/v4.9.3/contracts/utils/Address.sol\":5354:5435  require(address(this).balance >= value, \"Address: insufficient balance for call\") */\n    tag_284:\n        /* \"https://github.com/OpenZeppelin/openzeppelin-contracts/blob/v4.9.3/contracts/utils/Address.sol\":5446:5458  bool success */\n      0x00\n        /* \"https://github.com/OpenZeppelin/openzeppelin-contracts/blob/v4.9.3/contracts/utils/Address.sol\":5460:5483  bytes memory returndata */\n      0x00\n        /* \"https://github.com/OpenZeppelin/openzeppelin-contracts/blob/v4.9.3/contracts/utils/Address.sol\":5487:5493  target */\n      dup7\n      sub(shl(0xa0, 0x01), 0x01)\n        /* \"https://github.com/OpenZeppelin/openzeppelin-contracts/blob/v4.9.3/contracts/utils/Address.sol\":5487:5498  target.call */\n      and\n        /* \"https://github.com/OpenZeppelin/openzeppelin-contracts/blob/v4.9.3/contracts/utils/Address.sol\":5506:5511  value */\n      dup6\n        /* \"https://github.com/OpenZeppelin/openzeppelin-contracts/blob/v4.9.3/contracts/utils/Address.sol\":5513:5517  data */\n      dup8\n        /* \"https://github.com/OpenZeppelin/openzeppelin-contracts/blob/v4.9.3/contracts/utils/Address.sol\":5487:5518  target.call{value: value}(data) */\n      mload(0x40)\n      tag_287\n      swap2\n      swap1\n      tag_288\n      jump\t// in\n    tag_287:\n      0x00\n      mload(0x40)\n      dup1\n      dup4\n      sub\n      dup2\n      dup6\n      dup8\n      gas\n      call\n      swap3\n      pop\n      pop\n      pop\n      returndatasize\n      dup1\n      0x00\n      dup2\n      eq\n      tag_291\n      jumpi\n      mload(0x40)\n      swap2\n      pop\n      and(add(returndatasize, 0x3f), not(0x1f))\n      dup3\n      add\n      0x40\n      mstore\n      returndatasize\n      dup3\n      mstore\n      returndatasize\n      0x00\n      0x20\n      dup5\n      add\n      returndatacopy\n      jump(tag_290)\n    tag_291:\n      0x60\n      swap2\n      pop\n    tag_290:\n      pop\n        /* \"https://github.com/OpenZeppelin/openzeppelin-contracts/blob/v4.9.3/contracts/utils/Address.sol\":5445:5518  (bool success, bytes memory returndata) = target.call{value: value}(data) */\n      swap2\n      pop\n      swap2\n      pop\n        /* \"https://github.com/OpenZeppelin/openzeppelin-contracts/blob/v4.9.3/contracts/utils/Address.sol\":5535:5604  verifyCallResultFromTarget(target, success, returndata, errorMessage) */\n      tag_292\n        /* \"https://github.com/OpenZeppelin/openzeppelin-contracts/blob/v4.9.3/contracts/utils/Address.sol\":5562:5568  target */\n      dup8\n        /* \"https://github.com/OpenZeppelin/openzeppelin-contracts/blob/v4.9.3/contracts/utils/Address.sol\":5570:5577  success */\n      dup4\n        /* \"https://github.com/OpenZeppelin/openzeppelin-contracts/blob/v4.9.3/contracts/utils/Address.sol\":5579:5589  returndata */\n      dup4\n        /* \"https://github.com/OpenZeppelin/openzeppelin-contracts/blob/v4.9.3/contracts/utils/Address.sol\":5591:5603  errorMessage */\n      dup8\n        /* \"https://github.com/OpenZeppelin/openzeppelin-contracts/blob/v4.9.3/contracts/utils/Address.sol\":5535:5561  verifyCallResultFromTarget */\n      tag_293\n        /* \"https://github.com/OpenZeppelin/openzeppelin-contracts/blob/v4.9.3/contracts/utils/Address.sol\":5535:5604  verifyCallResultFromTarget(target, success, returndata, errorMessage) */\n      jump\t// in\n    tag_292:\n        /* \"https://github.com/OpenZeppelin/openzeppelin-contracts/blob/v4.9.3/contracts/utils/Address.sol\":5528:5604  return verifyCallResultFromTarget(target, success, returndata, errorMessage) */\n      swap8\n        /* \"https://github.com/OpenZeppelin/openzeppelin-contracts/blob/v4.9.3/contracts/utils/Address.sol\":5165:5611  function functionCallWithValue(... */\n      swap7\n      pop\n      pop\n      pop\n      pop\n      pop\n      pop\n      pop\n      jump\t// out\n        /* \"https://github.com/OpenZeppelin/openzeppelin-contracts/blob/v4.9.3/contracts/utils/Address.sol\":7671:8299  function verifyCallResultFromTarget(... */\n    tag_293:\n        /* \"https://github.com/OpenZeppelin/openzeppelin-contracts/blob/v4.9.3/contracts/utils/Address.sol\":7851:7863  bytes memory */\n      0x60\n        /* \"https://github.com/OpenZeppelin/openzeppelin-contracts/blob/v4.9.3/contracts/utils/Address.sol\":7879:7886  success */\n      dup4\n        /* \"https://github.com/OpenZeppelin/openzeppelin-contracts/blob/v4.9.3/contracts/utils/Address.sol\":7875:8293  if (success) {... */\n      iszero\n      tag_295\n      jumpi\n        /* \"https://github.com/OpenZeppelin/openzeppelin-contracts/blob/v4.9.3/contracts/utils/Address.sol\":7906:7916  returndata */\n      dup3\n        /* \"https://github.com/OpenZeppelin/openzeppelin-contracts/blob/v4.9.3/contracts/utils/Address.sol\":7906:7923  returndata.length */\n      mload\n        /* \"https://github.com/OpenZeppelin/openzeppelin-contracts/blob/v4.9.3/contracts/utils/Address.sol\":7927:7928  0 */\n      0x00\n        /* \"https://github.com/OpenZeppelin/openzeppelin-contracts/blob/v4.9.3/contracts/utils/Address.sol\":7906:7928  returndata.length == 0 */\n      sub\n        /* \"https://github.com/OpenZeppelin/openzeppelin-contracts/blob/v4.9.3/contracts/utils/Address.sol\":7902:8188  if (returndata.length == 0) {... */\n      tag_299\n      jumpi\n      sub(shl(0xa0, 0x01), 0x01)\n        /* \"https://github.com/OpenZeppelin/openzeppelin-contracts/blob/v4.9.3/contracts/utils/Address.sol\":1702:1721  account.code.length */\n      dup6\n      and\n      extcodesize\n        /* \"https://github.com/OpenZeppelin/openzeppelin-contracts/blob/v4.9.3/contracts/utils/Address.sol\":8113:8173  require(isContract(target), \"Address: call to non-contract\") */\n      tag_299\n      jumpi\n      mload(0x40)\n      shl(0xe5, 0x461bcd)\n      dup2\n      mstore\n        /* \"#utility.yul\":12782:12784   */\n      0x20\n        /* \"https://github.com/OpenZeppelin/openzeppelin-contracts/blob/v4.9.3/contracts/utils/Address.sol\":8113:8173  require(isContract(target), \"Address: call to non-contract\") */\n      0x04\n      dup3\n      add\n        /* \"#utility.yul\":12764:12785   */\n      mstore\n        /* \"#utility.yul\":12821:12823   */\n      0x1d\n        /* \"#utility.yul\":12801:12819   */\n      0x24\n      dup3\n      add\n        /* \"#utility.yul\":12794:12824   */\n      mstore\n        /* \"#utility.yul\":12860:12891   */\n      0x416464726573733a2063616c6c20746f206e6f6e2d636f6e7472616374000000\n        /* \"#utility.yul\":12840:12858   */\n      0x44\n      dup3\n      add\n        /* \"#utility.yul\":12833:12892   */\n      mstore\n        /* \"#utility.yul\":12909:12927   */\n      0x64\n      add\n        /* \"https://github.com/OpenZeppelin/openzeppelin-contracts/blob/v4.9.3/contracts/utils/Address.sol\":8113:8173  require(isContract(target), \"Address: call to non-contract\") */\n      tag_115\n        /* \"#utility.yul\":12580:12933   */\n      jump\n        /* \"https://github.com/OpenZeppelin/openzeppelin-contracts/blob/v4.9.3/contracts/utils/Address.sol\":8113:8173  require(isContract(target), \"Address: call to non-contract\") */\n    tag_299:\n      pop\n        /* \"https://github.com/OpenZeppelin/openzeppelin-contracts/blob/v4.9.3/contracts/utils/Address.sol\":8208:8218  returndata */\n      dup2\n        /* \"https://github.com/OpenZeppelin/openzeppelin-contracts/blob/v4.9.3/contracts/utils/Address.sol\":8201:8218  return returndata */\n      jump(tag_281)\n        /* \"https://github.com/OpenZeppelin/openzeppelin-contracts/blob/v4.9.3/contracts/utils/Address.sol\":7875:8293  if (success) {... */\n    tag_295:\n        /* \"https://github.com/OpenZeppelin/openzeppelin-contracts/blob/v4.9.3/contracts/utils/Address.sol\":8249:8282  _revert(returndata, errorMessage) */\n      tag_281\n        /* \"https://github.com/OpenZeppelin/openzeppelin-contracts/blob/v4.9.3/contracts/utils/Address.sol\":8257:8267  returndata */\n      dup4\n        /* \"https://github.com/OpenZeppelin/openzeppelin-contracts/blob/v4.9.3/contracts/utils/Address.sol\":8269:8281  errorMessage */\n      dup4\n        /* \"https://github.com/OpenZeppelin/openzeppelin-contracts/blob/v4.9.3/contracts/utils/Address.sol\":8980:8997  returndata.length */\n      dup2\n      mload\n        /* \"https://github.com/OpenZeppelin/openzeppelin-contracts/blob/v4.9.3/contracts/utils/Address.sol\":8980:9001  returndata.length > 0 */\n      iszero\n        /* \"https://github.com/OpenZeppelin/openzeppelin-contracts/blob/v4.9.3/contracts/utils/Address.sol\":8976:9355  if (returndata.length > 0) {... */\n      tag_307\n      jumpi\n        /* \"https://github.com/OpenZeppelin/openzeppelin-contracts/blob/v4.9.3/contracts/utils/Address.sol\":9208:9218  returndata */\n      dup2\n        /* \"https://github.com/OpenZeppelin/openzeppelin-contracts/blob/v4.9.3/contracts/utils/Address.sol\":9202:9219  mload(returndata) */\n      mload\n        /* \"https://github.com/OpenZeppelin/openzeppelin-contracts/blob/v4.9.3/contracts/utils/Address.sol\":9264:9279  returndata_size */\n      dup1\n        /* \"https://github.com/OpenZeppelin/openzeppelin-contracts/blob/v4.9.3/contracts/utils/Address.sol\":9251:9261  returndata */\n      dup4\n        /* \"https://github.com/OpenZeppelin/openzeppelin-contracts/blob/v4.9.3/contracts/utils/Address.sol\":9247:9249  32 */\n      0x20\n        /* \"https://github.com/OpenZeppelin/openzeppelin-contracts/blob/v4.9.3/contracts/utils/Address.sol\":9243:9262  add(32, returndata) */\n      add\n        /* \"https://github.com/OpenZeppelin/openzeppelin-contracts/blob/v4.9.3/contracts/utils/Address.sol\":9236:9280  revert(add(32, returndata), returndata_size) */\n      revert\n        /* \"https://github.com/OpenZeppelin/openzeppelin-contracts/blob/v4.9.3/contracts/utils/Address.sol\":8976:9355  if (returndata.length > 0) {... */\n    tag_307:\n        /* \"https://github.com/OpenZeppelin/openzeppelin-contracts/blob/v4.9.3/contracts/utils/Address.sol\":9331:9343  errorMessage */\n      dup1\n        /* \"https://github.com/OpenZeppelin/openzeppelin-contracts/blob/v4.9.3/contracts/utils/Address.sol\":9324:9344  revert(errorMessage) */\n      mload(0x40)\n      shl(0xe5, 0x461bcd)\n      dup2\n      mstore\n      0x04\n      add\n      tag_115\n      swap2\n      swap1\n        /* \"#utility.yul\":14:432   */\n    tag_29:\n        /* \"#utility.yul\":163:165   */\n      0x20\n        /* \"#utility.yul\":152:161   */\n      dup2\n        /* \"#utility.yul\":145:166   */\n      mstore\n        /* \"#utility.yul\":126:130   */\n      0x00\n        /* \"#utility.yul\":195:201   */\n      dup3\n        /* \"#utility.yul\":189:202   */\n      mload\n        /* \"#utility.yul\":238:244   */\n      dup1\n        /* \"#utility.yul\":233:235   */\n      0x20\n        /* \"#utility.yul\":222:231   */\n      dup5\n        /* \"#utility.yul\":218:236   */\n      add\n        /* \"#utility.yul\":211:245   */\n      mstore\n        /* \"#utility.yul\":297:303   */\n      dup1\n        /* \"#utility.yul\":292:294   */\n      0x20\n        /* \"#utility.yul\":284:290   */\n      dup6\n        /* \"#utility.yul\":280:295   */\n      add\n        /* \"#utility.yul\":275:277   */\n      0x40\n        /* \"#utility.yul\":264:273   */\n      dup6\n        /* \"#utility.yul\":260:278   */\n      add\n        /* \"#utility.yul\":254:304   */\n      mcopy\n        /* \"#utility.yul\":353:354   */\n      0x00\n        /* \"#utility.yul\":348:350   */\n      0x40\n        /* \"#utility.yul\":339:345   */\n      dup3\n        /* \"#utility.yul\":328:337   */\n      dup6\n        /* \"#utility.yul\":324:346   */\n      add\n        /* \"#utility.yul\":320:351   */\n      add\n        /* \"#utility.yul\":313:355   */\n      mstore\n        /* \"#utility.yul\":423:425   */\n      0x40\n        /* \"#utility.yul\":416:418   */\n      0x1f\n        /* \"#utility.yul\":412:419   */\n      not\n        /* \"#utility.yul\":407:409   */\n      0x1f\n        /* \"#utility.yul\":399:405   */\n      dup4\n        /* \"#utility.yul\":395:410   */\n      add\n        /* \"#utility.yul\":391:420   */\n      and\n        /* \"#utility.yul\":380:389   */\n      dup5\n        /* \"#utility.yul\":376:421   */\n      add\n        /* \"#utility.yul\":372:426   */\n      add\n        /* \"#utility.yul\":364:426   */\n      swap2\n      pop\n      pop\n        /* \"#utility.yul\":14:432   */\n      swap3\n      swap2\n      pop\n      pop\n      jump\t// out\n        /* \"#utility.yul\":437:663   */\n    tag_32:\n        /* \"#utility.yul\":496:502   */\n      0x00\n        /* \"#utility.yul\":549:551   */\n      0x20\n        /* \"#utility.yul\":537:546   */\n      dup3\n        /* \"#utility.yul\":528:535   */\n      dup5\n        /* \"#utility.yul\":524:547   */\n      sub\n        /* \"#utility.yul\":520:552   */\n      slt\n        /* \"#utility.yul\":517:569   */\n      iszero\n      tag_316\n      jumpi\n        /* \"#utility.yul\":565:566   */\n      0x00\n        /* \"#utility.yul\":562:563   */\n      0x00\n        /* \"#utility.yul\":555:567   */\n      revert\n        /* \"#utility.yul\":517:569   */\n    tag_316:\n      pop\n        /* \"#utility.yul\":610:633   */\n      calldataload\n      swap2\n        /* \"#utility.yul\":437:663   */\n      swap1\n      pop\n      jump\t// out\n        /* \"#utility.yul\":668:841   */\n    tag_310:\n        /* \"#utility.yul\":736:756   */\n      dup1\n      calldataload\n      sub(shl(0xa0, 0x01), 0x01)\n        /* \"#utility.yul\":785:816   */\n      dup2\n      and\n        /* \"#utility.yul\":775:817   */\n      dup2\n      eq\n        /* \"#utility.yul\":765:835   */\n      tag_318\n      jumpi\n        /* \"#utility.yul\":831:832   */\n      0x00\n        /* \"#utility.yul\":828:829   */\n      0x00\n        /* \"#utility.yul\":821:833   */\n      revert\n        /* \"#utility.yul\":765:835   */\n    tag_318:\n        /* \"#utility.yul\":668:841   */\n      swap2\n      swap1\n      pop\n      jump\t// out\n        /* \"#utility.yul\":846:1146   */\n    tag_36:\n        /* \"#utility.yul\":914:920   */\n      0x00\n        /* \"#utility.yul\":922:928   */\n      0x00\n        /* \"#utility.yul\":975:977   */\n      0x40\n        /* \"#utility.yul\":963:972   */\n      dup4\n        /* \"#utility.yul\":954:961   */\n      dup6\n        /* \"#utility.yul\":950:973   */\n      sub\n        /* \"#utility.yul\":946:978   */\n      slt\n        /* \"#utility.yul\":943:995   */\n      iszero\n      tag_320\n      jumpi\n        /* \"#utility.yul\":991:992   */\n      0x00\n        /* \"#utility.yul\":988:989   */\n      0x00\n        /* \"#utility.yul\":981:993   */\n      revert\n        /* \"#utility.yul\":943:995   */\n    tag_320:\n        /* \"#utility.yul\":1014:1043   */\n      tag_321\n        /* \"#utility.yul\":1033:1042   */\n      dup4\n        /* \"#utility.yul\":1014:1043   */\n      tag_310\n      jump\t// in\n    tag_321:\n        /* \"#utility.yul\":1004:1043   */\n      swap5\n        /* \"#utility.yul\":1112:1114   */\n      0x20\n        /* \"#utility.yul\":1097:1115   */\n      swap4\n      swap1\n      swap4\n      add\n        /* \"#utility.yul\":1084:1116   */\n      calldataload\n      swap4\n      pop\n      pop\n      pop\n        /* \"#utility.yul\":846:1146   */\n      jump\t// out\n        /* \"#utility.yul\":1525:1899   */\n    tag_46:\n        /* \"#utility.yul\":1602:1608   */\n      0x00\n        /* \"#utility.yul\":1610:1616   */\n      0x00\n        /* \"#utility.yul\":1618:1624   */\n      0x00\n        /* \"#utility.yul\":1671:1673   */\n      0x60\n        /* \"#utility.yul\":1659:1668   */\n      dup5\n        /* \"#utility.yul\":1650:1657   */\n      dup7\n        /* \"#utility.yul\":1646:1669   */\n      sub\n        /* \"#utility.yul\":1642:1674   */\n      slt\n        /* \"#utility.yul\":1639:1691   */\n      iszero\n      tag_325\n      jumpi\n        /* \"#utility.yul\":1687:1688   */\n      0x00\n        /* \"#utility.yul\":1684:1685   */\n      0x00\n        /* \"#utility.yul\":1677:1689   */\n      revert\n        /* \"#utility.yul\":1639:1691   */\n    tag_325:\n        /* \"#utility.yul\":1710:1739   */\n      tag_326\n        /* \"#utility.yul\":1729:1738   */\n      dup5\n        /* \"#utility.yul\":1710:1739   */\n      tag_310\n      jump\t// in\n    tag_326:\n        /* \"#utility.yul\":1700:1739   */\n      swap3\n      pop\n        /* \"#utility.yul\":1758:1796   */\n      tag_327\n        /* \"#utility.yul\":1792:1794   */\n      0x20\n        /* \"#utility.yul\":1781:1790   */\n      dup6\n        /* \"#utility.yul\":1777:1795   */\n      add\n        /* \"#utility.yul\":1758:1796   */\n      tag_310\n      jump\t// in\n    tag_327:\n        /* \"#utility.yul\":1525:1899   */\n      swap3\n      swap6\n        /* \"#utility.yul\":1748:1796   */\n      swap3\n      swap5\n      pop\n      pop\n      pop\n        /* \"#utility.yul\":1865:1867   */\n      0x40\n        /* \"#utility.yul\":1850:1868   */\n      swap2\n      swap1\n      swap2\n      add\n        /* \"#utility.yul\":1837:1869   */\n      calldataload\n      swap1\n        /* \"#utility.yul\":1525:1899   */\n      jump\t// out\n        /* \"#utility.yul\":2316:2502   */\n    tag_66:\n        /* \"#utility.yul\":2375:2381   */\n      0x00\n        /* \"#utility.yul\":2428:2430   */\n      0x20\n        /* \"#utility.yul\":2416:2425   */\n      dup3\n        /* \"#utility.yul\":2407:2414   */\n      dup5\n        /* \"#utility.yul\":2403:2426   */\n      sub\n        /* \"#utility.yul\":2399:2431   */\n      slt\n        /* \"#utility.yul\":2396:2448   */\n      iszero\n      tag_331\n      jumpi\n        /* \"#utility.yul\":2444:2445   */\n      0x00\n        /* \"#utility.yul\":2441:2442   */\n      0x00\n        /* \"#utility.yul\":2434:2446   */\n      revert\n        /* \"#utility.yul\":2396:2448   */\n    tag_331:\n        /* \"#utility.yul\":2467:2496   */\n      tag_332\n        /* \"#utility.yul\":2486:2495   */\n      dup3\n        /* \"#utility.yul\":2467:2496   */\n      tag_310\n      jump\t// in\n    tag_332:\n        /* \"#utility.yul\":2457:2496   */\n      swap4\n        /* \"#utility.yul\":2316:2502   */\n      swap3\n      pop\n      pop\n      pop\n      jump\t// out\n        /* \"#utility.yul\":2507:2625   */\n    tag_311:\n        /* \"#utility.yul\":2593:2598   */\n      dup1\n        /* \"#utility.yul\":2586:2599   */\n      iszero\n        /* \"#utility.yul\":2579:2600   */\n      iszero\n        /* \"#utility.yul\":2572:2577   */\n      dup2\n        /* \"#utility.yul\":2569:2601   */\n      eq\n        /* \"#utility.yul\":2559:2619   */\n      tag_151\n      jumpi\n        /* \"#utility.yul\":2615:2616   */\n      0x00\n        /* \"#utility.yul\":2612:2613   */\n      0x00\n        /* \"#utility.yul\":2605:2617   */\n      revert\n        /* \"#utility.yul\":2630:2945   */\n    tag_71:\n        /* \"#utility.yul\":2695:2701   */\n      0x00\n        /* \"#utility.yul\":2703:2709   */\n      0x00\n        /* \"#utility.yul\":2756:2758   */\n      0x40\n        /* \"#utility.yul\":2744:2753   */\n      dup4\n        /* \"#utility.yul\":2735:2742   */\n      dup6\n        /* \"#utility.yul\":2731:2754   */\n      sub\n        /* \"#utility.yul\":2727:2759   */\n      slt\n        /* \"#utility.yul\":2724:2776   */\n      iszero\n      tag_336\n      jumpi\n        /* \"#utility.yul\":2772:2773   */\n      0x00\n        /* \"#utility.yul\":2769:2770   */\n      0x00\n        /* \"#utility.yul\":2762:2774   */\n      revert\n        /* \"#utility.yul\":2724:2776   */\n    tag_336:\n        /* \"#utility.yul\":2795:2824   */\n      tag_337\n        /* \"#utility.yul\":2814:2823   */\n      dup4\n        /* \"#utility.yul\":2795:2824   */\n      tag_310\n      jump\t// in\n    tag_337:\n        /* \"#utility.yul\":2785:2824   */\n      swap2\n      pop\n        /* \"#utility.yul\":2874:2876   */\n      0x20\n        /* \"#utility.yul\":2863:2872   */\n      dup4\n        /* \"#utility.yul\":2859:2877   */\n      add\n        /* \"#utility.yul\":2846:2878   */\n      calldataload\n        /* \"#utility.yul\":2887:2915   */\n      tag_338\n        /* \"#utility.yul\":2909:2914   */\n      dup2\n        /* \"#utility.yul\":2887:2915   */\n      tag_311\n      jump\t// in\n    tag_338:\n        /* \"#utility.yul\":2934:2939   */\n      dup1\n        /* \"#utility.yul\":2924:2939   */\n      swap2\n      pop\n      pop\n        /* \"#utility.yul\":2630:2945   */\n      swap3\n      pop\n      swap3\n      swap1\n      pop\n      jump\t// out\n        /* \"#utility.yul\":3158:3418   */\n    tag_103:\n        /* \"#utility.yul\":3226:3232   */\n      0x00\n        /* \"#utility.yul\":3234:3240   */\n      0x00\n        /* \"#utility.yul\":3287:3289   */\n      0x40\n        /* \"#utility.yul\":3275:3284   */\n      dup4\n        /* \"#utility.yul\":3266:3273   */\n      dup6\n        /* \"#utility.yul\":3262:3285   */\n      sub\n        /* \"#utility.yul\":3258:3290   */\n      slt\n        /* \"#utility.yul\":3255:3307   */\n      iszero\n      tag_341\n      jumpi\n        /* \"#utility.yul\":3303:3304   */\n      0x00\n        /* \"#utility.yul\":3300:3301   */\n      0x00\n        /* \"#utility.yul\":3293:3305   */\n      revert\n        /* \"#utility.yul\":3255:3307   */\n    tag_341:\n        /* \"#utility.yul\":3326:3355   */\n      tag_342\n        /* \"#utility.yul\":3345:3354   */\n      dup4\n        /* \"#utility.yul\":3326:3355   */\n      tag_310\n      jump\t// in\n    tag_342:\n        /* \"#utility.yul\":3316:3355   */\n      swap2\n      pop\n        /* \"#utility.yul\":3374:3412   */\n      tag_343\n        /* \"#utility.yul\":3408:3410   */\n      0x20\n        /* \"#utility.yul\":3397:3406   */\n      dup5\n        /* \"#utility.yul\":3393:3411   */\n      add\n        /* \"#utility.yul\":3374:3412   */\n      tag_310\n      jump\t// in\n    tag_343:\n        /* \"#utility.yul\":3364:3412   */\n      swap1\n      pop\n        /* \"#utility.yul\":3158:3418   */\n      swap3\n      pop\n      swap3\n      swap1\n      pop\n      jump\t// out\n        /* \"#utility.yul\":3423:3803   */\n    tag_108:\n        /* \"#utility.yul\":3502:3503   */\n      0x01\n        /* \"#utility.yul\":3498:3510   */\n      dup2\n      dup2\n      shr\n      swap1\n        /* \"#utility.yul\":3545:3557   */\n      dup3\n      and\n      dup1\n        /* \"#utility.yul\":3566:3627   */\n      tag_345\n      jumpi\n        /* \"#utility.yul\":3620:3624   */\n      0x7f\n        /* \"#utility.yul\":3612:3618   */\n      dup3\n        /* \"#utility.yul\":3608:3625   */\n      and\n        /* \"#utility.yul\":3598:3625   */\n      swap2\n      pop\n        /* \"#utility.yul\":3566:3627   */\n    tag_345:\n        /* \"#utility.yul\":3673:3675   */\n      0x20\n        /* \"#utility.yul\":3665:3671   */\n      dup3\n        /* \"#utility.yul\":3662:3676   */\n      lt\n        /* \"#utility.yul\":3642:3660   */\n      dup2\n        /* \"#utility.yul\":3639:3677   */\n      sub\n        /* \"#utility.yul\":3636:3797   */\n      tag_346\n      jumpi\n        /* \"#utility.yul\":3719:3729   */\n      0x4e487b71\n        /* \"#utility.yul\":3714:3717   */\n      0xe0\n        /* \"#utility.yul\":3710:3730   */\n      shl\n        /* \"#utility.yul\":3707:3708   */\n      0x00\n        /* \"#utility.yul\":3700:3731   */\n      mstore\n        /* \"#utility.yul\":3754:3758   */\n      0x22\n        /* \"#utility.yul\":3751:3752   */\n      0x04\n        /* \"#utility.yul\":3744:3759   */\n      mstore\n        /* \"#utility.yul\":3782:3786   */\n      0x24\n        /* \"#utility.yul\":3779:3780   */\n      0x00\n        /* \"#utility.yul\":3772:3787   */\n      revert\n        /* \"#utility.yul\":3636:3797   */\n    tag_346:\n      pop\n        /* \"#utility.yul\":3423:3803   */\n      swap2\n      swap1\n      pop\n      jump\t// out\n        /* \"#utility.yul\":5219:5346   */\n    tag_312:\n        /* \"#utility.yul\":5280:5290   */\n      0x4e487b71\n        /* \"#utility.yul\":5275:5278   */\n      0xe0\n        /* \"#utility.yul\":5271:5291   */\n      shl\n        /* \"#utility.yul\":5268:5269   */\n      0x00\n        /* \"#utility.yul\":5261:5292   */\n      mstore\n        /* \"#utility.yul\":5311:5315   */\n      0x11\n        /* \"#utility.yul\":5308:5309   */\n      0x04\n        /* \"#utility.yul\":5301:5316   */\n      mstore\n        /* \"#utility.yul\":5335:5339   */\n      0x24\n        /* \"#utility.yul\":5332:5333   */\n      0x00\n        /* \"#utility.yul\":5325:5340   */\n      revert\n        /* \"#utility.yul\":5351:5519   */\n    tag_145:\n        /* \"#utility.yul\":5424:5433   */\n      dup1\n      dup3\n      mul\n        /* \"#utility.yul\":5455:5464   */\n      dup2\n      iszero\n        /* \"#utility.yul\":5472:5487   */\n      dup3\n      dup3\n      div\n        /* \"#utility.yul\":5466:5488   */\n      dup5\n      eq\n        /* \"#utility.yul\":5452:5489   */\n      or\n        /* \"#utility.yul\":5442:5513   */\n      tag_120\n      jumpi\n        /* \"#utility.yul\":5493:5511   */\n      tag_120\n      tag_312\n      jump\t// in\n        /* \"#utility.yul\":5524:5741   */\n    tag_147:\n        /* \"#utility.yul\":5564:5565   */\n      0x00\n        /* \"#utility.yul\":5590:5591   */\n      dup3\n        /* \"#utility.yul\":5580:5712   */\n      tag_356\n      jumpi\n        /* \"#utility.yul\":5634:5644   */\n      0x4e487b71\n        /* \"#utility.yul\":5629:5632   */\n      0xe0\n        /* \"#utility.yul\":5625:5645   */\n      shl\n        /* \"#utility.yul\":5622:5623   */\n      0x00\n        /* \"#utility.yul\":5615:5646   */\n      mstore\n        /* \"#utility.yul\":5669:5673   */\n      0x12\n        /* \"#utility.yul\":5666:5667   */\n      0x04\n        /* \"#utility.yul\":5659:5674   */\n      mstore\n        /* \"#utility.yul\":5697:5701   */\n      0x24\n        /* \"#utility.yul\":5694:5695   */\n      0x00\n        /* \"#utility.yul\":5687:5702   */\n      revert\n        /* \"#utility.yul\":5580:5712   */\n    tag_356:\n      pop\n        /* \"#utility.yul\":5726:5735   */\n      div\n      swap1\n        /* \"#utility.yul\":5524:5741   */\n      jump\t// out\n        /* \"#utility.yul\":5746:5871   */\n    tag_159:\n        /* \"#utility.yul\":5811:5820   */\n      dup1\n      dup3\n      add\n        /* \"#utility.yul\":5832:5842   */\n      dup1\n      dup3\n      gt\n        /* \"#utility.yul\":5829:5865   */\n      iszero\n      tag_120\n      jumpi\n        /* \"#utility.yul\":5845:5863   */\n      tag_120\n      tag_312\n      jump\t// in\n        /* \"#utility.yul\":11206:11451   */\n    tag_276:\n        /* \"#utility.yul\":11273:11279   */\n      0x00\n        /* \"#utility.yul\":11326:11328   */\n      0x20\n        /* \"#utility.yul\":11314:11323   */\n      dup3\n        /* \"#utility.yul\":11305:11312   */\n      dup5\n        /* \"#utility.yul\":11301:11324   */\n      sub\n        /* \"#utility.yul\":11297:11329   */\n      slt\n        /* \"#utility.yul\":11294:11346   */\n      iszero\n      tag_375\n      jumpi\n        /* \"#utility.yul\":11342:11343   */\n      0x00\n        /* \"#utility.yul\":11339:11340   */\n      0x00\n        /* \"#utility.yul\":11332:11344   */\n      revert\n        /* \"#utility.yul\":11294:11346   */\n    tag_375:\n        /* \"#utility.yul\":11374:11383   */\n      dup2\n        /* \"#utility.yul\":11368:11384   */\n      mload\n        /* \"#utility.yul\":11393:11421   */\n      tag_332\n        /* \"#utility.yul\":11415:11420   */\n      dup2\n        /* \"#utility.yul\":11393:11421   */\n      tag_311\n      jump\t// in\n        /* \"#utility.yul\":12274:12575   */\n    tag_288:\n        /* \"#utility.yul\":12403:12406   */\n      0x00\n        /* \"#utility.yul\":12441:12447   */\n      dup3\n        /* \"#utility.yul\":12435:12448   */\n      mload\n        /* \"#utility.yul\":12487:12493   */\n      dup1\n        /* \"#utility.yul\":12480:12484   */\n      0x20\n        /* \"#utility.yul\":12472:12478   */\n      dup6\n        /* \"#utility.yul\":12468:12485   */\n      add\n        /* \"#utility.yul\":12463:12466   */\n      dup5\n        /* \"#utility.yul\":12457:12494   */\n      mcopy\n        /* \"#utility.yul\":12549:12550   */\n      0x00\n        /* \"#utility.yul\":12513:12529   */\n      swap3\n      add\n        /* \"#utility.yul\":12538:12551   */\n      swap2\n      dup3\n      mstore\n      pop\n        /* \"#utility.yul\":12513:12529   */\n      swap2\n        /* \"#utility.yul\":12274:12575   */\n      swap1\n      pop\n      jump\t// out\n\n    auxdata: 0xa264697066735822122006e586570c1c06a9fe2011c94ab30d4de4ce6e3b579667b95f1a270f0e93ea8d64736f6c634300081c0033\n}\n",
				"bytecode": {
					"linkReferences": {},
					"object": "60c060405234801561000f575f5ffd5b5060405161172c38038061172c83398101604081905261002e916101fa565b8181600361003c8382610304565b5060046100498282610304565b50506001600555506001600160a01b0384166100ac5760405162461bcd60e51b815260206004820152601b60248201527f5745544820616464726573732063616e6e6f74206265207a65726f000000000060448201526064015b60405180910390fd5b6001600160a01b0383166101105760405162461bcd60e51b815260206004820152602560248201527f46756e6420706f7274666f6c696f20616464726573732063616e6e6f74206265604482015264207a65726f60d81b60648201526084016100a3565b50506001600160a01b039182166080521660a052335f908152600660205260409020805460ff191660011790556103be565b80516001600160a01b0381168114610158575f5ffd5b919050565b634e487b7160e01b5f52604160045260245ffd5b5f82601f830112610180575f5ffd5b81516001600160401b038111156101995761019961015d565b604051601f8201601f19908116603f011681016001600160401b03811182821017156101c7576101c761015d565b6040528181528382016020018510156101de575f5ffd5b8160208501602083015e5f918101602001919091529392505050565b5f5f5f5f6080858703121561020d575f5ffd5b61021685610142565b935061022460208601610142565b60408601519093506001600160401b0381111561023f575f5ffd5b61024b87828801610171565b606087015190935090506001600160401b03811115610268575f5ffd5b61027487828801610171565b91505092959194509250565b600181811c9082168061029457607f821691505b6020821081036102b257634e487b7160e01b5f52602260045260245ffd5b50919050565b601f8211156102ff57805f5260205f20601f840160051c810160208510156102dd5750805b601f840160051c820191505b818110156102fc575f81556001016102e9565b50505b505050565b81516001600160401b0381111561031d5761031d61015d565b6103318161032b8454610280565b846102b8565b6020601f821160018114610363575f831561034c5750848201515b5f19600385901b1c1916600184901b1784556102fc565b5f84815260208120601f198516915b828110156103925787850151825560209485019460019092019101610372565b50848210156103af57868401515f19600387901b60f8161c191681555b50505050600190811b01905550565b60805160a0516113386103f45f395f81816102bb01526107c801525f81816101e00152818161077101526107a601526113385ff3fe608060405234801561000f575f5ffd5b5060043610610127575f3560e01c80634b0bddd2116100a9578063a457c2d71161006e578063a457c2d714610290578063a9059cbb146102a3578063aa4d1655146102b6578063b6b55f25146102dd578063dd62ed3e146102f0575f5ffd5b80634b0bddd21461023c57806370a082311461024f57806373acb5901461027757806395d89b411461028057806399530b0614610288575f5ffd5b80632e1a7d4d116100ef5780632e1a7d4d146101a6578063313ce567146101b957806339509351146101c85780633fc8cef3146101db578063429b62e51461021a575f5ffd5b806306fdde031461012b57806308867db614610149578063095ea7b31461015e57806318160ddd1461018157806323b872dd14610193575b5f5ffd5b610133610303565b60405161014091906110e0565b60405180910390f35b61015c610157366004611115565b610393565b005b61017161016c366004611147565b610439565b6040519015158152602001610140565b6002545b604051908152602001610140565b6101716101a136600461116f565b610452565b61015c6101b4366004611115565b610475565b60405160128152602001610140565b6101716101d6366004611147565b610596565b6102027f000000000000000000000000000000000000000000000000000000000000000081565b6040516001600160a01b039091168152602001610140565b6101716102283660046111a9565b60066020525f908152604090205460ff1681565b61015c61024a3660046111d6565b6105b7565b61018561025d3660046111a9565b6001600160a01b03165f9081526020819052604090205490565b61018560075481565b61013361062e565b61018561063d565b61017161029e366004611147565b610686565b6101716102b1366004611147565b610700565b6102027f000000000000000000000000000000000000000000000000000000000000000081565b61015c6102eb366004611115565b61070d565b6101856102fe36600461120b565b610841565b6060600380546103129061123c565b80601f016020809104026020016040519081016040528092919081815260200182805461033e9061123c565b80156103895780601f1061036057610100808354040283529160200191610389565b820191905f5260205f20905b81548152906001019060200180831161036c57829003601f168201915b5050505050905090565b335f9081526006602052604090205460ff166103e55760405162461bcd60e51b815260206004820152600c60248201526b2737ba1030b71030b236b4b760a11b60448201526064015b60405180910390fd5b5f81116104345760405162461bcd60e51b815260206004820181905260248201527f506f7274666f6c696f2076616c7565206d75737420626520706f73697469766560448201526064016103dc565b600755565b5f3361044681858561086b565b60019150505b92915050565b5f3361045f85828561098f565b61046a858585610a07565b506001949350505050565b61047d610ba9565b5f81116104cc5760405162461bcd60e51b815260206004820181905260248201527f536861726573206d7573742062652067726561746572207468616e207a65726f60448201526064016103dc565b335f908152602081905260409020548111156105205760405162461bcd60e51b8152602060048201526013602482015272496e73756666696369656e742073686172657360681b60448201526064016103dc565b5f61052a60025490565b90505f816007548461053c9190611288565b610546919061129f565b90506105523384610c02565b60405181815233907f9345a8a944c0bca27038313dd8066210a495ba6374e523065a2e7adcc020ff2b9060200160405180910390a250506105936001600555565b50565b5f336104468185856105a88383610841565b6105b291906112be565b61086b565b335f9081526006602052604090205460ff166106045760405162461bcd60e51b815260206004820152600c60248201526b2737ba1030b71030b236b4b760a11b60448201526064016103dc565b6001600160a01b03919091165f908152600660205260409020805460ff1916911515919091179055565b6060600480546103129061123c565b5f5f61064860025490565b905080156106765780600754670de0b6b3a76400006106679190611288565b610671919061129f565b610680565b670de0b6b3a76400005b91505090565b5f33816106938286610841565b9050838110156106f35760405162461bcd60e51b815260206004820152602560248201527f45524332303a2064656372656173656420616c6c6f77616e63652062656c6f77604482015264207a65726f60d81b60648201526084016103dc565b61046a828686840361086b565b5f33610446818585610a07565b610715610ba9565b5f81116107645760405162461bcd60e51b815260206004820181905260248201527f416d6f756e74206d7573742062652067726561746572207468616e207a65726f60448201526064016103dc565b6107996001600160a01b037f000000000000000000000000000000000000000000000000000000000000000016333084610d2f565b6107ed6001600160a01b037f0000000000000000000000000000000000000000000000000000000000000000167f000000000000000000000000000000000000000000000000000000000000000083610d9a565b5f6107f760025490565b90505f8115806108075750600754155b610827576007546108188385611288565b610822919061129f565b610829565b825b90506108353382610dca565b50506105936001600555565b6001600160a01b039182165f90815260016020908152604080832093909416825291909152205490565b6001600160a01b0383166108cd5760405162461bcd60e51b8152602060048201526024808201527f45524332303a20617070726f76652066726f6d20746865207a65726f206164646044820152637265737360e01b60648201526084016103dc565b6001600160a01b03821661092e5760405162461bcd60e51b815260206004820152602260248201527f45524332303a20617070726f766520746f20746865207a65726f206164647265604482015261737360f01b60648201526084016103dc565b6001600160a01b038381165f8181526001602090815260408083209487168084529482529182902085905590518481527f8c5be1e5ebec7d5bd14f71427d1e84f3dd0314c0f7b2291e5b200ac8c7c3b92591015b60405180910390a3505050565b5f61099a8484610841565b90505f198114610a0157818110156109f45760405162461bcd60e51b815260206004820152601d60248201527f45524332303a20696e73756666696369656e7420616c6c6f77616e636500000060448201526064016103dc565b610a01848484840361086b565b50505050565b6001600160a01b038316610a6b5760405162461bcd60e51b815260206004820152602560248201527f45524332303a207472616e736665722066726f6d20746865207a65726f206164604482015264647265737360d81b60648201526084016103dc565b6001600160a01b038216610acd5760405162461bcd60e51b815260206004820152602360248201527f45524332303a207472616e7366657220746f20746865207a65726f206164647260448201526265737360e81b60648201526084016103dc565b6001600160a01b0383165f9081526020819052604090205481811015610b445760405162461bcd60e51b815260206004820152602660248201527f45524332303a207472616e7366657220616d6f756e7420657863656564732062604482015265616c616e636560d01b60648201526084016103dc565b6001600160a01b038481165f81815260208181526040808320878703905593871680835291849020805487019055925185815290927fddf252ad1be2c89b69c2b068fc378daa952ba7f163c4a11628f55a4df523b3ef910160405180910390a3610a01565b600260055403610bfb5760405162461bcd60e51b815260206004820152601f60248201527f5265656e7472616e637947756172643a207265656e7472616e742063616c6c0060448201526064016103dc565b6002600555565b6001600160a01b038216610c625760405162461bcd60e51b815260206004820152602160248201527f45524332303a206275726e2066726f6d20746865207a65726f206164647265736044820152607360f81b60648201526084016103dc565b6001600160a01b0382165f9081526020819052604090205481811015610cd55760405162461bcd60e51b815260206004820152602260248201527f45524332303a206275726e20616d6f756e7420657863656564732062616c616e604482015261636560f01b60648201526084016103dc565b6001600160a01b0383165f818152602081815260408083208686039055600280548790039055518581529192917fddf252ad1be2c89b69c2b068fc378daa952ba7f163c4a11628f55a4df523b3ef9101610982565b505050565b6040516001600160a01b0380851660248301528316604482015260648101829052610a019085906323b872dd60e01b906084015b60408051601f198184030181529190526020810180516001600160e01b03166001600160e01b031990931692909217909152610e87565b6040516001600160a01b038316602482015260448101829052610d2a90849063a9059cbb60e01b90606401610d63565b6001600160a01b038216610e205760405162461bcd60e51b815260206004820152601f60248201527f45524332303a206d696e7420746f20746865207a65726f20616464726573730060448201526064016103dc565b8060025f828254610e3191906112be565b90915550506001600160a01b0382165f81815260208181526040808320805486019055518481527fddf252ad1be2c89b69c2b068fc378daa952ba7f163c4a11628f55a4df523b3ef910160405180910390a35050565b5f610edb826040518060400160405280602081526020017f5361666545524332303a206c6f772d6c6576656c2063616c6c206661696c6564815250856001600160a01b0316610f5a9092919063ffffffff16565b905080515f1480610efb575080806020019051810190610efb91906112d1565b610d2a5760405162461bcd60e51b815260206004820152602a60248201527f5361666545524332303a204552433230206f7065726174696f6e20646964206e6044820152691bdd081cdd58d8d9595960b21b60648201526084016103dc565b6060610f6884845f85610f70565b949350505050565b606082471015610fd15760405162461bcd60e51b815260206004820152602660248201527f416464726573733a20696e73756666696369656e742062616c616e636520666f6044820152651c8818d85b1b60d21b60648201526084016103dc565b5f5f866001600160a01b03168587604051610fec91906112ec565b5f6040518083038185875af1925050503d805f8114611026576040519150601f19603f3d011682016040523d82523d5f602084013e61102b565b606091505b509150915061103c87838387611047565b979650505050505050565b606083156110b55782515f036110ae576001600160a01b0385163b6110ae5760405162461bcd60e51b815260206004820152601d60248201527f416464726573733a2063616c6c20746f206e6f6e2d636f6e747261637400000060448201526064016103dc565b5081610f68565b610f6883838151156110ca5781518083602001fd5b8060405162461bcd60e51b81526004016103dc91905b602081525f82518060208401528060208501604085015e5f604082850101526040601f19601f83011684010191505092915050565b5f60208284031215611125575f5ffd5b5035919050565b80356001600160a01b0381168114611142575f5ffd5b919050565b5f5f60408385031215611158575f5ffd5b6111618361112c565b946020939093013593505050565b5f5f5f60608486031215611181575f5ffd5b61118a8461112c565b92506111986020850161112c565b929592945050506040919091013590565b5f602082840312156111b9575f5ffd5b6111c28261112c565b9392505050565b8015158114610593575f5ffd5b5f5f604083850312156111e7575f5ffd5b6111f08361112c565b91506020830135611200816111c9565b809150509250929050565b5f5f6040838503121561121c575f5ffd5b6112258361112c565b91506112336020840161112c565b90509250929050565b600181811c9082168061125057607f821691505b60208210810361126e57634e487b7160e01b5f52602260045260245ffd5b50919050565b634e487b7160e01b5f52601160045260245ffd5b808202811582820484141761044c5761044c611274565b5f826112b957634e487b7160e01b5f52601260045260245ffd5b500490565b8082018082111561044c5761044c611274565b5f602082840312156112e1575f5ffd5b81516111c2816111c9565b5f82518060208501845e5f92019182525091905056fea264697066735822122006e586570c1c06a9fe2011c94ab30d4de4ce6e3b579667b95f1a270f0e93ea8d64736f6c634300081c0033",
					"opcodes": "PUSH1 0xC0 PUSH1 0x40 MSTORE CALLVALUE DUP1 ISZERO PUSH2 0xF JUMPI PUSH0 PUSH0 REVERT JUMPDEST POP PUSH1 0x40 MLOAD PUSH2 0x172C CODESIZE SUB DUP1 PUSH2 0x172C DUP4 CODECOPY DUP2 ADD PUSH1 0x40 DUP2 SWAP1 MSTORE PUSH2 0x2E SWAP2 PUSH2 0x1FA JUMP JUMPDEST DUP2 DUP2 PUSH1 0x3 PUSH2 0x3C DUP4 DUP3 PUSH2 0x304 JUMP JUMPDEST POP PUSH1 0x4 PUSH2 0x49 DUP3 DUP3 PUSH2 0x304 JUMP JUMPDEST POP POP PUSH1 0x1 PUSH1 0x5 SSTORE POP PUSH1 0x1 PUSH1 0x1 PUSH1 0xA0 SHL SUB DUP5 AND PUSH2 0xAC JUMPI PUSH1 0x40 MLOAD PUSH3 0x461BCD PUSH1 0xE5 SHL DUP2 MSTORE PUSH1 0x20 PUSH1 0x4 DUP3 ADD MSTORE PUSH1 0x1B PUSH1 0x24 DUP3 ADD MSTORE PUSH32 0x5745544820616464726573732063616E6E6F74206265207A65726F0000000000 PUSH1 0x44 DUP3 ADD MSTORE PUSH1 0x64 ADD JUMPDEST PUSH1 0x40 MLOAD DUP1 SWAP2 SUB SWAP1 REVERT JUMPDEST PUSH1 0x1 PUSH1 0x1 PUSH1 0xA0 SHL SUB DUP4 AND PUSH2 0x110 JUMPI PUSH1 0x40 MLOAD PUSH3 0x461BCD PUSH1 0xE5 SHL DUP2 MSTORE PUSH1 0x20 PUSH1 0x4 DUP3 ADD MSTORE PUSH1 0x25 PUSH1 0x24 DUP3 ADD MSTORE PUSH32 0x46756E6420706F7274666F6C696F20616464726573732063616E6E6F74206265 PUSH1 0x44 DUP3 ADD MSTORE PUSH5 0x207A65726F PUSH1 0xD8 SHL PUSH1 0x64 DUP3 ADD MSTORE PUSH1 0x84 ADD PUSH2 0xA3 JUMP JUMPDEST POP POP PUSH1 0x1 PUSH1 0x1 PUSH1 0xA0 SHL SUB SWAP2 DUP3 AND PUSH1 0x80 MSTORE AND PUSH1 0xA0 MSTORE CALLER PUSH0 SWAP1 DUP2 MSTORE PUSH1 0x6 PUSH1 0x20 MSTORE PUSH1 0x40 SWAP1 KECCAK256 DUP1 SLOAD PUSH1 0xFF NOT AND PUSH1 0x1 OR SWAP1 SSTORE PUSH2 0x3BE JUMP JUMPDEST DUP1 MLOAD PUSH1 0x1 PUSH1 0x1 PUSH1 0xA0 SHL SUB DUP2 AND DUP2 EQ PUSH2 0x158 JUMPI PUSH0 PUSH0 REVERT JUMPDEST SWAP2 SWAP1 POP JUMP JUMPDEST PUSH4 0x4E487B71 PUSH1 0xE0 SHL PUSH0 MSTORE PUSH1 0x41 PUSH1 0x4 MSTORE PUSH1 0x24 PUSH0 REVERT JUMPDEST PUSH0 DUP3 PUSH1 0x1F DUP4 ADD SLT PUSH2 0x180 JUMPI PUSH0 PUSH0 REVERT JUMPDEST DUP2 MLOAD PUSH1 0x1 PUSH1 0x1 PUSH1 0x40 SHL SUB DUP2 GT ISZERO PUSH2 0x199 JUMPI PUSH2 0x199 PUSH2 0x15D JUMP JUMPDEST PUSH1 0x40 MLOAD PUSH1 0x1F DUP3 ADD PUSH1 0x1F NOT SWAP1 DUP2 AND PUSH1 0x3F ADD AND DUP2 ADD PUSH1 0x1 PUSH1 0x1 PUSH1 0x40 SHL SUB DUP2 GT DUP3 DUP3 LT OR ISZERO PUSH2 0x1C7 JUMPI PUSH2 0x1C7 PUSH2 0x15D JUMP JUMPDEST PUSH1 0x40 MSTORE DUP2 DUP2 MSTORE DUP4 DUP3 ADD PUSH1 0x20 ADD DUP6 LT ISZERO PUSH2 0x1DE JUMPI PUSH0 PUSH0 REVERT JUMPDEST DUP2 PUSH1 0x20 DUP6 ADD PUSH1 0x20 DUP4 ADD MCOPY PUSH0 SWAP2 DUP2 ADD PUSH1 0x20 ADD SWAP2 SWAP1 SWAP2 MSTORE SWAP4 SWAP3 POP POP POP JUMP JUMPDEST PUSH0 PUSH0 PUSH0 PUSH0 PUSH1 0x80 DUP6 DUP8 SUB SLT ISZERO PUSH2 0x20D JUMPI PUSH0 PUSH0 REVERT JUMPDEST PUSH2 0x216 DUP6 PUSH2 0x142 JUMP JUMPDEST SWAP4 POP PUSH2 0x224 PUSH1 0x20 DUP7 ADD PUSH2 0x142 JUMP JUMPDEST PUSH1 0x40 DUP7 ADD MLOAD SWAP1 SWAP4 POP PUSH1 0x1 PUSH1 0x1 PUSH1 0x40 SHL SUB DUP2 GT ISZERO PUSH2 0x23F JUMPI PUSH0 PUSH0 REVERT JUMPDEST PUSH2 0x24B DUP8 DUP3 DUP9 ADD PUSH2 0x171 JUMP JUMPDEST PUSH1 0x60 DUP8 ADD MLOAD SWAP1 SWAP4 POP SWAP1 POP PUSH1 0x1 PUSH1 0x1 PUSH1 0x40 SHL SUB DUP2 GT ISZERO PUSH2 0x268 JUMPI PUSH0 PUSH0 REVERT JUMPDEST PUSH2 0x274 DUP8 DUP3 DUP9 ADD PUSH2 0x171 JUMP JUMPDEST SWAP2 POP POP SWAP3 SWAP6 SWAP2 SWAP5 POP SWAP3 POP JUMP JUMPDEST PUSH1 0x1 DUP2 DUP2 SHR SWAP1 DUP3 AND DUP1 PUSH2 0x294 JUMPI PUSH1 0x7F DUP3 AND SWAP2 POP JUMPDEST PUSH1 0x20 DUP3 LT DUP2 SUB PUSH2 0x2B2 JUMPI PUSH4 0x4E487B71 PUSH1 0xE0 SHL PUSH0 MSTORE PUSH1 0x22 PUSH1 0x4 MSTORE PUSH1 0x24 PUSH0 REVERT JUMPDEST POP SWAP2 SWAP1 POP JUMP JUMPDEST PUSH1 0x1F DUP3 GT ISZERO PUSH2 0x2FF JUMPI DUP1 PUSH0 MSTORE PUSH1 0x20 PUSH0 KECCAK256 PUSH1 0x1F DUP5 ADD PUSH1 0x5 SHR DUP2 ADD PUSH1 0x20 DUP6 LT ISZERO PUSH2 0x2DD JUMPI POP DUP1 JUMPDEST PUSH1 0x1F DUP5 ADD PUSH1 0x5 SHR DUP3 ADD SWAP2 POP JUMPDEST DUP2 DUP2 LT ISZERO PUSH2 0x2FC JUMPI PUSH0 DUP2 SSTORE PUSH1 0x1 ADD PUSH2 0x2E9 JUMP JUMPDEST POP POP JUMPDEST POP POP POP JUMP JUMPDEST DUP2 MLOAD PUSH1 0x1 PUSH1 0x1 PUSH1 0x40 SHL SUB DUP2 GT ISZERO PUSH2 0x31D JUMPI PUSH2 0x31D PUSH2 0x15D JUMP JUMPDEST PUSH2 0x331 DUP2 PUSH2 0x32B DUP5 SLOAD PUSH2 0x280 JUMP JUMPDEST DUP5 PUSH2 0x2B8 JUMP JUMPDEST PUSH1 0x20 PUSH1 0x1F DUP3 GT PUSH1 0x1 DUP2 EQ PUSH2 0x363 JUMPI PUSH0 DUP4 ISZERO PUSH2 0x34C JUMPI POP DUP5 DUP3 ADD MLOAD JUMPDEST PUSH0 NOT PUSH1 0x3 DUP6 SWAP1 SHL SHR NOT AND PUSH1 0x1 DUP5 SWAP1 SHL OR DUP5 SSTORE PUSH2 0x2FC JUMP JUMPDEST PUSH0 DUP5 DUP2 MSTORE PUSH1 0x20 DUP2 KECCAK256 PUSH1 0x1F NOT DUP6 AND SWAP2 JUMPDEST DUP3 DUP2 LT ISZERO PUSH2 0x392 JUMPI DUP8 DUP6 ADD MLOAD DUP3 SSTORE PUSH1 0x20 SWAP5 DUP6 ADD SWAP5 PUSH1 0x1 SWAP1 SWAP3 ADD SWAP2 ADD PUSH2 0x372 JUMP JUMPDEST POP DUP5 DUP3 LT ISZERO PUSH2 0x3AF JUMPI DUP7 DUP5 ADD MLOAD PUSH0 NOT PUSH1 0x3 DUP8 SWAP1 SHL PUSH1 0xF8 AND SHR NOT AND DUP2 SSTORE JUMPDEST POP POP POP POP PUSH1 0x1 SWAP1 DUP2 SHL ADD SWAP1 SSTORE POP JUMP JUMPDEST PUSH1 0x80 MLOAD PUSH1 0xA0 MLOAD PUSH2 0x1338 PUSH2 0x3F4 PUSH0 CODECOPY PUSH0 DUP2 DUP2 PUSH2 0x2BB ADD MSTORE PUSH2 0x7C8 ADD MSTORE PUSH0 DUP2 DUP2 PUSH2 0x1E0 ADD MSTORE DUP2 DUP2 PUSH2 0x771 ADD MSTORE PUSH2 0x7A6 ADD MSTORE PUSH2 0x1338 PUSH0 RETURN INVALID PUSH1 0x80 PUSH1 0x40 MSTORE CALLVALUE DUP1 ISZERO PUSH2 0xF JUMPI PUSH0 PUSH0 REVERT JUMPDEST POP PUSH1 0x4 CALLDATASIZE LT PUSH2 0x127 JUMPI PUSH0 CALLDATALOAD PUSH1 0xE0 SHR DUP1 PUSH4 0x4B0BDDD2 GT PUSH2 0xA9 JUMPI DUP1 PUSH4 0xA457C2D7 GT PUSH2 0x6E JUMPI DUP1 PUSH4 0xA457C2D7 EQ PUSH2 0x290 JUMPI DUP1 PUSH4 0xA9059CBB EQ PUSH2 0x2A3 JUMPI DUP1 PUSH4 0xAA4D1655 EQ PUSH2 0x2B6 JUMPI DUP1 PUSH4 0xB6B55F25 EQ PUSH2 0x2DD JUMPI DUP1 PUSH4 0xDD62ED3E EQ PUSH2 0x2F0 JUMPI PUSH0 PUSH0 REVERT JUMPDEST DUP1 PUSH4 0x4B0BDDD2 EQ PUSH2 0x23C JUMPI DUP1 PUSH4 0x70A08231 EQ PUSH2 0x24F JUMPI DUP1 PUSH4 0x73ACB590 EQ PUSH2 0x277 JUMPI DUP1 PUSH4 0x95D89B41 EQ PUSH2 0x280 JUMPI DUP1 PUSH4 0x99530B06 EQ PUSH2 0x288 JUMPI PUSH0 PUSH0 REVERT JUMPDEST DUP1 PUSH4 0x2E1A7D4D GT PUSH2 0xEF JUMPI DUP1 PUSH4 0x2E1A7D4D EQ PUSH2 0x1A6 JUMPI DUP1 PUSH4 0x313CE567 EQ PUSH2 0x1B9 JUMPI DUP1 PUSH4 0x39509351 EQ PUSH2 0x1C8 JUMPI DUP1 PUSH4 0x3FC8CEF3 EQ PUSH2 0x1DB JUMPI DUP1 PUSH4 0x429B62E5 EQ PUSH2 0x21A JUMPI PUSH0 PUSH0 REVERT JUMPDEST DUP1 PUSH4 0x6FDDE03 EQ PUSH2 0x12B JUMPI DUP1 PUSH4 0x8867DB6 EQ PUSH2 0x149 JUMPI DUP1 PUSH4 0x95EA7B3 EQ PUSH2 0x15E JUMPI DUP1 PUSH4 0x18160DDD EQ PUSH2 0x181 JUMPI DUP1 PUSH4 0x23B872DD EQ PUSH2 0x193 JUMPI JUMPDEST PUSH0 PUSH0 REVERT JUMPDEST PUSH2 0x133 PUSH2 0x303 JUMP JUMPDEST PUSH1 0x40 MLOAD PUSH2 0x140 SWAP2 SWAP1 PUSH2 0x10E0 JUMP JUMPDEST PUSH1 0x40 MLOAD DUP1 SWAP2 SUB SWAP1 RETURN JUMPDEST PUSH2 0x15C PUSH2 0x157 CALLDATASIZE PUSH1 0x4 PUSH2 0x1115 JUMP JUMPDEST PUSH2 0x393 JUMP JUMPDEST STOP JUMPDEST PUSH2 0x171 PUSH2 0x16C CALLDATASIZE PUSH1 0x4 PUSH2 0x1147 JUMP JUMPDEST PUSH2 0x439 JUMP JUMPDEST PUSH1 0x40 MLOAD SWAP1 ISZERO ISZERO DUP2 MSTORE PUSH1 0x20 ADD PUSH2 0x140 JUMP JUMPDEST PUSH1 0x2 SLOAD JUMPDEST PUSH1 0x40 MLOAD SWAP1 DUP2 MSTORE PUSH1 0x20 ADD PUSH2 0x140 JUMP JUMPDEST PUSH2 0x171 PUSH2 0x1A1 CALLDATASIZE PUSH1 0x4 PUSH2 0x116F JUMP JUMPDEST PUSH2 0x452 JUMP JUMPDEST PUSH2 0x15C PUSH2 0x1B4 CALLDATASIZE PUSH1 0x4 PUSH2 0x1115 JUMP JUMPDEST PUSH2 0x475 JUMP JUMPDEST PUSH1 0x40 MLOAD PUSH1 0x12 DUP2 MSTORE PUSH1 0x20 ADD PUSH2 0x140 JUMP JUMPDEST PUSH2 0x171 PUSH2 0x1D6 CALLDATASIZE PUSH1 0x4 PUSH2 0x1147 JUMP JUMPDEST PUSH2 0x596 JUMP JUMPDEST PUSH2 0x202 PUSH32 0x0 DUP2 JUMP JUMPDEST PUSH1 0x40 MLOAD PUSH1 0x1 PUSH1 0x1 PUSH1 0xA0 SHL SUB SWAP1 SWAP2 AND DUP2 MSTORE PUSH1 0x20 ADD PUSH2 0x140 JUMP JUMPDEST PUSH2 0x171 PUSH2 0x228 CALLDATASIZE PUSH1 0x4 PUSH2 0x11A9 JUMP JUMPDEST PUSH1 0x6 PUSH1 0x20 MSTORE PUSH0 SWAP1 DUP2 MSTORE PUSH1 0x40 SWAP1 KECCAK256 SLOAD PUSH1 0xFF AND DUP2 JUMP JUMPDEST PUSH2 0x15C PUSH2 0x24A CALLDATASIZE PUSH1 0x4 PUSH2 0x11D6 JUMP JUMPDEST PUSH2 0x5B7 JUMP JUMPDEST PUSH2 0x185 PUSH2 0x25D CALLDATASIZE PUSH1 0x4 PUSH2 0x11A9 JUMP JUMPDEST PUSH1 0x1 PUSH1 0x1 PUSH1 0xA0 SHL SUB AND PUSH0 SWAP1 DUP2 MSTORE PUSH1 0x20 DUP2 SWAP1 MSTORE PUSH1 0x40 SWAP1 KECCAK256 SLOAD SWAP1 JUMP JUMPDEST PUSH2 0x185 PUSH1 0x7 SLOAD DUP2 JUMP JUMPDEST PUSH2 0x133 PUSH2 0x62E JUMP JUMPDEST PUSH2 0x185 PUSH2 0x63D JUMP JUMPDEST PUSH2 0x171 PUSH2 0x29E CALLDATASIZE PUSH1 0x4 PUSH2 0x1147 JUMP JUMPDEST PUSH2 0x686 JUMP JUMPDEST PUSH2 0x171 PUSH2 0x2B1 CALLDATASIZE PUSH1 0x4 PUSH2 0x1147 JUMP JUMPDEST PUSH2 0x700 JUMP JUMPDEST PUSH2 0x202 PUSH32 0x0 DUP2 JUMP JUMPDEST PUSH2 0x15C PUSH2 0x2EB CALLDATASIZE PUSH1 0x4 PUSH2 0x1115 JUMP JUMPDEST PUSH2 0x70D JUMP JUMPDEST PUSH2 0x185 PUSH2 0x2FE CALLDATASIZE PUSH1 0x4 PUSH2 0x120B JUMP JUMPDEST PUSH2 0x841 JUMP JUMPDEST PUSH1 0x60 PUSH1 0x3 DUP1 SLOAD PUSH2 0x312 SWAP1 PUSH2 0x123C JUMP JUMPDEST DUP1 PUSH1 0x1F ADD PUSH1 0x20 DUP1 SWAP2 DIV MUL PUSH1 0x20 ADD PUSH1 0x40 MLOAD SWAP1 DUP2 ADD PUSH1 0x40 MSTORE DUP1 SWAP3 SWAP2 SWAP1 DUP2 DUP2 MSTORE PUSH1 0x20 ADD DUP3 DUP1 SLOAD PUSH2 0x33E SWAP1 PUSH2 0x123C JUMP JUMPDEST DUP1 ISZERO PUSH2 0x389 JUMPI DUP1 PUSH1 0x1F LT PUSH2 0x360 JUMPI PUSH2 0x100 DUP1 DUP4 SLOAD DIV MUL DUP4 MSTORE SWAP2 PUSH1 0x20 ADD SWAP2 PUSH2 0x389 JUMP JUMPDEST DUP3 ADD SWAP2 SWAP1 PUSH0 MSTORE PUSH1 0x20 PUSH0 KECCAK256 SWAP1 JUMPDEST DUP2 SLOAD DUP2 MSTORE SWAP1 PUSH1 0x1 ADD SWAP1 PUSH1 0x20 ADD DUP1 DUP4 GT PUSH2 0x36C JUMPI DUP3 SWAP1 SUB PUSH1 0x1F AND DUP3 ADD SWAP2 JUMPDEST POP POP POP POP POP SWAP1 POP SWAP1 JUMP JUMPDEST CALLER PUSH0 SWAP1 DUP2 MSTORE PUSH1 0x6 PUSH1 0x20 MSTORE PUSH1 0x40 SWAP1 KECCAK256 SLOAD PUSH1 0xFF AND PUSH2 0x3E5 JUMPI PUSH1 0x40 MLOAD PUSH3 0x461BCD PUSH1 0xE5 SHL DUP2 MSTORE PUSH1 0x20 PUSH1 0x4 DUP3 ADD MSTORE PUSH1 0xC PUSH1 0x24 DUP3 ADD MSTORE PUSH12 0x2737BA1030B71030B236B4B7 PUSH1 0xA1 SHL PUSH1 0x44 DUP3 ADD MSTORE PUSH1 0x64 ADD JUMPDEST PUSH1 0x40 MLOAD DUP1 SWAP2 SUB SWAP1 REVERT JUMPDEST PUSH0 DUP2 GT PUSH2 0x434 JUMPI PUSH1 0x40 MLOAD PUSH3 0x461BCD PUSH1 0xE5 SHL DUP2 MSTORE PUSH1 0x20 PUSH1 0x4 DUP3 ADD DUP2 SWAP1 MSTORE PUSH1 0x24 DUP3 ADD MSTORE PUSH32 0x506F7274666F6C696F2076616C7565206D75737420626520706F736974697665 PUSH1 0x44 DUP3 ADD MSTORE PUSH1 0x64 ADD PUSH2 0x3DC JUMP JUMPDEST PUSH1 0x7 SSTORE JUMP JUMPDEST PUSH0 CALLER PUSH2 0x446 DUP2 DUP6 DUP6 PUSH2 0x86B JUMP JUMPDEST PUSH1 0x1 SWAP2 POP POP JUMPDEST SWAP3 SWAP2 POP POP JUMP JUMPDEST PUSH0 CALLER PUSH2 0x45F DUP6 DUP3 DUP6 PUSH2 0x98F JUMP JUMPDEST PUSH2 0x46A DUP6 DUP6 DUP6 PUSH2 0xA07 JUMP JUMPDEST POP PUSH1 0x1 SWAP5 SWAP4 POP POP POP POP JUMP JUMPDEST PUSH2 0x47D PUSH2 0xBA9 JUMP JUMPDEST PUSH0 DUP2 GT PUSH2 0x4CC JUMPI PUSH1 0x40 MLOAD PUSH3 0x461BCD PUSH1 0xE5 SHL DUP2 MSTORE PUSH1 0x20 PUSH1 0x4 DUP3 ADD DUP2 SWAP1 MSTORE PUSH1 0x24 DUP3 ADD MSTORE PUSH32 0x536861726573206D7573742062652067726561746572207468616E207A65726F PUSH1 0x44 DUP3 ADD MSTORE PUSH1 0x64 ADD PUSH2 0x3DC JUMP JUMPDEST CALLER PUSH0 SWAP1 DUP2 MSTORE PUSH1 0x20 DUP2 SWAP1 MSTORE PUSH1 0x40 SWAP1 KECCAK256 SLOAD DUP2 GT ISZERO PUSH2 0x520 JUMPI PUSH1 0x40 MLOAD PUSH3 0x461BCD PUSH1 0xE5 SHL DUP2 MSTORE PUSH1 0x20 PUSH1 0x4 DUP3 ADD MSTORE PUSH1 0x13 PUSH1 0x24 DUP3 ADD MSTORE PUSH19 0x496E73756666696369656E7420736861726573 PUSH1 0x68 SHL PUSH1 0x44 DUP3 ADD MSTORE PUSH1 0x64 ADD PUSH2 0x3DC JUMP JUMPDEST PUSH0 PUSH2 0x52A PUSH1 0x2 SLOAD SWAP1 JUMP JUMPDEST SWAP1 POP PUSH0 DUP2 PUSH1 0x7 SLOAD DUP5 PUSH2 0x53C SWAP2 SWAP1 PUSH2 0x1288 JUMP JUMPDEST PUSH2 0x546 SWAP2 SWAP1 PUSH2 0x129F JUMP JUMPDEST SWAP1 POP PUSH2 0x552 CALLER DUP5 PUSH2 0xC02 JUMP JUMPDEST PUSH1 0x40 MLOAD DUP2 DUP2 MSTORE CALLER SWAP1 PUSH32 0x9345A8A944C0BCA27038313DD8066210A495BA6374E523065A2E7ADCC020FF2B SWAP1 PUSH1 0x20 ADD PUSH1 0x40 MLOAD DUP1 SWAP2 SUB SWAP1 LOG2 POP POP PUSH2 0x593 PUSH1 0x1 PUSH1 0x5 SSTORE JUMP JUMPDEST POP JUMP JUMPDEST PUSH0 CALLER PUSH2 0x446 DUP2 DUP6 DUP6 PUSH2 0x5A8 DUP4 DUP4 PUSH2 0x841 JUMP JUMPDEST PUSH2 0x5B2 SWAP2 SWAP1 PUSH2 0x12BE JUMP JUMPDEST PUSH2 0x86B JUMP JUMPDEST CALLER PUSH0 SWAP1 DUP2 MSTORE PUSH1 0x6 PUSH1 0x20 MSTORE PUSH1 0x40 SWAP1 KECCAK256 SLOAD PUSH1 0xFF AND PUSH2 0x604 JUMPI PUSH1 0x40 MLOAD PUSH3 0x461BCD PUSH1 0xE5 SHL DUP2 MSTORE PUSH1 0x20 PUSH1 0x4 DUP3 ADD MSTORE PUSH1 0xC PUSH1 0x24 DUP3 ADD MSTORE PUSH12 0x2737BA1030B71030B236B4B7 PUSH1 0xA1 SHL PUSH1 0x44 DUP3 ADD MSTORE PUSH1 0x64 ADD PUSH2 0x3DC JUMP JUMPDEST PUSH1 0x1 PUSH1 0x1 PUSH1 0xA0 SHL SUB SWAP2 SWAP1 SWAP2 AND PUSH0 SWAP1 DUP2 MSTORE PUSH1 0x6 PUSH1 0x20 MSTORE PUSH1 0x40 SWAP1 KECCAK256 DUP1 SLOAD PUSH1 0xFF NOT AND SWAP2 ISZERO ISZERO SWAP2 SWAP1 SWAP2 OR SWAP1 SSTORE JUMP JUMPDEST PUSH1 0x60 PUSH1 0x4 DUP1 SLOAD PUSH2 0x312 SWAP1 PUSH2 0x123C JUMP JUMPDEST PUSH0 PUSH0 PUSH2 0x648 PUSH1 0x2 SLOAD SWAP1 JUMP JUMPDEST SWAP1 POP DUP1 ISZERO PUSH2 0x676 JUMPI DUP1 PUSH1 0x7 SLOAD PUSH8 0xDE0B6B3A7640000 PUSH2 0x667 SWAP2 SWAP1 PUSH2 0x1288 JUMP JUMPDEST PUSH2 0x671 SWAP2 SWAP1 PUSH2 0x129F JUMP JUMPDEST PUSH2 0x680 JUMP JUMPDEST PUSH8 0xDE0B6B3A7640000 JUMPDEST SWAP2 POP POP SWAP1 JUMP JUMPDEST PUSH0 CALLER DUP2 PUSH2 0x693 DUP3 DUP7 PUSH2 0x841 JUMP JUMPDEST SWAP1 POP DUP4 DUP2 LT ISZERO PUSH2 0x6F3 JUMPI PUSH1 0x40 MLOAD PUSH3 0x461BCD PUSH1 0xE5 SHL DUP2 MSTORE PUSH1 0x20 PUSH1 0x4 DUP3 ADD MSTORE PUSH1 0x25 PUSH1 0x24 DUP3 ADD MSTORE PUSH32 0x45524332303A2064656372656173656420616C6C6F77616E63652062656C6F77 PUSH1 0x44 DUP3 ADD MSTORE PUSH5 0x207A65726F PUSH1 0xD8 SHL PUSH1 0x64 DUP3 ADD MSTORE PUSH1 0x84 ADD PUSH2 0x3DC JUMP JUMPDEST PUSH2 0x46A DUP3 DUP7 DUP7 DUP5 SUB PUSH2 0x86B JUMP JUMPDEST PUSH0 CALLER PUSH2 0x446 DUP2 DUP6 DUP6 PUSH2 0xA07 JUMP JUMPDEST PUSH2 0x715 PUSH2 0xBA9 JUMP JUMPDEST PUSH0 DUP2 GT PUSH2 0x764 JUMPI PUSH1 0x40 MLOAD PUSH3 0x461BCD PUSH1 0xE5 SHL DUP2 MSTORE PUSH1 0x20 PUSH1 0x4 DUP3 ADD DUP2 SWAP1 MSTORE PUSH1 0x24 DUP3 ADD MSTORE PUSH32 0x416D6F756E74206D7573742062652067726561746572207468616E207A65726F PUSH1 0x44 DUP3 ADD MSTORE PUSH1 0x64 ADD PUSH2 0x3DC JUMP JUMPDEST PUSH2 0x799 PUSH1 0x1 PUSH1 0x1 PUSH1 0xA0 SHL SUB PUSH32 0x0 AND CALLER ADDRESS DUP5 PUSH2 0xD2F JUMP JUMPDEST PUSH2 0x7ED PUSH1 0x1 PUSH1 0x1 PUSH1 0xA0 SHL SUB PUSH32 0x0 AND PUSH32 0x0 DUP4 PUSH2 0xD9A JUMP JUMPDEST PUSH0 PUSH2 0x7F7 PUSH1 0x2 SLOAD SWAP1 JUMP JUMPDEST SWAP1 POP PUSH0 DUP2 ISZERO DUP1 PUSH2 0x807 JUMPI POP PUSH1 0x7 SLOAD ISZERO JUMPDEST PUSH2 0x827 JUMPI PUSH1 0x7 SLOAD PUSH2 0x818 DUP4 DUP6 PUSH2 0x1288 JUMP JUMPDEST PUSH2 0x822 SWAP2 SWAP1 PUSH2 0x129F JUMP JUMPDEST PUSH2 0x829 JUMP JUMPDEST DUP3 JUMPDEST SWAP1 POP PUSH2 0x835 CALLER DUP3 PUSH2 0xDCA JUMP JUMPDEST POP POP PUSH2 0x593 PUSH1 0x1 PUSH1 0x5 SSTORE JUMP JUMPDEST PUSH1 0x1 PUSH1 0x1 PUSH1 0xA0 SHL SUB SWAP2 DUP3 AND PUSH0 SWAP1 DUP2 MSTORE PUSH1 0x1 PUSH1 0x20 SWAP1 DUP2 MSTORE PUSH1 0x40 DUP1 DUP4 KECCAK256 SWAP4 SWAP1 SWAP5 AND DUP3 MSTORE SWAP2 SWAP1 SWAP2 MSTORE KECCAK256 SLOAD SWAP1 JUMP JUMPDEST PUSH1 0x1 PUSH1 0x1 PUSH1 0xA0 SHL SUB DUP4 AND PUSH2 0x8CD JUMPI PUSH1 0x40 MLOAD PUSH3 0x461BCD PUSH1 0xE5 SHL DUP2 MSTORE PUSH1 0x20 PUSH1 0x4 DUP3 ADD MSTORE PUSH1 0x24 DUP1 DUP3 ADD MSTORE PUSH32 0x45524332303A20617070726F76652066726F6D20746865207A65726F20616464 PUSH1 0x44 DUP3 ADD MSTORE PUSH4 0x72657373 PUSH1 0xE0 SHL PUSH1 0x64 DUP3 ADD MSTORE PUSH1 0x84 ADD PUSH2 0x3DC JUMP JUMPDEST PUSH1 0x1 PUSH1 0x1 PUSH1 0xA0 SHL SUB DUP3 AND PUSH2 0x92E JUMPI PUSH1 0x40 MLOAD PUSH3 0x461BCD PUSH1 0xE5 SHL DUP2 MSTORE PUSH1 0x20 PUSH1 0x4 DUP3 ADD MSTORE PUSH1 0x22 PUSH1 0x24 DUP3 ADD MSTORE PUSH32 0x45524332303A20617070726F766520746F20746865207A65726F206164647265 PUSH1 0x44 DUP3 ADD MSTORE PUSH2 0x7373 PUSH1 0xF0 SHL PUSH1 0x64 DUP3 ADD MSTORE PUSH1 0x84 ADD PUSH2 0x3DC JUMP JUMPDEST PUSH1 0x1 PUSH1 0x1 PUSH1 0xA0 SHL SUB DUP4 DUP2 AND PUSH0 DUP2 DUP2 MSTORE PUSH1 0x1 PUSH1 0x20 SWAP1 DUP2 MSTORE PUSH1 0x40 DUP1 DUP4 KECCAK256 SWAP5 DUP8 AND DUP1 DUP5 MSTORE SWAP5 DUP3 MSTORE SWAP2 DUP3 SWAP1 KECCAK256 DUP6 SWAP1 SSTORE SWAP1 MLOAD DUP5 DUP2 MSTORE PUSH32 0x8C5BE1E5EBEC7D5BD14F71427D1E84F3DD0314C0F7B2291E5B200AC8C7C3B925 SWAP2 ADD JUMPDEST PUSH1 0x40 MLOAD DUP1 SWAP2 SUB SWAP1 LOG3 POP POP POP JUMP JUMPDEST PUSH0 PUSH2 0x99A DUP5 DUP5 PUSH2 0x841 JUMP JUMPDEST SWAP1 POP PUSH0 NOT DUP2 EQ PUSH2 0xA01 JUMPI DUP2 DUP2 LT ISZERO PUSH2 0x9F4 JUMPI PUSH1 0x40 MLOAD PUSH3 0x461BCD PUSH1 0xE5 SHL DUP2 MSTORE PUSH1 0x20 PUSH1 0x4 DUP3 ADD MSTORE PUSH1 0x1D PUSH1 0x24 DUP3 ADD MSTORE PUSH32 0x45524332303A20696E73756666696369656E7420616C6C6F77616E6365000000 PUSH1 0x44 DUP3 ADD MSTORE PUSH1 0x64 ADD PUSH2 0x3DC JUMP JUMPDEST PUSH2 0xA01 DUP5 DUP5 DUP5 DUP5 SUB PUSH2 0x86B JUMP JUMPDEST POP POP POP POP JUMP JUMPDEST PUSH1 0x1 PUSH1 0x1 PUSH1 0xA0 SHL SUB DUP4 AND PUSH2 0xA6B JUMPI PUSH1 0x40 MLOAD PUSH3 0x461BCD PUSH1 0xE5 SHL DUP2 MSTORE PUSH1 0x20 PUSH1 0x4 DUP3 ADD MSTORE PUSH1 0x25 PUSH1 0x24 DUP3 ADD MSTORE PUSH32 0x45524332303A207472616E736665722066726F6D20746865207A65726F206164 PUSH1 0x44 DUP3 ADD MSTORE PUSH5 0x6472657373 PUSH1 0xD8 SHL PUSH1 0x64 DUP3 ADD MSTORE PUSH1 0x84 ADD PUSH2 0x3DC JUMP JUMPDEST PUSH1 0x1 PUSH1 0x1 PUSH1 0xA0 SHL SUB DUP3 AND PUSH2 0xACD JUMPI PUSH1 0x40 MLOAD PUSH3 0x461BCD PUSH1 0xE5 SHL DUP2 MSTORE PUSH1 0x20 PUSH1 0x4 DUP3 ADD MSTORE PUSH1 0x23 PUSH1 0x24 DUP3 ADD MSTORE PUSH32 0x45524332303A207472616E7366657220746F20746865207A65726F2061646472 PUSH1 0x44 DUP3 ADD MSTORE PUSH3 0x657373 PUSH1 0xE8 SHL PUSH1 0x64 DUP3 ADD MSTORE PUSH1 0x84 ADD PUSH2 0x3DC JUMP JUMPDEST PUSH1 0x1 PUSH1 0x1 PUSH1 0xA0 SHL SUB DUP4 AND PUSH0 SWAP1 DUP2 MSTORE PUSH1 0x20 DUP2 SWAP1 MSTORE PUSH1 0x40 SWAP1 KECCAK256 SLOAD DUP2 DUP2 LT ISZERO PUSH2 0xB44 JUMPI PUSH1 0x40 MLOAD PUSH3 0x461BCD PUSH1 0xE5 SHL DUP2 MSTORE PUSH1 0x20 PUSH1 0x4 DUP3 ADD MSTORE PUSH1 0x26 PUSH1 0x24 DUP3 ADD MSTORE PUSH32 0x45524332303A207472616E7366657220616D6F756E7420657863656564732062 PUSH1 0x44 DUP3 ADD MSTORE PUSH6 0x616C616E6365 PUSH1 0xD0 SHL PUSH1 0x64 DUP3 ADD MSTORE PUSH1 0x84 ADD PUSH2 0x3DC JUMP JUMPDEST PUSH1 0x1 PUSH1 0x1 PUSH1 0xA0 SHL SUB DUP5 DUP2 AND PUSH0 DUP2 DUP2 MSTORE PUSH1 0x20 DUP2 DUP2 MSTORE PUSH1 0x40 DUP1 DUP4 KECCAK256 DUP8 DUP8 SUB SWAP1 SSTORE SWAP4 DUP8 AND DUP1 DUP4 MSTORE SWAP2 DUP5 SWAP1 KECCAK256 DUP1 SLOAD DUP8 ADD SWAP1 SSTORE SWAP3 MLOAD DUP6 DUP2 MSTORE SWAP1 SWAP3 PUSH32 0xDDF252AD1BE2C89B69C2B068FC378DAA952BA7F163C4A11628F55A4DF523B3EF SWAP2 ADD PUSH1 0x40 MLOAD DUP1 SWAP2 SUB SWAP1 LOG3 PUSH2 0xA01 JUMP JUMPDEST PUSH1 0x2 PUSH1 0x5 SLOAD SUB PUSH2 0xBFB JUMPI PUSH1 0x40 MLOAD PUSH3 0x461BCD PUSH1 0xE5 SHL DUP2 MSTORE PUSH1 0x20 PUSH1 0x4 DUP3 ADD MSTORE PUSH1 0x1F PUSH1 0x24 DUP3 ADD MSTORE PUSH32 0x5265656E7472616E637947756172643A207265656E7472616E742063616C6C00 PUSH1 0x44 DUP3 ADD MSTORE PUSH1 0x64 ADD PUSH2 0x3DC JUMP JUMPDEST PUSH1 0x2 PUSH1 0x5 SSTORE JUMP JUMPDEST PUSH1 0x1 PUSH1 0x1 PUSH1 0xA0 SHL SUB DUP3 AND PUSH2 0xC62 JUMPI PUSH1 0x40 MLOAD PUSH3 0x461BCD PUSH1 0xE5 SHL DUP2 MSTORE PUSH1 0x20 PUSH1 0x4 DUP3 ADD MSTORE PUSH1 0x21 PUSH1 0x24 DUP3 ADD MSTORE PUSH32 0x45524332303A206275726E2066726F6D20746865207A65726F20616464726573 PUSH1 0x44 DUP3 ADD MSTORE PUSH1 0x73 PUSH1 0xF8 SHL PUSH1 0x64 DUP3 ADD MSTORE PUSH1 0x84 ADD PUSH2 0x3DC JUMP JUMPDEST PUSH1 0x1 PUSH1 0x1 PUSH1 0xA0 SHL SUB DUP3 AND PUSH0 SWAP1 DUP2 MSTORE PUSH1 0x20 DUP2 SWAP1 MSTORE PUSH1 0x40 SWAP1 KECCAK256 SLOAD DUP2 DUP2 LT ISZERO PUSH2 0xCD5 JUMPI PUSH1 0x40 MLOAD PUSH3 0x461BCD PUSH1 0xE5 SHL DUP2 MSTORE PUSH1 0x20 PUSH1 0x4 DUP3 ADD MSTORE PUSH1 0x22 PUSH1 0x24 DUP3 ADD MSTORE PUSH32 0x45524332303A206275726E20616D6F756E7420657863656564732062616C616E PUSH1 0x44 DUP3 ADD MSTORE PUSH2 0x6365 PUSH1 0xF0 SHL PUSH1 0x64 DUP3 ADD MSTORE PUSH1 0x84 ADD PUSH2 0x3DC JUMP JUMPDEST PUSH1 0x1 PUSH1 0x1 PUSH1 0xA0 SHL SUB DUP4 AND PUSH0 DUP2 DUP2 MSTORE PUSH1 0x20 DUP2 DUP2 MSTORE PUSH1 0x40 DUP1 DUP4 KECCAK256 DUP7 DUP7 SUB SWAP1 SSTORE PUSH1 0x2 DUP1 SLOAD DUP8 SWAP1 SUB SWAP1 SSTORE MLOAD DUP6 DUP2 MSTORE SWAP2 SWAP3 SWAP2 PUSH32 0xDDF252AD1BE2C89B69C2B068FC378DAA952BA7F163C4A11628F55A4DF523B3EF SWAP2 ADD PUSH2 0x982 JUMP JUMPDEST POP POP POP JUMP JUMPDEST PUSH1 0x40 MLOAD PUSH1 0x1 PUSH1 0x1 PUSH1 0xA0 SHL SUB DUP1 DUP6 AND PUSH1 0x24 DUP4 ADD MSTORE DUP4 AND PUSH1 0x44 DUP3 ADD MSTORE PUSH1 0x64 DUP2 ADD DUP3 SWAP1 MSTORE PUSH2 0xA01 SWAP1 DUP6 SWAP1 PUSH4 0x23B872DD PUSH1 0xE0 SHL SWAP1 PUSH1 0x84 ADD JUMPDEST PUSH1 0x40 DUP1 MLOAD PUSH1 0x1F NOT DUP2 DUP5 SUB ADD DUP2 MSTORE SWAP2 SWAP1 MSTORE PUSH1 0x20 DUP2 ADD DUP1 MLOAD PUSH1 0x1 PUSH1 0x1 PUSH1 0xE0 SHL SUB AND PUSH1 0x1 PUSH1 0x1 PUSH1 0xE0 SHL SUB NOT SWAP1 SWAP4 AND SWAP3 SWAP1 SWAP3 OR SWAP1 SWAP2 MSTORE PUSH2 0xE87 JUMP JUMPDEST PUSH1 0x40 MLOAD PUSH1 0x1 PUSH1 0x1 PUSH1 0xA0 SHL SUB DUP4 AND PUSH1 0x24 DUP3 ADD MSTORE PUSH1 0x44 DUP2 ADD DUP3 SWAP1 MSTORE PUSH2 0xD2A SWAP1 DUP5 SWAP1 PUSH4 0xA9059CBB PUSH1 0xE0 SHL SWAP1 PUSH1 0x64 ADD PUSH2 0xD63 JUMP JUMPDEST PUSH1 0x1 PUSH1 0x1 PUSH1 0xA0 SHL SUB DUP3 AND PUSH2 0xE20 JUMPI PUSH1 0x40 MLOAD PUSH3 0x461BCD PUSH1 0xE5 SHL DUP2 MSTORE PUSH1 0x20 PUSH1 0x4 DUP3 ADD MSTORE PUSH1 0x1F PUSH1 0x24 DUP3 ADD MSTORE PUSH32 0x45524332303A206D696E7420746F20746865207A65726F206164647265737300 PUSH1 0x44 DUP3 ADD MSTORE PUSH1 0x64 ADD PUSH2 0x3DC JUMP JUMPDEST DUP1 PUSH1 0x2 PUSH0 DUP3 DUP3 SLOAD PUSH2 0xE31 SWAP2 SWAP1 PUSH2 0x12BE JUMP JUMPDEST SWAP1 SWAP2 SSTORE POP POP PUSH1 0x1 PUSH1 0x1 PUSH1 0xA0 SHL SUB DUP3 AND PUSH0 DUP2 DUP2 MSTORE PUSH1 0x20 DUP2 DUP2 MSTORE PUSH1 0x40 DUP1 DUP4 KECCAK256 DUP1 SLOAD DUP7 ADD SWAP1 SSTORE MLOAD DUP5 DUP2 MSTORE PUSH32 0xDDF252AD1BE2C89B69C2B068FC378DAA952BA7F163C4A11628F55A4DF523B3EF SWAP2 ADD PUSH1 0x40 MLOAD DUP1 SWAP2 SUB SWAP1 LOG3 POP POP JUMP JUMPDEST PUSH0 PUSH2 0xEDB DUP3 PUSH1 0x40 MLOAD DUP1 PUSH1 0x40 ADD PUSH1 0x40 MSTORE DUP1 PUSH1 0x20 DUP2 MSTORE PUSH1 0x20 ADD PUSH32 0x5361666545524332303A206C6F772D6C6576656C2063616C6C206661696C6564 DUP2 MSTORE POP DUP6 PUSH1 0x1 PUSH1 0x1 PUSH1 0xA0 SHL SUB AND PUSH2 0xF5A SWAP1 SWAP3 SWAP2 SWAP1 PUSH4 0xFFFFFFFF AND JUMP JUMPDEST SWAP1 POP DUP1 MLOAD PUSH0 EQ DUP1 PUSH2 0xEFB JUMPI POP DUP1 DUP1 PUSH1 0x20 ADD SWAP1 MLOAD DUP2 ADD SWAP1 PUSH2 0xEFB SWAP2 SWAP1 PUSH2 0x12D1 JUMP JUMPDEST PUSH2 0xD2A JUMPI PUSH1 0x40 MLOAD PUSH3 0x461BCD PUSH1 0xE5 SHL DUP2 MSTORE PUSH1 0x20 PUSH1 0x4 DUP3 ADD MSTORE PUSH1 0x2A PUSH1 0x24 DUP3 ADD MSTORE PUSH32 0x5361666545524332303A204552433230206F7065726174696F6E20646964206E PUSH1 0x44 DUP3 ADD MSTORE PUSH10 0x1BDD081CDD58D8D95959 PUSH1 0xB2 SHL PUSH1 0x64 DUP3 ADD MSTORE PUSH1 0x84 ADD PUSH2 0x3DC JUMP JUMPDEST PUSH1 0x60 PUSH2 0xF68 DUP5 DUP5 PUSH0 DUP6 PUSH2 0xF70 JUMP JUMPDEST SWAP5 SWAP4 POP POP POP POP JUMP JUMPDEST PUSH1 0x60 DUP3 SELFBALANCE LT ISZERO PUSH2 0xFD1 JUMPI PUSH1 0x40 MLOAD PUSH3 0x461BCD PUSH1 0xE5 SHL DUP2 MSTORE PUSH1 0x20 PUSH1 0x4 DUP3 ADD MSTORE PUSH1 0x26 PUSH1 0x24 DUP3 ADD MSTORE PUSH32 0x416464726573733A20696E73756666696369656E742062616C616E636520666F PUSH1 0x44 DUP3 ADD MSTORE PUSH6 0x1C8818D85B1B PUSH1 0xD2 SHL PUSH1 0x64 DUP3 ADD MSTORE PUSH1 0x84 ADD PUSH2 0x3DC JUMP JUMPDEST PUSH0 PUSH0 DUP7 PUSH1 0x1 PUSH1 0x1 PUSH1 0xA0 SHL SUB AND DUP6 DUP8 PUSH1 0x40 MLOAD PUSH2 0xFEC SWAP2 SWAP1 PUSH2 0x12EC JUMP JUMPDEST PUSH0 PUSH1 0x40 MLOAD DUP1 DUP4 SUB DUP2 DUP6 DUP8 GAS CALL SWAP3 POP POP POP RETURNDATASIZE DUP1 PUSH0 DUP2 EQ PUSH2 0x1026 JUMPI PUSH1 0x40 MLOAD SWAP2 POP PUSH1 0x1F NOT PUSH1 0x3F RETURNDATASIZE ADD AND DUP3 ADD PUSH1 0x40 MSTORE RETURNDATASIZE DUP3 MSTORE RETURNDATASIZE PUSH0 PUSH1 0x20 DUP5 ADD RETURNDATACOPY PUSH2 0x102B JUMP JUMPDEST PUSH1 0x60 SWAP2 POP JUMPDEST POP SWAP2 POP SWAP2 POP PUSH2 0x103C DUP8 DUP4 DUP4 DUP8 PUSH2 0x1047 JUMP JUMPDEST SWAP8 SWAP7 POP POP POP POP POP POP POP JUMP JUMPDEST PUSH1 0x60 DUP4 ISZERO PUSH2 0x10B5 JUMPI DUP3 MLOAD PUSH0 SUB PUSH2 0x10AE JUMPI PUSH1 0x1 PUSH1 0x1 PUSH1 0xA0 SHL SUB DUP6 AND EXTCODESIZE PUSH2 0x10AE JUMPI PUSH1 0x40 MLOAD PUSH3 0x461BCD PUSH1 0xE5 SHL DUP2 MSTORE PUSH1 0x20 PUSH1 0x4 DUP3 ADD MSTORE PUSH1 0x1D PUSH1 0x24 DUP3 ADD MSTORE PUSH32 0x416464726573733A2063616C6C20746F206E6F6E2D636F6E7472616374000000 PUSH1 0x44 DUP3 ADD MSTORE PUSH1 0x64 ADD PUSH2 0x3DC JUMP JUMPDEST POP DUP2 PUSH2 0xF68 JUMP JUMPDEST PUSH2 0xF68 DUP4 DUP4 DUP2 MLOAD ISZERO PUSH2 0x10CA JUMPI DUP2 MLOAD DUP1 DUP4 PUSH1 0x20 ADD REVERT JUMPDEST DUP1 PUSH1 0x40 MLOAD PUSH3 0x461BCD PUSH1 0xE5 SHL DUP2 MSTORE PUSH1 0x4 ADD PUSH2 0x3DC SWAP2 SWAP1 JUMPDEST PUSH1 0x20 DUP2 MSTORE PUSH0 DUP3 MLOAD DUP1 PUSH1 0x20 DUP5 ADD MSTORE DUP1 PUSH1 0x20 DUP6 ADD PUSH1 0x40 DUP6 ADD MCOPY PUSH0 PUSH1 0x40 DUP3 DUP6 ADD ADD MSTORE PUSH1 0x40 PUSH1 0x1F NOT PUSH1 0x1F DUP4 ADD AND DUP5 ADD ADD SWAP2 POP POP SWAP3 SWAP2 POP POP JUMP JUMPDEST PUSH0 PUSH1 0x20 DUP3 DUP5 SUB SLT ISZERO PUSH2 0x1125 JUMPI PUSH0 PUSH0 REVERT JUMPDEST POP CALLDATALOAD SWAP2 SWAP1 POP JUMP JUMPDEST DUP1 CALLDATALOAD PUSH1 0x1 PUSH1 0x1 PUSH1 0xA0 SHL SUB DUP2 AND DUP2 EQ PUSH2 0x1142 JUMPI PUSH0 PUSH0 REVERT JUMPDEST SWAP2 SWAP1 POP JUMP JUMPDEST PUSH0 PUSH0 PUSH1 0x40 DUP4 DUP6 SUB SLT ISZERO PUSH2 0x1158 JUMPI PUSH0 PUSH0 REVERT JUMPDEST PUSH2 0x1161 DUP4 PUSH2 0x112C JUMP JUMPDEST SWAP5 PUSH1 0x20 SWAP4 SWAP1 SWAP4 ADD CALLDATALOAD SWAP4 POP POP POP JUMP JUMPDEST PUSH0 PUSH0 PUSH0 PUSH1 0x60 DUP5 DUP7 SUB SLT ISZERO PUSH2 0x1181 JUMPI PUSH0 PUSH0 REVERT JUMPDEST PUSH2 0x118A DUP5 PUSH2 0x112C JUMP JUMPDEST SWAP3 POP PUSH2 0x1198 PUSH1 0x20 DUP6 ADD PUSH2 0x112C JUMP JUMPDEST SWAP3 SWAP6 SWAP3 SWAP5 POP POP POP PUSH1 0x40 SWAP2 SWAP1 SWAP2 ADD CALLDATALOAD SWAP1 JUMP JUMPDEST PUSH0 PUSH1 0x20 DUP3 DUP5 SUB SLT ISZERO PUSH2 0x11B9 JUMPI PUSH0 PUSH0 REVERT JUMPDEST PUSH2 0x11C2 DUP3 PUSH2 0x112C JUMP JUMPDEST SWAP4 SWAP3 POP POP POP JUMP JUMPDEST DUP1 ISZERO ISZERO DUP2 EQ PUSH2 0x593 JUMPI PUSH0 PUSH0 REVERT JUMPDEST PUSH0 PUSH0 PUSH1 0x40 DUP4 DUP6 SUB SLT ISZERO PUSH2 0x11E7 JUMPI PUSH0 PUSH0 REVERT JUMPDEST PUSH2 0x11F0 DUP4 PUSH2 0x112C JUMP JUMPDEST SWAP2 POP PUSH1 0x20 DUP4 ADD CALLDATALOAD PUSH2 0x1200 DUP2 PUSH2 0x11C9 JUMP JUMPDEST DUP1 SWAP2 POP POP SWAP3 POP SWAP3 SWAP1 POP JUMP JUMPDEST PUSH0 PUSH0 PUSH1 0x40 DUP4 DUP6 SUB SLT ISZERO PUSH2 0x121C JUMPI PUSH0 PUSH0 REVERT JUMPDEST PUSH2 0x1225 DUP4 PUSH2 0x112C JUMP JUMPDEST SWAP2 POP PUSH2 0x1233 PUSH1 0x20 DUP5 ADD PUSH2 0x112C JUMP JUMPDEST SWAP1 POP SWAP3 POP SWAP3 SWAP1 POP JUMP JUMPDEST PUSH1 0x1 DUP2 DUP2 SHR SWAP1 DUP3 AND DUP1 PUSH2 0x1250 JUMPI PUSH1 0x7F DUP3 AND SWAP2 POP JUMPDEST PUSH1 0x20 DUP3 LT DUP2 SUB PUSH2 0x126E JUMPI PUSH4 0x4E487B71 PUSH1 0xE0 SHL PUSH0 MSTORE PUSH1 0x22 PUSH1 0x4 MSTORE PUSH1 0x24 PUSH0 REVERT JUMPDEST POP SWAP2 SWAP1 POP JUMP JUMPDEST PUSH4 0x4E487B71 PUSH1 0xE0 SHL PUSH0 MSTORE PUSH1 0x11 PUSH1 0x4 MSTORE PUSH1 0x24 PUSH0 REVERT JUMPDEST DUP1 DUP3 MUL DUP2 ISZERO DUP3 DUP3 DIV DUP5 EQ OR PUSH2 0x44C JUMPI PUSH2 0x44C PUSH2 0x1274 JUMP JUMPDEST PUSH0 DUP3 PUSH2 0x12B9 JUMPI PUSH4 0x4E487B71 PUSH1 0xE0 SHL PUSH0 MSTORE PUSH1 0x12 PUSH1 0x4 MSTORE PUSH1 0x24 PUSH0 REVERT JUMPDEST POP DIV SWAP1 JUMP JUMPDEST DUP1 DUP3 ADD DUP1 DUP3 GT ISZERO PUSH2 0x44C JUMPI PUSH2 0x44C PUSH2 0x1274 JUMP JUMPDEST PUSH0 PUSH1 0x20 DUP3 DUP5 SUB SLT ISZERO PUSH2 0x12E1 JUMPI PUSH0 PUSH0 REVERT JUMPDEST DUP2 MLOAD PUSH2 0x11C2 DUP2 PUSH2 0x11C9 JUMP JUMPDEST PUSH0 DUP3 MLOAD DUP1 PUSH1 0x20 DUP6 ADD DUP5 MCOPY PUSH0 SWAP3 ADD SWAP2 DUP3 MSTORE POP SWAP2 SWAP1 POP JUMP INVALID LOG2 PUSH5 0x6970667358 0x22 SLT KECCAK256 MOD 0xE5 DUP7 JUMPI 0xC SHR MOD 0xA9 INVALID KECCAK256 GT 0xC9 BLOBBASEFEE 0xB3 0xD 0x4D 0xE4 0xCE PUSH15 0x3B579667B95F1A270F0E93EA8D6473 PUSH16 0x6C634300081C00330000000000000000 "
				},
				"gasEstimates": {
					"creation": {
						"codeDepositCost": "984000",
						"executionCost": "infinite",
						"totalCost": "infinite"
					},
					"external": {
						"admins(address)": "2639",
						"allowance(address,address)": "infinite",
						"approve(address,uint256)": "24669",
						"balanceOf(address)": "2582",
						"decimals()": "221",
						"decreaseAllowance(address,uint256)": "26967",
						"deposit(uint256)": "infinite",
						"fundPortfolio()": "infinite",
						"increaseAllowance(address,uint256)": "infinite",
						"name()": "infinite",
						"portfolioValue()": "2361",
						"pricePerShare()": "4738",
						"setAdmin(address,bool)": "26932",
						"setPortfolioValue(uint256)": "24580",
						"symbol()": "infinite",
						"totalSupply()": "2370",
						"transfer(address,uint256)": "51088",
						"transferFrom(address,address,uint256)": "infinite",
						"weth()": "infinite",
						"withdraw(uint256)": "105194"
					}
				},
				"methodIdentifiers": {
					"admins(address)": "429b62e5",
					"allowance(address,address)": "dd62ed3e",
					"approve(address,uint256)": "095ea7b3",
					"balanceOf(address)": "70a08231",
					"decimals()": "313ce567",
					"decreaseAllowance(address,uint256)": "a457c2d7",
					"deposit(uint256)": "b6b55f25",
					"fundPortfolio()": "aa4d1655",
					"increaseAllowance(address,uint256)": "39509351",
					"name()": "06fdde03",
					"portfolioValue()": "73acb590",
					"pricePerShare()": "99530b06",
					"setAdmin(address,bool)": "4b0bddd2",
					"setPortfolioValue(uint256)": "08867db6",
					"symbol()": "95d89b41",
					"totalSupply()": "18160ddd",
					"transfer(address,uint256)": "a9059cbb",
					"transferFrom(address,address,uint256)": "23b872dd",
					"weth()": "3fc8cef3",
					"withdraw(uint256)": "2e1a7d4d"
				}
			},
			"storageLayout": {
				"storage": [
					{
						"astId": 355,
						"contract": "fund_shares.sol:WETHVault",
						"label": "_balances",
						"offset": 0,
						"slot": "0",
						"type": "t_mapping(t_address,t_uint256)"
					},
					{
						"astId": 361,
						"contract": "fund_shares.sol:WETHVault",
						"label": "_allowances",
						"offset": 0,
						"slot": "1",
						"type": "t_mapping(t_address,t_mapping(t_address,t_uint256))"
					},
					{
						"astId": 363,
						"contract": "fund_shares.sol:WETHVault",
						"label": "_totalSupply",
						"offset": 0,
						"slot": "2",
						"type": "t_uint256"
					},
					{
						"astId": 365,
						"contract": "fund_shares.sol:WETHVault",
						"label": "_name",
						"offset": 0,
						"slot": "3",
						"type": "t_string_storage"
					},
					{
						"astId": 367,
						"contract": "fund_shares.sol:WETHVault",
						"label": "_symbol",
						"offset": 0,
						"slot": "4",
						"type": "t_string_storage"
					},
					{
						"astId": 285,
						"contract": "fund_shares.sol:WETHVault",
						"label": "_status",
						"offset": 0,
						"slot": "5",
						"type": "t_uint256"
					},
					{
						"astId": 22,
						"contract": "fund_shares.sol:WETHVault",
						"label": "admins",
						"offset": 0,
						"slot": "6",
						"type": "t_mapping(t_address,t_bool)"
					},
					{
						"astId": 24,
						"contract": "fund_shares.sol:WETHVault",
						"label": "portfolioValue",
						"offset": 0,
						"slot": "7",
						"type": "t_uint256"
					}
				],
				"types": {
					"t_address": {
						"encoding": "inplace",
						"label": "address",
						"numberOfBytes": "20"
					},
					"t_bool": {
						"encoding": "inplace",
						"label": "bool",
						"numberOfBytes": "1"
					},
					"t_mapping(t_address,t_bool)": {
						"encoding": "mapping",
						"key": "t_address",
						"label": "mapping(address => bool)",
						"numberOfBytes": "32",
						"value": "t_bool"
					},
					"t_mapping(t_address,t_mapping(t_address,t_uint256))": {
						"encoding": "mapping",
						"key": "t_address",
						"label": "mapping(address => mapping(address => uint256))",
						"numberOfBytes": "32",
						"value": "t_mapping(t_address,t_uint256)"
					},
					"t_mapping(t_address,t_uint256)": {
						"encoding": "mapping",
						"key": "t_address",
						"label": "mapping(address => uint256)",
						"numberOfBytes": "32",
						"value": "t_uint256"
					},
					"t_string_storage": {
						"encoding": "bytes",
						"label": "string",
						"numberOfBytes": "32"
					},
					"t_uint256": {
						"encoding": "inplace",
						"label": "uint256",
						"numberOfBytes": "32"
					}
				}
			},
			"userdoc": {
				"kind": "user",
				"methods": {},
				"version": 1
			}
		}
	}
}